{
  "_format": "hh3-artifact-1",
  "contractName": "IdentityRegistry",
  "sourceName": "contracts/IdentityRegistry.sol",
  "abi": [
    {
      "inputs": [],
      "stateMutability": "nonpayable",
      "type": "constructor"
    },
    {
      "inputs": [],
      "name": "ECDSAInvalidSignature",
      "type": "error"
    },
    {
      "inputs": [
        {
          "internalType": "uint256",
          "name": "length",
          "type": "uint256"
        }
      ],
      "name": "ECDSAInvalidSignatureLength",
      "type": "error"
    },
    {
      "inputs": [
        {
          "internalType": "bytes32",
          "name": "s",
          "type": "bytes32"
        }
      ],
      "name": "ECDSAInvalidSignatureS",
      "type": "error"
    },
    {
      "inputs": [
        {
          "internalType": "address",
          "name": "sender",
          "type": "address"
        },
        {
          "internalType": "uint256",
          "name": "tokenId",
          "type": "uint256"
        },
        {
          "internalType": "address",
          "name": "owner",
          "type": "address"
        }
      ],
      "name": "ERC721IncorrectOwner",
      "type": "error"
    },
    {
      "inputs": [
        {
          "internalType": "address",
          "name": "operator",
          "type": "address"
        },
        {
          "internalType": "uint256",
          "name": "tokenId",
          "type": "uint256"
        }
      ],
      "name": "ERC721InsufficientApproval",
      "type": "error"
    },
    {
      "inputs": [
        {
          "internalType": "address",
          "name": "approver",
          "type": "address"
        }
      ],
      "name": "ERC721InvalidApprover",
      "type": "error"
    },
    {
      "inputs": [
        {
          "internalType": "address",
          "name": "operator",
          "type": "address"
        }
      ],
      "name": "ERC721InvalidOperator",
      "type": "error"
    },
    {
      "inputs": [
        {
          "internalType": "address",
          "name": "owner",
          "type": "address"
        }
      ],
      "name": "ERC721InvalidOwner",
      "type": "error"
    },
    {
      "inputs": [
        {
          "internalType": "address",
          "name": "receiver",
          "type": "address"
        }
      ],
      "name": "ERC721InvalidReceiver",
      "type": "error"
    },
    {
      "inputs": [
        {
          "internalType": "address",
          "name": "sender",
          "type": "address"
        }
      ],
      "name": "ERC721InvalidSender",
      "type": "error"
    },
    {
      "inputs": [
        {
          "internalType": "uint256",
          "name": "tokenId",
          "type": "uint256"
        }
      ],
      "name": "ERC721NonexistentToken",
      "type": "error"
    },
    {
      "inputs": [],
      "name": "FailedCall",
      "type": "error"
    },
    {
      "inputs": [
        {
          "internalType": "uint256",
          "name": "balance",
          "type": "uint256"
        },
        {
          "internalType": "uint256",
          "name": "needed",
          "type": "uint256"
        }
      ],
      "name": "InsufficientBalance",
      "type": "error"
    },
    {
      "inputs": [],
      "name": "InvalidShortString",
      "type": "error"
    },
    {
      "inputs": [
        {
          "internalType": "string",
          "name": "str",
          "type": "string"
        }
      ],
      "name": "StringTooLong",
      "type": "error"
    },
    {
      "anonymous": false,
      "inputs": [
        {
          "indexed": true,
          "internalType": "address",
          "name": "owner",
          "type": "address"
        },
        {
          "indexed": true,
          "internalType": "address",
          "name": "approved",
          "type": "address"
        },
        {
          "indexed": true,
          "internalType": "uint256",
          "name": "tokenId",
          "type": "uint256"
        }
      ],
      "name": "Approval",
      "type": "event"
    },
    {
      "anonymous": false,
      "inputs": [
        {
          "indexed": true,
          "internalType": "address",
          "name": "owner",
          "type": "address"
        },
        {
          "indexed": true,
          "internalType": "address",
          "name": "operator",
          "type": "address"
        },
        {
          "indexed": false,
          "internalType": "bool",
          "name": "approved",
          "type": "bool"
        }
      ],
      "name": "ApprovalForAll",
      "type": "event"
    },
    {
      "anonymous": false,
      "inputs": [
        {
          "indexed": false,
          "internalType": "uint256",
          "name": "_fromTokenId",
          "type": "uint256"
        },
        {
          "indexed": false,
          "internalType": "uint256",
          "name": "_toTokenId",
          "type": "uint256"
        }
      ],
      "name": "BatchMetadataUpdate",
      "type": "event"
    },
    {
      "anonymous": false,
      "inputs": [
        {
          "indexed": true,
          "internalType": "address",
          "name": "to",
          "type": "address"
        },
        {
          "indexed": true,
          "internalType": "uint256",
          "name": "sourceTokenId",
          "type": "uint256"
        },
        {
          "indexed": true,
          "internalType": "uint256",
          "name": "newTokenId",
          "type": "uint256"
        }
      ],
      "name": "Cloned",
      "type": "event"
    },
    {
      "anonymous": false,
      "inputs": [],
      "name": "EIP712DomainChanged",
      "type": "event"
    },
    {
      "anonymous": false,
      "inputs": [
        {
          "indexed": true,
          "internalType": "uint256",
          "name": "agentId",
          "type": "uint256"
        },
        {
          "indexed": false,
          "internalType": "uint256",
          "name": "feePerDay",
          "type": "uint256"
        }
      ],
      "name": "FeesSet",
      "type": "event"
    },
    {
      "anonymous": false,
      "inputs": [
        {
          "indexed": true,
          "internalType": "uint256",
          "name": "agentId",
          "type": "uint256"
        },
        {
          "indexed": true,
          "internalType": "string",
          "name": "indexedMetadataKey",
          "type": "string"
        },
        {
          "indexed": false,
          "internalType": "string",
          "name": "metadataKey",
          "type": "string"
        },
        {
          "indexed": false,
          "internalType": "bytes",
          "name": "metadataValue",
          "type": "bytes"
        }
      ],
      "name": "MetadataSet",
      "type": "event"
    },
    {
      "anonymous": false,
      "inputs": [
        {
          "indexed": false,
          "internalType": "uint256",
          "name": "_tokenId",
          "type": "uint256"
        }
      ],
      "name": "MetadataUpdate",
      "type": "event"
    },
    {
      "anonymous": false,
      "inputs": [
        {
          "indexed": true,
          "internalType": "uint256",
          "name": "agentId",
          "type": "uint256"
        },
        {
          "indexed": false,
          "internalType": "string",
          "name": "agentURI",
          "type": "string"
        },
        {
          "indexed": true,
          "internalType": "address",
          "name": "owner",
          "type": "address"
        }
      ],
      "name": "Registered",
      "type": "event"
    },
    {
      "anonymous": false,
      "inputs": [
        {
          "indexed": true,
          "internalType": "address",
          "name": "user",
          "type": "address"
        },
        {
          "indexed": true,
          "internalType": "uint256",
          "name": "agentId",
          "type": "uint256"
        },
        {
          "indexed": false,
          "internalType": "uint256",
          "name": "numDays",
          "type": "uint256"
        },
        {
          "indexed": false,
          "internalType": "uint256",
          "name": "amountPaid",
          "type": "uint256"
        }
      ],
      "name": "Subscribed",
      "type": "event"
    },
    {
      "anonymous": false,
      "inputs": [
        {
          "indexed": true,
          "internalType": "address",
          "name": "from",
          "type": "address"
        },
        {
          "indexed": true,
          "internalType": "address",
          "name": "to",
          "type": "address"
        },
        {
          "indexed": true,
          "internalType": "uint256",
          "name": "tokenId",
          "type": "uint256"
        }
      ],
      "name": "Transfer",
      "type": "event"
    },
    {
      "anonymous": false,
      "inputs": [
        {
          "indexed": true,
          "internalType": "address",
          "name": "from",
          "type": "address"
        },
        {
          "indexed": true,
          "internalType": "address",
          "name": "to",
          "type": "address"
        },
        {
          "indexed": true,
          "internalType": "uint256",
          "name": "tokenId",
          "type": "uint256"
        }
      ],
      "name": "Transferred",
      "type": "event"
    },
    {
      "anonymous": false,
      "inputs": [
        {
          "indexed": true,
          "internalType": "uint256",
          "name": "agentId",
          "type": "uint256"
        },
        {
          "indexed": false,
          "internalType": "string",
          "name": "newURI",
          "type": "string"
        },
        {
          "indexed": true,
          "internalType": "address",
          "name": "updatedBy",
          "type": "address"
        }
      ],
      "name": "URIUpdated",
      "type": "event"
    },
    {
      "anonymous": false,
      "inputs": [
        {
          "indexed": true,
          "internalType": "address",
          "name": "user",
          "type": "address"
        },
        {
          "indexed": true,
          "internalType": "uint256",
          "name": "agentId",
          "type": "uint256"
        },
        {
          "indexed": false,
          "internalType": "uint256",
          "name": "daysLeft",
          "type": "uint256"
        },
        {
          "indexed": false,
          "internalType": "uint256",
          "name": "refund",
          "type": "uint256"
        }
      ],
      "name": "Unsubscribed",
      "type": "event"
    },
    {
      "inputs": [
        {
          "internalType": "address",
          "name": "to",
          "type": "address"
        },
        {
          "internalType": "uint256",
          "name": "tokenId",
          "type": "uint256"
        }
      ],
      "name": "approve",
      "outputs": [],
      "stateMutability": "nonpayable",
      "type": "function"
    },
    {
      "inputs": [
        {
          "internalType": "uint256",
          "name": "tokenId",
          "type": "uint256"
        },
        {
          "internalType": "address",
          "name": "",
          "type": "address"
        },
        {
          "internalType": "bytes",
          "name": "",
          "type": "bytes"
        }
      ],
      "name": "authorizeUsage",
      "outputs": [],
      "stateMutability": "view",
      "type": "function"
    },
    {
      "inputs": [
        {
          "internalType": "address",
          "name": "owner",
          "type": "address"
        }
      ],
      "name": "balanceOf",
      "outputs": [
        {
          "internalType": "uint256",
          "name": "",
          "type": "uint256"
        }
      ],
      "stateMutability": "view",
      "type": "function"
    },
    {
      "inputs": [
        {
          "internalType": "address",
          "name": "to",
          "type": "address"
        },
        {
          "internalType": "uint256",
          "name": "tokenId",
          "type": "uint256"
        },
        {
          "internalType": "bytes",
          "name": "sealedKey",
          "type": "bytes"
        },
        {
          "internalType": "bytes",
          "name": "proof",
          "type": "bytes"
        }
      ],
      "name": "clone",
      "outputs": [
        {
          "internalType": "uint256",
          "name": "newTokenId",
          "type": "uint256"
        }
      ],
      "stateMutability": "nonpayable",
      "type": "function"
    },
    {
      "inputs": [],
      "name": "eip712Domain",
      "outputs": [
        {
          "internalType": "bytes1",
          "name": "fields",
          "type": "bytes1"
        },
        {
          "internalType": "string",
          "name": "name",
          "type": "string"
        },
        {
          "internalType": "string",
          "name": "version",
          "type": "string"
        },
        {
          "internalType": "uint256",
          "name": "chainId",
          "type": "uint256"
        },
        {
          "internalType": "address",
          "name": "verifyingContract",
          "type": "address"
        },
        {
          "internalType": "bytes32",
          "name": "salt",
          "type": "bytes32"
        },
        {
          "internalType": "uint256[]",
          "name": "extensions",
          "type": "uint256[]"
        }
      ],
      "stateMutability": "view",
      "type": "function"
    },
    {
      "inputs": [
        {
          "internalType": "uint256",
          "name": "agentId",
          "type": "uint256"
        }
      ],
      "name": "getAgentWallet",
      "outputs": [
        {
          "internalType": "address",
          "name": "",
          "type": "address"
        }
      ],
      "stateMutability": "view",
      "type": "function"
    },
    {
      "inputs": [
        {
          "internalType": "uint256",
          "name": "tokenId",
          "type": "uint256"
        }
      ],
      "name": "getApproved",
      "outputs": [
        {
          "internalType": "address",
          "name": "",
          "type": "address"
        }
      ],
      "stateMutability": "view",
      "type": "function"
    },
    {
      "inputs": [
        {
          "internalType": "uint256",
          "name": "agentId",
          "type": "uint256"
        }
      ],
      "name": "getFees",
      "outputs": [
        {
          "internalType": "uint256",
          "name": "feePerDay",
          "type": "uint256"
        }
      ],
      "stateMutability": "view",
      "type": "function"
    },
    {
      "inputs": [
        {
          "internalType": "uint256",
          "name": "agentId",
          "type": "uint256"
        },
        {
          "internalType": "string",
          "name": "metadataKey",
          "type": "string"
        }
      ],
      "name": "getMetadata",
      "outputs": [
        {
          "internalType": "bytes",
          "name": "",
          "type": "bytes"
        }
      ],
      "stateMutability": "view",
      "type": "function"
    },
    {
      "inputs": [
        {
          "internalType": "address",
          "name": "owner",
          "type": "address"
        },
        {
          "internalType": "address",
          "name": "operator",
          "type": "address"
        }
      ],
      "name": "isApprovedForAll",
      "outputs": [
        {
          "internalType": "bool",
          "name": "",
          "type": "bool"
        }
      ],
      "stateMutability": "view",
      "type": "function"
    },
    {
      "inputs": [],
      "name": "name",
      "outputs": [
        {
          "internalType": "string",
          "name": "",
          "type": "string"
        }
      ],
      "stateMutability": "view",
      "type": "function"
    },
    {
      "inputs": [
        {
          "internalType": "uint256",
          "name": "tokenId",
          "type": "uint256"
        }
      ],
      "name": "ownerOf",
      "outputs": [
        {
          "internalType": "address",
          "name": "",
          "type": "address"
        }
      ],
      "stateMutability": "view",
      "type": "function"
    },
    {
      "inputs": [],
      "name": "register",
      "outputs": [
        {
          "internalType": "uint256",
          "name": "agentId",
          "type": "uint256"
        }
      ],
      "stateMutability": "nonpayable",
      "type": "function"
    },
    {
      "inputs": [
        {
          "internalType": "string",
          "name": "agentURI",
          "type": "string"
        },
        {
          "components": [
            {
              "internalType": "string",
              "name": "metadataKey",
              "type": "string"
            },
            {
              "internalType": "bytes",
              "name": "metadataValue",
              "type": "bytes"
            }
          ],
          "internalType": "struct IdentityRegistry.MetadataEntry[]",
          "name": "metadata",
          "type": "tuple[]"
        }
      ],
      "name": "register",
      "outputs": [
        {
          "internalType": "uint256",
          "name": "agentId",
          "type": "uint256"
        }
      ],
      "stateMutability": "nonpayable",
      "type": "function"
    },
    {
      "inputs": [
        {
          "internalType": "string",
          "name": "agentURI",
          "type": "string"
        }
      ],
      "name": "register",
      "outputs": [
        {
          "internalType": "uint256",
          "name": "agentId",
          "type": "uint256"
        }
      ],
      "stateMutability": "nonpayable",
      "type": "function"
    },
    {
      "inputs": [
        {
          "internalType": "address",
          "name": "from",
          "type": "address"
        },
        {
          "internalType": "address",
          "name": "to",
          "type": "address"
        },
        {
          "internalType": "uint256",
          "name": "tokenId",
          "type": "uint256"
        }
      ],
      "name": "safeTransferFrom",
      "outputs": [],
      "stateMutability": "nonpayable",
      "type": "function"
    },
    {
      "inputs": [
        {
          "internalType": "address",
          "name": "from",
          "type": "address"
        },
        {
          "internalType": "address",
          "name": "to",
          "type": "address"
        },
        {
          "internalType": "uint256",
          "name": "tokenId",
          "type": "uint256"
        },
        {
          "internalType": "bytes",
          "name": "data",
          "type": "bytes"
        }
      ],
      "name": "safeTransferFrom",
      "outputs": [],
      "stateMutability": "nonpayable",
      "type": "function"
    },
    {
      "inputs": [
        {
          "internalType": "uint256",
          "name": "agentId",
          "type": "uint256"
        },
        {
          "internalType": "string",
          "name": "newURI",
          "type": "string"
        }
      ],
      "name": "setAgentURI",
      "outputs": [],
      "stateMutability": "nonpayable",
      "type": "function"
    },
    {
      "inputs": [
        {
          "internalType": "uint256",
          "name": "agentId",
          "type": "uint256"
        },
        {
          "internalType": "address",
          "name": "newWallet",
          "type": "address"
        },
        {
          "internalType": "uint256",
          "name": "deadline",
          "type": "uint256"
        },
        {
          "internalType": "bytes",
          "name": "signature",
          "type": "bytes"
        }
      ],
      "name": "setAgentWallet",
      "outputs": [],
      "stateMutability": "nonpayable",
      "type": "function"
    },
    {
      "inputs": [
        {
          "internalType": "address",
          "name": "operator",
          "type": "address"
        },
        {
          "internalType": "bool",
          "name": "approved",
          "type": "bool"
        }
      ],
      "name": "setApprovalForAll",
      "outputs": [],
      "stateMutability": "nonpayable",
      "type": "function"
    },
    {
      "inputs": [
        {
          "internalType": "uint256",
          "name": "agentId",
          "type": "uint256"
        },
        {
          "internalType": "uint256",
          "name": "feePerDay",
          "type": "uint256"
        }
      ],
      "name": "setFees",
      "outputs": [],
      "stateMutability": "nonpayable",
      "type": "function"
    },
    {
      "inputs": [
        {
          "internalType": "uint256",
          "name": "agentId",
          "type": "uint256"
        },
        {
          "internalType": "string",
          "name": "metadataKey",
          "type": "string"
        },
        {
          "internalType": "bytes",
          "name": "metadataValue",
          "type": "bytes"
        }
      ],
      "name": "setMetadata",
      "outputs": [],
      "stateMutability": "nonpayable",
      "type": "function"
    },
    {
      "inputs": [
        {
          "internalType": "uint256",
          "name": "agentId",
          "type": "uint256"
        },
        {
          "internalType": "uint256",
          "name": "numDays",
          "type": "uint256"
        }
      ],
      "name": "subscribe",
      "outputs": [],
      "stateMutability": "payable",
      "type": "function"
    },
    {
      "inputs": [
        {
          "internalType": "bytes4",
          "name": "interfaceId",
          "type": "bytes4"
        }
      ],
      "name": "supportsInterface",
      "outputs": [
        {
          "internalType": "bool",
          "name": "",
          "type": "bool"
        }
      ],
      "stateMutability": "view",
      "type": "function"
    },
    {
      "inputs": [],
      "name": "symbol",
      "outputs": [
        {
          "internalType": "string",
          "name": "",
          "type": "string"
        }
      ],
      "stateMutability": "view",
      "type": "function"
    },
    {
      "inputs": [
        {
          "internalType": "uint256",
          "name": "tokenId",
          "type": "uint256"
        }
      ],
      "name": "tokenURI",
      "outputs": [
        {
          "internalType": "string",
          "name": "",
          "type": "string"
        }
      ],
      "stateMutability": "view",
      "type": "function"
    },
    {
      "inputs": [
        {
          "internalType": "address",
          "name": "from",
          "type": "address"
        },
        {
          "internalType": "address",
          "name": "to",
          "type": "address"
        },
        {
          "internalType": "uint256",
          "name": "tokenId",
          "type": "uint256"
        },
        {
          "internalType": "bytes",
          "name": "sealedKey",
          "type": "bytes"
        },
        {
          "internalType": "bytes",
          "name": "proof",
          "type": "bytes"
        }
      ],
      "name": "transfer",
      "outputs": [],
      "stateMutability": "nonpayable",
      "type": "function"
    },
    {
      "inputs": [
        {
          "internalType": "address",
          "name": "from",
          "type": "address"
        },
        {
          "internalType": "address",
          "name": "to",
          "type": "address"
        },
        {
          "internalType": "uint256",
          "name": "tokenId",
          "type": "uint256"
        }
      ],
      "name": "transferFrom",
      "outputs": [],
      "stateMutability": "nonpayable",
      "type": "function"
    },
    {
      "inputs": [
        {
          "internalType": "uint256",
          "name": "agentId",
          "type": "uint256"
        }
      ],
      "name": "unsetAgentWallet",
      "outputs": [],
      "stateMutability": "nonpayable",
      "type": "function"
    },
    {
      "inputs": [
        {
          "internalType": "uint256",
          "name": "agentId",
          "type": "uint256"
        }
      ],
      "name": "unsubscribe",
      "outputs": [
        {
          "internalType": "uint256",
          "name": "daysLeft",
          "type": "uint256"
        },
        {
          "internalType": "uint256",
          "name": "refund",
          "type": "uint256"
        }
      ],
      "stateMutability": "nonpayable",
      "type": "function"
    }
  ],
  "bytecode": "0x6101606040523461043b5760405161001860408261043f565b6016815260208101907f4265616d204964656e746974792052656769737472790000000000000000000082526040519161005360408461043f565b600183526020830191603160f81b835260405161007160408261043f565b600b81526a4265616d204167656e747360a81b60208201526040519061009860408361043f565b60048252634245414d60e01b60208301528051906001600160401b038211610342575f5490600182811c92168015610431575b60208310146103245781601f8493116103c4575b50602090601f8311600114610361575f92610356575b50508160011b915f199060031b1c1916175f555b8051906001600160401b0382116103425760015490600182811c92168015610338575b60208310146103245781601f8493116102b6575b50602090601f8311600114610250575f92610245575b50508160011b915f199060031b1c1916176001555b61017481610462565b61012052610181846105e9565b61014052519020918260e05251902080610100524660a0526040519060208201927f8b73c3c69bb8fe3d512ecc4cf759cc79239f7b179b0ffacaa9a75d522b39400f8452604083015260608201524660808201523060a082015260a081526101ea60c08261043f565b5190206080523060c0526040516127b490816107228239608051816124b0015260a0518161256d015260c0518161247a015260e051816124ff0152610100518161252501526101205181610ad601526101405181610aff0152f35b015190505f80610156565b60015f9081528281209350601f198516905b81811061029e5750908460019594939210610286575b505050811b0160015561016b565b01515f1960f88460031b161c191690555f8080610278565b92936020600181928786015181550195019301610262565b60015f529091507fb10e2d527612073b26eecdfd717e6a320cf44b4afac2b0732d9fcbe2b7fa0cf6601f840160051c8101916020851061031a575b90601f859493920160051c01905b81811061030c5750610140565b5f81558493506001016102ff565b90915081906102f1565b634e487b7160e01b5f52602260045260245ffd5b91607f169161012c565b634e487b7160e01b5f52604160045260245ffd5b015190505f806100f5565b5f8080528281209350601f198516905b8181106103ac5750908460019594939210610394575b505050811b015f55610109565b01515f1960f88460031b161c191690555f8080610387565b92936020600181928786015181550195019301610371565b5f80529091507f290decd9548b62a8d60345a988386fc84ba6bc95484008f6362f93160ef3e563601f840160051c81019160208510610427575b90601f859493920160051c01905b81811061041957506100df565b5f815584935060010161040c565b90915081906103fe565b91607f16916100cb565b5f80fd5b601f909101601f19168101906001600160401b0382119082101761034257604052565b908151602081105f146104dc575090601f81511161049c57602081519101516020821061048d571790565b5f198260200360031b1b161790565b604460209160405192839163305a27a960e01b83528160048401528051918291826024860152018484015e5f828201840152601f01601f19168101030190fd5b6001600160401b03811161034257600754600181811c911680156105df575b602082101461032457601f81116105ac575b50602092601f821160011461054b57928192935f92610540575b50508160011b915f199060031b1c19161760075560ff90565b015190505f80610527565b601f1982169360075f52805f20915f5b868110610594575083600195961061057c575b505050811b0160075560ff90565b01515f1960f88460031b161c191690555f808061056e565b9192602060018192868501518155019401920161055b565b60075f52601f60205f20910160051c810190601f830160051c015b8181106105d4575061050d565b5f81556001016105c7565b90607f16906104fb565b908151602081105f14610614575090601f81511161049c57602081519101516020821061048d571790565b6001600160401b03811161034257600854600181811c91168015610717575b602082101461032457601f81116106e4575b50602092601f821160011461068357928192935f92610678575b50508160011b915f199060031b1c19161760085560ff90565b015190505f8061065f565b601f1982169360085f52805f20915f5b8681106106cc57508360019596106106b4575b505050811b0160085560ff90565b01515f1960f88460031b161c191690555f80806106a6565b91926020600181928685015181550194019201610693565b60085f52601f60205f20910160051c810190601f830160051c015b81811061070c5750610645565b5f81556001016106ff565b90607f169061063356fe60806040526004361015610011575f80fd5b5f3560e01c80623395091461153857806301ffc9a71461147e57806306fdde03146113dc578063081812fc146113a0578063095ea7b3146112b65780630af28bd3146112265780630b78f9c0146111d05780631aa3a008146111a657806323b872dd1461118f5780632d1ef5ae14610f285780633fddcf1914610e9857806342842e0e14610e69578063466648da14610ded5780636352211e14610dbd57806370a0823114610d6c5780637b297a6f14610d215780638437081314610bb657806384b0196e14610abe5780638ea422861461081057806395d89b4114610746578063a22cb46514610692578063ad0b27fb14610549578063b88d4fde146104ed578063c78fed04146103cc578063c87b56dd146103ad578063ca14bee7146102c1578063cb4799f214610233578063d5a06d4c14610209578063e985e9c5146101b25763f2c298be14610162575f80fd5b346101ae5760203660031901126101ae576004356001600160401b0381116101ae576101a66101a161019a60209336906004016115c4565b36916116ac565b611d0a565b604051908152f35b5f80fd5b346101ae5760403660031901126101ae576101cb611598565b6101d36115ae565b9060018060a01b03165f52600560205260405f209060018060a01b03165f52602052602060ff60405f2054166040519015158152f35b346101ae5760203660031901126101ae576004355f52600c602052602060405f2054604051908152f35b346101ae5760403660031901126101ae576004356024356001600160401b0381116101ae576102669036906004016116e2565b61026f82611b60565b5060208151910120905f52600a60205260405f20905f526020526102bd6102a26102a960405f2060405192838092611738565b0382611670565b604051918291602083526020830190611574565b0390f35b346101ae5760803660031901126101ae576102da611598565b602435906044356001600160401b0381116101ae576102fd9036906004016115c4565b5050606435916001600160401b0383116101ae5761032160209336906004016115c4565b50506103378161033081611b60565b33906123c7565b600954809161034582611b52565b6009556103528285612287565b805f52600685526103786102a261037260405f2060405192838092611738565b83611be3565b604051936001600160a01b03167fb0a2f55470ff509e62da0057e1dc2705b885b8722a571b3f1705ea25addd7fcc5f80a48152f35b346101ae5760203660031901126101ae576102bd6102a9600435611a98565b346101ae5760a03660031901126101ae576103e5611598565b6103ed6115ae565b604435916064356001600160401b0381116101ae576104109036906004016115c4565b50506084356001600160401b0381116101ae576104319036906004016115c4565b50506104408361033081611b60565b6001600160a01b0382169182156104da576001600160a01b0390610465908590611e32565b168061047e5783637e27328960e01b5f5260045260245ffd5b6001600160a01b0382168082036104c05750506001600160a01b03167fd1ba4ac2e2a11b5101f6cb4d978f514a155b421e8ec396d2d9abaf0bb02917ee5f80a4005b84906364283d7b60e01b5f5260045260245260445260645ffd5b633250574960e11b5f525f60045260245ffd5b346101ae5760803660031901126101ae57610506611598565b61050e6115ae565b90604435606435926001600160401b0384116101ae576105356105479436906004016116e2565b926105418383836117d9565b33612175565b005b346101ae5760203660031901126101ae57600435335f52600d60205260405f20815f5260205260405f208054610588610580611969565b428311611988565b335f52600e60205260405f20835f5260205260405f2054926105b36105ab611969565b851515611988565b60018301918254926106026040966105e888516105d08a82611670565b600381526203530360ec1b6020820152828611611988565b6105fc6105f54286611a4c565b8097611a2c565b93611a4c565b801561067e57620151805f93918492049504955555335f52600e602052835f20815f526020525f8481205583518381528260208201527ff2626a11cd1ac5ec73c78c3552aa73735e52629bc3f00696cc924b8f3f32c035853392a38061066f575b82519182526020820152f35b610679813361210f565b610663565b634e487b7160e01b5f52601260045260245ffd5b346101ae5760403660031901126101ae576106ab611598565b602435908115158092036101ae573315610733576001600160a01b031690811561072057335f52600560205260405f20825f5260205260405f2060ff1981541660ff83161790556040519081527f17307eab39ab6107e8899845ad3d59bd9653f200f220920489ca2b5937696c3160203392a3005b50630b61174360e31b5f5260045260245ffd5b63a9fbf51f60e01b5f525f60045260245ffd5b346101ae575f3660031901126101ae576040515f60015461076681611700565b80845290600181169081156107ec575060011461078e575b6102bd836102a981850382611670565b60015f9081527fb10e2d527612073b26eecdfd717e6a320cf44b4afac2b0732d9fcbe2b7fa0cf6939250905b8082106107d2575090915081016020016102a961077e565b9192600181602092548385880101520191019092916107ba565b60ff191660208086019190915291151560051b840190910191506102a9905061077e565b346101ae5760403660031901126101ae576004356001600160401b0381116101ae576108409036906004016115c4565b6024356001600160401b0381116101ae57366023820112156101ae578060040135906001600160401b0382116101ae573660248360051b830101116101ae5761088a829392611a59565b936108986040519586611670565b838552601f196108a785611a59565b015f5b818110610a935750503682900360621901925f5b858110156109605760248160051b85010135858112156101ae57840190604060231983360301126101ae576040516108f581611641565b60248301356001600160401b0381116101ae5761091890602436918601016116e2565b815260448301356001600160401b0381116101ae57600193602461093f92369201016116e2565b602082015261094e828a611a70565b526109598189611a70565b50016108be565b8661096c3684866116ac565b90610978600954611b52565b90816009556109878233612287565b8251610a84575b815f52600b60205260405f2060018060a01b0333166001600160601b0360a01b825416179055604051336020820152602081526109cc604082611670565b825f51602061275f5f395f51905f52610a02600b6040516a1859d95b9d15d85b1b195d60aa1b81522093604051918291826119f9565b0390a35f5b8151811015610a3e5780610a38610a2060019385611a70565b51516020610a2e8487611a70565b5101519086611f7d565b01610a07565b60208385817fca52e62c367d81bb2e328eb795f7c7ba24afb478408a26c0e201d155c449bc4a60405185815280610a79339588830190611574565b0390a3604051908152f35b610a8e8383611be3565b61098e565b602090604096959651610aa581611641565b6060815260608382015282828a010152019493946108aa565b346101ae575f3660031901126101ae57610b5a610afa7f0000000000000000000000000000000000000000000000000000000000000000612641565b610b237f000000000000000000000000000000000000000000000000000000000000000061269a565b6020610b6860405192610b368385611670565b5f84525f368137604051958695600f60f81b875260e08588015260e0870190611574565b908582036040870152611574565b4660608501523060808501525f60a085015283810360c08501528180845192838152019301915f5b828110610b9f57505050500390f35b835185528695509381019392810192600101610b90565b610bbf366115f1565b610bc882611b60565b50801591610bde610bd7611969565b8415611988565b805f52600c60205260405f20548015610bff610bf8611969565b8215611988565b61067e5782610c2491610c1f610c13611969565b825f1904841115611988565b611a2c565b91610c39610c30611969565b84341015611988565b6201518081029381850462015180141715610d0d5782610cd994335f52600d60205260405f20845f5260205260405f20908154428111155f14610cea575090610c9c600192335f52600e60205260405f20875f526020524260405f205542611a3f565b815501555b6040519081528260208201527f5ad333a6d56a7ddb1e78d9ecb8047e9dafcb890a41a227ede8d950259a1f0f7560403392a334611a4c565b80610ce057005b610547903361210f565b6001935090610cf891611a3f565b815501610d06848254611a3f565b9055610ca1565b634e487b7160e01b5f52601160045260245ffd5b346101ae5760603660031901126101ae57600435610d3d6115ae565b50604435906001600160401b0382116101ae57610d616105479236906004016115c4565b505061033081611b60565b346101ae5760203660031901126101ae576001600160a01b03610d8d611598565b168015610daa575f526003602052602060405f2054604051908152f35b6322718ad960e21b5f525f60045260245ffd5b346101ae5760203660031901126101ae576020610ddb600435611b60565b6040516001600160a01b039091168152f35b346101ae5760603660031901126101ae576004356024356001600160401b0381116101ae57610e209036906004016115c4565b91906044356001600160401b0381116101ae5761054793610e5b610e4b610e639336906004016115c4565b94909261019a8761033081611b60565b9236916116ac565b91611f7d565b346101ae57610547610e7a36611607565b9060405192610e8a602085611670565b5f84526105418383836117d9565b346101ae5760203660031901126101ae57600435610eb98161033081611b60565b805f52600b60205260405f206001600160601b0360a01b8154169055604051905f602083015260208252610eee604083611670565b5f51602061275f5f395f51905f52610f23600b6040516a1859d95b9d15d85b1b195d60aa1b81522093604051918291826119f9565b0390a3005b346101ae5760803660031901126101ae57600435610f446115ae565b90604435916064356001600160401b0381116101ae57610f689036906004016115c4565b9091610f778461033081611b60565b6001600160a01b03811691610f95610f8d611969565b841515611988565b6042604096610fc28851610fa98a82611670565b600381526236303160e81b602082015282421115611988565b875160208101917f5a2b87f3673ca6856d85d54cb1a9eb690f53c4d6b0954db34c84fe6c19c80d948352888a83015286606083015260808201526080815261100b60a082611670565b519020611016612477565b9088519161190160f01b83526002830152602282015220913b155f146110da5761106d611064610f23949361105e5f51602061275f5f395f51905f52976110869536916116ac565b90612593565b909291926125cd565b826110766119d8565b916001600160a01b031614611988565b835f52600b602052845f20816001600160601b0360a01b8254161790558451906020820152602081526110b98582611670565b600b85516a1859d95b9d15d85b1b195d60aa1b8152209451918291826119f9565b60209161110687519586938493630b135d3f60e11b8552600485015289602485015260448401916117b9565b0381845afa90811561118557611151610f23925f51602061275f5f395f51905f52945f91611156575b506111386119d8565b906001600160e01b031916630b135d3f60e11b14611988565b611086565b611178915060203d60201161117e575b6111708183611670565b8101906119b8565b8761112f565b503d611166565b84513d5f823e3d90fd5b346101ae576105476111a036611607565b916117d9565b346101ae575f3660031901126101ae5760206101a66040516111c88382611670565b5f8152611d0a565b346101ae5760207f93525d3c7f4fafe56faedbca6d501a13c63f47857d8b30d8282ec2dd806259a7611201366115f1565b61121082610330819694611b60565b835f52600c82528060405f2055604051908152a2005b346101ae5760403660031901126101ae576024356004356001600160401b0382116101ae577f3a2c7fffc2cba7582c690e3b82c453ea02a308326a98a3ad7576c606336409fb61127d610f239336906004016115c4565b939061128c8461033081611b60565b6112a061129a3687846116ac565b85611be3565b60405191829160208352339660208401916117b9565b346101ae5760403660031901126101ae576112cf611598565b6024356112db81611b60565b3315158061138d575b80611360575b61134d5781906001600160a01b0384811691167f8c5be1e5ebec7d5bd14f71427d1e84f3dd0314c0f7b2291e5b200ac8c7c3b9255f80a45f90815260046020526040902080546001600160a01b0319166001600160a01b03909216919091179055005b63a9fbf51f60e01b5f523360045260245ffd5b506001600160a01b0381165f90815260056020908152604080832033845290915290205460ff16156112ea565b506001600160a01b0381163314156112e4565b346101ae5760203660031901126101ae576004356113bd81611b60565b505f526004602052602060018060a01b0360405f205416604051908152f35b346101ae575f3660031901126101ae576040515f5f546113fb81611700565b80845290600181169081156107ec5750600114611422576102bd836102a981850382611670565b5f8080527f290decd9548b62a8d60345a988386fc84ba6bc95484008f6362f93160ef3e563939250905b808210611464575090915081016020016102a961077e565b91926001816020925483858801015201910190929161144c565b346101ae5760203660031901126101ae5760043563ffffffff60e01b81168091036101ae57602090631dac8a6360e21b8114908115611527575b81156114ca575b506040519015158152f35b632483248360e11b8114915081156114e4575b50826114bf565b6380ac58cd60e01b811491508115611516575b8115611505575b50826114dd565b6301ffc9a760e01b149050826114fe565b635b5e139f60e01b811491506114f7565b633df92ed960e21b811491506114b8565b346101ae5760203660031901126101ae5760043561155581611b60565b505f52600b602052602060018060a01b0360405f205416604051908152f35b805180835260209291819084018484015e5f828201840152601f01601f1916010190565b600435906001600160a01b03821682036101ae57565b602435906001600160a01b03821682036101ae57565b9181601f840112156101ae578235916001600160401b0383116101ae57602083818601950101116101ae57565b60409060031901126101ae576004359060243590565b60609060031901126101ae576004356001600160a01b03811681036101ae57906024356001600160a01b03811681036101ae579060443590565b604081019081106001600160401b0382111761165c57604052565b634e487b7160e01b5f52604160045260245ffd5b90601f801991011681019081106001600160401b0382111761165c57604052565b6001600160401b03811161165c57601f01601f191660200190565b9291926116b882611691565b916116c66040519384611670565b8294818452818301116101ae578281602093845f960137010152565b9080601f830112156101ae578160206116fd933591016116ac565b90565b90600182811c9216801561172e575b602083101461171a57565b634e487b7160e01b5f52602260045260245ffd5b91607f169161170f565b5f929181549161174783611700565b808352926001811690811561179c575060011461176357505050565b5f9081526020812093945091925b838310611782575060209250010190565b600181602092949394548385870101520191019190611771565b915050602093945060ff929192191683830152151560051b010190565b908060209392818452848401375f828201840152601f01601f1916010190565b6001600160a01b03909116919082156104da575f828152600260205260409020546001600160a01b03169233611959575b83151580611926575b815f52600360205260405f2060018154019055835f52600260205260405f20826001600160601b0360a01b82541617905584604051928581837fddf252ad1be2c89b69c2b068fc378daa952ba7f163c4a11628f55a4df523b3ef5f80a48261191b575b50506118ab575b506001600160a01b031680830361189357505050565b6364283d7b60e01b5f5260045260245260445260645ffd5b825f52600b60205260405f206001600160601b0360a01b81541690555f6020820152602081526118dc604082611670565b825f51602061275f5f395f51905f52611912600b6040516a1859d95b9d15d85b1b195d60aa1b81522093604051918291826119f9565b0390a35f61187d565b14159050845f611876565b5f84815260046020526040902080546001600160a01b0319169055845f52600360205260405f205f198154019055611813565b6119648333866123c7565b61180a565b60405190611978604083611670565b60018252603360f81b6020830152565b156119905750565b60405162461bcd60e51b8152602060048201529081906119b4906024830190611574565b0390fd5b908160209103126101ae57516001600160e01b0319811681036101ae5790565b604051906119e7604083611670565b600382526203630360ec1b6020830152565b9060806116fd9260408152600b60408201526a1859d95b9d15d85b1b195d60aa1b60608201528160208201520190611574565b81810292918115918404141715610d0d57565b91908201809211610d0d57565b91908203918211610d0d57565b6001600160401b03811161165c5760051b60200190565b8051821015611a845760209160051b010190565b634e487b7160e01b5f52603260045260245ffd5b611aa181611b60565b50602090604051611ab28382611670565b5f8152815f52600683526102a2611ad260405f2060405192838092611738565b815115611b4b5780849151611b1057505050611aed90611b60565b505f604051611afc8382611670565b52611b0a6040519182611670565b5f815290565b6116fd935081906040519584879551918291018487015e8401908282015f8152815193849201905e01015f815203601f198101835282611670565b9250505090565b5f198114610d0d5760010190565b5f818152600260205260409020546001600160a01b0316908115611b82575090565b637e27328960e01b5f5260045260245ffd5b601f8211611ba157505050565b5f5260205f20906020601f840160051c83019310611bd9575b601f0160051c01905b818110611bce575050565b5f8155600101611bc3565b9091508190611bba565b919091805f52600660205260405f2083516001600160401b03811161165c57611c1681611c108454611700565b84611b94565b6020601f8211600114611c8257816020949392611c6b927ff8e1a15aba9398e019f0b49df1a4fde98ee17ae345cb5f6b5e2c27f5033e8ce797985f92611c77575b50508160011b915f199060031b1c19161790565b90555b604051908152a1565b015190505f80611c57565b601f19821695835f52815f20965f5b818110611cf2575096600192849260209796957ff8e1a15aba9398e019f0b49df1a4fde98ee17ae345cb5f6b5e2c27f5033e8ce7999a10611cda575b505050811b019055611c6e565b01515f1960f88460031b161c191690555f8080611ccd565b83830151895560019098019760209384019301611c91565b90611d16600954611b52565b90816009558190611d278333612287565b8351611e23575b825f52600b60205260405f2060018060a01b0333166001600160601b0360a01b82541617905560405133602082015260208152611d6c604082611670565b835f51602061275f5f395f51905f52611da2600b6040516a1859d95b9d15d85b1b195d60aa1b81522093604051918291826119f9565b0390a35f5b606051811015611de15780611ddb611dc26001936060611a70565b51516020611dd1846060611a70565b5101519087611f7d565b01611da7565b50919290927fca52e62c367d81bb2e328eb795f7c7ba24afb478408a26c0e201d155c449bc4a6040516020815280611e1e33956020830190611574565b0390a3565b611e2d8484611be3565b611d2e565b5f828152600260205260409020546001600160a01b03168015159392909184611f4a575b6001600160a01b03169384611f32575b815f52600260205260405f20856001600160601b0360a01b825416179055604051928286827fddf252ad1be2c89b69c2b068fc378daa952ba7f163c4a11628f55a4df523b3ef5f80a4809582611f27575b5050611ec1575050565b805f52600b60205260405f206001600160601b0360a01b81541690555f602083015260208252611ef2604083611670565b5f51602061275f5f395f51905f52611e1e600b6040516a1859d95b9d15d85b1b195d60aa1b81522093604051918291826119f9565b141590505f80611eb7565b845f52600360205260405f2060018154019055611e66565b5f82815260046020526040902080546001600160a01b0319169055825f52600360205260405f205f198154019055611e56565b9291909283519360208101948520604090611fda600b60208451611fa18682611670565b828152016a1859d95b9d15d85b1b195d60aa1b815220821415835190611fc78583611670565b60018252600d60fa1b6020830152611988565b835f52600a602052815f20905f52602052805f20958451966001600160401b03881161165c576120148861200e8354611700565b83611b94565b602097601f811160011461209a579061205882611e1e94935f51602061275f5f395f51905f5298999a9b5f9161208f575b508160011b915f199060031b1c19161790565b90555b8251809185518091835e81015f8152039020956120818351948486958652850190611574565b908382036020850152611574565b90508a01515f612045565b601f198116825f52895f20905f5b8181106120f75750916001915f51602061275f5f395f51905f5298999a9b82611e1e979695106120df575b5050811b01905561205b565b8b01515f1960f88460031b161c191690555f806120d3565b898c0151835560209b8c019b600190930192016120a8565b81471061215e575f80809381938260405161212b602082611670565b526001600160a01b03165af11561213e57565b3d1561214f576040513d5f823e3d90fd5b63d6bda27560e01b5f5260045ffd5b504763cf47918160e01b5f5260045260245260445ffd5b823b612183575b5050505050565b604051630a85bd0160e11b81526001600160a01b0391821660048201529181166024830152604482019390935260806064820152911691602090829081906121cf906084830190611574565b03815f865af15f9181612266575b5061223257503d1561222b573d6121f381611691565b906122016040519283611670565b81523d5f602083013e5b805190816122265782633250574960e11b5f5260045260245ffd5b602001fd5b606061220b565b6001600160e01b03191663757a42ff60e11b0161225457505f8080808061217c565b633250574960e11b5f5260045260245ffd5b61228091925060203d60201161117e576111708183611670565b905f6121dd565b90602090604051906122998383611670565b5f82526001600160a01b0384169384156104da576001600160a01b036122bf8383611e32565b166123b4573b6122d0575b50505050565b9161230d91819495936040519384928392630a85bd0160e11b84523360048501525f60248501526044840152608060648401526084830190611574565b03815f885af15f9181612395575b506123705750503d15612368573d9061233382611691565b916123416040519384611670565b82523d5f8284013e5b815191826123655783633250574960e11b5f5260045260245ffd5b01fd5b60609061234a565b909291506001600160e01b03191663757a42ff60e11b0161225457505f8080806122ca565b6123ad919250843d861161117e576111708183611670565b905f61231b565b6339e3563760e11b5f525f60045260245ffd5b6001600160a01b03909116908115158061241b575b156123e657505050565b6001600160a01b03166124065750637e27328960e01b5f5260045260245ffd5b63177e802f60e01b5f5260045260245260445ffd5b506001600160a01b038116828114908115612456575b50806123dc57505f838152600460205260409020546001600160a01b031682146123dc565b90505f52600560205260405f20825f5260205260ff60405f2054165f612431565b307f00000000000000000000000000000000000000000000000000000000000000006001600160a01b0316148061256a575b156124d2577f000000000000000000000000000000000000000000000000000000000000000090565b60405160208101907f8b73c3c69bb8fe3d512ecc4cf759cc79239f7b179b0ffacaa9a75d522b39400f82527f000000000000000000000000000000000000000000000000000000000000000060408201527f000000000000000000000000000000000000000000000000000000000000000060608201524660808201523060a082015260a0815261256460c082611670565b51902090565b507f000000000000000000000000000000000000000000000000000000000000000046146124a9565b81519190604183036125c3576125bc9250602082015190606060408401519301515f1a906126d1565b9192909190565b50505f9160029190565b600481101561262d57806125df575050565b600181036125f65763f645eedf60e01b5f5260045ffd5b60028103612611575063fce698f760e01b5f5260045260245ffd5b60031461261b5750565b6335e2f38360e21b5f5260045260245ffd5b634e487b7160e01b5f52602160045260245ffd5b60ff81146126875760ff811690601f82116126785760405191612665604084611670565b6020808452838101919036833783525290565b632cd44ac360e21b5f5260045ffd5b506040516116fd816102a2816007611738565b60ff81146126be5760ff811690601f82116126785760405191612665604084611670565b506040516116fd816102a2816008611738565b91907f7fffffffffffffffffffffffffffffff5d576e7357a4501ddfe92f46681b20a08411612753579160209360809260ff5f9560405194855216868401526040830152606082015282805260015afa15612748575f516001600160a01b0381161561273e57905f905f90565b505f906001905f90565b6040513d5f823e3d90fd5b5050505f916003919056fe2c149ed548c6d2993cd73efe187df6eccabe4538091b33adbd25fafdb8a1468ba2646970667358221220cb22d43715382e5c8fc495b4253af71384c27955242637a0d0f9775bcb15d71c64736f6c634300081c0033",
  "linkReferences": {},
  "deployedLinkReferences": {},
  "immutableReferences": {
    "5340": [
      {
        "length": 32,
        "start": 9392
      }
    ],
    "5342": [
      {
        "length": 32,
        "start": 9581
      }
    ],
    "5344": [
      {
        "length": 32,
        "start": 9338
      }
    ],
    "5346": [
      {
        "length": 32,
        "start": 9471
      }
    ],
    "5348": [
      {
        "length": 32,
        "start": 9509
      }
    ],
    "5351": [
      {
        "length": 32,
        "start": 2774
      }
    ],
    "5354": [
      {
        "length": 32,
        "start": 2815
      }
    ]
  },
  "inputSourceName": "project/contracts/IdentityRegistry.sol",
  "buildInfoId": "solc-0_8_28-ed6b5a4cd99e4dafc3ea8445b795a34a16313b38"
}