{
  "_format": "hh3-artifact-1",
  "contractName": "ReputationRegistry",
  "sourceName": "contracts/ReputationRegistry.sol",
  "abi": [
    {
      "anonymous": false,
      "inputs": [
        {
          "indexed": true,
          "internalType": "uint256",
          "name": "agentId",
          "type": "uint256"
        },
        {
          "indexed": true,
          "internalType": "address",
          "name": "clientAddress",
          "type": "address"
        },
        {
          "indexed": true,
          "internalType": "uint64",
          "name": "feedbackIndex",
          "type": "uint64"
        }
      ],
      "name": "FeedbackRevoked",
      "type": "event"
    },
    {
      "anonymous": false,
      "inputs": [
        {
          "indexed": true,
          "internalType": "uint256",
          "name": "agentId",
          "type": "uint256"
        },
        {
          "indexed": true,
          "internalType": "address",
          "name": "clientAddress",
          "type": "address"
        },
        {
          "indexed": false,
          "internalType": "uint64",
          "name": "feedbackIndex",
          "type": "uint64"
        },
        {
          "indexed": false,
          "internalType": "int128",
          "name": "value",
          "type": "int128"
        },
        {
          "indexed": false,
          "internalType": "uint8",
          "name": "valueDecimals",
          "type": "uint8"
        },
        {
          "indexed": true,
          "internalType": "string",
          "name": "indexedTag1",
          "type": "string"
        },
        {
          "indexed": false,
          "internalType": "string",
          "name": "tag1",
          "type": "string"
        },
        {
          "indexed": false,
          "internalType": "string",
          "name": "tag2",
          "type": "string"
        },
        {
          "indexed": false,
          "internalType": "string",
          "name": "endpoint",
          "type": "string"
        },
        {
          "indexed": false,
          "internalType": "string",
          "name": "feedbackURI",
          "type": "string"
        },
        {
          "indexed": false,
          "internalType": "bytes32",
          "name": "feedbackHash",
          "type": "bytes32"
        }
      ],
      "name": "NewFeedback",
      "type": "event"
    },
    {
      "anonymous": false,
      "inputs": [
        {
          "indexed": true,
          "internalType": "uint256",
          "name": "agentId",
          "type": "uint256"
        },
        {
          "indexed": true,
          "internalType": "address",
          "name": "clientAddress",
          "type": "address"
        },
        {
          "indexed": false,
          "internalType": "uint64",
          "name": "feedbackIndex",
          "type": "uint64"
        },
        {
          "indexed": true,
          "internalType": "address",
          "name": "responder",
          "type": "address"
        },
        {
          "indexed": false,
          "internalType": "string",
          "name": "responseURI",
          "type": "string"
        },
        {
          "indexed": false,
          "internalType": "bytes32",
          "name": "responseHash",
          "type": "bytes32"
        }
      ],
      "name": "ResponseAppended",
      "type": "event"
    },
    {
      "inputs": [
        {
          "internalType": "uint256",
          "name": "agentId",
          "type": "uint256"
        },
        {
          "internalType": "address",
          "name": "clientAddress",
          "type": "address"
        },
        {
          "internalType": "uint64",
          "name": "feedbackIndex",
          "type": "uint64"
        },
        {
          "internalType": "string",
          "name": "responseURI",
          "type": "string"
        },
        {
          "internalType": "bytes32",
          "name": "responseHash",
          "type": "bytes32"
        }
      ],
      "name": "appendResponse",
      "outputs": [],
      "stateMutability": "nonpayable",
      "type": "function"
    },
    {
      "inputs": [
        {
          "internalType": "uint256",
          "name": "agentId",
          "type": "uint256"
        }
      ],
      "name": "getClients",
      "outputs": [
        {
          "internalType": "address[]",
          "name": "",
          "type": "address[]"
        }
      ],
      "stateMutability": "view",
      "type": "function"
    },
    {
      "inputs": [],
      "name": "getIdentityRegistry",
      "outputs": [
        {
          "internalType": "address",
          "name": "identityRegistry",
          "type": "address"
        }
      ],
      "stateMutability": "view",
      "type": "function"
    },
    {
      "inputs": [
        {
          "internalType": "uint256",
          "name": "agentId",
          "type": "uint256"
        },
        {
          "internalType": "address",
          "name": "clientAddress",
          "type": "address"
        }
      ],
      "name": "getLastIndex",
      "outputs": [
        {
          "internalType": "uint64",
          "name": "",
          "type": "uint64"
        }
      ],
      "stateMutability": "view",
      "type": "function"
    },
    {
      "inputs": [
        {
          "internalType": "uint256",
          "name": "",
          "type": "uint256"
        },
        {
          "internalType": "address",
          "name": "",
          "type": "address"
        },
        {
          "internalType": "uint64",
          "name": "",
          "type": "uint64"
        },
        {
          "internalType": "address[]",
          "name": "",
          "type": "address[]"
        }
      ],
      "name": "getResponseCount",
      "outputs": [
        {
          "internalType": "uint64",
          "name": "count",
          "type": "uint64"
        }
      ],
      "stateMutability": "pure",
      "type": "function"
    },
    {
      "inputs": [
        {
          "internalType": "uint256",
          "name": "agentId",
          "type": "uint256"
        },
        {
          "internalType": "address[]",
          "name": "clientAddresses",
          "type": "address[]"
        },
        {
          "internalType": "string",
          "name": "tag1",
          "type": "string"
        },
        {
          "internalType": "string",
          "name": "tag2",
          "type": "string"
        }
      ],
      "name": "getSummary",
      "outputs": [
        {
          "internalType": "uint64",
          "name": "count",
          "type": "uint64"
        },
        {
          "internalType": "int128",
          "name": "summaryValue",
          "type": "int128"
        },
        {
          "internalType": "uint8",
          "name": "summaryValueDecimals",
          "type": "uint8"
        }
      ],
      "stateMutability": "view",
      "type": "function"
    },
    {
      "inputs": [
        {
          "internalType": "uint256",
          "name": "agentId",
          "type": "uint256"
        },
        {
          "internalType": "int128",
          "name": "value",
          "type": "int128"
        },
        {
          "internalType": "uint8",
          "name": "valueDecimals",
          "type": "uint8"
        },
        {
          "internalType": "string",
          "name": "tag1",
          "type": "string"
        },
        {
          "internalType": "string",
          "name": "tag2",
          "type": "string"
        },
        {
          "internalType": "string",
          "name": "endpoint",
          "type": "string"
        },
        {
          "internalType": "string",
          "name": "feedbackURI",
          "type": "string"
        },
        {
          "internalType": "bytes32",
          "name": "feedbackHash",
          "type": "bytes32"
        }
      ],
      "name": "giveFeedback",
      "outputs": [],
      "stateMutability": "nonpayable",
      "type": "function"
    },
    {
      "inputs": [
        {
          "internalType": "address",
          "name": "identityRegistry_",
          "type": "address"
        }
      ],
      "name": "initialize",
      "outputs": [],
      "stateMutability": "nonpayable",
      "type": "function"
    },
    {
      "inputs": [
        {
          "internalType": "uint256",
          "name": "agentId",
          "type": "uint256"
        },
        {
          "internalType": "address[]",
          "name": "clientAddresses",
          "type": "address[]"
        },
        {
          "internalType": "string",
          "name": "tag1",
          "type": "string"
        },
        {
          "internalType": "string",
          "name": "tag2",
          "type": "string"
        },
        {
          "internalType": "bool",
          "name": "includeRevoked",
          "type": "bool"
        }
      ],
      "name": "readAllFeedback",
      "outputs": [
        {
          "internalType": "address[]",
          "name": "clients",
          "type": "address[]"
        },
        {
          "internalType": "uint64[]",
          "name": "feedbackIndexes",
          "type": "uint64[]"
        },
        {
          "internalType": "int128[]",
          "name": "values",
          "type": "int128[]"
        },
        {
          "internalType": "uint8[]",
          "name": "valueDecimals",
          "type": "uint8[]"
        },
        {
          "internalType": "string[]",
          "name": "tag1s",
          "type": "string[]"
        },
        {
          "internalType": "string[]",
          "name": "tag2s",
          "type": "string[]"
        },
        {
          "internalType": "bool[]",
          "name": "revokedStatuses",
          "type": "bool[]"
        }
      ],
      "stateMutability": "view",
      "type": "function"
    },
    {
      "inputs": [
        {
          "internalType": "uint256",
          "name": "agentId",
          "type": "uint256"
        },
        {
          "internalType": "address",
          "name": "clientAddress",
          "type": "address"
        },
        {
          "internalType": "uint64",
          "name": "feedbackIndex",
          "type": "uint64"
        }
      ],
      "name": "readFeedback",
      "outputs": [
        {
          "internalType": "int128",
          "name": "value",
          "type": "int128"
        },
        {
          "internalType": "uint8",
          "name": "valueDecimals",
          "type": "uint8"
        },
        {
          "internalType": "string",
          "name": "tag1",
          "type": "string"
        },
        {
          "internalType": "string",
          "name": "tag2",
          "type": "string"
        },
        {
          "internalType": "bool",
          "name": "isRevoked",
          "type": "bool"
        }
      ],
      "stateMutability": "view",
      "type": "function"
    },
    {
      "inputs": [
        {
          "internalType": "uint256",
          "name": "agentId",
          "type": "uint256"
        },
        {
          "internalType": "uint64",
          "name": "feedbackIndex",
          "type": "uint64"
        }
      ],
      "name": "revokeFeedback",
      "outputs": [],
      "stateMutability": "nonpayable",
      "type": "function"
    }
  ],
  "bytecode": "0x60808060405234601557611e62908161001a8239f35b5f80fdfe6102606040526004361015610012575f80fd5b5f3560e01c8063232b08101461157b5780633c036a7e14610e4f57806342dd519c14610dca5780634ab3ca9914610cf65780636e04cacd14610ca757806381bbba5814610bfa578063bc4d861b14610bd5578063c2349ab214610930578063c4d66de814610884578063d9d84224146100e65763f2d8175914610093575f80fd5b346100e25760403660031901126100e2576100ac611656565b6004355f5260016020526001600160a01b0360405f2091165f52602052602067ffffffffffffffff60405f205416604051908152f35b5f80fd5b346100e25760a03660031901126100e25760243567ffffffffffffffff81116100e257610117903690600401611711565b60443567ffffffffffffffff81116100e2576101379036906004016116a7565b60c05260e05260643567ffffffffffffffff81116100e25761015d9036906004016116a7565b61010052610120526084359182151583036100e257816108375750506004355f52600360205260405f2090815461019381611d8f565b905f5b8181106108095750509091505b5f5f5b825181101561033b576004355f52600160205260405f206001600160a01b03806101d08487611dc1565b5116165f5260205267ffffffffffffffff60405f20541660015b8167ffffffffffffffff821611156102065750506001016101a6565b926004959295949194355f52600260205260405f206001600160a01b038061022e8986611dc1565b5116165f5260205260405f2067ffffffffffffffff85165f5260205260405f208315841561032d575b6102e95760c0511515806102f4575b6102e95761010051151590816102a3575b506102995761028861028e91611dd5565b93611a5a565b9491949390936101ea565b9261028e90611a5a565b600291506102c2906102bb60405180948193016117d2565b0382611853565b602081519101206102da3661010051610120516119a7565b60208151910120141587610277565b509261028e90611a5a565b50604051610309816102bb81600186016117d2565b6020815191012061031f3660c05160e0516119a7565b602081519101201415610266565b5060ff600382015416610257565b506104369061034981611d8f565b6101605261036961035982611d77565b6040516101e0526101e051611853565b806101e0515261037881611d77565b601f19013660206101e05101376103a161039182611d77565b6040516102205261022051611853565b8061022051526103b081611d77565b601f19013660206102205101376103d96103c982611d77565b6040516101a0526101a051611853565b806101a051526103e881611d77565b601f19013660206101a05101376103fe81611de3565b6101c05261040b81611de3565b6101405261042b61041b82611d77565b6040516102005261020051611853565b806102005152611d77565b601f19013660206102005101375f905f60a0525b805160a05110156106aa57906001600160a01b0361046a60a05184611dc1565b5116610180526004355f52600160205260405f206001600160a01b0361018051165f5260205267ffffffffffffffff60405f2054166102405260016080525b6102405167ffffffffffffffff608051161161069b576004355f52600260205260405f206001600160a01b0361018051165f5260205260405f2067ffffffffffffffff608051165f5260205260405f208315841561068d575b6106125760c051151580610654575b6106125761010051151580610619575b610612579060ff60036105fc936101805161053f8561016051611dc1565b5267ffffffffffffffff6080511661055a856101e051611dc1565b5282815480600f0b61056f8761022051611dc1565b5260801c16610581856101a051611dc1565b52604051610596816102bb81600186016117d2565b6105a3856101c051611dc1565b526105b1846101c051611dc1565b506040516105c6816102bb81600286016117d2565b6105d38561014051611dc1565b526105e18461014051611dc1565b500154166105f28261020051611dc1565b9015159052611dd5565b905b610609608051611a5a565b608052906104a9565b50906105fe565b5060405161062e816102bb81600286016117d2565b602081519101206106463661010051610120516119a7565b602081519101201415610521565b50604051610669816102bb81600186016117d2565b6020815191012061067f3660c05160e0516119a7565b602081519101201415610511565b5060ff600382015416610502565b90600160a0510160a05261044a565b60405160e08152806106c260e08201610160516116d5565b818103602083015260206101e0515191828152019060206101e05101905f5b8181106107e65750505081810360408301526020610220515191828152019060206102205101905f5b8181106107ca57505050818103606083015260206101a0515191828152019060206101a05101905f5b8181106107ae575050506107558183610766930360808501526101c051611742565b82810360a084015261014051611742565b81810360c08301526020610200515191828152019060206102005101905f5b818110610793575050500390f35b82511515845285945060209384019390920191600101610785565b825160ff16845285945060209384019390920191600101610733565b8251600f0b84528594506020938401939092019160010161070a565b825167ffffffffffffffff168452859450602093840193909201916001016106e1565b806001600160a01b0361081e600193886119ed565b90549060031b1c166108308286611dc1565b5201610196565b61084082611d8f565b915f5b818110610852575050506101a3565b806108686108636001938587611a36565b611a46565b6001600160a01b0361087a8388611dc1565b9116905201610843565b346100e25760203660031901126100e2576004356001600160a01b0381168091036100e2577fffffffffffffffffffffffff00000000000000000000000000000000000000005f546109176040516108dd604082611853565b600181527f340000000000000000000000000000000000000000000000000000000000000060208201526001600160a01b038316156118b0565b61092a6109226118fa565b8415156118b0565b16175f55005b346100e25760a03660031901126100e25760043561094c611656565b9061095561166c565b9060643567ffffffffffffffff81116100e2576109769036906004016116a7565b67ffffffffffffffff6001600160a01b03805f54169661099f610997611875565b8915156118b0565b16946109b46109ac6118fa565b8715156118b0565b16946109c16109ac6118fa565b835f52600160205260405f20855f526020526109f667ffffffffffffffff60405f2054168711156109f06118fa565b906118b0565b6040516331a9108f60e11b8152846004820152602081602481855afa908115610b3e575f91610bb6575b506001600160a01b0381163314918215610b49575b8215610a98575b505091610a8791610a707fb1c6be0b5b8aef6539e2fac0fd131a2faa7b49edf8e505b5eb0ad487d56051d4946109f0611954565b604051968752606060208801526060870191611a16565b9360843560408201528033950390a4005b60405163e985e9c560e01b81526001600160a01b0392909216600483015233602483015290939150602090849060449082905afa918215610b3e57610a70610a87937fb1c6be0b5b8aef6539e2fac0fd131a2faa7b49edf8e505b5eb0ad487d56051d4955f91610b0f575b50929450819350610a3c565b610b31915060203d602011610b37575b610b298183611853565b81019061198f565b89610b03565b503d610b1f565b6040513d5f823e3d90fd5b915060405163020604bf60e21b8152856004820152602081602481865afa908115610b3e575f91610b87575b506001600160a01b0316331491610a35565b610ba9915060203d602011610baf575b610ba18183611853565b810190611935565b88610b75565b503d610b97565b610bcf915060203d602011610baf57610ba18183611853565b87610a20565b346100e2575f3660031901126100e25760206001600160a01b035f5416604051908152f35b346100e25760803660031901126100e25760243567ffffffffffffffff81116100e257610c2b903690600401611711565b60443567ffffffffffffffff81116100e257610c4b9036906004016116a7565b9290916064359167ffffffffffffffff83116100e25760609460ff94610c78610c839536906004016116a7565b949093600435611ab8565b9067ffffffffffffffff60409493945194168452600f0b6020840152166040820152f35b346100e25760803660031901126100e257610cc0611656565b50610cc961166c565b5060643567ffffffffffffffff81116100e257610cea903690600401611711565b505060206040515f8152f35b346100e25760403660031901126100e2576004356024359067ffffffffffffffff82168092036100e257610d33610d2b6118fa565b8315156118b0565b805f52600260205260405f206001600160a01b0333165f5260205260405f20825f52602052600360405f20825f52600160205260405f206001600160a01b0333165f52602052610d9667ffffffffffffffff60405f2054168511156109f06118fa565b01805460ff1916600117905533907f25156fd3288212246d8b008d5921fde376c71ed14ac2e072a506eb06fde6d09d5f80a4005b346100e25760203660031901126100e2576004355f52600360205260405f206040519081602082549182815201915f5260205f20905f5b818110610e3057610e2c85610e1881870382611853565b6040519182916020835260208301906116d5565b0390f35b82546001600160a01b0316845260209093019260019283019201610e01565b346100e2576101003660031901126100e2576004356024359081600f0b8092036100e2576044359060ff82168092036100e25760643567ffffffffffffffff81116100e257610ea29036906004016116a7565b9060843567ffffffffffffffff81116100e257610ec39036906004016116a7565b9060a43567ffffffffffffffff81116100e257610ee49036906004016116a7565b91909260c43567ffffffffffffffff81116100e257610f079036906004016116a7565b9590966001600160a01b035f5416610f28610f20611875565b8215156118b0565b610f3d610f336118fa565b60128d11156118b0565b604051906331a9108f60e11b82528a6004830152602082602481845afa918215610b3e575f9261155a575b50610f86610f74611954565b6001600160a01b0384163314156118b0565b6040519163020604bf60e21b83528b6004840152602083602481855afa918215610b3e57610fd6602093611009955f9161153d575b50610fc4611954565b906001600160a01b03163314156118b0565b60405163e985e9c560e01b81526001600160a01b0390921660048301523360248301529092839190829081906044820190565b03915afa8015610b3e5761102e915f9161151e575b50611027611954565b90156118b0565b885f52600160205260405f206001600160a01b0333165f52602052600167ffffffffffffffff60405f205416019967ffffffffffffffff8b1161150a57895f52600160205260405f206001600160a01b0333165f5260205267ffffffffffffffff60405f209b169a8b67ffffffffffffffff1982541617905560405160a081019080821067ffffffffffffffff831117611382578b916040528d81528c602082018481526110dd3687896119a7565b90604084019182526110f0368a8c6119a7565b926060850193845260808501955f87525f52600260205260405f206001600160a01b0333165f5260205260405f20905f5260205260405f209351907fffffffffffffffffffffffffffffff00000000000000000000000000000000006fffffffffffffffffffffffffffffffff70ff000000000000000000000000000000008754935160801b16931691161717835560018301905180519067ffffffffffffffff82116113825781906111a3845461179a565b601f81116114ba575b50602090601f8311600114611457575f9261144c575b50508160011b915f199060031b1c19161790555b518051600283019167ffffffffffffffff8211611382576111f7835461179a565b601f8111611407575b50602090601f83116001146113a1576003949392915f9183611396575b50508160011b915f1990861b1c19161790555b019051151560ff80198354169116179055895f52600460205260405f206001600160a01b0333165f5260205260ff60405f2054161561130c575b60405182848237808381015f81520390209b6040519b8c5260208c015260408b015260608a0161010090526101008a01906112a492611a16565b9088820360808a01526112b692611a16565b9086820360a08801526112c892611a16565b9084820360c08601526112da92611a16565b9160e43560e0820152803393037f6a4a61743519c9d648a14e6493f47dbe3ff1aa29e7785c96c8326a205e58febc91a4005b895f52600460205260405f206001600160a01b0333165f5260205260405f20600160ff19825416179055895f52600360205260405f2080546801000000000000000081101561138257611364916001820181556119ed565b81549060031b906001600160a01b0333831b921b191617905561126a565b634e487b7160e01b5f52604160045260245ffd5b015190505f8061121d565b90601f19831691845f52815f20925f5b8181106113ef5750916001939185600398979694106113d8575b505050811b019055611230565b01515f1983881b60f8161c191690555f80806113cb565b929360206001819287860151815501950193016113b1565b835f5260205f20601f840160051c81019160208510611442575b601f0160051c01905b8181106114375750611200565b5f815560010161142a565b9091508190611421565b015190505f806111c2565b5f8581528281209350601f198516905b8181106114a2575090846001959493921061148a575b505050811b0190556111d6565b01515f1960f88460031b161c191690555f808061147d565b92936020600181928786015181550195019301611467565b909150835f5260205f20601f840160051c81019160208510611500575b90601f859493920160051c01905b8181106114f257506111ac565b5f81558493506001016114e5565b90915081906114d7565b634e487b7160e01b5f52601160045260245ffd5b611537915060203d602011610b3757610b298183611853565b8d61101e565b6115549150853d8711610baf57610ba18183611853565b5f610fbb565b61157491925060203d602011610baf57610ba18183611853565b908d610f68565b346100e25760603660031901126100e257611594611656565b61159c61166c565b906004355f5260026020526001600160a01b0360405f2091165f5260205267ffffffffffffffff60405f2091165f5260205260ff60405f2080549061164a600261163c856003850154169361161660405191611606836115ff81600185016117d2565b0384611853565b6115ff60405180968193016117d2565b60405196868897600f0b885260801c16602087015260a0604087015260a0860190611683565b908482036060860152611683565b90151560808301520390f35b602435906001600160a01b03821682036100e257565b6044359067ffffffffffffffff821682036100e257565b805180835260209291819084018484015e5f828201840152601f01601f1916010190565b9181601f840112156100e25782359167ffffffffffffffff83116100e257602083818601950101116100e257565b90602080835192838152019201905f5b8181106116f25750505090565b82516001600160a01b03168452602093840193909201916001016116e5565b9181601f840112156100e25782359167ffffffffffffffff83116100e2576020808501948460051b0101116100e257565b9080602083519182815201916020808360051b8301019401925f915b83831061176d57505050505090565b909192939460208061178b600193601f198682030187528951611683565b9701930193019193929061175e565b90600182811c921680156117c8575b60208310146117b457565b634e487b7160e01b5f52602260045260245ffd5b91607f16916117a9565b5f92918154916117e18361179a565b808352926001811690811561183657506001146117fd57505050565b5f9081526020812093945091925b83831061181c575060209250010190565b60018160209294939454838587010152019101919061180b565b915050602093945060ff929192191683830152151560051b010190565b90601f8019910116810190811067ffffffffffffffff82111761138257604052565b60405190611884604083611853565b600382527f35303000000000000000000000000000000000000000000000000000000000006020830152565b156118b85750565b6118f6906040519182917f08c379a0000000000000000000000000000000000000000000000000000000008352602060048401526024830190611683565b0390fd5b60405190611909604083611853565b600182527f33000000000000000000000000000000000000000000000000000000000000006020830152565b908160209103126100e257516001600160a01b03811681036100e25790565b60405190611963604083611853565b600182527f32000000000000000000000000000000000000000000000000000000000000006020830152565b908160209103126100e2575180151581036100e25790565b92919267ffffffffffffffff821161138257604051916119d1601f8201601f191660200184611853565b8294818452818301116100e2578281602093845f960137010152565b8054821015611a02575f5260205f2001905f90565b634e487b7160e01b5f52603260045260245ffd5b908060209392818452848401375f828201840152601f01601f1916010190565b9190811015611a025760051b0190565b356001600160a01b03811681036100e25790565b67ffffffffffffffff1667ffffffffffffffff811461150a5760010190565b60ff16604d811161150a57600a0a90565b8115611aa457600160ff1b81145f1983141661150a570590565b634e487b7160e01b5f52601260045260245ffd5b92949093919695611aca6109976118fa565b5f955f985f5b818110611b9857505050505050505067ffffffffffffffff8316908115611b8c5790611afb91611a8a565b916f7fffffffffffffffffffffffffffffff83131580611b62575b611b589060405190611b29604083611853565b600182527f360000000000000000000000000000000000000000000000000000000000000060208301526118b0565b91600f0b90601290565b507fffffffffffffffffffffffffffffffff80000000000000000000000000000000831215611b16565b505f9250829160129150565b611ba661086382848b611a36565b875f52600160205260405f206001600160a01b0382165f5260205267ffffffffffffffff60405f2054166001600160a01b0360019216905b8067ffffffffffffffff84161115611bfb57505050600101611ad0565b90919c9a895f52600260205260405f20835f526020528d67ffffffffffffffff60405f2091165f5260205260405f2060ff600382015416611d015789151580611d42575b611d015787151580611d0d575b611d01575460ff81600f0b9160801c16601281105f14611ccc5760120360ff811161150a57611c7a90611a79565b9081810291600160ff1b81145f83121661150a57818305149015171561150a57905b5f828201928312911290801582169115161761150a57611cbf611cc5919c611a5a565b9d611a5a565b9190611bde565b60128111611cdc575b5090611c9c565b601119019060ff821161150a57611cf5611cfb92611a79565b90611a8a565b5f611cd5565b509a9c611cc590611a5a565b50604051611d22816102bb81600286016117d2565b60208151910120611d34368a8c6119a7565b602081519101201415611c4c565b50604051611d57816102bb81600186016117d2565b60208151910120611d69368c8a6119a7565b602081519101201415611c3f565b67ffffffffffffffff81116113825760051b60200190565b90611d9982611d77565b611da66040519182611853565b8281528092611db7601f1991611d77565b0190602036910137565b8051821015611a025760209160051b010190565b5f19811461150a5760010190565b90611ded82611d77565b611dfa6040519182611853565b8281528092611e0b601f1991611d77565b01905f5b828110611e1b57505050565b806060602080938501015201611e0f56fea2646970667358221220d915dd202da0e0f280ac4c515b4dc67f7d1fa9703106d141f5d3cec6b7c4252764736f6c634300081c0033",
  "linkReferences": {},
  "deployedLinkReferences": {},
  "immutableReferences": {},
  "inputSourceName": "project/contracts/ReputationRegistry.sol",
  "buildInfoId": "solc-0_8_28-62d2694970fb777b496a397b3793da24a1713c36"
}