{
  "_format": "hh3-artifact-1",
  "contractName": "ValidationRegistry",
  "sourceName": "contracts/ValidationRegistry.sol",
  "abi": [
    {
      "anonymous": false,
      "inputs": [
        {
          "indexed": true,
          "internalType": "address",
          "name": "validatorAddress",
          "type": "address"
        },
        {
          "indexed": true,
          "internalType": "uint256",
          "name": "agentId",
          "type": "uint256"
        },
        {
          "indexed": false,
          "internalType": "string",
          "name": "requestURI",
          "type": "string"
        },
        {
          "indexed": true,
          "internalType": "bytes32",
          "name": "requestHash",
          "type": "bytes32"
        }
      ],
      "name": "ValidationRequest",
      "type": "event"
    },
    {
      "anonymous": false,
      "inputs": [
        {
          "indexed": true,
          "internalType": "address",
          "name": "validatorAddress",
          "type": "address"
        },
        {
          "indexed": true,
          "internalType": "uint256",
          "name": "agentId",
          "type": "uint256"
        },
        {
          "indexed": true,
          "internalType": "bytes32",
          "name": "requestHash",
          "type": "bytes32"
        },
        {
          "indexed": false,
          "internalType": "uint8",
          "name": "response",
          "type": "uint8"
        },
        {
          "indexed": false,
          "internalType": "string",
          "name": "responseURI",
          "type": "string"
        },
        {
          "indexed": false,
          "internalType": "bytes32",
          "name": "responseHash",
          "type": "bytes32"
        },
        {
          "indexed": false,
          "internalType": "string",
          "name": "tag",
          "type": "string"
        }
      ],
      "name": "ValidationResponse",
      "type": "event"
    },
    {
      "inputs": [
        {
          "internalType": "uint256",
          "name": "agentId",
          "type": "uint256"
        }
      ],
      "name": "getAgentValidations",
      "outputs": [
        {
          "internalType": "bytes32[]",
          "name": "requestHashes",
          "type": "bytes32[]"
        }
      ],
      "stateMutability": "view",
      "type": "function"
    },
    {
      "inputs": [],
      "name": "getIdentityRegistry",
      "outputs": [
        {
          "internalType": "address",
          "name": "identityRegistry",
          "type": "address"
        }
      ],
      "stateMutability": "view",
      "type": "function"
    },
    {
      "inputs": [
        {
          "internalType": "uint256",
          "name": "agentId",
          "type": "uint256"
        },
        {
          "internalType": "address[]",
          "name": "validatorAddresses",
          "type": "address[]"
        },
        {
          "internalType": "string",
          "name": "tag",
          "type": "string"
        }
      ],
      "name": "getSummary",
      "outputs": [
        {
          "internalType": "uint64",
          "name": "count",
          "type": "uint64"
        },
        {
          "internalType": "uint8",
          "name": "averageResponse",
          "type": "uint8"
        }
      ],
      "stateMutability": "view",
      "type": "function"
    },
    {
      "inputs": [
        {
          "internalType": "bytes32",
          "name": "requestHash",
          "type": "bytes32"
        }
      ],
      "name": "getValidationStatus",
      "outputs": [
        {
          "internalType": "address",
          "name": "validatorAddress",
          "type": "address"
        },
        {
          "internalType": "uint256",
          "name": "agentId",
          "type": "uint256"
        },
        {
          "internalType": "uint8",
          "name": "response",
          "type": "uint8"
        },
        {
          "internalType": "bytes32",
          "name": "responseHash",
          "type": "bytes32"
        },
        {
          "internalType": "string",
          "name": "tag",
          "type": "string"
        },
        {
          "internalType": "uint256",
          "name": "lastUpdate",
          "type": "uint256"
        }
      ],
      "stateMutability": "view",
      "type": "function"
    },
    {
      "inputs": [
        {
          "internalType": "address",
          "name": "validatorAddress",
          "type": "address"
        }
      ],
      "name": "getValidatorRequests",
      "outputs": [
        {
          "internalType": "bytes32[]",
          "name": "requestHashes",
          "type": "bytes32[]"
        }
      ],
      "stateMutability": "view",
      "type": "function"
    },
    {
      "inputs": [
        {
          "internalType": "address",
          "name": "identityRegistry_",
          "type": "address"
        }
      ],
      "name": "initialize",
      "outputs": [],
      "stateMutability": "nonpayable",
      "type": "function"
    },
    {
      "inputs": [
        {
          "internalType": "address",
          "name": "validatorAddress",
          "type": "address"
        },
        {
          "internalType": "uint256",
          "name": "agentId",
          "type": "uint256"
        },
        {
          "internalType": "string",
          "name": "requestURI",
          "type": "string"
        },
        {
          "internalType": "bytes32",
          "name": "requestHash",
          "type": "bytes32"
        }
      ],
      "name": "validationRequest",
      "outputs": [],
      "stateMutability": "nonpayable",
      "type": "function"
    },
    {
      "inputs": [
        {
          "internalType": "bytes32",
          "name": "requestHash",
          "type": "bytes32"
        },
        {
          "internalType": "uint8",
          "name": "response",
          "type": "uint8"
        },
        {
          "internalType": "string",
          "name": "responseURI",
          "type": "string"
        },
        {
          "internalType": "bytes32",
          "name": "responseHash",
          "type": "bytes32"
        },
        {
          "internalType": "string",
          "name": "tag",
          "type": "string"
        }
      ],
      "name": "validationResponse",
      "outputs": [],
      "stateMutability": "nonpayable",
      "type": "function"
    }
  ],
  "bytecode": "0x60808060405234601557610dc8908161001a8239f35b5f80fdfe60806040526004361015610011575f80fd5b5f3560e01c80631b7cabd6146108675780633d659a96146105fb5780634bf3158c146105895780638d5d0c2d14610515578063aaf400c4146101ac578063bc4d861b14610185578063c4d66de8146101225763ff2febfc14610071575f80fd5b3461011e57602036600319011261011e576004355f52600160205260405f206100a960ff6006830154166100a3610c28565b90610c47565b60018060a01b03815416600182015491610114600460ff6002840154166003840154906100ec6005860154956100e56040518096819301610a08565b0384610a89565b604051968796875260208701526040860152606085015260c0608085015260c0840190610983565b9060a08301520390f35b5f80fd5b3461011e57602036600319011261011e5761013b610934565b5f5490610159610149610ceb565b6001600160a01b03841615610c47565b6001600160a01b03169061017661016e610c28565b831515610c47565b6001600160a01b031916175f55005b3461011e575f36600319011261011e575f546040516001600160a01b039091168152602090f35b3461011e57608036600319011261011e576101c5610934565b6024356044356001600160401b03811161011e576101e7903690600401610907565b90926064359360018060a01b035f541692604092610222845161020a8682610a89565b600381526203530360ec1b6020820152861515610c47565b6001600160a01b03169361023f610237610c28565b861515610c47565b61025261024a610c28565b881515610c47565b83516331a9108f60e11b815260048101879052602081602481855afa90811561050b575f916104ec575b5060018060a01b031690813314918215610476575b82156103d5575b50507f530436c3634a98e1e626b0898be2f1e9980cc1bd2a78c07a0aba52d0a48a5059936102cb61037a926100a3610c77565b875f526001602052805f206006810160ff815416155f1461039e57600160ff19825416179055866bffffffffffffffffffffffff60a01b8254161781558760018201556002810160ff1981541690555f60038201555f6004820161032f81546109d0565b601f811161037f575b5055600542910155865f52600260205261035488825f20610d0a565b855f52600360205261036888825f20610d0a565b51928392602084526020840191610cac565b0390a4005b8183526020832061039891601f0160051c810190610c96565b8b610338565b5080546103b8906001600160a01b031688146100a3610ceb565b6103ca886001830154146100a3610ceb565b600542910155610368565b6020919250604486518094819363e985e9c560e01b835260048301523360248301525afa90811561046c575f91610411575b50836102cb610298565b90506020813d602011610464575b8161042c60209383610a89565b8101031261011e5751801515810361011e577f530436c3634a98e1e626b0898be2f1e9980cc1bd2a78c07a0aba52d0a48a5059610407565b3d915061041f565b84513d5f823e3d90fd5b9150845163020604bf60e21b8152876004820152602081602481855afa9081156104e2575f916104b3575b506001600160a01b0316331491610291565b6104d5915060203d6020116104db575b6104cd8183610a89565b810190610ccc565b896104a1565b503d6104c3565b86513d5f823e3d90fd5b610505915060203d6020116104db576104cd8183610a89565b8861027c565b85513d5f823e3d90fd5b3461011e57602036600319011261011e576004355f52600260205260405f206040519081602082549182815201915f5260205f20905f5b8181106105735761056f8561056381870382610a89565b6040519182918261094a565b0390f35b825484526020909301926001928301920161054c565b3461011e57602036600319011261011e576001600160a01b036105aa610934565b165f52600360205260405f206040519081602082549182815201915f5260205f20905f5b8181106105e55761056f8561056381870382610a89565b82548452602090930192600192830192016105ce565b3461011e5760a036600319011261011e5760043560243560ff811680910361011e576044356001600160401b03811161011e5761063c903690600401610907565b606492919235916084356001600160401b03811161011e57610662903690600401610907565b61067a610670959295610c28565b6064851115610c47565b865f52600160205260405f209461069a60ff6006880154166100a3610c28565b6106b160018060a01b0387541633146100a3610c77565b600286018460ff19825416179055826003870155600486016001600160401b038311610853576106e181546109d0565b601f8111610818575b505f601f841160011461078c5791839161037a947fafddf629e874ccc3963b6a888c477bd464a6c8525024fc88759ea3b2326349ae989796945f91610781575b508360011b905f198560031b1c19161790555b42600589015561076e6001808060a01b038a5416990154996040519788978852608060208901526080880191610cac565b9260408601528483036060860152610cac565b90508201358c61072a565b601f19841690825f5260205f20915f5b81811061080057509185939161037a967fafddf629e874ccc3963b6a888c477bd464a6c8525024fc88759ea3b2326349ae9a99989694106107e7575b5050600183811b01905561073d565b8301355f19600386901b60f8161c191690558b806107d8565b9192602060018192868901358155019401920161079c565b61084390825f5260205f20601f860160051c81019160208710610849575b601f0160051c0190610c96565b896106ea565b9091508190610836565b634e487b7160e01b5f52604160045260245ffd5b3461011e57606036600319011261011e576024356001600160401b03811161011e573660238201121561011e578060040135906001600160401b03821161011e573660248360051b8301011161011e57604435916001600160401b03831161011e57602460ff926108ee926108e26040963690600401610907565b93909201600435610aaa565b6001600160401b03849392935193168352166020820152f35b9181601f8401121561011e578235916001600160401b03831161011e576020838186019501011161011e57565b600435906001600160a01b038216820361011e57565b60206040818301928281528451809452019201905f5b81811061096d5750505090565b8251845260209384019390920191600101610960565b805180835260209291819084018484015e5f828201840152601f01601f1916010190565b80548210156109bc575f5260205f2001905f90565b634e487b7160e01b5f52603260045260245ffd5b90600182811c921680156109fe575b60208310146109ea57565b634e487b7160e01b5f52602260045260245ffd5b91607f16916109df565b5f9291815491610a17836109d0565b8083529260018116908115610a6c5750600114610a3357505050565b5f9081526020812093945091925b838310610a52575060209250010190565b600181602092949394548385870101520191019190610a41565b915050602093945060ff929192191683830152151560051b010190565b90601f801991011681019081106001600160401b0382111761085357604052565b949392945f52600260205260405f20905f955f945f948454945b858710610af557505050505050506001600160401b038116908115610aeb57920460ff1690565b505090505f905f90565b9091929394959698610b0788836109a7565b90549060031b1c5f52600160205260405f2060ff60068201541615610b915783151580610c0b575b610b915784151580610b9c575b610b9157600260ff910154168101809111610b7d576001600160401b039099166001600160401b038114610b7d576001809101975b01959493929190610ac4565b634e487b7160e01b5f52601160045260245ffd5b509896600190610b71565b50604051610bb881610bb18160048601610a08565b0382610a89565b602081519101206001600160401b03861161085357604051610be4601f8801601f191660200182610a89565b868152602081019036888a011161011e57878983375f602089830101525190201415610b3c565b508054610c22906001600160a01b03168589610d43565b15610b2f565b60405190610c37604083610a89565b60018252603360f81b6020830152565b15610c4f5750565b60405162461bcd60e51b815260206004820152908190610c73906024830190610983565b0390fd5b60405190610c86604083610a89565b60018252601960f91b6020830152565b818110610ca1575050565b5f8155600101610c96565b908060209392818452848401375f828201840152601f01601f1916010190565b9081602091031261011e57516001600160a01b038116810361011e5790565b60405190610cfa604083610a89565b60018252600d60fa1b6020830152565b80546801000000000000000081101561085357610d2c916001820181556109a7565b819291549060031b91821b915f19901b1916179055565b9190915f5b83811015610d8a57600581901b8201356001600160a01b0381169081900361011e576001600160a01b03841614610d8157600101610d48565b50505050600190565b505050505f9056fea2646970667358221220d37622c4209e69c10da7a525448de471192ca2f6e68fb9170444f05950d2b80c64736f6c634300081c0033",
  "linkReferences": {},
  "deployedLinkReferences": {},
  "immutableReferences": {},
  "inputSourceName": "project/contracts/ValidationRegistry.sol",
  "buildInfoId": "solc-0_8_28-b0a5a0556e4e1af0413e7fd22d109b824ed847e5"
}