{
  "_format": "hh3-artifact-1",
  "contractName": "IdentityRegistry",
  "sourceName": "contracts/IdentityRegistry.sol",
  "abi": [
    {
      "inputs": [],
      "stateMutability": "nonpayable",
      "type": "constructor"
    },
    {
      "inputs": [],
      "name": "ECDSAInvalidSignature",
      "type": "error"
    },
    {
      "inputs": [
        {
          "internalType": "uint256",
          "name": "length",
          "type": "uint256"
        }
      ],
      "name": "ECDSAInvalidSignatureLength",
      "type": "error"
    },
    {
      "inputs": [
        {
          "internalType": "bytes32",
          "name": "s",
          "type": "bytes32"
        }
      ],
      "name": "ECDSAInvalidSignatureS",
      "type": "error"
    },
    {
      "inputs": [
        {
          "internalType": "address",
          "name": "sender",
          "type": "address"
        },
        {
          "internalType": "uint256",
          "name": "tokenId",
          "type": "uint256"
        },
        {
          "internalType": "address",
          "name": "owner",
          "type": "address"
        }
      ],
      "name": "ERC721IncorrectOwner",
      "type": "error"
    },
    {
      "inputs": [
        {
          "internalType": "address",
          "name": "operator",
          "type": "address"
        },
        {
          "internalType": "uint256",
          "name": "tokenId",
          "type": "uint256"
        }
      ],
      "name": "ERC721InsufficientApproval",
      "type": "error"
    },
    {
      "inputs": [
        {
          "internalType": "address",
          "name": "approver",
          "type": "address"
        }
      ],
      "name": "ERC721InvalidApprover",
      "type": "error"
    },
    {
      "inputs": [
        {
          "internalType": "address",
          "name": "operator",
          "type": "address"
        }
      ],
      "name": "ERC721InvalidOperator",
      "type": "error"
    },
    {
      "inputs": [
        {
          "internalType": "address",
          "name": "owner",
          "type": "address"
        }
      ],
      "name": "ERC721InvalidOwner",
      "type": "error"
    },
    {
      "inputs": [
        {
          "internalType": "address",
          "name": "receiver",
          "type": "address"
        }
      ],
      "name": "ERC721InvalidReceiver",
      "type": "error"
    },
    {
      "inputs": [
        {
          "internalType": "address",
          "name": "sender",
          "type": "address"
        }
      ],
      "name": "ERC721InvalidSender",
      "type": "error"
    },
    {
      "inputs": [
        {
          "internalType": "uint256",
          "name": "tokenId",
          "type": "uint256"
        }
      ],
      "name": "ERC721NonexistentToken",
      "type": "error"
    },
    {
      "inputs": [],
      "name": "InvalidShortString",
      "type": "error"
    },
    {
      "inputs": [
        {
          "internalType": "string",
          "name": "str",
          "type": "string"
        }
      ],
      "name": "StringTooLong",
      "type": "error"
    },
    {
      "anonymous": false,
      "inputs": [
        {
          "indexed": true,
          "internalType": "address",
          "name": "owner",
          "type": "address"
        },
        {
          "indexed": true,
          "internalType": "address",
          "name": "approved",
          "type": "address"
        },
        {
          "indexed": true,
          "internalType": "uint256",
          "name": "tokenId",
          "type": "uint256"
        }
      ],
      "name": "Approval",
      "type": "event"
    },
    {
      "anonymous": false,
      "inputs": [
        {
          "indexed": true,
          "internalType": "address",
          "name": "owner",
          "type": "address"
        },
        {
          "indexed": true,
          "internalType": "address",
          "name": "operator",
          "type": "address"
        },
        {
          "indexed": false,
          "internalType": "bool",
          "name": "approved",
          "type": "bool"
        }
      ],
      "name": "ApprovalForAll",
      "type": "event"
    },
    {
      "anonymous": false,
      "inputs": [
        {
          "indexed": false,
          "internalType": "uint256",
          "name": "_fromTokenId",
          "type": "uint256"
        },
        {
          "indexed": false,
          "internalType": "uint256",
          "name": "_toTokenId",
          "type": "uint256"
        }
      ],
      "name": "BatchMetadataUpdate",
      "type": "event"
    },
    {
      "anonymous": false,
      "inputs": [
        {
          "indexed": true,
          "internalType": "address",
          "name": "to",
          "type": "address"
        },
        {
          "indexed": true,
          "internalType": "uint256",
          "name": "sourceTokenId",
          "type": "uint256"
        },
        {
          "indexed": true,
          "internalType": "uint256",
          "name": "newTokenId",
          "type": "uint256"
        }
      ],
      "name": "Cloned",
      "type": "event"
    },
    {
      "anonymous": false,
      "inputs": [],
      "name": "EIP712DomainChanged",
      "type": "event"
    },
    {
      "anonymous": false,
      "inputs": [
        {
          "indexed": true,
          "internalType": "uint256",
          "name": "agentId",
          "type": "uint256"
        },
        {
          "indexed": true,
          "internalType": "string",
          "name": "indexedMetadataKey",
          "type": "string"
        },
        {
          "indexed": false,
          "internalType": "string",
          "name": "metadataKey",
          "type": "string"
        },
        {
          "indexed": false,
          "internalType": "bytes",
          "name": "metadataValue",
          "type": "bytes"
        }
      ],
      "name": "MetadataSet",
      "type": "event"
    },
    {
      "anonymous": false,
      "inputs": [
        {
          "indexed": false,
          "internalType": "uint256",
          "name": "_tokenId",
          "type": "uint256"
        }
      ],
      "name": "MetadataUpdate",
      "type": "event"
    },
    {
      "anonymous": false,
      "inputs": [
        {
          "indexed": true,
          "internalType": "uint256",
          "name": "agentId",
          "type": "uint256"
        },
        {
          "indexed": false,
          "internalType": "string",
          "name": "agentURI",
          "type": "string"
        },
        {
          "indexed": true,
          "internalType": "address",
          "name": "owner",
          "type": "address"
        }
      ],
      "name": "Registered",
      "type": "event"
    },
    {
      "anonymous": false,
      "inputs": [
        {
          "indexed": true,
          "internalType": "address",
          "name": "from",
          "type": "address"
        },
        {
          "indexed": true,
          "internalType": "address",
          "name": "to",
          "type": "address"
        },
        {
          "indexed": true,
          "internalType": "uint256",
          "name": "tokenId",
          "type": "uint256"
        }
      ],
      "name": "Transfer",
      "type": "event"
    },
    {
      "anonymous": false,
      "inputs": [
        {
          "indexed": true,
          "internalType": "address",
          "name": "from",
          "type": "address"
        },
        {
          "indexed": true,
          "internalType": "address",
          "name": "to",
          "type": "address"
        },
        {
          "indexed": true,
          "internalType": "uint256",
          "name": "tokenId",
          "type": "uint256"
        }
      ],
      "name": "Transferred",
      "type": "event"
    },
    {
      "anonymous": false,
      "inputs": [
        {
          "indexed": true,
          "internalType": "uint256",
          "name": "agentId",
          "type": "uint256"
        },
        {
          "indexed": false,
          "internalType": "string",
          "name": "newURI",
          "type": "string"
        },
        {
          "indexed": true,
          "internalType": "address",
          "name": "updatedBy",
          "type": "address"
        }
      ],
      "name": "URIUpdated",
      "type": "event"
    },
    {
      "inputs": [
        {
          "internalType": "address",
          "name": "to",
          "type": "address"
        },
        {
          "internalType": "uint256",
          "name": "tokenId",
          "type": "uint256"
        }
      ],
      "name": "approve",
      "outputs": [],
      "stateMutability": "nonpayable",
      "type": "function"
    },
    {
      "inputs": [
        {
          "internalType": "uint256",
          "name": "tokenId",
          "type": "uint256"
        },
        {
          "internalType": "address",
          "name": "",
          "type": "address"
        },
        {
          "internalType": "bytes",
          "name": "",
          "type": "bytes"
        }
      ],
      "name": "authorizeUsage",
      "outputs": [],
      "stateMutability": "view",
      "type": "function"
    },
    {
      "inputs": [
        {
          "internalType": "address",
          "name": "owner",
          "type": "address"
        }
      ],
      "name": "balanceOf",
      "outputs": [
        {
          "internalType": "uint256",
          "name": "",
          "type": "uint256"
        }
      ],
      "stateMutability": "view",
      "type": "function"
    },
    {
      "inputs": [
        {
          "internalType": "address",
          "name": "to",
          "type": "address"
        },
        {
          "internalType": "uint256",
          "name": "tokenId",
          "type": "uint256"
        },
        {
          "internalType": "bytes",
          "name": "sealedKey",
          "type": "bytes"
        },
        {
          "internalType": "bytes",
          "name": "proof",
          "type": "bytes"
        }
      ],
      "name": "clone",
      "outputs": [
        {
          "internalType": "uint256",
          "name": "newTokenId",
          "type": "uint256"
        }
      ],
      "stateMutability": "nonpayable",
      "type": "function"
    },
    {
      "inputs": [],
      "name": "eip712Domain",
      "outputs": [
        {
          "internalType": "bytes1",
          "name": "fields",
          "type": "bytes1"
        },
        {
          "internalType": "string",
          "name": "name",
          "type": "string"
        },
        {
          "internalType": "string",
          "name": "version",
          "type": "string"
        },
        {
          "internalType": "uint256",
          "name": "chainId",
          "type": "uint256"
        },
        {
          "internalType": "address",
          "name": "verifyingContract",
          "type": "address"
        },
        {
          "internalType": "bytes32",
          "name": "salt",
          "type": "bytes32"
        },
        {
          "internalType": "uint256[]",
          "name": "extensions",
          "type": "uint256[]"
        }
      ],
      "stateMutability": "view",
      "type": "function"
    },
    {
      "inputs": [
        {
          "internalType": "uint256",
          "name": "agentId",
          "type": "uint256"
        }
      ],
      "name": "getAgentWallet",
      "outputs": [
        {
          "internalType": "address",
          "name": "",
          "type": "address"
        }
      ],
      "stateMutability": "view",
      "type": "function"
    },
    {
      "inputs": [
        {
          "internalType": "uint256",
          "name": "tokenId",
          "type": "uint256"
        }
      ],
      "name": "getApproved",
      "outputs": [
        {
          "internalType": "address",
          "name": "",
          "type": "address"
        }
      ],
      "stateMutability": "view",
      "type": "function"
    },
    {
      "inputs": [
        {
          "internalType": "uint256",
          "name": "agentId",
          "type": "uint256"
        },
        {
          "internalType": "string",
          "name": "metadataKey",
          "type": "string"
        }
      ],
      "name": "getMetadata",
      "outputs": [
        {
          "internalType": "bytes",
          "name": "",
          "type": "bytes"
        }
      ],
      "stateMutability": "view",
      "type": "function"
    },
    {
      "inputs": [
        {
          "internalType": "address",
          "name": "owner",
          "type": "address"
        },
        {
          "internalType": "address",
          "name": "operator",
          "type": "address"
        }
      ],
      "name": "isApprovedForAll",
      "outputs": [
        {
          "internalType": "bool",
          "name": "",
          "type": "bool"
        }
      ],
      "stateMutability": "view",
      "type": "function"
    },
    {
      "inputs": [],
      "name": "name",
      "outputs": [
        {
          "internalType": "string",
          "name": "",
          "type": "string"
        }
      ],
      "stateMutability": "view",
      "type": "function"
    },
    {
      "inputs": [
        {
          "internalType": "uint256",
          "name": "tokenId",
          "type": "uint256"
        }
      ],
      "name": "ownerOf",
      "outputs": [
        {
          "internalType": "address",
          "name": "",
          "type": "address"
        }
      ],
      "stateMutability": "view",
      "type": "function"
    },
    {
      "inputs": [],
      "name": "register",
      "outputs": [
        {
          "internalType": "uint256",
          "name": "agentId",
          "type": "uint256"
        }
      ],
      "stateMutability": "nonpayable",
      "type": "function"
    },
    {
      "inputs": [
        {
          "internalType": "string",
          "name": "agentURI",
          "type": "string"
        },
        {
          "components": [
            {
              "internalType": "string",
              "name": "metadataKey",
              "type": "string"
            },
            {
              "internalType": "bytes",
              "name": "metadataValue",
              "type": "bytes"
            }
          ],
          "internalType": "struct IdentityRegistry.MetadataEntry[]",
          "name": "metadata",
          "type": "tuple[]"
        }
      ],
      "name": "register",
      "outputs": [
        {
          "internalType": "uint256",
          "name": "agentId",
          "type": "uint256"
        }
      ],
      "stateMutability": "nonpayable",
      "type": "function"
    },
    {
      "inputs": [
        {
          "internalType": "string",
          "name": "agentURI",
          "type": "string"
        }
      ],
      "name": "register",
      "outputs": [
        {
          "internalType": "uint256",
          "name": "agentId",
          "type": "uint256"
        }
      ],
      "stateMutability": "nonpayable",
      "type": "function"
    },
    {
      "inputs": [
        {
          "internalType": "address",
          "name": "from",
          "type": "address"
        },
        {
          "internalType": "address",
          "name": "to",
          "type": "address"
        },
        {
          "internalType": "uint256",
          "name": "tokenId",
          "type": "uint256"
        }
      ],
      "name": "safeTransferFrom",
      "outputs": [],
      "stateMutability": "nonpayable",
      "type": "function"
    },
    {
      "inputs": [
        {
          "internalType": "address",
          "name": "from",
          "type": "address"
        },
        {
          "internalType": "address",
          "name": "to",
          "type": "address"
        },
        {
          "internalType": "uint256",
          "name": "tokenId",
          "type": "uint256"
        },
        {
          "internalType": "bytes",
          "name": "data",
          "type": "bytes"
        }
      ],
      "name": "safeTransferFrom",
      "outputs": [],
      "stateMutability": "nonpayable",
      "type": "function"
    },
    {
      "inputs": [
        {
          "internalType": "uint256",
          "name": "agentId",
          "type": "uint256"
        },
        {
          "internalType": "string",
          "name": "newURI",
          "type": "string"
        }
      ],
      "name": "setAgentURI",
      "outputs": [],
      "stateMutability": "nonpayable",
      "type": "function"
    },
    {
      "inputs": [
        {
          "internalType": "uint256",
          "name": "agentId",
          "type": "uint256"
        },
        {
          "internalType": "address",
          "name": "newWallet",
          "type": "address"
        },
        {
          "internalType": "uint256",
          "name": "deadline",
          "type": "uint256"
        },
        {
          "internalType": "bytes",
          "name": "signature",
          "type": "bytes"
        }
      ],
      "name": "setAgentWallet",
      "outputs": [],
      "stateMutability": "nonpayable",
      "type": "function"
    },
    {
      "inputs": [
        {
          "internalType": "address",
          "name": "operator",
          "type": "address"
        },
        {
          "internalType": "bool",
          "name": "approved",
          "type": "bool"
        }
      ],
      "name": "setApprovalForAll",
      "outputs": [],
      "stateMutability": "nonpayable",
      "type": "function"
    },
    {
      "inputs": [
        {
          "internalType": "uint256",
          "name": "agentId",
          "type": "uint256"
        },
        {
          "internalType": "string",
          "name": "metadataKey",
          "type": "string"
        },
        {
          "internalType": "bytes",
          "name": "metadataValue",
          "type": "bytes"
        }
      ],
      "name": "setMetadata",
      "outputs": [],
      "stateMutability": "nonpayable",
      "type": "function"
    },
    {
      "inputs": [
        {
          "internalType": "bytes4",
          "name": "interfaceId",
          "type": "bytes4"
        }
      ],
      "name": "supportsInterface",
      "outputs": [
        {
          "internalType": "bool",
          "name": "",
          "type": "bool"
        }
      ],
      "stateMutability": "view",
      "type": "function"
    },
    {
      "inputs": [],
      "name": "symbol",
      "outputs": [
        {
          "internalType": "string",
          "name": "",
          "type": "string"
        }
      ],
      "stateMutability": "view",
      "type": "function"
    },
    {
      "inputs": [
        {
          "internalType": "uint256",
          "name": "tokenId",
          "type": "uint256"
        }
      ],
      "name": "tokenURI",
      "outputs": [
        {
          "internalType": "string",
          "name": "",
          "type": "string"
        }
      ],
      "stateMutability": "view",
      "type": "function"
    },
    {
      "inputs": [
        {
          "internalType": "address",
          "name": "from",
          "type": "address"
        },
        {
          "internalType": "address",
          "name": "to",
          "type": "address"
        },
        {
          "internalType": "uint256",
          "name": "tokenId",
          "type": "uint256"
        },
        {
          "internalType": "bytes",
          "name": "sealedKey",
          "type": "bytes"
        },
        {
          "internalType": "bytes",
          "name": "proof",
          "type": "bytes"
        }
      ],
      "name": "transfer",
      "outputs": [],
      "stateMutability": "nonpayable",
      "type": "function"
    },
    {
      "inputs": [
        {
          "internalType": "address",
          "name": "from",
          "type": "address"
        },
        {
          "internalType": "address",
          "name": "to",
          "type": "address"
        },
        {
          "internalType": "uint256",
          "name": "tokenId",
          "type": "uint256"
        }
      ],
      "name": "transferFrom",
      "outputs": [],
      "stateMutability": "nonpayable",
      "type": "function"
    },
    {
      "inputs": [
        {
          "internalType": "uint256",
          "name": "agentId",
          "type": "uint256"
        }
      ],
      "name": "unsetAgentWallet",
      "outputs": [],
      "stateMutability": "nonpayable",
      "type": "function"
    }
  ],
  "bytecode": "0x6101606040523461044057604051610018604082610444565b601a815260208101907f5261696c6265616d204964656e74697479205265676973747279000000000000825260405191610053604084610444565b600183526020830191603160f81b8352604051610071604082610444565b600f81526e5261696c6265616d204167656e747360881b60208201526040519061009c604083610444565b60058252641051d1539560da1b60208301528051906001600160401b038211610347575f5490600182811c92168015610436575b60208310146103295781601f8493116103c9575b50602090601f8311600114610366575f9261035b575b50508160011b915f199060031b1c1916175f555b8051906001600160401b0382116103475760015490600182811c9216801561033d575b60208310146103295781601f8493116102bb575b50602090601f8311600114610255575f9261024a575b50508160011b915f199060031b1c1916176001555b61017981610467565b61012052610186846105ee565b61014052519020918260e05251902080610100524660a0526040519060208201927f8b73c3c69bb8fe3d512ecc4cf759cc79239f7b179b0ffacaa9a75d522b39400f8452604083015260608201524660808201523060a082015260a081526101ef60c082610444565b5190206080523060c05260405161237f908161072782396080518161207b015260a05181612138015260c05181612045015260e051816120ca015261010051816120f001526101205181610937015261014051816109600152f35b015190505f8061015b565b60015f9081528281209350601f198516905b8181106102a3575090846001959493921061028b575b505050811b01600155610170565b01515f1960f88460031b161c191690555f808061027d565b92936020600181928786015181550195019301610267565b60015f529091507fb10e2d527612073b26eecdfd717e6a320cf44b4afac2b0732d9fcbe2b7fa0cf6601f840160051c8101916020851061031f575b90601f859493920160051c01905b8181106103115750610145565b5f8155849350600101610304565b90915081906102f6565b634e487b7160e01b5f52602260045260245ffd5b91607f1691610131565b634e487b7160e01b5f52604160045260245ffd5b015190505f806100fa565b5f8080528281209350601f198516905b8181106103b15750908460019594939210610399575b505050811b015f5561010e565b01515f1960f88460031b161c191690555f808061038c565b92936020600181928786015181550195019301610376565b5f80529091507f290decd9548b62a8d60345a988386fc84ba6bc95484008f6362f93160ef3e563601f840160051c8101916020851061042c575b90601f859493920160051c01905b81811061041e57506100e4565b5f8155849350600101610411565b9091508190610403565b91607f16916100d0565b5f80fd5b601f909101601f19168101906001600160401b0382119082101761034757604052565b908151602081105f146104e1575090601f8151116104a1576020815191015160208210610492571790565b5f198260200360031b1b161790565b604460209160405192839163305a27a960e01b83528160048401528051918291826024860152018484015e5f828201840152601f01601f19168101030190fd5b6001600160401b03811161034757600754600181811c911680156105e4575b602082101461032957601f81116105b1575b50602092601f821160011461055057928192935f92610545575b50508160011b915f199060031b1c19161760075560ff90565b015190505f8061052c565b601f1982169360075f52805f20915f5b8681106105995750836001959610610581575b505050811b0160075560ff90565b01515f1960f88460031b161c191690555f8080610573565b91926020600181928685015181550194019201610560565b60075f52601f60205f20910160051c810190601f830160051c015b8181106105d95750610512565b5f81556001016105cc565b90607f1690610500565b908151602081105f14610619575090601f8151116104a1576020815191015160208210610492571790565b6001600160401b03811161034757600854600181811c9116801561071c575b602082101461032957601f81116106e9575b50602092601f821160011461068857928192935f9261067d575b50508160011b915f199060031b1c19161760085560ff90565b015190505f80610664565b601f1982169360085f52805f20915f5b8681106106d157508360019596106106b9575b505050811b0160085560ff90565b01515f1960f88460031b161c191690555f80806106ab565b91926020600181928685015181550194019201610698565b60085f52601f60205f20910160051c810190601f830160051c015b818110610711575061064a565b5f8155600101610704565b90607f169061063856fe60806040526004361015610011575f80fd5b5f3560e01c8062339509146111b757806301ffc9a71461112f57806306fdde031461108d578063081812fc14611051578063095ea7b314610f675780630af28bd314610ed75780631aa3a00814610ead57806323b872dd14610e965780632d1ef5ae14610c1e5780633fddcf1914610b8e57806342842e0e14610b5f578063466648da14610ae35780636352211e14610ab357806370a0823114610a625780637b297a6f14610a1757806384b0196e1461091f5780638ea422861461067157806395d89b41146105a7578063a22cb465146104f3578063b88d4fde14610497578063c78fed0414610376578063c87b56dd14610357578063ca14bee71461026b578063cb4799f2146101dd578063e985e9c5146101865763f2c298be14610136575f80fd5b34610182576020366003190112610182576004356001600160401b0381116101825761017a61017561016e6020933690600401611243565b3691611315565b61193b565b604051908152f35b5f80fd5b346101825760403660031901126101825761019f611217565b6101a761122d565b9060018060a01b03165f52600560205260405f209060018060a01b03165f52602052602060ff60405f2054166040519015158152f35b34610182576040366003190112610182576004356024356001600160401b0381116101825761021090369060040161134b565b61021982611791565b5060208151910120905f52600a60205260405f20905f5260205261026761024c61025360405f20604051928380926113a1565b03826112d9565b6040519182916020835260208301906111f3565b0390f35b3461018257608036600319011261018257610284611217565b602435906044356001600160401b038111610182576102a7903690600401611243565b5050606435916001600160401b038311610182576102cb6020933690600401611243565b50506102e1816102da81611791565b3390611f92565b60095480916102ef8261176f565b6009556102fc8285611e52565b805f526006855261032261024c61031c60405f20604051928380926113a1565b83611814565b604051936001600160a01b03167fb0a2f55470ff509e62da0057e1dc2705b885b8722a571b3f1705ea25addd7fcc5f80a48152f35b34610182576020366003190112610182576102676102536004356116b5565b346101825760a03660031901126101825761038f611217565b61039761122d565b604435916064356001600160401b038111610182576103ba903690600401611243565b50506084356001600160401b038111610182576103db903690600401611243565b50506103ea836102da81611791565b6001600160a01b038216918215610484576001600160a01b039061040f908590611a63565b16806104285783637e27328960e01b5f5260045260245ffd5b6001600160a01b03821680820361046a5750506001600160a01b03167fd1ba4ac2e2a11b5101f6cb4d978f514a155b421e8ec396d2d9abaf0bb02917ee5f80a4005b84906364283d7b60e01b5f5260045260245260445260645ffd5b633250574960e11b5f525f60045260245ffd5b34610182576080366003190112610182576104b0611217565b6104b861122d565b90604435606435926001600160401b038411610182576104df6104f194369060040161134b565b926104eb838383611442565b33611d40565b005b346101825760403660031901126101825761050c611217565b60243590811515809203610182573315610594576001600160a01b031690811561058157335f52600560205260405f20825f5260205260405f2060ff1981541660ff83161790556040519081527f17307eab39ab6107e8899845ad3d59bd9653f200f220920489ca2b5937696c3160203392a3005b50630b61174360e31b5f5260045260245ffd5b63a9fbf51f60e01b5f525f60045260245ffd5b34610182575f366003190112610182576040515f6001546105c781611369565b808452906001811690811561064d57506001146105ef575b61026783610253818503826112d9565b60015f9081527fb10e2d527612073b26eecdfd717e6a320cf44b4afac2b0732d9fcbe2b7fa0cf6939250905b808210610633575090915081016020016102536105df565b91926001816020925483858801015201910190929161061b565b60ff191660208086019190915291151560051b8401909101915061025390506105df565b34610182576040366003190112610182576004356001600160401b038111610182576106a1903690600401611243565b6024356001600160401b0381116101825736602382011215610182578060040135906001600160401b038211610182573660248360051b83010111610182576106eb829392611676565b936106f960405195866112d9565b838552601f1961070885611676565b015f5b8181106108f45750503682900360621901925f5b858110156107c15760248160051b8501013585811215610182578401906040602319833603011261018257604051610756816112aa565b60248301356001600160401b03811161018257610779906024369186010161134b565b815260448301356001600160401b0381116101825760019360246107a0923692010161134b565b60208201526107af828a61168d565b526107ba818961168d565b500161071f565b866107cd368486611315565b906107d960095461176f565b90816009556107e88233611e52565b82516108e5575b815f52600b60205260405f2060018060a01b0333166001600160601b0360a01b8254161790556040513360208201526020815261082d6040826112d9565b825f51602061232a5f395f51905f52610863600b6040516a1859d95b9d15d85b1b195d60aa1b8152209360405191829182611643565b0390a35f5b815181101561089f57806108996108816001938561168d565b5151602061088f848761168d565b5101519086611bae565b01610868565b60208385817fca52e62c367d81bb2e328eb795f7c7ba24afb478408a26c0e201d155c449bc4a604051858152806108da3395888301906111f3565b0390a3604051908152f35b6108ef8383611814565b6107ef565b602090604096959651610906816112aa565b6060815260608382015282828a0101520194939461070b565b34610182575f366003190112610182576109bb61095b7f000000000000000000000000000000000000000000000000000000000000000061220c565b6109847f0000000000000000000000000000000000000000000000000000000000000000612265565b60206109c96040519261099783856112d9565b5f84525f368137604051958695600f60f81b875260e08588015260e08701906111f3565b9085820360408701526111f3565b4660608501523060808501525f60a085015283810360c08501528180845192838152019301915f5b828110610a0057505050500390f35b8351855286955093810193928101926001016109f1565b3461018257606036600319011261018257600435610a3361122d565b50604435906001600160401b03821161018257610a576104f1923690600401611243565b50506102da81611791565b34610182576020366003190112610182576001600160a01b03610a83611217565b168015610aa0575f526003602052602060405f2054604051908152f35b6322718ad960e21b5f525f60045260245ffd5b34610182576020366003190112610182576020610ad1600435611791565b6040516001600160a01b039091168152f35b34610182576060366003190112610182576004356024356001600160401b03811161018257610b16903690600401611243565b91906044356001600160401b038111610182576104f193610b51610b41610b59933690600401611243565b94909261016e876102da81611791565b923691611315565b91611bae565b34610182576104f1610b7036611270565b9060405192610b806020856112d9565b5f84526104eb838383611442565b3461018257602036600319011261018257600435610baf816102da81611791565b805f52600b60205260405f206001600160601b0360a01b8154169055604051905f602083015260208252610be46040836112d9565b5f51602061232a5f395f51905f52610c19600b6040516a1859d95b9d15d85b1b195d60aa1b8152209360405191829182611643565b0390a3005b3461018257608036600319011261018257600435610c3a61122d565b90604435916064356001600160401b03811161018257610c5e903690600401611243565b9091610c6d846102da81611791565b60018060a01b038116916042604096610ca18851610c8b8a826112d9565b60018152603360f81b60208201528615156115d2565b610cc98851610cb08a826112d9565b600381526236303160e81b6020820152824211156115d2565b875160208101917f5a2b87f3673ca6856d85d54cb1a9eb690f53c4d6b0954db34c84fe6c19c80d948352888a830152866060830152608082015260808152610d1260a0826112d9565b519020610d1d612042565b9088519161190160f01b83526002830152602282015220913b155f14610de157610d74610d6b610c199493610d655f51602061232a5f395f51905f5297610d8d953691611315565b9061215e565b90929192612198565b82610d7d611622565b916001600160a01b0316146115d2565b835f52600b602052845f20816001600160601b0360a01b825416179055845190602082015260208152610dc085826112d9565b600b85516a1859d95b9d15d85b1b195d60aa1b815220945191829182611643565b602091610e0d87519586938493630b135d3f60e11b855260048501528960248501526044840191611422565b0381845afa908115610e8c57610e58610c19925f51602061232a5f395f51905f52945f91610e5d575b50610e3f611622565b906001600160e01b031916630b135d3f60e11b146115d2565b610d8d565b610e7f915060203d602011610e85575b610e7781836112d9565b810190611602565b87610e36565b503d610e6d565b84513d5f823e3d90fd5b34610182576104f1610ea736611270565b91611442565b34610182575f36600319011261018257602061017a604051610ecf83826112d9565b5f815261193b565b34610182576040366003190112610182576024356004356001600160401b038211610182577f3a2c7fffc2cba7582c690e3b82c453ea02a308326a98a3ad7576c606336409fb610f2e610c19933690600401611243565b9390610f3d846102da81611791565b610f51610f4b368784611315565b85611814565b6040519182916020835233966020840191611422565b3461018257604036600319011261018257610f80611217565b602435610f8c81611791565b3315158061103e575b80611011575b610ffe5781906001600160a01b0384811691167f8c5be1e5ebec7d5bd14f71427d1e84f3dd0314c0f7b2291e5b200ac8c7c3b9255f80a45f90815260046020526040902080546001600160a01b0319166001600160a01b03909216919091179055005b63a9fbf51f60e01b5f523360045260245ffd5b506001600160a01b0381165f90815260056020908152604080832033845290915290205460ff1615610f9b565b506001600160a01b038116331415610f95565b346101825760203660031901126101825760043561106e81611791565b505f526004602052602060018060a01b0360405f205416604051908152f35b34610182575f366003190112610182576040515f5f546110ac81611369565b808452906001811690811561064d57506001146110d35761026783610253818503826112d9565b5f8080527f290decd9548b62a8d60345a988386fc84ba6bc95484008f6362f93160ef3e563939250905b808210611115575090915081016020016102536105df565b9192600181602092548385880101520191019092916110fd565b346101825760203660031901126101825760043563ffffffff60e01b811680910361018257602090632483248360e11b8114908115611174575b506040519015158152f35b6380ac58cd60e01b8114915081156111a6575b8115611195575b5082611169565b6301ffc9a760e01b1490508261118e565b635b5e139f60e01b81149150611187565b34610182576020366003190112610182576004356111d481611791565b505f52600b602052602060018060a01b0360405f205416604051908152f35b805180835260209291819084018484015e5f828201840152601f01601f1916010190565b600435906001600160a01b038216820361018257565b602435906001600160a01b038216820361018257565b9181601f84011215610182578235916001600160401b038311610182576020838186019501011161018257565b6060906003190112610182576004356001600160a01b038116810361018257906024356001600160a01b0381168103610182579060443590565b604081019081106001600160401b038211176112c557604052565b634e487b7160e01b5f52604160045260245ffd5b90601f801991011681019081106001600160401b038211176112c557604052565b6001600160401b0381116112c557601f01601f191660200190565b929192611321826112fa565b9161132f60405193846112d9565b829481845281830111610182578281602093845f960137010152565b9080601f830112156101825781602061136693359101611315565b90565b90600182811c92168015611397575b602083101461138357565b634e487b7160e01b5f52602260045260245ffd5b91607f1691611378565b5f92918154916113b083611369565b808352926001811690811561140557506001146113cc57505050565b5f9081526020812093945091925b8383106113eb575060209250010190565b6001816020929493945483858701015201910191906113da565b915050602093945060ff929192191683830152151560051b010190565b908060209392818452848401375f828201840152601f01601f1916010190565b6001600160a01b0390911691908215610484575f828152600260205260409020546001600160a01b031692336115c2575b8315158061158f575b815f52600360205260405f2060018154019055835f52600260205260405f20826001600160601b0360a01b82541617905584604051928581837fddf252ad1be2c89b69c2b068fc378daa952ba7f163c4a11628f55a4df523b3ef5f80a482611584575b5050611514575b506001600160a01b03168083036114fc57505050565b6364283d7b60e01b5f5260045260245260445260645ffd5b825f52600b60205260405f206001600160601b0360a01b81541690555f6020820152602081526115456040826112d9565b825f51602061232a5f395f51905f5261157b600b6040516a1859d95b9d15d85b1b195d60aa1b8152209360405191829182611643565b0390a35f6114e6565b14159050845f6114df565b5f84815260046020526040902080546001600160a01b0319169055845f52600360205260405f205f19815401905561147c565b6115cd833386611f92565b611473565b156115da5750565b60405162461bcd60e51b8152602060048201529081906115fe9060248301906111f3565b0390fd5b9081602091031261018257516001600160e01b0319811681036101825790565b604051906116316040836112d9565b600382526203630360ec1b6020830152565b9060806113669260408152600b60408201526a1859d95b9d15d85b1b195d60aa1b606082015281602082015201906111f3565b6001600160401b0381116112c55760051b60200190565b80518210156116a15760209160051b010190565b634e487b7160e01b5f52603260045260245ffd5b6116be81611791565b506020906040516116cf83826112d9565b5f8152815f526006835261024c6116ef60405f20604051928380926113a1565b815115611768578084915161172d5750505061170a90611791565b505f60405161171983826112d9565b5261172760405191826112d9565b5f815290565b611366935081906040519584879551918291018487015e8401908282015f8152815193849201905e01015f815203601f1981018352826112d9565b9250505090565b5f19811461177d5760010190565b634e487b7160e01b5f52601160045260245ffd5b5f818152600260205260409020546001600160a01b03169081156117b3575090565b637e27328960e01b5f5260045260245ffd5b601f82116117d257505050565b5f5260205f20906020601f840160051c8301931061180a575b601f0160051c01905b8181106117ff575050565b5f81556001016117f4565b90915081906117eb565b919091805f52600660205260405f2083516001600160401b0381116112c557611847816118418454611369565b846117c5565b6020601f82116001146118b35781602094939261189c927ff8e1a15aba9398e019f0b49df1a4fde98ee17ae345cb5f6b5e2c27f5033e8ce797985f926118a8575b50508160011b915f199060031b1c19161790565b90555b604051908152a1565b015190505f80611888565b601f19821695835f52815f20965f5b818110611923575096600192849260209796957ff8e1a15aba9398e019f0b49df1a4fde98ee17ae345cb5f6b5e2c27f5033e8ce7999a1061190b575b505050811b01905561189f565b01515f1960f88460031b161c191690555f80806118fe565b838301518955600190980197602093840193016118c2565b9061194760095461176f565b908160095581906119588333611e52565b8351611a54575b825f52600b60205260405f2060018060a01b0333166001600160601b0360a01b8254161790556040513360208201526020815261199d6040826112d9565b835f51602061232a5f395f51905f526119d3600b6040516a1859d95b9d15d85b1b195d60aa1b8152209360405191829182611643565b0390a35f5b606051811015611a125780611a0c6119f3600193606061168d565b51516020611a0284606061168d565b5101519087611bae565b016119d8565b50919290927fca52e62c367d81bb2e328eb795f7c7ba24afb478408a26c0e201d155c449bc4a6040516020815280611a4f339560208301906111f3565b0390a3565b611a5e8484611814565b61195f565b5f828152600260205260409020546001600160a01b03168015159392909184611b7b575b6001600160a01b03169384611b63575b815f52600260205260405f20856001600160601b0360a01b825416179055604051928286827fddf252ad1be2c89b69c2b068fc378daa952ba7f163c4a11628f55a4df523b3ef5f80a4809582611b58575b5050611af2575050565b805f52600b60205260405f206001600160601b0360a01b81541690555f602083015260208252611b236040836112d9565b5f51602061232a5f395f51905f52611a4f600b6040516a1859d95b9d15d85b1b195d60aa1b8152209360405191829182611643565b141590505f80611ae8565b845f52600360205260405f2060018154019055611a97565b5f82815260046020526040902080546001600160a01b0319169055825f52600360205260405f205f198154019055611a87565b9291909283519360208101948520604090611c0b600b60208451611bd286826112d9565b828152016a1859d95b9d15d85b1b195d60aa1b815220821415835190611bf885836112d9565b60018252600d60fa1b60208301526115d2565b835f52600a602052815f20905f52602052805f20958451966001600160401b0388116112c557611c4588611c3f8354611369565b836117c5565b602097601f8111600114611ccb5790611c8982611a4f94935f51602061232a5f395f51905f5298999a9b5f91611cc0575b508160011b915f199060031b1c19161790565b90555b8251809185518091835e81015f815203902095611cb283519484869586528501906111f3565b9083820360208501526111f3565b90508a01515f611c76565b601f198116825f52895f20905f5b818110611d285750916001915f51602061232a5f395f51905f5298999a9b82611a4f97969510611d10575b5050811b019055611c8c565b8b01515f1960f88460031b161c191690555f80611d04565b898c0151835560209b8c019b60019093019201611cd9565b823b611d4e575b5050505050565b604051630a85bd0160e11b81526001600160a01b039182166004820152918116602483015260448201939093526080606482015291169160209082908190611d9a9060848301906111f3565b03815f865af15f9181611e31575b50611dfd57503d15611df6573d611dbe816112fa565b90611dcc60405192836112d9565b81523d5f602083013e5b80519081611df15782633250574960e11b5f5260045260245ffd5b602001fd5b6060611dd6565b6001600160e01b03191663757a42ff60e11b01611e1f57505f80808080611d47565b633250574960e11b5f5260045260245ffd5b611e4b91925060203d602011610e8557610e7781836112d9565b905f611da8565b9060209060405190611e6483836112d9565b5f82526001600160a01b038416938415610484576001600160a01b03611e8a8383611a63565b16611f7f573b611e9b575b50505050565b91611ed891819495936040519384928392630a85bd0160e11b84523360048501525f602485015260448401526080606484015260848301906111f3565b03815f885af15f9181611f60575b50611f3b5750503d15611f33573d90611efe826112fa565b91611f0c60405193846112d9565b82523d5f8284013e5b81519182611f305783633250574960e11b5f5260045260245ffd5b01fd5b606090611f15565b909291506001600160e01b03191663757a42ff60e11b01611e1f57505f808080611e95565b611f78919250843d8611610e8557610e7781836112d9565b905f611ee6565b6339e3563760e11b5f525f60045260245ffd5b6001600160a01b039091169081151580611fe6575b15611fb157505050565b6001600160a01b0316611fd15750637e27328960e01b5f5260045260245ffd5b63177e802f60e01b5f5260045260245260445ffd5b506001600160a01b038116828114908115612021575b5080611fa757505f838152600460205260409020546001600160a01b03168214611fa7565b90505f52600560205260405f20825f5260205260ff60405f2054165f611ffc565b307f00000000000000000000000000000000000000000000000000000000000000006001600160a01b03161480612135575b1561209d577f000000000000000000000000000000000000000000000000000000000000000090565b60405160208101907f8b73c3c69bb8fe3d512ecc4cf759cc79239f7b179b0ffacaa9a75d522b39400f82527f000000000000000000000000000000000000000000000000000000000000000060408201527f000000000000000000000000000000000000000000000000000000000000000060608201524660808201523060a082015260a0815261212f60c0826112d9565b51902090565b507f00000000000000000000000000000000000000000000000000000000000000004614612074565b815191906041830361218e576121879250602082015190606060408401519301515f1a9061229c565b9192909190565b50505f9160029190565b60048110156121f857806121aa575050565b600181036121c15763f645eedf60e01b5f5260045ffd5b600281036121dc575063fce698f760e01b5f5260045260245ffd5b6003146121e65750565b6335e2f38360e21b5f5260045260245ffd5b634e487b7160e01b5f52602160045260245ffd5b60ff81146122525760ff811690601f821161224357604051916122306040846112d9565b6020808452838101919036833783525290565b632cd44ac360e21b5f5260045ffd5b506040516113668161024c8160076113a1565b60ff81146122895760ff811690601f821161224357604051916122306040846112d9565b506040516113668161024c8160086113a1565b91907f7fffffffffffffffffffffffffffffff5d576e7357a4501ddfe92f46681b20a0841161231e579160209360809260ff5f9560405194855216868401526040830152606082015282805260015afa15612313575f516001600160a01b0381161561230957905f905f90565b505f906001905f90565b6040513d5f823e3d90fd5b5050505f916003919056fe2c149ed548c6d2993cd73efe187df6eccabe4538091b33adbd25fafdb8a1468ba2646970667358221220d1b4758f7e8a7795f5f38f06b7061bc116fe032d0e13f9c3cf90b4e2d205a65564736f6c634300081c0033",
  "linkReferences": {},
  "deployedLinkReferences": {},
  "immutableReferences": {
    "4769": [
      {
        "length": 32,
        "start": 8315
      }
    ],
    "4771": [
      {
        "length": 32,
        "start": 8504
      }
    ],
    "4773": [
      {
        "length": 32,
        "start": 8261
      }
    ],
    "4775": [
      {
        "length": 32,
        "start": 8394
      }
    ],
    "4777": [
      {
        "length": 32,
        "start": 8432
      }
    ],
    "4780": [
      {
        "length": 32,
        "start": 2359
      }
    ],
    "4783": [
      {
        "length": 32,
        "start": 2400
      }
    ]
  },
  "inputSourceName": "project/contracts/IdentityRegistry.sol",
  "buildInfoId": "solc-0_8_28-106b481e101030ab4ba6a499d087cd89dc6153bc"
}