{
  "contracts/libs/Errors.sol": {
    "Errors": {
      "abi": [
        {
          "inputs": [],
          "name": "ACTION_NOT_ALLOWED",
          "outputs": [
            {
              "internalType": "string",
              "name": "",
              "type": "string"
            }
          ],
          "stateMutability": "view",
          "type": "function"
        },
        {
          "inputs": [],
          "name": "GRACE_PERIOD_EXPIRED",
          "outputs": [
            {
              "internalType": "string",
              "name": "",
              "type": "string"
            }
          ],
          "stateMutability": "view",
          "type": "function"
        },
        {
          "inputs": [],
          "name": "HOOK_ALREADY_REGISTERED",
          "outputs": [
            {
              "internalType": "string",
              "name": "",
              "type": "string"
            }
          ],
          "stateMutability": "view",
          "type": "function"
        },
        {
          "inputs": [],
          "name": "HOOK_NOT_FOUND",
          "outputs": [
            {
              "internalType": "string",
              "name": "",
              "type": "string"
            }
          ],
          "stateMutability": "view",
          "type": "function"
        },
        {
          "inputs": [],
          "name": "INSUFFICIENT_APPROVALS",
          "outputs": [
            {
              "internalType": "string",
              "name": "",
              "type": "string"
            }
          ],
          "stateMutability": "view",
          "type": "function"
        },
        {
          "inputs": [],
          "name": "INSUFFICIENT_BALANCE",
          "outputs": [
            {
              "internalType": "string",
              "name": "",
              "type": "string"
            }
          ],
          "stateMutability": "view",
          "type": "function"
        },
        {
          "inputs": [],
          "name": "INSUFFICIENT_LIQUIDITY",
          "outputs": [
            {
              "internalType": "string",
              "name": "",
              "type": "string"
            }
          ],
          "stateMutability": "view",
          "type": "function"
        },
        {
          "inputs": [],
          "name": "INTERNAL_ERROR",
          "outputs": [
            {
              "internalType": "string",
              "name": "",
              "type": "string"
            }
          ],
          "stateMutability": "view",
          "type": "function"
        },
        {
          "inputs": [],
          "name": "INVALID_INPUT",
          "outputs": [
            {
              "internalType": "string",
              "name": "",
              "type": "string"
            }
          ],
          "stateMutability": "view",
          "type": "function"
        },
        {
          "inputs": [],
          "name": "INVALID_SIGNATURE",
          "outputs": [
            {
              "internalType": "string",
              "name": "",
              "type": "string"
            }
          ],
          "stateMutability": "view",
          "type": "function"
        },
        {
          "inputs": [],
          "name": "INVALID_SWAP_PARAMETERS",
          "outputs": [
            {
              "internalType": "string",
              "name": "",
              "type": "string"
            }
          ],
          "stateMutability": "view",
          "type": "function"
        },
        {
          "inputs": [],
          "name": "INVALID_TRANSACTION_AMOUNT",
          "outputs": [
            {
              "internalType": "string",
              "name": "",
              "type": "string"
            }
          ],
          "stateMutability": "view",
          "type": "function"
        },
        {
          "inputs": [],
          "name": "LOAN_NOT_FOUND",
          "outputs": [
            {
              "internalType": "string",
              "name": "",
              "type": "string"
            }
          ],
          "stateMutability": "view",
          "type": "function"
        },
        {
          "inputs": [],
          "name": "LOAN_REJECTION",
          "outputs": [
            {
              "internalType": "string",
              "name": "",
              "type": "string"
            }
          ],
          "stateMutability": "view",
          "type": "function"
        },
        {
          "inputs": [],
          "name": "MERCHANT_ALREADY_EXIST",
          "outputs": [
            {
              "internalType": "string",
              "name": "",
              "type": "string"
            }
          ],
          "stateMutability": "view",
          "type": "function"
        },
        {
          "inputs": [],
          "name": "MERCHANT_NOT_FOUND",
          "outputs": [
            {
              "internalType": "string",
              "name": "",
              "type": "string"
            }
          ],
          "stateMutability": "view",
          "type": "function"
        },
        {
          "inputs": [],
          "name": "MIN_SIGNER_MUST_BE_GRT_ONE",
          "outputs": [
            {
              "internalType": "string",
              "name": "",
              "type": "string"
            }
          ],
          "stateMutability": "view",
          "type": "function"
        },
        {
          "inputs": [],
          "name": "OPERATION_FAILED",
          "outputs": [
            {
              "internalType": "string",
              "name": "",
              "type": "string"
            }
          ],
          "stateMutability": "view",
          "type": "function"
        },
        {
          "inputs": [],
          "name": "RECURRENT_PAYMENT_NOT_DUE",
          "outputs": [
            {
              "internalType": "string",
              "name": "",
              "type": "string"
            }
          ],
          "stateMutability": "view",
          "type": "function"
        },
        {
          "inputs": [],
          "name": "RECURRING_TRANSACTION_EXPIRED",
          "outputs": [
            {
              "internalType": "string",
              "name": "",
              "type": "string"
            }
          ],
          "stateMutability": "view",
          "type": "function"
        },
        {
          "inputs": [],
          "name": "SIGNATURE_EXPIRED",
          "outputs": [
            {
              "internalType": "string",
              "name": "",
              "type": "string"
            }
          ],
          "stateMutability": "view",
          "type": "function"
        },
        {
          "inputs": [],
          "name": "STORAGE_ERROR",
          "outputs": [
            {
              "internalType": "string",
              "name": "",
              "type": "string"
            }
          ],
          "stateMutability": "view",
          "type": "function"
        },
        {
          "inputs": [],
          "name": "SUBSCRIPTION_INACTIVE",
          "outputs": [
            {
              "internalType": "string",
              "name": "",
              "type": "string"
            }
          ],
          "stateMutability": "view",
          "type": "function"
        },
        {
          "inputs": [],
          "name": "SUBSCRIPTION_NOT_FOUND",
          "outputs": [
            {
              "internalType": "string",
              "name": "",
              "type": "string"
            }
          ],
          "stateMutability": "view",
          "type": "function"
        },
        {
          "inputs": [],
          "name": "TEST",
          "outputs": [
            {
              "internalType": "string",
              "name": "",
              "type": "string"
            }
          ],
          "stateMutability": "view",
          "type": "function"
        },
        {
          "inputs": [],
          "name": "TOKEN_NOT_SUPPORTED",
          "outputs": [
            {
              "internalType": "string",
              "name": "",
              "type": "string"
            }
          ],
          "stateMutability": "view",
          "type": "function"
        },
        {
          "inputs": [],
          "name": "TRANSACTION_ALREADY_COMPLETED",
          "outputs": [
            {
              "internalType": "string",
              "name": "",
              "type": "string"
            }
          ],
          "stateMutability": "view",
          "type": "function"
        },
        {
          "inputs": [],
          "name": "TRANSACTION_FAILED",
          "outputs": [
            {
              "internalType": "string",
              "name": "",
              "type": "string"
            }
          ],
          "stateMutability": "view",
          "type": "function"
        },
        {
          "inputs": [],
          "name": "TRANSACTION_ID_NOT_FOUND",
          "outputs": [
            {
              "internalType": "string",
              "name": "",
              "type": "string"
            }
          ],
          "stateMutability": "view",
          "type": "function"
        },
        {
          "inputs": [],
          "name": "TRANSACTION_INVALID_PAYER",
          "outputs": [
            {
              "internalType": "string",
              "name": "",
              "type": "string"
            }
          ],
          "stateMutability": "view",
          "type": "function"
        },
        {
          "inputs": [],
          "name": "TRANSACTION_NOT_ACTIVE",
          "outputs": [
            {
              "internalType": "string",
              "name": "",
              "type": "string"
            }
          ],
          "stateMutability": "view",
          "type": "function"
        },
        {
          "inputs": [],
          "name": "TRANSACTION_NOT_COMPLETED",
          "outputs": [
            {
              "internalType": "string",
              "name": "",
              "type": "string"
            }
          ],
          "stateMutability": "view",
          "type": "function"
        },
        {
          "inputs": [],
          "name": "TRANSACTION_NOT_PENDING",
          "outputs": [
            {
              "internalType": "string",
              "name": "",
              "type": "string"
            }
          ],
          "stateMutability": "view",
          "type": "function"
        },
        {
          "inputs": [],
          "name": "UNAUTHORIZED",
          "outputs": [
            {
              "internalType": "string",
              "name": "",
              "type": "string"
            }
          ],
          "stateMutability": "view",
          "type": "function"
        }
      ],
      "evm": {
        "bytecode": {
          "linkReferences": {},
          "object": "60808060405234601957610bfc908161001e823930815050f35b5f80fdfe60806040526004361015610011575f80fd5b5f3560e01c8063075fd2b114610adf57806308753a9114610a975780630d42b95a14610a4f5780631931982714610a075780631f28bbcd146109bf5780631f9351111461097757806342cee4d81461092f5780634561b2d7146108e7578063469846101461089f5780634899d28c1461085757806350b1f3561461080f57806351d977a6146107c757806359e17d821461077f5780636c0a9c63146107375780636efe4658146106ef5780636f2fd73b146106a75780636f39656b1461065f57806374c54721146106175780637e4d09c8146105cf578063827e7b7f14610587578063a3402a381461053f578063b36862ee146104f7578063b68600c7146104af578063c25600a514610467578063c40b8b5b1461041f578063ce10f4d8146103d7578063d3df216c1461038f578063dc50280214610347578063dc8d807e146102ff578063e0bf98f8146102b7578063eb9eb00d1461026f578063ec16aed914610227578063ee736f2b146101df5763f13f45741461018f575f80fd5b5f3660031901126101db576101d76101a5610b78565b7f3230300000000000000000000000000000000000000000000000000000000000602082015260405191829182610b9c565b0390f35b5f80fd5b5f3660031901126101db576101d76101f5610b78565b7f3730310000000000000000000000000000000000000000000000000000000000602082015260405191829182610b9c565b5f3660031901126101db576101d761023d610b78565b7f3430350000000000000000000000000000000000000000000000000000000000602082015260405191829182610b9c565b5f3660031901126101db576101d7610285610b78565b7f3330320000000000000000000000000000000000000000000000000000000000602082015260405191829182610b9c565b5f3660031901126101db576101d76102cd610b78565b7f3430320000000000000000000000000000000000000000000000000000000000602082015260405191829182610b9c565b5f3660031901126101db576101d7610315610b27565b7f3600000000000000000000000000000000000000000000000000000000000000602082015260405191829182610b9c565b5f3660031901126101db576101d761035d610b78565b7f3130310000000000000000000000000000000000000000000000000000000000602082015260405191829182610b9c565b5f3660031901126101db576101d76103a5610b78565b7f3130340000000000000000000000000000000000000000000000000000000000602082015260405191829182610b9c565b5f3660031901126101db576101d76103ed610b78565b7f3130300000000000000000000000000000000000000000000000000000000000602082015260405191829182610b9c565b5f3660031901126101db576101d7610435610b78565b7f3230320000000000000000000000000000000000000000000000000000000000602082015260405191829182610b9c565b5f3660031901126101db576101d761047d610b78565b7f3430330000000000000000000000000000000000000000000000000000000000602082015260405191829182610b9c565b5f3660031901126101db576101d76104c5610b27565b7f3300000000000000000000000000000000000000000000000000000000000000602082015260405191829182610b9c565b5f3660031901126101db576101d761050d610b27565b7f3400000000000000000000000000000000000000000000000000000000000000602082015260405191829182610b9c565b5f3660031901126101db576101d7610555610b78565b7f3630300000000000000000000000000000000000000000000000000000000000602082015260405191829182610b9c565b5f3660031901126101db576101d761059d610b78565b7f3430310000000000000000000000000000000000000000000000000000000000602082015260405191829182610b9c565b5f3660031901126101db576101d76105e5610b78565b7f3430340000000000000000000000000000000000000000000000000000000000602082015260405191829182610b9c565b5f3660031901126101db576101d761062d610b78565b7f3730300000000000000000000000000000000000000000000000000000000000602082015260405191829182610b9c565b5f3660031901126101db576101d7610675610b78565b7f3530300000000000000000000000000000000000000000000000000000000000602082015260405191829182610b9c565b5f3660031901126101db576101d76106bd610b78565b7f3830300000000000000000000000000000000000000000000000000000000000602082015260405191829182610b9c565b5f3660031901126101db576101d7610705610b78565b7f3830310000000000000000000000000000000000000000000000000000000000602082015260405191829182610b9c565b5f3660031901126101db576101d761074d610b78565b7f3430300000000000000000000000000000000000000000000000000000000000602082015260405191829182610b9c565b5f3660031901126101db576101d7610795610b78565b7f3330310000000000000000000000000000000000000000000000000000000000602082015260405191829182610b9c565b5f3660031901126101db576101d76107dd610b27565b7f3100000000000000000000000000000000000000000000000000000000000000602082015260405191829182610b9c565b5f3660031901126101db576101d7610825610b27565b7f3500000000000000000000000000000000000000000000000000000000000000602082015260405191829182610b9c565b5f3660031901126101db576101d761086d610b78565b7f3330300000000000000000000000000000000000000000000000000000000000602082015260405191829182610b9c565b5f3660031901126101db576101d76108b5610b78565b7f3530310000000000000000000000000000000000000000000000000000000000602082015260405191829182610b9c565b5f3660031901126101db576101d76108fd610b78565b7f3330330000000000000000000000000000000000000000000000000000000000602082015260405191829182610b9c565b5f3660031901126101db576101d7610945610b78565b7f3130320000000000000000000000000000000000000000000000000000000000602082015260405191829182610b9c565b5f3660031901126101db576101d761098d610b78565b7f3230310000000000000000000000000000000000000000000000000000000000602082015260405191829182610b9c565b5f3660031901126101db576101d76109d5610b78565b7f3130330000000000000000000000000000000000000000000000000000000000602082015260405191829182610b9c565b5f3660031901126101db576101d7610a1d610b78565b7f3630310000000000000000000000000000000000000000000000000000000000602082015260405191829182610b9c565b5f3660031901126101db576101d7610a65610b78565b7f3130350000000000000000000000000000000000000000000000000000000000602082015260405191829182610b9c565b5f3660031901126101db576101d7610aad610b78565b7f3130360000000000000000000000000000000000000000000000000000000000602082015260405191829182610b9c565b5f3660031901126101db576101d7610af5610b27565b7f3200000000000000000000000000000000000000000000000000000000000000602082015260405191829182610b9c565b604051906040820182811067ffffffffffffffff821117610b4b5760405260018252565b7f4e487b71000000000000000000000000000000000000000000000000000000005f52604160045260245ffd5b604051906040820182811067ffffffffffffffff821117610b4b5760405260038252565b602060409281835280519182918282860152018484015e5f828201840152601f01601f191601019056fea264697066735822122010a886c8579c7c179abcfbad87929b0632e897a4b5fbd16c7221f41be74978e364736f6c634300081c0033",
          "opcodes": "PUSH1 0x80 DUP1 PUSH1 0x40 MSTORE CALLVALUE PUSH1 0x19 JUMPI PUSH2 0xBFC SWAP1 DUP2 PUSH2 0x1E DUP3 CODECOPY ADDRESS DUP2 POP POP RETURN JUMPDEST PUSH0 DUP1 REVERT INVALID PUSH1 0x80 PUSH1 0x40 MSTORE PUSH1 0x4 CALLDATASIZE LT ISZERO PUSH2 0x11 JUMPI PUSH0 DUP1 REVERT JUMPDEST PUSH0 CALLDATALOAD PUSH1 0xE0 SHR DUP1 PUSH4 0x75FD2B1 EQ PUSH2 0xADF JUMPI DUP1 PUSH4 0x8753A91 EQ PUSH2 0xA97 JUMPI DUP1 PUSH4 0xD42B95A EQ PUSH2 0xA4F JUMPI DUP1 PUSH4 0x19319827 EQ PUSH2 0xA07 JUMPI DUP1 PUSH4 0x1F28BBCD EQ PUSH2 0x9BF JUMPI DUP1 PUSH4 0x1F935111 EQ PUSH2 0x977 JUMPI DUP1 PUSH4 0x42CEE4D8 EQ PUSH2 0x92F JUMPI DUP1 PUSH4 0x4561B2D7 EQ PUSH2 0x8E7 JUMPI DUP1 PUSH4 0x46984610 EQ PUSH2 0x89F JUMPI DUP1 PUSH4 0x4899D28C EQ PUSH2 0x857 JUMPI DUP1 PUSH4 0x50B1F356 EQ PUSH2 0x80F JUMPI DUP1 PUSH4 0x51D977A6 EQ PUSH2 0x7C7 JUMPI DUP1 PUSH4 0x59E17D82 EQ PUSH2 0x77F JUMPI DUP1 PUSH4 0x6C0A9C63 EQ PUSH2 0x737 JUMPI DUP1 PUSH4 0x6EFE4658 EQ PUSH2 0x6EF JUMPI DUP1 PUSH4 0x6F2FD73B EQ PUSH2 0x6A7 JUMPI DUP1 PUSH4 0x6F39656B EQ PUSH2 0x65F JUMPI DUP1 PUSH4 0x74C54721 EQ PUSH2 0x617 JUMPI DUP1 PUSH4 0x7E4D09C8 EQ PUSH2 0x5CF JUMPI DUP1 PUSH4 0x827E7B7F EQ PUSH2 0x587 JUMPI DUP1 PUSH4 0xA3402A38 EQ PUSH2 0x53F JUMPI DUP1 PUSH4 0xB36862EE EQ PUSH2 0x4F7 JUMPI DUP1 PUSH4 0xB68600C7 EQ PUSH2 0x4AF JUMPI DUP1 PUSH4 0xC25600A5 EQ PUSH2 0x467 JUMPI DUP1 PUSH4 0xC40B8B5B EQ PUSH2 0x41F JUMPI DUP1 PUSH4 0xCE10F4D8 EQ PUSH2 0x3D7 JUMPI DUP1 PUSH4 0xD3DF216C EQ PUSH2 0x38F JUMPI DUP1 PUSH4 0xDC502802 EQ PUSH2 0x347 JUMPI DUP1 PUSH4 0xDC8D807E EQ PUSH2 0x2FF JUMPI DUP1 PUSH4 0xE0BF98F8 EQ PUSH2 0x2B7 JUMPI DUP1 PUSH4 0xEB9EB00D EQ PUSH2 0x26F JUMPI DUP1 PUSH4 0xEC16AED9 EQ PUSH2 0x227 JUMPI DUP1 PUSH4 0xEE736F2B EQ PUSH2 0x1DF JUMPI PUSH4 0xF13F4574 EQ PUSH2 0x18F JUMPI PUSH0 DUP1 REVERT JUMPDEST PUSH0 CALLDATASIZE PUSH1 0x3 NOT ADD SLT PUSH2 0x1DB JUMPI PUSH2 0x1D7 PUSH2 0x1A5 PUSH2 0xB78 JUMP JUMPDEST PUSH32 0x3230300000000000000000000000000000000000000000000000000000000000 PUSH1 0x20 DUP3 ADD MSTORE PUSH1 0x40 MLOAD SWAP2 DUP3 SWAP2 DUP3 PUSH2 0xB9C JUMP JUMPDEST SUB SWAP1 RETURN JUMPDEST PUSH0 DUP1 REVERT JUMPDEST PUSH0 CALLDATASIZE PUSH1 0x3 NOT ADD SLT PUSH2 0x1DB JUMPI PUSH2 0x1D7 PUSH2 0x1F5 PUSH2 0xB78 JUMP JUMPDEST PUSH32 0x3730310000000000000000000000000000000000000000000000000000000000 PUSH1 0x20 DUP3 ADD MSTORE PUSH1 0x40 MLOAD SWAP2 DUP3 SWAP2 DUP3 PUSH2 0xB9C JUMP JUMPDEST PUSH0 CALLDATASIZE PUSH1 0x3 NOT ADD SLT PUSH2 0x1DB JUMPI PUSH2 0x1D7 PUSH2 0x23D PUSH2 0xB78 JUMP JUMPDEST PUSH32 0x3430350000000000000000000000000000000000000000000000000000000000 PUSH1 0x20 DUP3 ADD MSTORE PUSH1 0x40 MLOAD SWAP2 DUP3 SWAP2 DUP3 PUSH2 0xB9C JUMP JUMPDEST PUSH0 CALLDATASIZE PUSH1 0x3 NOT ADD SLT PUSH2 0x1DB JUMPI PUSH2 0x1D7 PUSH2 0x285 PUSH2 0xB78 JUMP JUMPDEST PUSH32 0x3330320000000000000000000000000000000000000000000000000000000000 PUSH1 0x20 DUP3 ADD MSTORE PUSH1 0x40 MLOAD SWAP2 DUP3 SWAP2 DUP3 PUSH2 0xB9C JUMP JUMPDEST PUSH0 CALLDATASIZE PUSH1 0x3 NOT ADD SLT PUSH2 0x1DB JUMPI PUSH2 0x1D7 PUSH2 0x2CD PUSH2 0xB78 JUMP JUMPDEST PUSH32 0x3430320000000000000000000000000000000000000000000000000000000000 PUSH1 0x20 DUP3 ADD MSTORE PUSH1 0x40 MLOAD SWAP2 DUP3 SWAP2 DUP3 PUSH2 0xB9C JUMP JUMPDEST PUSH0 CALLDATASIZE PUSH1 0x3 NOT ADD SLT PUSH2 0x1DB JUMPI PUSH2 0x1D7 PUSH2 0x315 PUSH2 0xB27 JUMP JUMPDEST PUSH32 0x3600000000000000000000000000000000000000000000000000000000000000 PUSH1 0x20 DUP3 ADD MSTORE PUSH1 0x40 MLOAD SWAP2 DUP3 SWAP2 DUP3 PUSH2 0xB9C JUMP JUMPDEST PUSH0 CALLDATASIZE PUSH1 0x3 NOT ADD SLT PUSH2 0x1DB JUMPI PUSH2 0x1D7 PUSH2 0x35D PUSH2 0xB78 JUMP JUMPDEST PUSH32 0x3130310000000000000000000000000000000000000000000000000000000000 PUSH1 0x20 DUP3 ADD MSTORE PUSH1 0x40 MLOAD SWAP2 DUP3 SWAP2 DUP3 PUSH2 0xB9C JUMP JUMPDEST PUSH0 CALLDATASIZE PUSH1 0x3 NOT ADD SLT PUSH2 0x1DB JUMPI PUSH2 0x1D7 PUSH2 0x3A5 PUSH2 0xB78 JUMP JUMPDEST PUSH32 0x3130340000000000000000000000000000000000000000000000000000000000 PUSH1 0x20 DUP3 ADD MSTORE PUSH1 0x40 MLOAD SWAP2 DUP3 SWAP2 DUP3 PUSH2 0xB9C JUMP JUMPDEST PUSH0 CALLDATASIZE PUSH1 0x3 NOT ADD SLT PUSH2 0x1DB JUMPI PUSH2 0x1D7 PUSH2 0x3ED PUSH2 0xB78 JUMP JUMPDEST PUSH32 0x3130300000000000000000000000000000000000000000000000000000000000 PUSH1 0x20 DUP3 ADD MSTORE PUSH1 0x40 MLOAD SWAP2 DUP3 SWAP2 DUP3 PUSH2 0xB9C JUMP JUMPDEST PUSH0 CALLDATASIZE PUSH1 0x3 NOT ADD SLT PUSH2 0x1DB JUMPI PUSH2 0x1D7 PUSH2 0x435 PUSH2 0xB78 JUMP JUMPDEST PUSH32 0x3230320000000000000000000000000000000000000000000000000000000000 PUSH1 0x20 DUP3 ADD MSTORE PUSH1 0x40 MLOAD SWAP2 DUP3 SWAP2 DUP3 PUSH2 0xB9C JUMP JUMPDEST PUSH0 CALLDATASIZE PUSH1 0x3 NOT ADD SLT PUSH2 0x1DB JUMPI PUSH2 0x1D7 PUSH2 0x47D PUSH2 0xB78 JUMP JUMPDEST PUSH32 0x3430330000000000000000000000000000000000000000000000000000000000 PUSH1 0x20 DUP3 ADD MSTORE PUSH1 0x40 MLOAD SWAP2 DUP3 SWAP2 DUP3 PUSH2 0xB9C JUMP JUMPDEST PUSH0 CALLDATASIZE PUSH1 0x3 NOT ADD SLT PUSH2 0x1DB JUMPI PUSH2 0x1D7 PUSH2 0x4C5 PUSH2 0xB27 JUMP JUMPDEST PUSH32 0x3300000000000000000000000000000000000000000000000000000000000000 PUSH1 0x20 DUP3 ADD MSTORE PUSH1 0x40 MLOAD SWAP2 DUP3 SWAP2 DUP3 PUSH2 0xB9C JUMP JUMPDEST PUSH0 CALLDATASIZE PUSH1 0x3 NOT ADD SLT PUSH2 0x1DB JUMPI PUSH2 0x1D7 PUSH2 0x50D PUSH2 0xB27 JUMP JUMPDEST PUSH32 0x3400000000000000000000000000000000000000000000000000000000000000 PUSH1 0x20 DUP3 ADD MSTORE PUSH1 0x40 MLOAD SWAP2 DUP3 SWAP2 DUP3 PUSH2 0xB9C JUMP JUMPDEST PUSH0 CALLDATASIZE PUSH1 0x3 NOT ADD SLT PUSH2 0x1DB JUMPI PUSH2 0x1D7 PUSH2 0x555 PUSH2 0xB78 JUMP JUMPDEST PUSH32 0x3630300000000000000000000000000000000000000000000000000000000000 PUSH1 0x20 DUP3 ADD MSTORE PUSH1 0x40 MLOAD SWAP2 DUP3 SWAP2 DUP3 PUSH2 0xB9C JUMP JUMPDEST PUSH0 CALLDATASIZE PUSH1 0x3 NOT ADD SLT PUSH2 0x1DB JUMPI PUSH2 0x1D7 PUSH2 0x59D PUSH2 0xB78 JUMP JUMPDEST PUSH32 0x3430310000000000000000000000000000000000000000000000000000000000 PUSH1 0x20 DUP3 ADD MSTORE PUSH1 0x40 MLOAD SWAP2 DUP3 SWAP2 DUP3 PUSH2 0xB9C JUMP JUMPDEST PUSH0 CALLDATASIZE PUSH1 0x3 NOT ADD SLT PUSH2 0x1DB JUMPI PUSH2 0x1D7 PUSH2 0x5E5 PUSH2 0xB78 JUMP JUMPDEST PUSH32 0x3430340000000000000000000000000000000000000000000000000000000000 PUSH1 0x20 DUP3 ADD MSTORE PUSH1 0x40 MLOAD SWAP2 DUP3 SWAP2 DUP3 PUSH2 0xB9C JUMP JUMPDEST PUSH0 CALLDATASIZE PUSH1 0x3 NOT ADD SLT PUSH2 0x1DB JUMPI PUSH2 0x1D7 PUSH2 0x62D PUSH2 0xB78 JUMP JUMPDEST PUSH32 0x3730300000000000000000000000000000000000000000000000000000000000 PUSH1 0x20 DUP3 ADD MSTORE PUSH1 0x40 MLOAD SWAP2 DUP3 SWAP2 DUP3 PUSH2 0xB9C JUMP JUMPDEST PUSH0 CALLDATASIZE PUSH1 0x3 NOT ADD SLT PUSH2 0x1DB JUMPI PUSH2 0x1D7 PUSH2 0x675 PUSH2 0xB78 JUMP JUMPDEST PUSH32 0x3530300000000000000000000000000000000000000000000000000000000000 PUSH1 0x20 DUP3 ADD MSTORE PUSH1 0x40 MLOAD SWAP2 DUP3 SWAP2 DUP3 PUSH2 0xB9C JUMP JUMPDEST PUSH0 CALLDATASIZE PUSH1 0x3 NOT ADD SLT PUSH2 0x1DB JUMPI PUSH2 0x1D7 PUSH2 0x6BD PUSH2 0xB78 JUMP JUMPDEST PUSH32 0x3830300000000000000000000000000000000000000000000000000000000000 PUSH1 0x20 DUP3 ADD MSTORE PUSH1 0x40 MLOAD SWAP2 DUP3 SWAP2 DUP3 PUSH2 0xB9C JUMP JUMPDEST PUSH0 CALLDATASIZE PUSH1 0x3 NOT ADD SLT PUSH2 0x1DB JUMPI PUSH2 0x1D7 PUSH2 0x705 PUSH2 0xB78 JUMP JUMPDEST PUSH32 0x3830310000000000000000000000000000000000000000000000000000000000 PUSH1 0x20 DUP3 ADD MSTORE PUSH1 0x40 MLOAD SWAP2 DUP3 SWAP2 DUP3 PUSH2 0xB9C JUMP JUMPDEST PUSH0 CALLDATASIZE PUSH1 0x3 NOT ADD SLT PUSH2 0x1DB JUMPI PUSH2 0x1D7 PUSH2 0x74D PUSH2 0xB78 JUMP JUMPDEST PUSH32 0x3430300000000000000000000000000000000000000000000000000000000000 PUSH1 0x20 DUP3 ADD MSTORE PUSH1 0x40 MLOAD SWAP2 DUP3 SWAP2 DUP3 PUSH2 0xB9C JUMP JUMPDEST PUSH0 CALLDATASIZE PUSH1 0x3 NOT ADD SLT PUSH2 0x1DB JUMPI PUSH2 0x1D7 PUSH2 0x795 PUSH2 0xB78 JUMP JUMPDEST PUSH32 0x3330310000000000000000000000000000000000000000000000000000000000 PUSH1 0x20 DUP3 ADD MSTORE PUSH1 0x40 MLOAD SWAP2 DUP3 SWAP2 DUP3 PUSH2 0xB9C JUMP JUMPDEST PUSH0 CALLDATASIZE PUSH1 0x3 NOT ADD SLT PUSH2 0x1DB JUMPI PUSH2 0x1D7 PUSH2 0x7DD PUSH2 0xB27 JUMP JUMPDEST PUSH32 0x3100000000000000000000000000000000000000000000000000000000000000 PUSH1 0x20 DUP3 ADD MSTORE PUSH1 0x40 MLOAD SWAP2 DUP3 SWAP2 DUP3 PUSH2 0xB9C JUMP JUMPDEST PUSH0 CALLDATASIZE PUSH1 0x3 NOT ADD SLT PUSH2 0x1DB JUMPI PUSH2 0x1D7 PUSH2 0x825 PUSH2 0xB27 JUMP JUMPDEST PUSH32 0x3500000000000000000000000000000000000000000000000000000000000000 PUSH1 0x20 DUP3 ADD MSTORE PUSH1 0x40 MLOAD SWAP2 DUP3 SWAP2 DUP3 PUSH2 0xB9C JUMP JUMPDEST PUSH0 CALLDATASIZE PUSH1 0x3 NOT ADD SLT PUSH2 0x1DB JUMPI PUSH2 0x1D7 PUSH2 0x86D PUSH2 0xB78 JUMP JUMPDEST PUSH32 0x3330300000000000000000000000000000000000000000000000000000000000 PUSH1 0x20 DUP3 ADD MSTORE PUSH1 0x40 MLOAD SWAP2 DUP3 SWAP2 DUP3 PUSH2 0xB9C JUMP JUMPDEST PUSH0 CALLDATASIZE PUSH1 0x3 NOT ADD SLT PUSH2 0x1DB JUMPI PUSH2 0x1D7 PUSH2 0x8B5 PUSH2 0xB78 JUMP JUMPDEST PUSH32 0x3530310000000000000000000000000000000000000000000000000000000000 PUSH1 0x20 DUP3 ADD MSTORE PUSH1 0x40 MLOAD SWAP2 DUP3 SWAP2 DUP3 PUSH2 0xB9C JUMP JUMPDEST PUSH0 CALLDATASIZE PUSH1 0x3 NOT ADD SLT PUSH2 0x1DB JUMPI PUSH2 0x1D7 PUSH2 0x8FD PUSH2 0xB78 JUMP JUMPDEST PUSH32 0x3330330000000000000000000000000000000000000000000000000000000000 PUSH1 0x20 DUP3 ADD MSTORE PUSH1 0x40 MLOAD SWAP2 DUP3 SWAP2 DUP3 PUSH2 0xB9C JUMP JUMPDEST PUSH0 CALLDATASIZE PUSH1 0x3 NOT ADD SLT PUSH2 0x1DB JUMPI PUSH2 0x1D7 PUSH2 0x945 PUSH2 0xB78 JUMP JUMPDEST PUSH32 0x3130320000000000000000000000000000000000000000000000000000000000 PUSH1 0x20 DUP3 ADD MSTORE PUSH1 0x40 MLOAD SWAP2 DUP3 SWAP2 DUP3 PUSH2 0xB9C JUMP JUMPDEST PUSH0 CALLDATASIZE PUSH1 0x3 NOT ADD SLT PUSH2 0x1DB JUMPI PUSH2 0x1D7 PUSH2 0x98D PUSH2 0xB78 JUMP JUMPDEST PUSH32 0x3230310000000000000000000000000000000000000000000000000000000000 PUSH1 0x20 DUP3 ADD MSTORE PUSH1 0x40 MLOAD SWAP2 DUP3 SWAP2 DUP3 PUSH2 0xB9C JUMP JUMPDEST PUSH0 CALLDATASIZE PUSH1 0x3 NOT ADD SLT PUSH2 0x1DB JUMPI PUSH2 0x1D7 PUSH2 0x9D5 PUSH2 0xB78 JUMP JUMPDEST PUSH32 0x3130330000000000000000000000000000000000000000000000000000000000 PUSH1 0x20 DUP3 ADD MSTORE PUSH1 0x40 MLOAD SWAP2 DUP3 SWAP2 DUP3 PUSH2 0xB9C JUMP JUMPDEST PUSH0 CALLDATASIZE PUSH1 0x3 NOT ADD SLT PUSH2 0x1DB JUMPI PUSH2 0x1D7 PUSH2 0xA1D PUSH2 0xB78 JUMP JUMPDEST PUSH32 0x3630310000000000000000000000000000000000000000000000000000000000 PUSH1 0x20 DUP3 ADD MSTORE PUSH1 0x40 MLOAD SWAP2 DUP3 SWAP2 DUP3 PUSH2 0xB9C JUMP JUMPDEST PUSH0 CALLDATASIZE PUSH1 0x3 NOT ADD SLT PUSH2 0x1DB JUMPI PUSH2 0x1D7 PUSH2 0xA65 PUSH2 0xB78 JUMP JUMPDEST PUSH32 0x3130350000000000000000000000000000000000000000000000000000000000 PUSH1 0x20 DUP3 ADD MSTORE PUSH1 0x40 MLOAD SWAP2 DUP3 SWAP2 DUP3 PUSH2 0xB9C JUMP JUMPDEST PUSH0 CALLDATASIZE PUSH1 0x3 NOT ADD SLT PUSH2 0x1DB JUMPI PUSH2 0x1D7 PUSH2 0xAAD PUSH2 0xB78 JUMP JUMPDEST PUSH32 0x3130360000000000000000000000000000000000000000000000000000000000 PUSH1 0x20 DUP3 ADD MSTORE PUSH1 0x40 MLOAD SWAP2 DUP3 SWAP2 DUP3 PUSH2 0xB9C JUMP JUMPDEST PUSH0 CALLDATASIZE PUSH1 0x3 NOT ADD SLT PUSH2 0x1DB JUMPI PUSH2 0x1D7 PUSH2 0xAF5 PUSH2 0xB27 JUMP JUMPDEST PUSH32 0x3200000000000000000000000000000000000000000000000000000000000000 PUSH1 0x20 DUP3 ADD MSTORE PUSH1 0x40 MLOAD SWAP2 DUP3 SWAP2 DUP3 PUSH2 0xB9C JUMP JUMPDEST PUSH1 0x40 MLOAD SWAP1 PUSH1 0x40 DUP3 ADD DUP3 DUP2 LT PUSH8 0xFFFFFFFFFFFFFFFF DUP3 GT OR PUSH2 0xB4B JUMPI PUSH1 0x40 MSTORE PUSH1 0x1 DUP3 MSTORE JUMP JUMPDEST PUSH32 0x4E487B7100000000000000000000000000000000000000000000000000000000 PUSH0 MSTORE PUSH1 0x41 PUSH1 0x4 MSTORE PUSH1 0x24 PUSH0 REVERT JUMPDEST PUSH1 0x40 MLOAD SWAP1 PUSH1 0x40 DUP3 ADD DUP3 DUP2 LT PUSH8 0xFFFFFFFFFFFFFFFF DUP3 GT OR PUSH2 0xB4B JUMPI PUSH1 0x40 MSTORE PUSH1 0x3 DUP3 MSTORE JUMP JUMPDEST PUSH1 0x20 PUSH1 0x40 SWAP3 DUP2 DUP4 MSTORE DUP1 MLOAD SWAP2 DUP3 SWAP2 DUP3 DUP3 DUP7 ADD MSTORE ADD DUP5 DUP5 ADD MCOPY PUSH0 DUP3 DUP3 ADD DUP5 ADD MSTORE PUSH1 0x1F ADD PUSH1 0x1F NOT AND ADD ADD SWAP1 JUMP INVALID LOG2 PUSH5 0x6970667358 0x22 SLT KECCAK256 LT 0xA8 DUP7 0xC8 JUMPI SWAP13 PUSH29 0x179ABCFBAD87929B0632E897A4B5FBD16C7221F41BE74978E364736F6C PUSH4 0x4300081C STOP CALLER "
        },
        "methodIdentifiers": {
          "ACTION_NOT_ALLOWED()": "b36862ee",
          "GRACE_PERIOD_EXPIRED()": "c40b8b5b",
          "HOOK_ALREADY_REGISTERED()": "74c54721",
          "HOOK_NOT_FOUND()": "ee736f2b",
          "INSUFFICIENT_APPROVALS()": "6efe4658",
          "INSUFFICIENT_BALANCE()": "50b1f356",
          "INSUFFICIENT_LIQUIDITY()": "827e7b7f",
          "INTERNAL_ERROR()": "6f39656b",
          "INVALID_INPUT()": "b68600c7",
          "INVALID_SIGNATURE()": "a3402a38",
          "INVALID_SWAP_PARAMETERS()": "6c0a9c63",
          "INVALID_TRANSACTION_AMOUNT()": "dc502802",
          "LOAN_NOT_FOUND()": "e0bf98f8",
          "LOAN_REJECTION()": "c25600a5",
          "MERCHANT_ALREADY_EXIST()": "7e4d09c8",
          "MERCHANT_NOT_FOUND()": "ec16aed9",
          "MIN_SIGNER_MUST_BE_GRT_ONE()": "6f2fd73b",
          "OPERATION_FAILED()": "dc8d807e",
          "RECURRENT_PAYMENT_NOT_DUE()": "4561b2d7",
          "RECURRING_TRANSACTION_EXPIRED()": "eb9eb00d",
          "SIGNATURE_EXPIRED()": "19319827",
          "STORAGE_ERROR()": "46984610",
          "SUBSCRIPTION_INACTIVE()": "1f935111",
          "SUBSCRIPTION_NOT_FOUND()": "f13f4574",
          "TEST()": "51d977a6",
          "TOKEN_NOT_SUPPORTED()": "42cee4d8",
          "TRANSACTION_ALREADY_COMPLETED()": "59e17d82",
          "TRANSACTION_FAILED()": "ce10f4d8",
          "TRANSACTION_ID_NOT_FOUND()": "4899d28c",
          "TRANSACTION_INVALID_PAYER()": "d3df216c",
          "TRANSACTION_NOT_ACTIVE()": "1f28bbcd",
          "TRANSACTION_NOT_COMPLETED()": "08753a91",
          "TRANSACTION_NOT_PENDING()": "0d42b95a",
          "UNAUTHORIZED()": "075fd2b1"
        }
      }
    }
  }
}