{
  "contracts/libs/HashLib.sol": {
    "HashLib": {
      "abi": [
        {
          "inputs": [
            {
              "internalType": "string",
              "name": "base",
              "type": "string"
            },
            {
              "internalType": "uint256",
              "name": "identifier",
              "type": "uint256"
            }
          ],
          "name": "generate",
          "outputs": [
            {
              "internalType": "bytes32",
              "name": "",
              "type": "bytes32"
            }
          ],
          "stateMutability": "pure",
          "type": "function"
        },
        {
          "inputs": [
            {
              "internalType": "string",
              "name": "base",
              "type": "string"
            },
            {
              "internalType": "address",
              "name": "user",
              "type": "address"
            },
            {
              "internalType": "uint256",
              "name": "identifier",
              "type": "uint256"
            }
          ],
          "name": "generateWithAddress",
          "outputs": [
            {
              "internalType": "bytes32",
              "name": "",
              "type": "bytes32"
            }
          ],
          "stateMutability": "pure",
          "type": "function"
        }
      ],
      "evm": {
        "bytecode": {
          "linkReferences": {},
          "object": "60808060405234601957610200908161001e823930815050f35b5f80fdfe6080806040526004361015610012575f80fd5b5f3560e01c90816320bed604146100cd575063d3d1752214610032575f80fd5b60603660031901126100c95760043567ffffffffffffffff81116100c95761005e90369060040161012d565b6024359173ffffffffffffffffffffffffffffffffffffffff83168093036100c9576100be6100a2916020946040519384928784019660608852608085019161015b565b906040830152604435606083015203601f19810183528261017b565b519020604051908152f35b5f80fd5b60403660031901126100c95760043567ffffffffffffffff81116100c957816100be60209361010361011794369060040161012d565b94908683019560408752606084019161015b565b602435604083015203601f19810183528261017b565b9181601f840112156100c95782359167ffffffffffffffff83116100c957602083818601950101116100c957565b908060209392818452848401375f828201840152601f01601f1916010190565b90601f8019910116810190811067ffffffffffffffff82111761019d57604052565b7f4e487b71000000000000000000000000000000000000000000000000000000005f52604160045260245ffdfea264697066735822122065e7f7ee5377f4e4a53c1d492f3fab917e0834d9f6f3dcbb812c03d0b915c48864736f6c634300081c0033",
          "opcodes": "PUSH1 0x80 DUP1 PUSH1 0x40 MSTORE CALLVALUE PUSH1 0x19 JUMPI PUSH2 0x200 SWAP1 DUP2 PUSH2 0x1E DUP3 CODECOPY ADDRESS DUP2 POP POP RETURN JUMPDEST PUSH0 DUP1 REVERT INVALID PUSH1 0x80 DUP1 PUSH1 0x40 MSTORE PUSH1 0x4 CALLDATASIZE LT ISZERO PUSH2 0x12 JUMPI PUSH0 DUP1 REVERT JUMPDEST PUSH0 CALLDATALOAD PUSH1 0xE0 SHR SWAP1 DUP2 PUSH4 0x20BED604 EQ PUSH2 0xCD JUMPI POP PUSH4 0xD3D17522 EQ PUSH2 0x32 JUMPI PUSH0 DUP1 REVERT JUMPDEST PUSH1 0x60 CALLDATASIZE PUSH1 0x3 NOT ADD SLT PUSH2 0xC9 JUMPI PUSH1 0x4 CALLDATALOAD PUSH8 0xFFFFFFFFFFFFFFFF DUP2 GT PUSH2 0xC9 JUMPI PUSH2 0x5E SWAP1 CALLDATASIZE SWAP1 PUSH1 0x4 ADD PUSH2 0x12D JUMP JUMPDEST PUSH1 0x24 CALLDATALOAD SWAP2 PUSH20 0xFFFFFFFFFFFFFFFFFFFFFFFFFFFFFFFFFFFFFFFF DUP4 AND DUP1 SWAP4 SUB PUSH2 0xC9 JUMPI PUSH2 0xBE PUSH2 0xA2 SWAP2 PUSH1 0x20 SWAP5 PUSH1 0x40 MLOAD SWAP4 DUP5 SWAP3 DUP8 DUP5 ADD SWAP7 PUSH1 0x60 DUP9 MSTORE PUSH1 0x80 DUP6 ADD SWAP2 PUSH2 0x15B JUMP JUMPDEST SWAP1 PUSH1 0x40 DUP4 ADD MSTORE PUSH1 0x44 CALLDATALOAD PUSH1 0x60 DUP4 ADD MSTORE SUB PUSH1 0x1F NOT DUP2 ADD DUP4 MSTORE DUP3 PUSH2 0x17B JUMP JUMPDEST MLOAD SWAP1 KECCAK256 PUSH1 0x40 MLOAD SWAP1 DUP2 MSTORE RETURN JUMPDEST PUSH0 DUP1 REVERT JUMPDEST PUSH1 0x40 CALLDATASIZE PUSH1 0x3 NOT ADD SLT PUSH2 0xC9 JUMPI PUSH1 0x4 CALLDATALOAD PUSH8 0xFFFFFFFFFFFFFFFF DUP2 GT PUSH2 0xC9 JUMPI DUP2 PUSH2 0xBE PUSH1 0x20 SWAP4 PUSH2 0x103 PUSH2 0x117 SWAP5 CALLDATASIZE SWAP1 PUSH1 0x4 ADD PUSH2 0x12D JUMP JUMPDEST SWAP5 SWAP1 DUP7 DUP4 ADD SWAP6 PUSH1 0x40 DUP8 MSTORE PUSH1 0x60 DUP5 ADD SWAP2 PUSH2 0x15B JUMP JUMPDEST PUSH1 0x24 CALLDATALOAD PUSH1 0x40 DUP4 ADD MSTORE SUB PUSH1 0x1F NOT DUP2 ADD DUP4 MSTORE DUP3 PUSH2 0x17B JUMP JUMPDEST SWAP2 DUP2 PUSH1 0x1F DUP5 ADD SLT ISZERO PUSH2 0xC9 JUMPI DUP3 CALLDATALOAD SWAP2 PUSH8 0xFFFFFFFFFFFFFFFF DUP4 GT PUSH2 0xC9 JUMPI PUSH1 0x20 DUP4 DUP2 DUP7 ADD SWAP6 ADD ADD GT PUSH2 0xC9 JUMPI JUMP JUMPDEST SWAP1 DUP1 PUSH1 0x20 SWAP4 SWAP3 DUP2 DUP5 MSTORE DUP5 DUP5 ADD CALLDATACOPY PUSH0 DUP3 DUP3 ADD DUP5 ADD MSTORE PUSH1 0x1F ADD PUSH1 0x1F NOT AND ADD ADD SWAP1 JUMP JUMPDEST SWAP1 PUSH1 0x1F DUP1 NOT SWAP2 ADD AND DUP2 ADD SWAP1 DUP2 LT PUSH8 0xFFFFFFFFFFFFFFFF DUP3 GT OR PUSH2 0x19D JUMPI PUSH1 0x40 MSTORE JUMP JUMPDEST PUSH32 0x4E487B7100000000000000000000000000000000000000000000000000000000 PUSH0 MSTORE PUSH1 0x41 PUSH1 0x4 MSTORE PUSH1 0x24 PUSH0 REVERT INVALID LOG2 PUSH5 0x6970667358 0x22 SLT KECCAK256 PUSH6 0xE7F7EE5377F4 0xE4 0xA5 EXTCODECOPY SAR BLOBHASH 0x2F EXTCODEHASH 0xAB SWAP2 PUSH31 0x834D9F6F3DCBB812C03D0B915C48864736F6C634300081C00330000000000 "
        },
        "methodIdentifiers": {
          "generate(string,uint256)": "20bed604",
          "generateWithAddress(string,address,uint256)": "d3d17522"
        }
      }
    }
  }
}