{
  "contracts/transactions/RecurrentTransaction.sol": {
    "RecurrentTransaction": {
      "abi": [
        {
          "inputs": [
            {
              "internalType": "contract IReceipt",
              "name": "receipt_",
              "type": "address"
            },
            {
              "internalType": "contract IMerchant",
              "name": "merchant_",
              "type": "address"
            }
          ],
          "stateMutability": "nonpayable",
          "type": "constructor"
        },
        {
          "inputs": [
            {
              "internalType": "address",
              "name": "owner",
              "type": "address"
            }
          ],
          "name": "OwnableInvalidOwner",
          "type": "error"
        },
        {
          "inputs": [
            {
              "internalType": "address",
              "name": "account",
              "type": "address"
            }
          ],
          "name": "OwnableUnauthorizedAccount",
          "type": "error"
        },
        {
          "anonymous": false,
          "inputs": [
            {
              "indexed": true,
              "internalType": "address",
              "name": "previousOwner",
              "type": "address"
            },
            {
              "indexed": true,
              "internalType": "address",
              "name": "newOwner",
              "type": "address"
            }
          ],
          "name": "OwnershipTransferred",
          "type": "event"
        },
        {
          "inputs": [
            {
              "internalType": "address",
              "name": "payer",
              "type": "address"
            },
            {
              "components": [
                {
                  "internalType": "address",
                  "name": "merchant",
                  "type": "address"
                },
                {
                  "internalType": "bytes32",
                  "name": "subscriptionId",
                  "type": "bytes32"
                },
                {
                  "internalType": "string",
                  "name": "description",
                  "type": "string"
                },
                {
                  "components": [
                    {
                      "internalType": "uint8",
                      "name": "schemaVersion",
                      "type": "uint8"
                    },
                    {
                      "internalType": "string",
                      "name": "value",
                      "type": "string"
                    }
                  ],
                  "internalType": "struct Types.Metadata",
                  "name": "metadata",
                  "type": "tuple"
                }
              ],
              "internalType": "struct Params.CreateRecurrentTransaction",
              "name": "params",
              "type": "tuple"
            }
          ],
          "name": "create",
          "outputs": [
            {
              "internalType": "bytes32",
              "name": "transactionId",
              "type": "bytes32"
            }
          ],
          "stateMutability": "nonpayable",
          "type": "function"
        },
        {
          "inputs": [
            {
              "internalType": "bytes32",
              "name": "transactionId",
              "type": "bytes32"
            }
          ],
          "name": "getStatus",
          "outputs": [
            {
              "internalType": "enum Enums.TransactionStatus",
              "name": "",
              "type": "uint8"
            }
          ],
          "stateMutability": "view",
          "type": "function"
        },
        {
          "inputs": [
            {
              "internalType": "bytes32",
              "name": "transactionId",
              "type": "bytes32"
            }
          ],
          "name": "getTransaction",
          "outputs": [
            {
              "components": [
                {
                  "internalType": "address",
                  "name": "payer",
                  "type": "address"
                },
                {
                  "internalType": "address",
                  "name": "merchant",
                  "type": "address"
                },
                {
                  "internalType": "bytes32",
                  "name": "subscriptionId",
                  "type": "bytes32"
                },
                {
                  "internalType": "string",
                  "name": "description",
                  "type": "string"
                },
                {
                  "internalType": "uint256[]",
                  "name": "timestamps",
                  "type": "uint256[]"
                },
                {
                  "internalType": "uint256[]",
                  "name": "amounts",
                  "type": "uint256[]"
                },
                {
                  "internalType": "uint256",
                  "name": "dueDate",
                  "type": "uint256"
                },
                {
                  "components": [
                    {
                      "internalType": "uint8",
                      "name": "schemaVersion",
                      "type": "uint8"
                    },
                    {
                      "internalType": "string",
                      "name": "value",
                      "type": "string"
                    }
                  ],
                  "internalType": "struct Types.Metadata",
                  "name": "metadata",
                  "type": "tuple"
                },
                {
                  "internalType": "enum Enums.TransactionStatus",
                  "name": "status",
                  "type": "uint8"
                }
              ],
              "internalType": "struct Types.RecurrentTransaction",
              "name": "",
              "type": "tuple"
            }
          ],
          "stateMutability": "view",
          "type": "function"
        },
        {
          "inputs": [
            {
              "components": [
                {
                  "internalType": "address",
                  "name": "to",
                  "type": "address"
                },
                {
                  "internalType": "bytes32",
                  "name": "transactionId",
                  "type": "bytes32"
                },
                {
                  "internalType": "string",
                  "name": "URI",
                  "type": "string"
                }
              ],
              "internalType": "struct Params.MintReceipt",
              "name": "params",
              "type": "tuple"
            }
          ],
          "name": "mintReceipt",
          "outputs": [],
          "stateMutability": "nonpayable",
          "type": "function"
        },
        {
          "inputs": [
            {
              "internalType": "address",
              "name": "payer",
              "type": "address"
            },
            {
              "internalType": "bytes32",
              "name": "transactionId",
              "type": "bytes32"
            }
          ],
          "name": "onCancel",
          "outputs": [],
          "stateMutability": "nonpayable",
          "type": "function"
        },
        {
          "inputs": [
            {
              "internalType": "bytes32",
              "name": "transactionId",
              "type": "bytes32"
            },
            {
              "internalType": "uint256",
              "name": "amount",
              "type": "uint256"
            }
          ],
          "name": "onComplete",
          "outputs": [],
          "stateMutability": "nonpayable",
          "type": "function"
        },
        {
          "inputs": [
            {
              "internalType": "bytes32",
              "name": "transactionId",
              "type": "bytes32"
            },
            {
              "internalType": "address",
              "name": "payer",
              "type": "address"
            }
          ],
          "name": "onFulfill",
          "outputs": [
            {
              "internalType": "uint256",
              "name": "amount",
              "type": "uint256"
            },
            {
              "internalType": "address",
              "name": "token",
              "type": "address"
            },
            {
              "internalType": "uint256",
              "name": "dueDate",
              "type": "uint256"
            }
          ],
          "stateMutability": "nonpayable",
          "type": "function"
        },
        {
          "inputs": [],
          "name": "owner",
          "outputs": [
            {
              "internalType": "address",
              "name": "",
              "type": "address"
            }
          ],
          "stateMutability": "view",
          "type": "function"
        },
        {
          "inputs": [],
          "name": "renounceOwnership",
          "outputs": [],
          "stateMutability": "nonpayable",
          "type": "function"
        },
        {
          "inputs": [
            {
              "internalType": "address",
              "name": "newOwner",
              "type": "address"
            }
          ],
          "name": "transferOwnership",
          "outputs": [],
          "stateMutability": "nonpayable",
          "type": "function"
        }
      ],
      "evm": {
        "bytecode": {
          "linkReferences": {
            "contracts/libs/HashLib.sol": {
              "HashLib": [
                {
                  "length": 20,
                  "start": 1656
                }
              ]
            }
          },
          "object": "6080346100f557601f61163238819003918201601f19168301916001600160401b038311848410176100f95780849260409485528339810103126100f55780516001600160a01b03811691908290036100f557602001516001600160a01b038116908190036100f55733156100e2575f8054336001600160a01b0319821681178355604051949290916001600160a01b0316907f8be0079c531659141344cd1fd0a4f28419497f9722a3daafe3b4186f6b6457e09080a360018060a01b0319600154161760015560018060a01b03196002541617600255611524908161010e8239f35b631e4fbdf760e01b5f525f60045260245ffd5b5f80fd5b634e487b7160e01b5f52604160045260245ffdfe60806040526004361015610011575f80fd5b5f5f3560e01c80632d926e4614610d4a5780633ed5027514610cac5780634aae13ca14610aad5780635de28ae014610a76578063715018a614610a125780638da5cb5b146109ed578063b38ffd5f14610975578063b658330e1461032e578063eb70fc28146101355763f2fde38b14610088575f80fd5b34610132576020366003190112610132576001600160a01b036100a96110d4565b6100b16114af565b168015610106576001600160a01b0382548273ffffffffffffffffffffffffffffffffffffffff198216178455167f8be0079c531659141344cd1fd0a4f28419497f9722a3daafe3b4186f6b6457e08380a380f35b6024827f1e4fbdf700000000000000000000000000000000000000000000000000000000815280600452fd5b80fd5b50346103025760203660031901126103025760043567ffffffffffffffff81116103025760606003198236030112610302576040516060810181811067ffffffffffffffff82111761031a57604052610190826004016110ea565b815260208101916024810135835260448101359067ffffffffffffffff82116103025760046101c292369201016111d9565b916040820192835280515f52600460205260405f206101f56001600160a01b038254166101ed6112a4565b90331461125a565b60ff60098201541660048110156103065761026391610221600492600161021a61121f565b911461125a565b015415156040519061023460408361119b565b600382527f3130360000000000000000000000000000000000000000000000000000000000602083015261125a565b6001600160a01b0360015416803b15610302576001600160a01b035f80946102d7604051978896879586947fcab723650000000000000000000000000000000000000000000000000000000086526020600487015251166024850152516044840152516060606484015260848301906110fe565b03925af180156102f7576102e9575080f35b6102f591505f9061119b565b005b6040513d5f823e3d90fd5b5f80fd5b634e487b7160e01b5f52602160045260245ffd5b634e487b7160e01b5f52604160045260245ffd5b34610302576040366003190112610302576103476110d4565b60243567ffffffffffffffff8111610302576080600319823603011261030257604051906080820182811067ffffffffffffffff82111761031a57604052610391816004016110ea565b82526020820160248201358152604482013567ffffffffffffffff8111610302576103c290600436918501016111d9565b916040840192835260648101359067ffffffffffffffff82116103025701936040600319863603011261030257604051946103fc86611162565b600481013560ff8116810361030257865260248101359067ffffffffffffffff821161030257600461043192369201016111d9565b6020860152606084019485526104456114af565b6003549260018401809411610961576001600160a01b0361056095856003555116925190519060209660405161047b898261119b565b5f81525f368137604051916104908a8461119b565b5f83525f36813751936001600160a01b03604051966104ae8861117e565b16865289860196875260408601938452606086019081526080860191825260a0860192835260c086019342855260e08701958652610100870197600189528b60409a8b8051916104fe828461119b565b601483527f526563757272656e745472616e73616374696f6e0000000000000000000000008484015281519e8f9384937f20bed604000000000000000000000000000000000000000000000000000000008552600485015260448401906110fe565b906024830152038173__$e8a316a189340483dbc2c3c1eb5060a774$__5af49a8b15610957575f9b610921575b506001600160a01b03908b5f5260048d5281808c5f209a51161673ffffffffffffffffffffffffffffffffffffffff198a541617895551166001600160a01b0360018901911673ffffffffffffffffffffffffffffffffffffffff1982541617905551600287015560038601905180519067ffffffffffffffff821161031a5781906106198454611339565b8d601f82116108f2575b50508c908d601f841160011461088e57505f92610883575b50508160011b915f199060031b1c19161790555b51805190600486019067ffffffffffffffff831161031a5768010000000000000000831161031a578a908254848455808510610868575b5001905f52895f205f5b83811061085657505050506005840190519081519167ffffffffffffffff831161031a5768010000000000000000831161031a578990825484845580851061083b575b5001905f52885f205f5b83811061082957505050505160068301556007820190519060ff82511660ff19825416179055856008830191015180519067ffffffffffffffff821161031a576107278354611339565b601f81116107f0575b508790601f8311600114610789576009949392915f918361077e575b50508160011b915f199060031b1c19161790555b01905160048110156103065760ff8019835416911617905551908152f35b01519050898061074c565b90601f19831691845f52895f20925f5b8b8282106107da575050916001939185600998979694106107c2575b505050811b019055610760565b01515f1960f88460031b161c191690558980806107b5565b6001859682939686015181550195019301610799565b61081990845f52895f20601f850160051c8101918b861061081f575b601f0160051c0190611499565b88610730565b909150819061080c565b825182820155918a01916001016106dd565b61085090845f5285845f209182019101611499565b8b6106d3565b825182820155918b0191600101610690565b61087d90845f5285845f209182019101611499565b8c610686565b015190508c8061063b565b5f8681528181209450601f198616915b8282106108da5750509084600195949392106108c2575b505050811b01905561064f565b01515f1960f88460031b161c191690558c80806108b5565b8060018697829497870151815501960194019061089e565b61091a91865f52815f2090601f860160051c820192861061081f57601f0160051c0190611499565b8d8d610623565b909a508b81813d8311610950575b610939818361119b565b810103126103025751996001600160a01b0361058d565b503d61092f565b8a513d5f823e3d90fd5b634e487b7160e01b5f52601160045260245ffd5b34610302576040366003190112610302576004356109916114af565b805f52600460205260ff600960405f200154166004811015610306576109bb90600161021a61121f565b805f5260046020526109d4600460405f20014290611459565b5f5260046020526102f5602435600560405f2001611459565b34610302575f3660031901126103025760206001600160a01b035f5416604051908152f35b34610302575f36600319011261030257610a2a6114af565b5f6001600160a01b03815473ffffffffffffffffffffffffffffffffffffffff1981168355167f8be0079c531659141344cd1fd0a4f28419497f9722a3daafe3b4186f6b6457e08280a3005b34610302576020366003190112610302576004355f526004602052602060ff600960405f20015416610aab6040518092611155565bf35b34610302576020366003190112610302575f610100604051610ace8161117e565b82815282602082015282604082015260608082015260606080820152606060a08201528260c0820152604051610b0381611162565b8381526060602082015260e082015201526004355f52600460205260405f20604051610b2e8161117e565b6001600160a01b0382541681526001600160a01b03600183015416916020820192835260028101549060408301918252610b6a60038201611371565b9060608401918252610b7e60048201611411565b60808501908152610b9160058301611411565b9060a0860191825260068301549360c0870194855260ff600960405195610bb787611162565b826007820154168752610bcc60088201611371565b602088015260e08a0196875201541695610100880196600481101561030657875260405198899860208a52516001600160a01b031660208a0152516001600160a01b03166040890152516060880152516080870161012090526101408701610c33916110fe565b9051868203601f190160a0880152610c4b9190611122565b9051858203601f190160c0870152610c639190611122565b915160e085015251601f1984830301610100850152805160ff16825260200151906020810160409052604001610c98916110fe565b90516101208301610ca891611155565b0390f35b3461030257604036600319011261030257610cc56110d4565b60243590610cd16114af565b815f52600460205260ff600960405f2001541690600482101561030657610cff610d2d92600161021a61121f565b825f5260046020526001600160a01b0360405f2054166001600160a01b03610d256112a4565b92161461125a565b5f908152600460205260409020600901805460ff19166003179055005b3461030257604036600319011261030257600435602435906001600160a01b03821680920361030257610d7b6114af565b805f52600460205260ff600960405f20015416600481101561030657610da590600161021a61121f565b5f526004602052610dce60405f20916001600160a01b0383541614610dc86112a4565b9061125a565b600681019081546040610e198151610de6838261119b565b600381527f333033000000000000000000000000000000000000000000000000000000000060208201528342101561125a565b6001600160a01b0360025416925f600282015460248451809781937f1f32768e00000000000000000000000000000000000000000000000000000000835260048301525afa9384156110ca575f94610f91575b50610f0990610eb760e08601511515845190610e88868361119b565b600382527f3230310000000000000000000000000000000000000000000000000000000000602083015261125a565b6001600160a01b0360018160c0880151169201541614825190610eda848361119b565b600182527f3200000000000000000000000000000000000000000000000000000000000000602083015261125a565b6020830191610f5183511515835190610f22858361119b565b600182527f3300000000000000000000000000000000000000000000000000000000000000602083015261125a565b8042115f14610f8b575042915b5182018092116109615781606094556001600160a01b038184015193511681519384526020840152820152f35b91610f5e565b9093503d805f833e610fa3818361119b565b8101906020818303126103025780519067ffffffffffffffff82116103025701906101008282031261030257825191610100830183811067ffffffffffffffff82111761031a578452610ff5816112df565b835260208101516020840152838101518484015260608101516060840152608081015167ffffffffffffffff811161030257826110339183016112f3565b608084015260a081015167ffffffffffffffff811161030257810184818403126103025784519061106382611162565b805160ff8116810361030257825260208101519367ffffffffffffffff85116103025760e09461109392016112f3565b602082015260a08401526110a960c082016112df565b60c0840152015190811515820361030257610f099160e08201529390610e6c565b82513d5f823e3d90fd5b600435906001600160a01b038216820361030257565b35906001600160a01b038216820361030257565b805180835260209291819084018484015e5f828201840152601f01601f1916010190565b90602080835192838152019201905f5b81811061113f5750505090565b8251845260209384019390920191600101611132565b9060048210156103065752565b6040810190811067ffffffffffffffff82111761031a57604052565b610120810190811067ffffffffffffffff82111761031a57604052565b90601f8019910116810190811067ffffffffffffffff82111761031a57604052565b67ffffffffffffffff811161031a57601f01601f191660200190565b81601f82011215610302578035906111f0826111bd565b926111fe604051948561119b565b8284526020838301011161030257815f926020809301838601378301015290565b6040519061122e60408361119b565b600382527f31303300000000000000000000000000000000000000000000000000000000006020830152565b156112625750565b6112a0906040519182917f08c379a00000000000000000000000000000000000000000000000000000000083526020600484015260248301906110fe565b0390fd5b604051906112b360408361119b565b600382527f31303400000000000000000000000000000000000000000000000000000000006020830152565b51906001600160a01b038216820361030257565b81601f820112156103025780519061130a826111bd565b92611318604051948561119b565b8284526020838301011161030257815f9260208093018386015e8301015290565b90600182811c92168015611367575b602083101461135357565b634e487b7160e01b5f52602260045260245ffd5b91607f1691611348565b9060405191825f82549261138484611339565b80845293600181169081156113ef57506001146113ab575b506113a99250038361119b565b565b90505f9291925260205f20905f915b8183106113d35750509060206113a9928201015f61139c565b60209193508060019154838589010152019101909184926113ba565b9050602092506113a994915060ff191682840152151560051b8201015f61139c565b90604051918281549182825260208201905f5260205f20925f5b8181106114405750506113a99250038361119b565b845483526001948501948794506020909301920161142b565b8054906801000000000000000082101561031a5760018201808255821015611485575f5260205f200155565b634e487b7160e01b5f52603260045260245ffd5b8181106114a4575050565b5f8155600101611499565b6001600160a01b035f541633036114c257565b7f118cdaa7000000000000000000000000000000000000000000000000000000005f523360045260245ffdfea2646970667358221220b01af0b4610ae5b1cd8d8cc2eee79071a691d2ce2d91ddc38dcb0a3d5c3eb73564736f6c634300081c0033",
          "opcodes": "PUSH1 0x80 CALLVALUE PUSH2 0xF5 JUMPI PUSH1 0x1F PUSH2 0x1632 CODESIZE DUP2 SWAP1 SUB SWAP2 DUP3 ADD PUSH1 0x1F NOT AND DUP4 ADD SWAP2 PUSH1 0x1 PUSH1 0x1 PUSH1 0x40 SHL SUB DUP4 GT DUP5 DUP5 LT OR PUSH2 0xF9 JUMPI DUP1 DUP5 SWAP3 PUSH1 0x40 SWAP5 DUP6 MSTORE DUP4 CODECOPY DUP2 ADD SUB SLT PUSH2 0xF5 JUMPI DUP1 MLOAD PUSH1 0x1 PUSH1 0x1 PUSH1 0xA0 SHL SUB DUP2 AND SWAP2 SWAP1 DUP3 SWAP1 SUB PUSH2 0xF5 JUMPI PUSH1 0x20 ADD MLOAD PUSH1 0x1 PUSH1 0x1 PUSH1 0xA0 SHL SUB DUP2 AND SWAP1 DUP2 SWAP1 SUB PUSH2 0xF5 JUMPI CALLER ISZERO PUSH2 0xE2 JUMPI PUSH0 DUP1 SLOAD CALLER PUSH1 0x1 PUSH1 0x1 PUSH1 0xA0 SHL SUB NOT DUP3 AND DUP2 OR DUP4 SSTORE PUSH1 0x40 MLOAD SWAP5 SWAP3 SWAP1 SWAP2 PUSH1 0x1 PUSH1 0x1 PUSH1 0xA0 SHL SUB AND SWAP1 PUSH32 0x8BE0079C531659141344CD1FD0A4F28419497F9722A3DAAFE3B4186F6B6457E0 SWAP1 DUP1 LOG3 PUSH1 0x1 DUP1 PUSH1 0xA0 SHL SUB NOT PUSH1 0x1 SLOAD AND OR PUSH1 0x1 SSTORE PUSH1 0x1 DUP1 PUSH1 0xA0 SHL SUB NOT PUSH1 0x2 SLOAD AND OR PUSH1 0x2 SSTORE PUSH2 0x1524 SWAP1 DUP2 PUSH2 0x10E DUP3 CODECOPY RETURN JUMPDEST PUSH4 0x1E4FBDF7 PUSH1 0xE0 SHL PUSH0 MSTORE PUSH0 PUSH1 0x4 MSTORE PUSH1 0x24 PUSH0 REVERT JUMPDEST PUSH0 DUP1 REVERT JUMPDEST PUSH4 0x4E487B71 PUSH1 0xE0 SHL PUSH0 MSTORE PUSH1 0x41 PUSH1 0x4 MSTORE PUSH1 0x24 PUSH0 REVERT INVALID PUSH1 0x80 PUSH1 0x40 MSTORE PUSH1 0x4 CALLDATASIZE LT ISZERO PUSH2 0x11 JUMPI PUSH0 DUP1 REVERT JUMPDEST PUSH0 PUSH0 CALLDATALOAD PUSH1 0xE0 SHR DUP1 PUSH4 0x2D926E46 EQ PUSH2 0xD4A JUMPI DUP1 PUSH4 0x3ED50275 EQ PUSH2 0xCAC JUMPI DUP1 PUSH4 0x4AAE13CA EQ PUSH2 0xAAD JUMPI DUP1 PUSH4 0x5DE28AE0 EQ PUSH2 0xA76 JUMPI DUP1 PUSH4 0x715018A6 EQ PUSH2 0xA12 JUMPI DUP1 PUSH4 0x8DA5CB5B EQ PUSH2 0x9ED JUMPI DUP1 PUSH4 0xB38FFD5F EQ PUSH2 0x975 JUMPI DUP1 PUSH4 0xB658330E EQ PUSH2 0x32E JUMPI DUP1 PUSH4 0xEB70FC28 EQ PUSH2 0x135 JUMPI PUSH4 0xF2FDE38B EQ PUSH2 0x88 JUMPI PUSH0 DUP1 REVERT JUMPDEST CALLVALUE PUSH2 0x132 JUMPI PUSH1 0x20 CALLDATASIZE PUSH1 0x3 NOT ADD SLT PUSH2 0x132 JUMPI PUSH1 0x1 PUSH1 0x1 PUSH1 0xA0 SHL SUB PUSH2 0xA9 PUSH2 0x10D4 JUMP JUMPDEST PUSH2 0xB1 PUSH2 0x14AF JUMP JUMPDEST AND DUP1 ISZERO PUSH2 0x106 JUMPI PUSH1 0x1 PUSH1 0x1 PUSH1 0xA0 SHL SUB DUP3 SLOAD DUP3 PUSH20 0xFFFFFFFFFFFFFFFFFFFFFFFFFFFFFFFFFFFFFFFF NOT DUP3 AND OR DUP5 SSTORE AND PUSH32 0x8BE0079C531659141344CD1FD0A4F28419497F9722A3DAAFE3B4186F6B6457E0 DUP4 DUP1 LOG3 DUP1 RETURN JUMPDEST PUSH1 0x24 DUP3 PUSH32 0x1E4FBDF700000000000000000000000000000000000000000000000000000000 DUP2 MSTORE DUP1 PUSH1 0x4 MSTORE REVERT JUMPDEST DUP1 REVERT JUMPDEST POP CALLVALUE PUSH2 0x302 JUMPI PUSH1 0x20 CALLDATASIZE PUSH1 0x3 NOT ADD SLT PUSH2 0x302 JUMPI PUSH1 0x4 CALLDATALOAD PUSH8 0xFFFFFFFFFFFFFFFF DUP2 GT PUSH2 0x302 JUMPI PUSH1 0x60 PUSH1 0x3 NOT DUP3 CALLDATASIZE SUB ADD SLT PUSH2 0x302 JUMPI PUSH1 0x40 MLOAD PUSH1 0x60 DUP2 ADD DUP2 DUP2 LT PUSH8 0xFFFFFFFFFFFFFFFF DUP3 GT OR PUSH2 0x31A JUMPI PUSH1 0x40 MSTORE PUSH2 0x190 DUP3 PUSH1 0x4 ADD PUSH2 0x10EA JUMP JUMPDEST DUP2 MSTORE PUSH1 0x20 DUP2 ADD SWAP2 PUSH1 0x24 DUP2 ADD CALLDATALOAD DUP4 MSTORE PUSH1 0x44 DUP2 ADD CALLDATALOAD SWAP1 PUSH8 0xFFFFFFFFFFFFFFFF DUP3 GT PUSH2 0x302 JUMPI PUSH1 0x4 PUSH2 0x1C2 SWAP3 CALLDATASIZE SWAP3 ADD ADD PUSH2 0x11D9 JUMP JUMPDEST SWAP2 PUSH1 0x40 DUP3 ADD SWAP3 DUP4 MSTORE DUP1 MLOAD PUSH0 MSTORE PUSH1 0x4 PUSH1 0x20 MSTORE PUSH1 0x40 PUSH0 KECCAK256 PUSH2 0x1F5 PUSH1 0x1 PUSH1 0x1 PUSH1 0xA0 SHL SUB DUP3 SLOAD AND PUSH2 0x1ED PUSH2 0x12A4 JUMP JUMPDEST SWAP1 CALLER EQ PUSH2 0x125A JUMP JUMPDEST PUSH1 0xFF PUSH1 0x9 DUP3 ADD SLOAD AND PUSH1 0x4 DUP2 LT ISZERO PUSH2 0x306 JUMPI PUSH2 0x263 SWAP2 PUSH2 0x221 PUSH1 0x4 SWAP3 PUSH1 0x1 PUSH2 0x21A PUSH2 0x121F JUMP JUMPDEST SWAP2 EQ PUSH2 0x125A JUMP JUMPDEST ADD SLOAD ISZERO ISZERO PUSH1 0x40 MLOAD SWAP1 PUSH2 0x234 PUSH1 0x40 DUP4 PUSH2 0x119B JUMP JUMPDEST PUSH1 0x3 DUP3 MSTORE PUSH32 0x3130360000000000000000000000000000000000000000000000000000000000 PUSH1 0x20 DUP4 ADD MSTORE PUSH2 0x125A JUMP JUMPDEST PUSH1 0x1 PUSH1 0x1 PUSH1 0xA0 SHL SUB PUSH1 0x1 SLOAD AND DUP1 EXTCODESIZE ISZERO PUSH2 0x302 JUMPI PUSH1 0x1 PUSH1 0x1 PUSH1 0xA0 SHL SUB PUSH0 DUP1 SWAP5 PUSH2 0x2D7 PUSH1 0x40 MLOAD SWAP8 DUP9 SWAP7 DUP8 SWAP6 DUP7 SWAP5 PUSH32 0xCAB7236500000000000000000000000000000000000000000000000000000000 DUP7 MSTORE PUSH1 0x20 PUSH1 0x4 DUP8 ADD MSTORE MLOAD AND PUSH1 0x24 DUP6 ADD MSTORE MLOAD PUSH1 0x44 DUP5 ADD MSTORE MLOAD PUSH1 0x60 PUSH1 0x64 DUP5 ADD MSTORE PUSH1 0x84 DUP4 ADD SWAP1 PUSH2 0x10FE JUMP JUMPDEST SUB SWAP3 GAS CALL DUP1 ISZERO PUSH2 0x2F7 JUMPI PUSH2 0x2E9 JUMPI POP DUP1 RETURN JUMPDEST PUSH2 0x2F5 SWAP2 POP PUSH0 SWAP1 PUSH2 0x119B JUMP JUMPDEST STOP JUMPDEST PUSH1 0x40 MLOAD RETURNDATASIZE PUSH0 DUP3 RETURNDATACOPY RETURNDATASIZE SWAP1 REVERT JUMPDEST PUSH0 DUP1 REVERT JUMPDEST PUSH4 0x4E487B71 PUSH1 0xE0 SHL PUSH0 MSTORE PUSH1 0x21 PUSH1 0x4 MSTORE PUSH1 0x24 PUSH0 REVERT JUMPDEST PUSH4 0x4E487B71 PUSH1 0xE0 SHL PUSH0 MSTORE PUSH1 0x41 PUSH1 0x4 MSTORE PUSH1 0x24 PUSH0 REVERT JUMPDEST CALLVALUE PUSH2 0x302 JUMPI PUSH1 0x40 CALLDATASIZE PUSH1 0x3 NOT ADD SLT PUSH2 0x302 JUMPI PUSH2 0x347 PUSH2 0x10D4 JUMP JUMPDEST PUSH1 0x24 CALLDATALOAD PUSH8 0xFFFFFFFFFFFFFFFF DUP2 GT PUSH2 0x302 JUMPI PUSH1 0x80 PUSH1 0x3 NOT DUP3 CALLDATASIZE SUB ADD SLT PUSH2 0x302 JUMPI PUSH1 0x40 MLOAD SWAP1 PUSH1 0x80 DUP3 ADD DUP3 DUP2 LT PUSH8 0xFFFFFFFFFFFFFFFF DUP3 GT OR PUSH2 0x31A JUMPI PUSH1 0x40 MSTORE PUSH2 0x391 DUP2 PUSH1 0x4 ADD PUSH2 0x10EA JUMP JUMPDEST DUP3 MSTORE PUSH1 0x20 DUP3 ADD PUSH1 0x24 DUP3 ADD CALLDATALOAD DUP2 MSTORE PUSH1 0x44 DUP3 ADD CALLDATALOAD PUSH8 0xFFFFFFFFFFFFFFFF DUP2 GT PUSH2 0x302 JUMPI PUSH2 0x3C2 SWAP1 PUSH1 0x4 CALLDATASIZE SWAP2 DUP6 ADD ADD PUSH2 0x11D9 JUMP JUMPDEST SWAP2 PUSH1 0x40 DUP5 ADD SWAP3 DUP4 MSTORE PUSH1 0x64 DUP2 ADD CALLDATALOAD SWAP1 PUSH8 0xFFFFFFFFFFFFFFFF DUP3 GT PUSH2 0x302 JUMPI ADD SWAP4 PUSH1 0x40 PUSH1 0x3 NOT DUP7 CALLDATASIZE SUB ADD SLT PUSH2 0x302 JUMPI PUSH1 0x40 MLOAD SWAP5 PUSH2 0x3FC DUP7 PUSH2 0x1162 JUMP JUMPDEST PUSH1 0x4 DUP2 ADD CALLDATALOAD PUSH1 0xFF DUP2 AND DUP2 SUB PUSH2 0x302 JUMPI DUP7 MSTORE PUSH1 0x24 DUP2 ADD CALLDATALOAD SWAP1 PUSH8 0xFFFFFFFFFFFFFFFF DUP3 GT PUSH2 0x302 JUMPI PUSH1 0x4 PUSH2 0x431 SWAP3 CALLDATASIZE SWAP3 ADD ADD PUSH2 0x11D9 JUMP JUMPDEST PUSH1 0x20 DUP7 ADD MSTORE PUSH1 0x60 DUP5 ADD SWAP5 DUP6 MSTORE PUSH2 0x445 PUSH2 0x14AF JUMP JUMPDEST PUSH1 0x3 SLOAD SWAP3 PUSH1 0x1 DUP5 ADD DUP1 SWAP5 GT PUSH2 0x961 JUMPI PUSH1 0x1 PUSH1 0x1 PUSH1 0xA0 SHL SUB PUSH2 0x560 SWAP6 DUP6 PUSH1 0x3 SSTORE MLOAD AND SWAP3 MLOAD SWAP1 MLOAD SWAP1 PUSH1 0x20 SWAP7 PUSH1 0x40 MLOAD PUSH2 0x47B DUP10 DUP3 PUSH2 0x119B JUMP JUMPDEST PUSH0 DUP2 MSTORE PUSH0 CALLDATASIZE DUP2 CALLDATACOPY PUSH1 0x40 MLOAD SWAP2 PUSH2 0x490 DUP11 DUP5 PUSH2 0x119B JUMP JUMPDEST PUSH0 DUP4 MSTORE PUSH0 CALLDATASIZE DUP2 CALLDATACOPY MLOAD SWAP4 PUSH1 0x1 PUSH1 0x1 PUSH1 0xA0 SHL SUB PUSH1 0x40 MLOAD SWAP7 PUSH2 0x4AE DUP9 PUSH2 0x117E JUMP JUMPDEST AND DUP7 MSTORE DUP10 DUP7 ADD SWAP7 DUP8 MSTORE PUSH1 0x40 DUP7 ADD SWAP4 DUP5 MSTORE PUSH1 0x60 DUP7 ADD SWAP1 DUP2 MSTORE PUSH1 0x80 DUP7 ADD SWAP2 DUP3 MSTORE PUSH1 0xA0 DUP7 ADD SWAP3 DUP4 MSTORE PUSH1 0xC0 DUP7 ADD SWAP4 TIMESTAMP DUP6 MSTORE PUSH1 0xE0 DUP8 ADD SWAP6 DUP7 MSTORE PUSH2 0x100 DUP8 ADD SWAP8 PUSH1 0x1 DUP10 MSTORE DUP12 PUSH1 0x40 SWAP11 DUP12 DUP1 MLOAD SWAP2 PUSH2 0x4FE DUP3 DUP5 PUSH2 0x119B JUMP JUMPDEST PUSH1 0x14 DUP4 MSTORE PUSH32 0x526563757272656E745472616E73616374696F6E000000000000000000000000 DUP5 DUP5 ADD MSTORE DUP2 MLOAD SWAP15 DUP16 SWAP4 DUP5 SWAP4 PUSH32 0x20BED60400000000000000000000000000000000000000000000000000000000 DUP6 MSTORE PUSH1 0x4 DUP6 ADD MSTORE PUSH1 0x44 DUP5 ADD SWAP1 PUSH2 0x10FE JUMP JUMPDEST SWAP1 PUSH1 0x24 DUP4 ADD MSTORE SUB DUP2 PUSH20 0x0 GAS DELEGATECALL SWAP11 DUP12 ISZERO PUSH2 0x957 JUMPI PUSH0 SWAP12 PUSH2 0x921 JUMPI JUMPDEST POP PUSH1 0x1 PUSH1 0x1 PUSH1 0xA0 SHL SUB SWAP1 DUP12 PUSH0 MSTORE PUSH1 0x4 DUP14 MSTORE DUP2 DUP1 DUP13 PUSH0 KECCAK256 SWAP11 MLOAD AND AND PUSH20 0xFFFFFFFFFFFFFFFFFFFFFFFFFFFFFFFFFFFFFFFF NOT DUP11 SLOAD AND OR DUP10 SSTORE MLOAD AND PUSH1 0x1 PUSH1 0x1 PUSH1 0xA0 SHL SUB PUSH1 0x1 DUP10 ADD SWAP2 AND PUSH20 0xFFFFFFFFFFFFFFFFFFFFFFFFFFFFFFFFFFFFFFFF NOT DUP3 SLOAD AND OR SWAP1 SSTORE MLOAD PUSH1 0x2 DUP8 ADD SSTORE PUSH1 0x3 DUP7 ADD SWAP1 MLOAD DUP1 MLOAD SWAP1 PUSH8 0xFFFFFFFFFFFFFFFF DUP3 GT PUSH2 0x31A JUMPI DUP2 SWAP1 PUSH2 0x619 DUP5 SLOAD PUSH2 0x1339 JUMP JUMPDEST DUP14 PUSH1 0x1F DUP3 GT PUSH2 0x8F2 JUMPI JUMPDEST POP POP DUP13 SWAP1 DUP14 PUSH1 0x1F DUP5 GT PUSH1 0x1 EQ PUSH2 0x88E JUMPI POP PUSH0 SWAP3 PUSH2 0x883 JUMPI JUMPDEST POP POP DUP2 PUSH1 0x1 SHL SWAP2 PUSH0 NOT SWAP1 PUSH1 0x3 SHL SHR NOT AND OR SWAP1 SSTORE JUMPDEST MLOAD DUP1 MLOAD SWAP1 PUSH1 0x4 DUP7 ADD SWAP1 PUSH8 0xFFFFFFFFFFFFFFFF DUP4 GT PUSH2 0x31A JUMPI PUSH9 0x10000000000000000 DUP4 GT PUSH2 0x31A JUMPI DUP11 SWAP1 DUP3 SLOAD DUP5 DUP5 SSTORE DUP1 DUP6 LT PUSH2 0x868 JUMPI JUMPDEST POP ADD SWAP1 PUSH0 MSTORE DUP10 PUSH0 KECCAK256 PUSH0 JUMPDEST DUP4 DUP2 LT PUSH2 0x856 JUMPI POP POP POP POP PUSH1 0x5 DUP5 ADD SWAP1 MLOAD SWAP1 DUP2 MLOAD SWAP2 PUSH8 0xFFFFFFFFFFFFFFFF DUP4 GT PUSH2 0x31A JUMPI PUSH9 0x10000000000000000 DUP4 GT PUSH2 0x31A JUMPI DUP10 SWAP1 DUP3 SLOAD DUP5 DUP5 SSTORE DUP1 DUP6 LT PUSH2 0x83B JUMPI JUMPDEST POP ADD SWAP1 PUSH0 MSTORE DUP9 PUSH0 KECCAK256 PUSH0 JUMPDEST DUP4 DUP2 LT PUSH2 0x829 JUMPI POP POP POP POP MLOAD PUSH1 0x6 DUP4 ADD SSTORE PUSH1 0x7 DUP3 ADD SWAP1 MLOAD SWAP1 PUSH1 0xFF DUP3 MLOAD AND PUSH1 0xFF NOT DUP3 SLOAD AND OR SWAP1 SSTORE DUP6 PUSH1 0x8 DUP4 ADD SWAP2 ADD MLOAD DUP1 MLOAD SWAP1 PUSH8 0xFFFFFFFFFFFFFFFF DUP3 GT PUSH2 0x31A JUMPI PUSH2 0x727 DUP4 SLOAD PUSH2 0x1339 JUMP JUMPDEST PUSH1 0x1F DUP2 GT PUSH2 0x7F0 JUMPI JUMPDEST POP DUP8 SWAP1 PUSH1 0x1F DUP4 GT PUSH1 0x1 EQ PUSH2 0x789 JUMPI PUSH1 0x9 SWAP5 SWAP4 SWAP3 SWAP2 PUSH0 SWAP2 DUP4 PUSH2 0x77E JUMPI JUMPDEST POP POP DUP2 PUSH1 0x1 SHL SWAP2 PUSH0 NOT SWAP1 PUSH1 0x3 SHL SHR NOT AND OR SWAP1 SSTORE JUMPDEST ADD SWAP1 MLOAD PUSH1 0x4 DUP2 LT ISZERO PUSH2 0x306 JUMPI PUSH1 0xFF DUP1 NOT DUP4 SLOAD AND SWAP2 AND OR SWAP1 SSTORE MLOAD SWAP1 DUP2 MSTORE RETURN JUMPDEST ADD MLOAD SWAP1 POP DUP10 DUP1 PUSH2 0x74C JUMP JUMPDEST SWAP1 PUSH1 0x1F NOT DUP4 AND SWAP2 DUP5 PUSH0 MSTORE DUP10 PUSH0 KECCAK256 SWAP3 PUSH0 JUMPDEST DUP12 DUP3 DUP3 LT PUSH2 0x7DA JUMPI POP POP SWAP2 PUSH1 0x1 SWAP4 SWAP2 DUP6 PUSH1 0x9 SWAP9 SWAP8 SWAP7 SWAP5 LT PUSH2 0x7C2 JUMPI JUMPDEST POP POP POP DUP2 SHL ADD SWAP1 SSTORE PUSH2 0x760 JUMP JUMPDEST ADD MLOAD PUSH0 NOT PUSH1 0xF8 DUP5 PUSH1 0x3 SHL AND SHR NOT AND SWAP1 SSTORE DUP10 DUP1 DUP1 PUSH2 0x7B5 JUMP JUMPDEST PUSH1 0x1 DUP6 SWAP7 DUP3 SWAP4 SWAP7 DUP7 ADD MLOAD DUP2 SSTORE ADD SWAP6 ADD SWAP4 ADD PUSH2 0x799 JUMP JUMPDEST PUSH2 0x819 SWAP1 DUP5 PUSH0 MSTORE DUP10 PUSH0 KECCAK256 PUSH1 0x1F DUP6 ADD PUSH1 0x5 SHR DUP2 ADD SWAP2 DUP12 DUP7 LT PUSH2 0x81F JUMPI JUMPDEST PUSH1 0x1F ADD PUSH1 0x5 SHR ADD SWAP1 PUSH2 0x1499 JUMP JUMPDEST DUP9 PUSH2 0x730 JUMP JUMPDEST SWAP1 SWAP2 POP DUP2 SWAP1 PUSH2 0x80C JUMP JUMPDEST DUP3 MLOAD DUP3 DUP3 ADD SSTORE SWAP2 DUP11 ADD SWAP2 PUSH1 0x1 ADD PUSH2 0x6DD JUMP JUMPDEST PUSH2 0x850 SWAP1 DUP5 PUSH0 MSTORE DUP6 DUP5 PUSH0 KECCAK256 SWAP2 DUP3 ADD SWAP2 ADD PUSH2 0x1499 JUMP JUMPDEST DUP12 PUSH2 0x6D3 JUMP JUMPDEST DUP3 MLOAD DUP3 DUP3 ADD SSTORE SWAP2 DUP12 ADD SWAP2 PUSH1 0x1 ADD PUSH2 0x690 JUMP JUMPDEST PUSH2 0x87D SWAP1 DUP5 PUSH0 MSTORE DUP6 DUP5 PUSH0 KECCAK256 SWAP2 DUP3 ADD SWAP2 ADD PUSH2 0x1499 JUMP JUMPDEST DUP13 PUSH2 0x686 JUMP JUMPDEST ADD MLOAD SWAP1 POP DUP13 DUP1 PUSH2 0x63B JUMP JUMPDEST PUSH0 DUP7 DUP2 MSTORE DUP2 DUP2 KECCAK256 SWAP5 POP PUSH1 0x1F NOT DUP7 AND SWAP2 JUMPDEST DUP3 DUP3 LT PUSH2 0x8DA JUMPI POP POP SWAP1 DUP5 PUSH1 0x1 SWAP6 SWAP5 SWAP4 SWAP3 LT PUSH2 0x8C2 JUMPI JUMPDEST POP POP POP DUP2 SHL ADD SWAP1 SSTORE PUSH2 0x64F JUMP JUMPDEST ADD MLOAD PUSH0 NOT PUSH1 0xF8 DUP5 PUSH1 0x3 SHL AND SHR NOT AND SWAP1 SSTORE DUP13 DUP1 DUP1 PUSH2 0x8B5 JUMP JUMPDEST DUP1 PUSH1 0x1 DUP7 SWAP8 DUP3 SWAP5 SWAP8 DUP8 ADD MLOAD DUP2 SSTORE ADD SWAP7 ADD SWAP5 ADD SWAP1 PUSH2 0x89E JUMP JUMPDEST PUSH2 0x91A SWAP2 DUP7 PUSH0 MSTORE DUP2 PUSH0 KECCAK256 SWAP1 PUSH1 0x1F DUP7 ADD PUSH1 0x5 SHR DUP3 ADD SWAP3 DUP7 LT PUSH2 0x81F JUMPI PUSH1 0x1F ADD PUSH1 0x5 SHR ADD SWAP1 PUSH2 0x1499 JUMP JUMPDEST DUP14 DUP14 PUSH2 0x623 JUMP JUMPDEST SWAP1 SWAP11 POP DUP12 DUP2 DUP2 RETURNDATASIZE DUP4 GT PUSH2 0x950 JUMPI JUMPDEST PUSH2 0x939 DUP2 DUP4 PUSH2 0x119B JUMP JUMPDEST DUP2 ADD SUB SLT PUSH2 0x302 JUMPI MLOAD SWAP10 PUSH1 0x1 PUSH1 0x1 PUSH1 0xA0 SHL SUB PUSH2 0x58D JUMP JUMPDEST POP RETURNDATASIZE PUSH2 0x92F JUMP JUMPDEST DUP11 MLOAD RETURNDATASIZE PUSH0 DUP3 RETURNDATACOPY RETURNDATASIZE SWAP1 REVERT JUMPDEST PUSH4 0x4E487B71 PUSH1 0xE0 SHL PUSH0 MSTORE PUSH1 0x11 PUSH1 0x4 MSTORE PUSH1 0x24 PUSH0 REVERT JUMPDEST CALLVALUE PUSH2 0x302 JUMPI PUSH1 0x40 CALLDATASIZE PUSH1 0x3 NOT ADD SLT PUSH2 0x302 JUMPI PUSH1 0x4 CALLDATALOAD PUSH2 0x991 PUSH2 0x14AF JUMP JUMPDEST DUP1 PUSH0 MSTORE PUSH1 0x4 PUSH1 0x20 MSTORE PUSH1 0xFF PUSH1 0x9 PUSH1 0x40 PUSH0 KECCAK256 ADD SLOAD AND PUSH1 0x4 DUP2 LT ISZERO PUSH2 0x306 JUMPI PUSH2 0x9BB SWAP1 PUSH1 0x1 PUSH2 0x21A PUSH2 0x121F JUMP JUMPDEST DUP1 PUSH0 MSTORE PUSH1 0x4 PUSH1 0x20 MSTORE PUSH2 0x9D4 PUSH1 0x4 PUSH1 0x40 PUSH0 KECCAK256 ADD TIMESTAMP SWAP1 PUSH2 0x1459 JUMP JUMPDEST PUSH0 MSTORE PUSH1 0x4 PUSH1 0x20 MSTORE PUSH2 0x2F5 PUSH1 0x24 CALLDATALOAD PUSH1 0x5 PUSH1 0x40 PUSH0 KECCAK256 ADD PUSH2 0x1459 JUMP JUMPDEST CALLVALUE PUSH2 0x302 JUMPI PUSH0 CALLDATASIZE PUSH1 0x3 NOT ADD SLT PUSH2 0x302 JUMPI PUSH1 0x20 PUSH1 0x1 PUSH1 0x1 PUSH1 0xA0 SHL SUB PUSH0 SLOAD AND PUSH1 0x40 MLOAD SWAP1 DUP2 MSTORE RETURN JUMPDEST CALLVALUE PUSH2 0x302 JUMPI PUSH0 CALLDATASIZE PUSH1 0x3 NOT ADD SLT PUSH2 0x302 JUMPI PUSH2 0xA2A PUSH2 0x14AF JUMP JUMPDEST PUSH0 PUSH1 0x1 PUSH1 0x1 PUSH1 0xA0 SHL SUB DUP2 SLOAD PUSH20 0xFFFFFFFFFFFFFFFFFFFFFFFFFFFFFFFFFFFFFFFF NOT DUP2 AND DUP4 SSTORE AND PUSH32 0x8BE0079C531659141344CD1FD0A4F28419497F9722A3DAAFE3B4186F6B6457E0 DUP3 DUP1 LOG3 STOP JUMPDEST CALLVALUE PUSH2 0x302 JUMPI PUSH1 0x20 CALLDATASIZE PUSH1 0x3 NOT ADD SLT PUSH2 0x302 JUMPI PUSH1 0x4 CALLDATALOAD PUSH0 MSTORE PUSH1 0x4 PUSH1 0x20 MSTORE PUSH1 0x20 PUSH1 0xFF PUSH1 0x9 PUSH1 0x40 PUSH0 KECCAK256 ADD SLOAD AND PUSH2 0xAAB PUSH1 0x40 MLOAD DUP1 SWAP3 PUSH2 0x1155 JUMP JUMPDEST RETURN JUMPDEST CALLVALUE PUSH2 0x302 JUMPI PUSH1 0x20 CALLDATASIZE PUSH1 0x3 NOT ADD SLT PUSH2 0x302 JUMPI PUSH0 PUSH2 0x100 PUSH1 0x40 MLOAD PUSH2 0xACE DUP2 PUSH2 0x117E JUMP JUMPDEST DUP3 DUP2 MSTORE DUP3 PUSH1 0x20 DUP3 ADD MSTORE DUP3 PUSH1 0x40 DUP3 ADD MSTORE PUSH1 0x60 DUP1 DUP3 ADD MSTORE PUSH1 0x60 PUSH1 0x80 DUP3 ADD MSTORE PUSH1 0x60 PUSH1 0xA0 DUP3 ADD MSTORE DUP3 PUSH1 0xC0 DUP3 ADD MSTORE PUSH1 0x40 MLOAD PUSH2 0xB03 DUP2 PUSH2 0x1162 JUMP JUMPDEST DUP4 DUP2 MSTORE PUSH1 0x60 PUSH1 0x20 DUP3 ADD MSTORE PUSH1 0xE0 DUP3 ADD MSTORE ADD MSTORE PUSH1 0x4 CALLDATALOAD PUSH0 MSTORE PUSH1 0x4 PUSH1 0x20 MSTORE PUSH1 0x40 PUSH0 KECCAK256 PUSH1 0x40 MLOAD PUSH2 0xB2E DUP2 PUSH2 0x117E JUMP JUMPDEST PUSH1 0x1 PUSH1 0x1 PUSH1 0xA0 SHL SUB DUP3 SLOAD AND DUP2 MSTORE PUSH1 0x1 PUSH1 0x1 PUSH1 0xA0 SHL SUB PUSH1 0x1 DUP4 ADD SLOAD AND SWAP2 PUSH1 0x20 DUP3 ADD SWAP3 DUP4 MSTORE PUSH1 0x2 DUP2 ADD SLOAD SWAP1 PUSH1 0x40 DUP4 ADD SWAP2 DUP3 MSTORE PUSH2 0xB6A PUSH1 0x3 DUP3 ADD PUSH2 0x1371 JUMP JUMPDEST SWAP1 PUSH1 0x60 DUP5 ADD SWAP2 DUP3 MSTORE PUSH2 0xB7E PUSH1 0x4 DUP3 ADD PUSH2 0x1411 JUMP JUMPDEST PUSH1 0x80 DUP6 ADD SWAP1 DUP2 MSTORE PUSH2 0xB91 PUSH1 0x5 DUP4 ADD PUSH2 0x1411 JUMP JUMPDEST SWAP1 PUSH1 0xA0 DUP7 ADD SWAP2 DUP3 MSTORE PUSH1 0x6 DUP4 ADD SLOAD SWAP4 PUSH1 0xC0 DUP8 ADD SWAP5 DUP6 MSTORE PUSH1 0xFF PUSH1 0x9 PUSH1 0x40 MLOAD SWAP6 PUSH2 0xBB7 DUP8 PUSH2 0x1162 JUMP JUMPDEST DUP3 PUSH1 0x7 DUP3 ADD SLOAD AND DUP8 MSTORE PUSH2 0xBCC PUSH1 0x8 DUP3 ADD PUSH2 0x1371 JUMP JUMPDEST PUSH1 0x20 DUP9 ADD MSTORE PUSH1 0xE0 DUP11 ADD SWAP7 DUP8 MSTORE ADD SLOAD AND SWAP6 PUSH2 0x100 DUP9 ADD SWAP7 PUSH1 0x4 DUP2 LT ISZERO PUSH2 0x306 JUMPI DUP8 MSTORE PUSH1 0x40 MLOAD SWAP9 DUP10 SWAP9 PUSH1 0x20 DUP11 MSTORE MLOAD PUSH1 0x1 PUSH1 0x1 PUSH1 0xA0 SHL SUB AND PUSH1 0x20 DUP11 ADD MSTORE MLOAD PUSH1 0x1 PUSH1 0x1 PUSH1 0xA0 SHL SUB AND PUSH1 0x40 DUP10 ADD MSTORE MLOAD PUSH1 0x60 DUP9 ADD MSTORE MLOAD PUSH1 0x80 DUP8 ADD PUSH2 0x120 SWAP1 MSTORE PUSH2 0x140 DUP8 ADD PUSH2 0xC33 SWAP2 PUSH2 0x10FE JUMP JUMPDEST SWAP1 MLOAD DUP7 DUP3 SUB PUSH1 0x1F NOT ADD PUSH1 0xA0 DUP9 ADD MSTORE PUSH2 0xC4B SWAP2 SWAP1 PUSH2 0x1122 JUMP JUMPDEST SWAP1 MLOAD DUP6 DUP3 SUB PUSH1 0x1F NOT ADD PUSH1 0xC0 DUP8 ADD MSTORE PUSH2 0xC63 SWAP2 SWAP1 PUSH2 0x1122 JUMP JUMPDEST SWAP2 MLOAD PUSH1 0xE0 DUP6 ADD MSTORE MLOAD PUSH1 0x1F NOT DUP5 DUP4 SUB ADD PUSH2 0x100 DUP6 ADD MSTORE DUP1 MLOAD PUSH1 0xFF AND DUP3 MSTORE PUSH1 0x20 ADD MLOAD SWAP1 PUSH1 0x20 DUP2 ADD PUSH1 0x40 SWAP1 MSTORE PUSH1 0x40 ADD PUSH2 0xC98 SWAP2 PUSH2 0x10FE JUMP JUMPDEST SWAP1 MLOAD PUSH2 0x120 DUP4 ADD PUSH2 0xCA8 SWAP2 PUSH2 0x1155 JUMP JUMPDEST SUB SWAP1 RETURN JUMPDEST CALLVALUE PUSH2 0x302 JUMPI PUSH1 0x40 CALLDATASIZE PUSH1 0x3 NOT ADD SLT PUSH2 0x302 JUMPI PUSH2 0xCC5 PUSH2 0x10D4 JUMP JUMPDEST PUSH1 0x24 CALLDATALOAD SWAP1 PUSH2 0xCD1 PUSH2 0x14AF JUMP JUMPDEST DUP2 PUSH0 MSTORE PUSH1 0x4 PUSH1 0x20 MSTORE PUSH1 0xFF PUSH1 0x9 PUSH1 0x40 PUSH0 KECCAK256 ADD SLOAD AND SWAP1 PUSH1 0x4 DUP3 LT ISZERO PUSH2 0x306 JUMPI PUSH2 0xCFF PUSH2 0xD2D SWAP3 PUSH1 0x1 PUSH2 0x21A PUSH2 0x121F JUMP JUMPDEST DUP3 PUSH0 MSTORE PUSH1 0x4 PUSH1 0x20 MSTORE PUSH1 0x1 PUSH1 0x1 PUSH1 0xA0 SHL SUB PUSH1 0x40 PUSH0 KECCAK256 SLOAD AND PUSH1 0x1 PUSH1 0x1 PUSH1 0xA0 SHL SUB PUSH2 0xD25 PUSH2 0x12A4 JUMP JUMPDEST SWAP3 AND EQ PUSH2 0x125A JUMP JUMPDEST PUSH0 SWAP1 DUP2 MSTORE PUSH1 0x4 PUSH1 0x20 MSTORE PUSH1 0x40 SWAP1 KECCAK256 PUSH1 0x9 ADD DUP1 SLOAD PUSH1 0xFF NOT AND PUSH1 0x3 OR SWAP1 SSTORE STOP JUMPDEST CALLVALUE PUSH2 0x302 JUMPI PUSH1 0x40 CALLDATASIZE PUSH1 0x3 NOT ADD SLT PUSH2 0x302 JUMPI PUSH1 0x4 CALLDATALOAD PUSH1 0x24 CALLDATALOAD SWAP1 PUSH1 0x1 PUSH1 0x1 PUSH1 0xA0 SHL SUB DUP3 AND DUP1 SWAP3 SUB PUSH2 0x302 JUMPI PUSH2 0xD7B PUSH2 0x14AF JUMP JUMPDEST DUP1 PUSH0 MSTORE PUSH1 0x4 PUSH1 0x20 MSTORE PUSH1 0xFF PUSH1 0x9 PUSH1 0x40 PUSH0 KECCAK256 ADD SLOAD AND PUSH1 0x4 DUP2 LT ISZERO PUSH2 0x306 JUMPI PUSH2 0xDA5 SWAP1 PUSH1 0x1 PUSH2 0x21A PUSH2 0x121F JUMP JUMPDEST PUSH0 MSTORE PUSH1 0x4 PUSH1 0x20 MSTORE PUSH2 0xDCE PUSH1 0x40 PUSH0 KECCAK256 SWAP2 PUSH1 0x1 PUSH1 0x1 PUSH1 0xA0 SHL SUB DUP4 SLOAD AND EQ PUSH2 0xDC8 PUSH2 0x12A4 JUMP JUMPDEST SWAP1 PUSH2 0x125A JUMP JUMPDEST PUSH1 0x6 DUP2 ADD SWAP1 DUP2 SLOAD PUSH1 0x40 PUSH2 0xE19 DUP2 MLOAD PUSH2 0xDE6 DUP4 DUP3 PUSH2 0x119B JUMP JUMPDEST PUSH1 0x3 DUP2 MSTORE PUSH32 0x3330330000000000000000000000000000000000000000000000000000000000 PUSH1 0x20 DUP3 ADD MSTORE DUP4 TIMESTAMP LT ISZERO PUSH2 0x125A JUMP JUMPDEST PUSH1 0x1 PUSH1 0x1 PUSH1 0xA0 SHL SUB PUSH1 0x2 SLOAD AND SWAP3 PUSH0 PUSH1 0x2 DUP3 ADD SLOAD PUSH1 0x24 DUP5 MLOAD DUP1 SWAP8 DUP2 SWAP4 PUSH32 0x1F32768E00000000000000000000000000000000000000000000000000000000 DUP4 MSTORE PUSH1 0x4 DUP4 ADD MSTORE GAS STATICCALL SWAP4 DUP5 ISZERO PUSH2 0x10CA JUMPI PUSH0 SWAP5 PUSH2 0xF91 JUMPI JUMPDEST POP PUSH2 0xF09 SWAP1 PUSH2 0xEB7 PUSH1 0xE0 DUP7 ADD MLOAD ISZERO ISZERO DUP5 MLOAD SWAP1 PUSH2 0xE88 DUP7 DUP4 PUSH2 0x119B JUMP JUMPDEST PUSH1 0x3 DUP3 MSTORE PUSH32 0x3230310000000000000000000000000000000000000000000000000000000000 PUSH1 0x20 DUP4 ADD MSTORE PUSH2 0x125A JUMP JUMPDEST PUSH1 0x1 PUSH1 0x1 PUSH1 0xA0 SHL SUB PUSH1 0x1 DUP2 PUSH1 0xC0 DUP9 ADD MLOAD AND SWAP3 ADD SLOAD AND EQ DUP3 MLOAD SWAP1 PUSH2 0xEDA DUP5 DUP4 PUSH2 0x119B JUMP JUMPDEST PUSH1 0x1 DUP3 MSTORE PUSH32 0x3200000000000000000000000000000000000000000000000000000000000000 PUSH1 0x20 DUP4 ADD MSTORE PUSH2 0x125A JUMP JUMPDEST PUSH1 0x20 DUP4 ADD SWAP2 PUSH2 0xF51 DUP4 MLOAD ISZERO ISZERO DUP4 MLOAD SWAP1 PUSH2 0xF22 DUP6 DUP4 PUSH2 0x119B JUMP JUMPDEST PUSH1 0x1 DUP3 MSTORE PUSH32 0x3300000000000000000000000000000000000000000000000000000000000000 PUSH1 0x20 DUP4 ADD MSTORE PUSH2 0x125A JUMP JUMPDEST DUP1 TIMESTAMP GT PUSH0 EQ PUSH2 0xF8B JUMPI POP TIMESTAMP SWAP2 JUMPDEST MLOAD DUP3 ADD DUP1 SWAP3 GT PUSH2 0x961 JUMPI DUP2 PUSH1 0x60 SWAP5 SSTORE PUSH1 0x1 PUSH1 0x1 PUSH1 0xA0 SHL SUB DUP2 DUP5 ADD MLOAD SWAP4 MLOAD AND DUP2 MLOAD SWAP4 DUP5 MSTORE PUSH1 0x20 DUP5 ADD MSTORE DUP3 ADD MSTORE RETURN JUMPDEST SWAP2 PUSH2 0xF5E JUMP JUMPDEST SWAP1 SWAP4 POP RETURNDATASIZE DUP1 PUSH0 DUP4 RETURNDATACOPY PUSH2 0xFA3 DUP2 DUP4 PUSH2 0x119B JUMP JUMPDEST DUP2 ADD SWAP1 PUSH1 0x20 DUP2 DUP4 SUB SLT PUSH2 0x302 JUMPI DUP1 MLOAD SWAP1 PUSH8 0xFFFFFFFFFFFFFFFF DUP3 GT PUSH2 0x302 JUMPI ADD SWAP1 PUSH2 0x100 DUP3 DUP3 SUB SLT PUSH2 0x302 JUMPI DUP3 MLOAD SWAP2 PUSH2 0x100 DUP4 ADD DUP4 DUP2 LT PUSH8 0xFFFFFFFFFFFFFFFF DUP3 GT OR PUSH2 0x31A JUMPI DUP5 MSTORE PUSH2 0xFF5 DUP2 PUSH2 0x12DF JUMP JUMPDEST DUP4 MSTORE PUSH1 0x20 DUP2 ADD MLOAD PUSH1 0x20 DUP5 ADD MSTORE DUP4 DUP2 ADD MLOAD DUP5 DUP5 ADD MSTORE PUSH1 0x60 DUP2 ADD MLOAD PUSH1 0x60 DUP5 ADD MSTORE PUSH1 0x80 DUP2 ADD MLOAD PUSH8 0xFFFFFFFFFFFFFFFF DUP2 GT PUSH2 0x302 JUMPI DUP3 PUSH2 0x1033 SWAP2 DUP4 ADD PUSH2 0x12F3 JUMP JUMPDEST PUSH1 0x80 DUP5 ADD MSTORE PUSH1 0xA0 DUP2 ADD MLOAD PUSH8 0xFFFFFFFFFFFFFFFF DUP2 GT PUSH2 0x302 JUMPI DUP2 ADD DUP5 DUP2 DUP5 SUB SLT PUSH2 0x302 JUMPI DUP5 MLOAD SWAP1 PUSH2 0x1063 DUP3 PUSH2 0x1162 JUMP JUMPDEST DUP1 MLOAD PUSH1 0xFF DUP2 AND DUP2 SUB PUSH2 0x302 JUMPI DUP3 MSTORE PUSH1 0x20 DUP2 ADD MLOAD SWAP4 PUSH8 0xFFFFFFFFFFFFFFFF DUP6 GT PUSH2 0x302 JUMPI PUSH1 0xE0 SWAP5 PUSH2 0x1093 SWAP3 ADD PUSH2 0x12F3 JUMP JUMPDEST PUSH1 0x20 DUP3 ADD MSTORE PUSH1 0xA0 DUP5 ADD MSTORE PUSH2 0x10A9 PUSH1 0xC0 DUP3 ADD PUSH2 0x12DF JUMP JUMPDEST PUSH1 0xC0 DUP5 ADD MSTORE ADD MLOAD SWAP1 DUP2 ISZERO ISZERO DUP3 SUB PUSH2 0x302 JUMPI PUSH2 0xF09 SWAP2 PUSH1 0xE0 DUP3 ADD MSTORE SWAP4 SWAP1 PUSH2 0xE6C JUMP JUMPDEST DUP3 MLOAD RETURNDATASIZE PUSH0 DUP3 RETURNDATACOPY RETURNDATASIZE SWAP1 REVERT JUMPDEST PUSH1 0x4 CALLDATALOAD SWAP1 PUSH1 0x1 PUSH1 0x1 PUSH1 0xA0 SHL SUB DUP3 AND DUP3 SUB PUSH2 0x302 JUMPI JUMP JUMPDEST CALLDATALOAD SWAP1 PUSH1 0x1 PUSH1 0x1 PUSH1 0xA0 SHL SUB DUP3 AND DUP3 SUB PUSH2 0x302 JUMPI JUMP JUMPDEST DUP1 MLOAD DUP1 DUP4 MSTORE PUSH1 0x20 SWAP3 SWAP2 DUP2 SWAP1 DUP5 ADD DUP5 DUP5 ADD MCOPY PUSH0 DUP3 DUP3 ADD DUP5 ADD MSTORE PUSH1 0x1F ADD PUSH1 0x1F NOT AND ADD ADD SWAP1 JUMP JUMPDEST SWAP1 PUSH1 0x20 DUP1 DUP4 MLOAD SWAP3 DUP4 DUP2 MSTORE ADD SWAP3 ADD SWAP1 PUSH0 JUMPDEST DUP2 DUP2 LT PUSH2 0x113F JUMPI POP POP POP SWAP1 JUMP JUMPDEST DUP3 MLOAD DUP5 MSTORE PUSH1 0x20 SWAP4 DUP5 ADD SWAP4 SWAP1 SWAP3 ADD SWAP2 PUSH1 0x1 ADD PUSH2 0x1132 JUMP JUMPDEST SWAP1 PUSH1 0x4 DUP3 LT ISZERO PUSH2 0x306 JUMPI MSTORE JUMP JUMPDEST PUSH1 0x40 DUP2 ADD SWAP1 DUP2 LT PUSH8 0xFFFFFFFFFFFFFFFF DUP3 GT OR PUSH2 0x31A JUMPI PUSH1 0x40 MSTORE JUMP JUMPDEST PUSH2 0x120 DUP2 ADD SWAP1 DUP2 LT PUSH8 0xFFFFFFFFFFFFFFFF DUP3 GT OR PUSH2 0x31A JUMPI PUSH1 0x40 MSTORE JUMP JUMPDEST SWAP1 PUSH1 0x1F DUP1 NOT SWAP2 ADD AND DUP2 ADD SWAP1 DUP2 LT PUSH8 0xFFFFFFFFFFFFFFFF DUP3 GT OR PUSH2 0x31A JUMPI PUSH1 0x40 MSTORE JUMP JUMPDEST PUSH8 0xFFFFFFFFFFFFFFFF DUP2 GT PUSH2 0x31A JUMPI PUSH1 0x1F ADD PUSH1 0x1F NOT AND PUSH1 0x20 ADD SWAP1 JUMP JUMPDEST DUP2 PUSH1 0x1F DUP3 ADD SLT ISZERO PUSH2 0x302 JUMPI DUP1 CALLDATALOAD SWAP1 PUSH2 0x11F0 DUP3 PUSH2 0x11BD JUMP JUMPDEST SWAP3 PUSH2 0x11FE PUSH1 0x40 MLOAD SWAP5 DUP6 PUSH2 0x119B JUMP JUMPDEST DUP3 DUP5 MSTORE PUSH1 0x20 DUP4 DUP4 ADD ADD GT PUSH2 0x302 JUMPI DUP2 PUSH0 SWAP3 PUSH1 0x20 DUP1 SWAP4 ADD DUP4 DUP7 ADD CALLDATACOPY DUP4 ADD ADD MSTORE SWAP1 JUMP JUMPDEST PUSH1 0x40 MLOAD SWAP1 PUSH2 0x122E PUSH1 0x40 DUP4 PUSH2 0x119B JUMP JUMPDEST PUSH1 0x3 DUP3 MSTORE PUSH32 0x3130330000000000000000000000000000000000000000000000000000000000 PUSH1 0x20 DUP4 ADD MSTORE JUMP JUMPDEST ISZERO PUSH2 0x1262 JUMPI POP JUMP JUMPDEST PUSH2 0x12A0 SWAP1 PUSH1 0x40 MLOAD SWAP2 DUP3 SWAP2 PUSH32 0x8C379A000000000000000000000000000000000000000000000000000000000 DUP4 MSTORE PUSH1 0x20 PUSH1 0x4 DUP5 ADD MSTORE PUSH1 0x24 DUP4 ADD SWAP1 PUSH2 0x10FE JUMP JUMPDEST SUB SWAP1 REVERT JUMPDEST PUSH1 0x40 MLOAD SWAP1 PUSH2 0x12B3 PUSH1 0x40 DUP4 PUSH2 0x119B JUMP JUMPDEST PUSH1 0x3 DUP3 MSTORE PUSH32 0x3130340000000000000000000000000000000000000000000000000000000000 PUSH1 0x20 DUP4 ADD MSTORE JUMP JUMPDEST MLOAD SWAP1 PUSH1 0x1 PUSH1 0x1 PUSH1 0xA0 SHL SUB DUP3 AND DUP3 SUB PUSH2 0x302 JUMPI JUMP JUMPDEST DUP2 PUSH1 0x1F DUP3 ADD SLT ISZERO PUSH2 0x302 JUMPI DUP1 MLOAD SWAP1 PUSH2 0x130A DUP3 PUSH2 0x11BD JUMP JUMPDEST SWAP3 PUSH2 0x1318 PUSH1 0x40 MLOAD SWAP5 DUP6 PUSH2 0x119B JUMP JUMPDEST DUP3 DUP5 MSTORE PUSH1 0x20 DUP4 DUP4 ADD ADD GT PUSH2 0x302 JUMPI DUP2 PUSH0 SWAP3 PUSH1 0x20 DUP1 SWAP4 ADD DUP4 DUP7 ADD MCOPY DUP4 ADD ADD MSTORE SWAP1 JUMP JUMPDEST SWAP1 PUSH1 0x1 DUP3 DUP2 SHR SWAP3 AND DUP1 ISZERO PUSH2 0x1367 JUMPI JUMPDEST PUSH1 0x20 DUP4 LT EQ PUSH2 0x1353 JUMPI JUMP JUMPDEST PUSH4 0x4E487B71 PUSH1 0xE0 SHL PUSH0 MSTORE PUSH1 0x22 PUSH1 0x4 MSTORE PUSH1 0x24 PUSH0 REVERT JUMPDEST SWAP2 PUSH1 0x7F AND SWAP2 PUSH2 0x1348 JUMP JUMPDEST SWAP1 PUSH1 0x40 MLOAD SWAP2 DUP3 PUSH0 DUP3 SLOAD SWAP3 PUSH2 0x1384 DUP5 PUSH2 0x1339 JUMP JUMPDEST DUP1 DUP5 MSTORE SWAP4 PUSH1 0x1 DUP2 AND SWAP1 DUP2 ISZERO PUSH2 0x13EF JUMPI POP PUSH1 0x1 EQ PUSH2 0x13AB JUMPI JUMPDEST POP PUSH2 0x13A9 SWAP3 POP SUB DUP4 PUSH2 0x119B JUMP JUMPDEST JUMP JUMPDEST SWAP1 POP PUSH0 SWAP3 SWAP2 SWAP3 MSTORE PUSH1 0x20 PUSH0 KECCAK256 SWAP1 PUSH0 SWAP2 JUMPDEST DUP2 DUP4 LT PUSH2 0x13D3 JUMPI POP POP SWAP1 PUSH1 0x20 PUSH2 0x13A9 SWAP3 DUP3 ADD ADD PUSH0 PUSH2 0x139C JUMP JUMPDEST PUSH1 0x20 SWAP2 SWAP4 POP DUP1 PUSH1 0x1 SWAP2 SLOAD DUP4 DUP6 DUP10 ADD ADD MSTORE ADD SWAP2 ADD SWAP1 SWAP2 DUP5 SWAP3 PUSH2 0x13BA JUMP JUMPDEST SWAP1 POP PUSH1 0x20 SWAP3 POP PUSH2 0x13A9 SWAP5 SWAP2 POP PUSH1 0xFF NOT AND DUP3 DUP5 ADD MSTORE ISZERO ISZERO PUSH1 0x5 SHL DUP3 ADD ADD PUSH0 PUSH2 0x139C JUMP JUMPDEST SWAP1 PUSH1 0x40 MLOAD SWAP2 DUP3 DUP2 SLOAD SWAP2 DUP3 DUP3 MSTORE PUSH1 0x20 DUP3 ADD SWAP1 PUSH0 MSTORE PUSH1 0x20 PUSH0 KECCAK256 SWAP3 PUSH0 JUMPDEST DUP2 DUP2 LT PUSH2 0x1440 JUMPI POP POP PUSH2 0x13A9 SWAP3 POP SUB DUP4 PUSH2 0x119B JUMP JUMPDEST DUP5 SLOAD DUP4 MSTORE PUSH1 0x1 SWAP5 DUP6 ADD SWAP5 DUP8 SWAP5 POP PUSH1 0x20 SWAP1 SWAP4 ADD SWAP3 ADD PUSH2 0x142B JUMP JUMPDEST DUP1 SLOAD SWAP1 PUSH9 0x10000000000000000 DUP3 LT ISZERO PUSH2 0x31A JUMPI PUSH1 0x1 DUP3 ADD DUP1 DUP3 SSTORE DUP3 LT ISZERO PUSH2 0x1485 JUMPI PUSH0 MSTORE PUSH1 0x20 PUSH0 KECCAK256 ADD SSTORE JUMP JUMPDEST PUSH4 0x4E487B71 PUSH1 0xE0 SHL PUSH0 MSTORE PUSH1 0x32 PUSH1 0x4 MSTORE PUSH1 0x24 PUSH0 REVERT JUMPDEST DUP2 DUP2 LT PUSH2 0x14A4 JUMPI POP POP JUMP JUMPDEST PUSH0 DUP2 SSTORE PUSH1 0x1 ADD PUSH2 0x1499 JUMP JUMPDEST PUSH1 0x1 PUSH1 0x1 PUSH1 0xA0 SHL SUB PUSH0 SLOAD AND CALLER SUB PUSH2 0x14C2 JUMPI JUMP JUMPDEST PUSH32 0x118CDAA700000000000000000000000000000000000000000000000000000000 PUSH0 MSTORE CALLER PUSH1 0x4 MSTORE PUSH1 0x24 PUSH0 REVERT INVALID LOG2 PUSH5 0x6970667358 0x22 SLT KECCAK256 0xB0 BYTE CREATE 0xB4 PUSH2 0xAE5 0xB1 0xCD DUP14 DUP13 0xC2 0xEE 0xE7 SWAP1 PUSH18 0xA691D2CE2D91DDC38DCB0A3D5C3EB7356473 PUSH16 0x6C634300081C00330000000000000000 "
        },
        "methodIdentifiers": {
          "create(address,(address,bytes32,string,(uint8,string)))": "b658330e",
          "getStatus(bytes32)": "5de28ae0",
          "getTransaction(bytes32)": "4aae13ca",
          "mintReceipt((address,bytes32,string))": "eb70fc28",
          "onCancel(address,bytes32)": "3ed50275",
          "onComplete(bytes32,uint256)": "b38ffd5f",
          "onFulfill(bytes32,address)": "2d926e46",
          "owner()": "8da5cb5b",
          "renounceOwnership()": "715018a6",
          "transferOwnership(address)": "f2fde38b"
        }
      }
    }
  }
}