{
  "contracts/core/Beam.sol": {
    "Beam": {
      "abi": [
        {
          "inputs": [
            {
              "internalType": "contract IMerchant",
              "name": "merchant_",
              "type": "address"
            },
            {
              "internalType": "contract IOneTimeTransaction",
              "name": "oneTimeTransaction_",
              "type": "address"
            },
            {
              "internalType": "contract IRecurrentTransaction",
              "name": "recurrentTransaction_",
              "type": "address"
            },
            {
              "internalType": "contract IHookManager",
              "name": "hookManager_",
              "type": "address"
            }
          ],
          "stateMutability": "nonpayable",
          "type": "constructor"
        },
        {
          "inputs": [
            {
              "internalType": "address",
              "name": "owner",
              "type": "address"
            }
          ],
          "name": "OwnableInvalidOwner",
          "type": "error"
        },
        {
          "inputs": [
            {
              "internalType": "address",
              "name": "account",
              "type": "address"
            }
          ],
          "name": "OwnableUnauthorizedAccount",
          "type": "error"
        },
        {
          "inputs": [
            {
              "internalType": "address",
              "name": "token",
              "type": "address"
            }
          ],
          "name": "SafeERC20FailedOperation",
          "type": "error"
        },
        {
          "anonymous": false,
          "inputs": [
            {
              "indexed": false,
              "internalType": "bytes32",
              "name": "transactionId",
              "type": "bytes32"
            },
            {
              "indexed": false,
              "internalType": "address",
              "name": "payer",
              "type": "address"
            },
            {
              "indexed": false,
              "internalType": "address[]",
              "name": "payers",
              "type": "address[]"
            },
            {
              "indexed": false,
              "internalType": "address",
              "name": "merchant",
              "type": "address"
            },
            {
              "indexed": false,
              "internalType": "address",
              "name": "token",
              "type": "address"
            },
            {
              "indexed": false,
              "internalType": "uint256[]",
              "name": "amounts",
              "type": "uint256[]"
            },
            {
              "indexed": false,
              "internalType": "address",
              "name": "adjustedToken",
              "type": "address"
            },
            {
              "indexed": false,
              "internalType": "uint256",
              "name": "adjustedAmount",
              "type": "uint256"
            },
            {
              "indexed": false,
              "internalType": "uint256",
              "name": "timestamp",
              "type": "uint256"
            },
            {
              "indexed": false,
              "internalType": "string",
              "name": "description",
              "type": "string"
            },
            {
              "components": [
                {
                  "internalType": "uint8",
                  "name": "schemaVersion",
                  "type": "uint8"
                },
                {
                  "internalType": "string",
                  "name": "value",
                  "type": "string"
                }
              ],
              "indexed": false,
              "internalType": "struct Types.Metadata",
              "name": "metadata",
              "type": "tuple"
            },
            {
              "indexed": false,
              "internalType": "enum Enums.TransactionStatus",
              "name": "status",
              "type": "uint8"
            }
          ],
          "name": "OneTimeTransactionCreated",
          "type": "event"
        },
        {
          "anonymous": false,
          "inputs": [
            {
              "indexed": false,
              "internalType": "bytes32",
              "name": "transactionId",
              "type": "bytes32"
            },
            {
              "indexed": false,
              "internalType": "address",
              "name": "payer",
              "type": "address"
            },
            {
              "indexed": false,
              "internalType": "address",
              "name": "merchant",
              "type": "address"
            },
            {
              "indexed": false,
              "internalType": "address",
              "name": "token",
              "type": "address"
            },
            {
              "indexed": false,
              "internalType": "uint256",
              "name": "amount",
              "type": "uint256"
            },
            {
              "indexed": false,
              "internalType": "address",
              "name": "adjustedToken",
              "type": "address"
            },
            {
              "indexed": false,
              "internalType": "uint256",
              "name": "adjustedAmount",
              "type": "uint256"
            },
            {
              "indexed": false,
              "internalType": "uint256",
              "name": "timestamp",
              "type": "uint256"
            },
            {
              "indexed": false,
              "internalType": "enum Enums.TransactionStatus",
              "name": "status",
              "type": "uint8"
            }
          ],
          "name": "OneTimeTransactionFulfilled",
          "type": "event"
        },
        {
          "anonymous": false,
          "inputs": [
            {
              "indexed": true,
              "internalType": "address",
              "name": "previousOwner",
              "type": "address"
            },
            {
              "indexed": true,
              "internalType": "address",
              "name": "newOwner",
              "type": "address"
            }
          ],
          "name": "OwnershipTransferred",
          "type": "event"
        },
        {
          "anonymous": false,
          "inputs": [
            {
              "indexed": false,
              "internalType": "bytes32",
              "name": "transactionId",
              "type": "bytes32"
            }
          ],
          "name": "RecurrentTransactionCancelled",
          "type": "event"
        },
        {
          "anonymous": false,
          "inputs": [
            {
              "indexed": false,
              "internalType": "bytes32",
              "name": "transactionId",
              "type": "bytes32"
            },
            {
              "indexed": false,
              "internalType": "address",
              "name": "payer",
              "type": "address"
            },
            {
              "indexed": false,
              "internalType": "address",
              "name": "merchant",
              "type": "address"
            },
            {
              "indexed": false,
              "internalType": "bytes32",
              "name": "subscriptionId",
              "type": "bytes32"
            },
            {
              "indexed": false,
              "internalType": "uint256",
              "name": "dueDate",
              "type": "uint256"
            },
            {
              "indexed": false,
              "internalType": "address",
              "name": "token",
              "type": "address"
            },
            {
              "indexed": false,
              "internalType": "uint256",
              "name": "amount",
              "type": "uint256"
            },
            {
              "indexed": false,
              "internalType": "address",
              "name": "adjustedToken",
              "type": "address"
            },
            {
              "indexed": false,
              "internalType": "uint256",
              "name": "adjustedAmount",
              "type": "uint256"
            },
            {
              "indexed": false,
              "internalType": "uint256",
              "name": "timestamp",
              "type": "uint256"
            },
            {
              "indexed": false,
              "internalType": "string",
              "name": "description",
              "type": "string"
            },
            {
              "components": [
                {
                  "internalType": "uint8",
                  "name": "schemaVersion",
                  "type": "uint8"
                },
                {
                  "internalType": "string",
                  "name": "value",
                  "type": "string"
                }
              ],
              "indexed": false,
              "internalType": "struct Types.Metadata",
              "name": "metadata",
              "type": "tuple"
            },
            {
              "indexed": false,
              "internalType": "enum Enums.TransactionStatus",
              "name": "status",
              "type": "uint8"
            }
          ],
          "name": "RecurrentTransactionCreated",
          "type": "event"
        },
        {
          "anonymous": false,
          "inputs": [
            {
              "indexed": false,
              "internalType": "bytes32",
              "name": "transactionId",
              "type": "bytes32"
            },
            {
              "indexed": false,
              "internalType": "address",
              "name": "payer",
              "type": "address"
            },
            {
              "indexed": false,
              "internalType": "address",
              "name": "merchant",
              "type": "address"
            },
            {
              "indexed": false,
              "internalType": "bytes32",
              "name": "subscriptionId",
              "type": "bytes32"
            },
            {
              "indexed": false,
              "internalType": "uint256",
              "name": "dueDate",
              "type": "uint256"
            },
            {
              "indexed": false,
              "internalType": "address",
              "name": "token",
              "type": "address"
            },
            {
              "indexed": false,
              "internalType": "uint256",
              "name": "amount",
              "type": "uint256"
            },
            {
              "indexed": false,
              "internalType": "address",
              "name": "adjustedToken",
              "type": "address"
            },
            {
              "indexed": false,
              "internalType": "uint256",
              "name": "adjustedAmount",
              "type": "uint256"
            },
            {
              "indexed": false,
              "internalType": "uint256",
              "name": "timestamp",
              "type": "uint256"
            },
            {
              "indexed": false,
              "internalType": "enum Enums.TransactionStatus",
              "name": "status",
              "type": "uint8"
            }
          ],
          "name": "RecurrentTransactionFulfilled",
          "type": "event"
        },
        {
          "inputs": [
            {
              "components": [
                {
                  "internalType": "bytes32",
                  "name": "transactionId",
                  "type": "bytes32"
                }
              ],
              "internalType": "struct Params.CancelRecurrentTransaction",
              "name": "params",
              "type": "tuple"
            }
          ],
          "name": "cancelRecurrentTransaction",
          "outputs": [],
          "stateMutability": "nonpayable",
          "type": "function"
        },
        {
          "inputs": [
            {
              "components": [
                {
                  "internalType": "bytes32",
                  "name": "transactionId",
                  "type": "bytes32"
                }
              ],
              "internalType": "struct Params.FulfillOneTimeTransaction",
              "name": "params",
              "type": "tuple"
            }
          ],
          "name": "fulfillOneTimeTransaction",
          "outputs": [],
          "stateMutability": "payable",
          "type": "function"
        },
        {
          "inputs": [
            {
              "components": [
                {
                  "internalType": "bytes32",
                  "name": "transactionId",
                  "type": "bytes32"
                }
              ],
              "internalType": "struct Params.FulfillRecurrentTransaction",
              "name": "params",
              "type": "tuple"
            }
          ],
          "name": "fulfillRecurrentTransaction",
          "outputs": [],
          "stateMutability": "payable",
          "type": "function"
        },
        {
          "inputs": [
            {
              "components": [
                {
                  "internalType": "address[]",
                  "name": "payers",
                  "type": "address[]"
                },
                {
                  "internalType": "address",
                  "name": "merchant",
                  "type": "address"
                },
                {
                  "internalType": "uint256[]",
                  "name": "amounts",
                  "type": "uint256[]"
                },
                {
                  "internalType": "address",
                  "name": "token",
                  "type": "address"
                },
                {
                  "internalType": "string",
                  "name": "description",
                  "type": "string"
                },
                {
                  "components": [
                    {
                      "internalType": "uint8",
                      "name": "schemaVersion",
                      "type": "uint8"
                    },
                    {
                      "internalType": "string",
                      "name": "value",
                      "type": "string"
                    }
                  ],
                  "internalType": "struct Types.Metadata",
                  "name": "metadata",
                  "type": "tuple"
                }
              ],
              "internalType": "struct Params.CreateOneTimeTransaction",
              "name": "params",
              "type": "tuple"
            }
          ],
          "name": "oneTimeTransaction",
          "outputs": [],
          "stateMutability": "payable",
          "type": "function"
        },
        {
          "inputs": [],
          "name": "owner",
          "outputs": [
            {
              "internalType": "address",
              "name": "",
              "type": "address"
            }
          ],
          "stateMutability": "view",
          "type": "function"
        },
        {
          "inputs": [
            {
              "components": [
                {
                  "internalType": "address",
                  "name": "merchant",
                  "type": "address"
                },
                {
                  "internalType": "bytes32",
                  "name": "subscriptionId",
                  "type": "bytes32"
                },
                {
                  "internalType": "string",
                  "name": "description",
                  "type": "string"
                },
                {
                  "components": [
                    {
                      "internalType": "uint8",
                      "name": "schemaVersion",
                      "type": "uint8"
                    },
                    {
                      "internalType": "string",
                      "name": "value",
                      "type": "string"
                    }
                  ],
                  "internalType": "struct Types.Metadata",
                  "name": "metadata",
                  "type": "tuple"
                }
              ],
              "internalType": "struct Params.CreateRecurrentTransaction",
              "name": "params",
              "type": "tuple"
            }
          ],
          "name": "recurrentTransaction",
          "outputs": [],
          "stateMutability": "payable",
          "type": "function"
        },
        {
          "inputs": [],
          "name": "renounceOwnership",
          "outputs": [],
          "stateMutability": "nonpayable",
          "type": "function"
        },
        {
          "inputs": [
            {
              "internalType": "address",
              "name": "newOwner",
              "type": "address"
            }
          ],
          "name": "transferOwnership",
          "outputs": [],
          "stateMutability": "nonpayable",
          "type": "function"
        }
      ],
      "evm": {
        "bytecode": {
          "linkReferences": {
            "contracts/libs/AddressLib.sol": {
              "AddressLib": [
                {
                  "length": 20,
                  "start": 1068
                },
                {
                  "length": 20,
                  "start": 3834
                },
                {
                  "length": 20,
                  "start": 5915
                },
                {
                  "length": 20,
                  "start": 7979
                }
              ]
            },
            "contracts/libs/IntegerLib.sol": {
              "IntegerLib": [
                {
                  "length": 20,
                  "start": 1260
                }
              ]
            }
          },
          "object": "60803461014757601f612d9a38819003918201601f19168301916001600160401b0383118484101761014b578084926080946040528339810103126101475780516001600160a01b03811691908290036101475760208101516001600160a01b03811691908290036101475760408101516001600160a01b038116919082900361014757606001516001600160a01b0381169290839003610147573315610134575f8054336001600160a01b0319821681178355604051969290916001600160a01b0316907f8be0079c531659141344cd1fd0a4f28419497f9722a3daafe3b4186f6b6457e09080a360018060a01b0319600154161760015560018060a01b0319600354161760035560018060a01b0319600454161760045560018060a01b03196002541617600255612c3a90816101608239f35b631e4fbdf760e01b5f525f60045260245ffd5b5f80fd5b634e487b7160e01b5f52604160045260245ffdfe6080806040526004361015610012575f80fd5b5f905f3560e01c9081631121d17b14611d2157508063163e2045146114c65780631fd9b2bf14611407578063384c7aa314610cb8578063715018a614610c525780638da5cb5b14610c2c578063a0d95656146101285763f2fde38b14610076575f80fd5b34610125576020366003190112610125576004356001600160a01b038116809103610123576100a3612b58565b80156100f7576001600160a01b0382548273ffffffffffffffffffffffffffffffffffffffff198216178455167f8be0079c531659141344cd1fd0a4f28419497f9722a3daafe3b4186f6b6457e08380a380f35b6024827f1e4fbdf700000000000000000000000000000000000000000000000000000000815280600452fd5b505b80fd5b5060203660031901126101255760043567ffffffffffffffff81116101235760c06003198236030112610123576040519060c0820182811067ffffffffffffffff821117610c1857604052806004013567ffffffffffffffff8111610a9657810136602382011215610a96576004810135906101a382612679565b916101b16040519384612560565b808352602060048185019260051b8401010191368311610be857602401905b828210610c005750505082526101e860248201612582565b9160208101928352604482013567ffffffffffffffff8111610bfc57820136602382011215610bfc5760048101359061022082612679565b9161022e6040519384612560565b808352602060048185019260051b8401010191368311610ba957602401905b828210610bec575050506040820190815261026a60648401612582565b9260608301938452608481013567ffffffffffffffff8111610be85761029690600436918401016125b2565b906080840191825260a48101359067ffffffffffffffff8211610ba95760046102c292369201016125f8565b9060a0840191825273__$9a64d4390e1f317cfd7b279e493df8b9ee$__90876001600160a01b03885116833b15610123576040519063bf6341cf60e01b825260048201528181602481875af480156109aa57610bd3575b50508451823b15610bcf578890604051907f11f599a500000000000000000000000000000000000000000000000000000000825260248201602060048401528151809152602060448401920190845b818110610bad57505050818084920381875af480156109aa57610b94575b5050835173__$1472882dd151bacffe3e5240c3a944adb7$__803b156109a6579089939291604051917fd0ca35ed00000000000000000000000000000000000000000000000000000000835260248301602060048501528151809152602060448501920190875b818110610b7b5750505085918380809303915af4908115610a35578491610b66575b50506003546001600160a01b031696604051977f65b68b6f0000000000000000000000000000000000000000000000000000000089523360048a01526024890160409052888089516044820160c09052610104820161046d91612870565b8c516001600160a01b03166064830152895182820360431901608484015261049591906128ac565b84516001600160a01b031660a483015285518282036043190160c48401526104bd9190612691565b88518282036043190160e48401526104d591906126b5565b0381875a94602095f1978815610a35578498610b2b575b50600354604080516316c9372360e11b8152600481018b905233602482015295918690604490829085906001600160a01b03165af18015610b1e5781958291610ae9575b506001600160a01b036001541660206001600160a01b038d51166024604051809481936304d0a64760e01b835260048301525afa908115610a15578391610aaf575b50853b156109b557826001600160a01b039160246040518094819363bf6341cf60e01b835216998a60048301525af4908115610a15578391610a9a575b50506001600160a01b038b51166001600160a01b03845116604051916105d4836124dc565b825233602083015260408201528160608201526001600160a01b036002541690813b15610a96576106586084859283604051958694859363577ed67f60e11b85526004850190606080916001600160a01b0381511684526001600160a01b0360208201511660208501526001600160a01b0360408201511660408501520151910152565b5af1908115610a15578391610a81575b50506001600160a01b038b5116956001600160a01b038451166040519761068e896124dc565b885233602089019081526040808a0192835260608a018581526002548251630716fa0360e31b81529b516001600160a01b0390811660048e01529351841660248d01529351831660448c01525160648b01529189916084918391165afa958615610a155783978497610a4a575b50604051976107098961250c565b61072b6001600160a01b038216998a8152896020820152836040820152612964565b88610a4457875b823b15610a40576040516311f9fbc960e21b81526001600160a01b039290921660048301526024820189905290918591839160449183915af1908115610a35578491610a20575b50506109b9575b6001600160a01b038b5116906001600160a01b03845116604051926107a484612528565b83528b6020840152336040840152606083015260808201528560a08201528460c08201526001600160a01b0360025416803b156109b55760408051632b54892b60e01b815283516001600160a01b0390811660048301526020850151602483015291840151821660448201526060840151821660648201526080840151608482015260a084015190911660a482015260c09092015160c48301528290829060e490829084905af180156109aa57610991575b50506001600160a01b0380602498519a51169151169551915194519560206001600160a01b0360035416604051998a80926302ef145760e51b82528d60048301525afa978815610986578b98610955575b50604051998a998a523360208b015260408a0161018090526101808a016108cd91612870565b9160608a0152608089015287810360a08901526108e9916128ac565b9160c087015260e08601524261010086015284810361012086015261090d91612691565b83810361014085015261091f916126b5565b90610160830161092e9161273d565b037f7beb8a64e3d9f4b12c8fdabe8e255ae383c3a0e348b481a32734f2b4d0935d1d91a180f35b61097891985060203d60201161097f575b6109708183612560565b810190612725565b965f6108a7565b503d610966565b6040513d8d823e3d90fd5b8161099b91612560565b6109a657895f610856565b8980fd5b6040513d84823e3d90fd5b8280fd5b6001600160a01b0360035416803b156109b55782809160248d60405194859384926305543f8560e01b845260048401525af1908115610a15578391610a00575b5050610780565b81610a0a91612560565b61012357815f6109f9565b6040513d85823e3d90fd5b81610a2a91612560565b6109b557825f610779565b6040513d86823e3d90fd5b8580fd5b84610732565b909650610a7091975060403d604011610a7a575b610a688183612560565b81019061270e565b969096955f6106fb565b503d610a5e565b81610a8b91612560565b61012357815f610668565b8380fd5b81610aa491612560565b61012357815f6105af565b90506020813d602011610ae1575b81610aca60209383612560565b810103126109b557610adb906126d8565b5f610572565b3d9150610abd565b9050610b0e91955060403d604011610b17575b610b068183612560565b81019061276b565b9490945f610530565b503d610afc565b50604051903d90823e3d90fd5b935096506020833d602011610b5e575b81610b4860209383612560565b81010312610b5a57889251965f6104ec565b5f80fd5b3d9150610b3b565b81610b7091612560565b6109b557825f61040f565b825184528e9850602093840193909201916001016103ed565b81610b9e91612560565b610ba957875f610386565b8780fd5b82516001600160a01b031684528d955060209384019390920191600101610368565b8880fd5b81610bdd91612560565b610ba957875f610319565b8680fd5b813581526020918201910161024d565b8480fd5b60208091610c0d84612582565b8152019101906101d0565b602484634e487b7160e01b81526041600452fd5b50346101255780600319360112610125576001600160a01b036020915416604051908152f35b5034610125578060031936011261012557610c6b612b58565b806001600160a01b03815473ffffffffffffffffffffffffffffffffffffffff1981168355167f8be0079c531659141344cd1fd0a4f28419497f9722a3daafe3b4186f6b6457e08280a380f35b5060203660031901126101255780610ccf36612648565b6004805482516040516316c9372360e11b815292830152336024830152909260609184916044918391906001600160a01b03165af1908115610a15578390849385936113cf575b506001600160a01b03600454169285825160246040518097819363255709e560e11b835260048301525afa9384156113c4578694611274575b506001600160a01b0360015416602085019360206001600160a01b038651166024604051809581936304d0a64760e01b835260048301525afa91821561126957889261122d575b508773__$9a64d4390e1f317cfd7b279e493df8b9ee$__92833b1561012357816001600160a01b039160246040518094819363bf6341cf60e01b835216978860048301525af480156109aa57611218575b506001600160a01b03808751169860405199610e028b6124dc565b8a523360208b015216978860408201528260608201526001600160a01b036002541690813b156109b557610e896084849283604051958694859363577ed67f60e11b85526004850190606080916001600160a01b0381511684526001600160a01b0360208201511660208501526001600160a01b0360408201511660408501520151910152565b5af180156109aa57611203575b50506001600160a01b038551169060405191610eb1836124dc565b8252336020830190815260408084018a8152606085018481526002548351630716fa0360e31b815296516001600160a01b0390811660048901529451851660248801529151841660448701525160648601528b9285916084918391165afa938415610b1e57819382956111dc575b5060405193610f2d8561250c565b610f4f6001600160a01b03821695868152876020820152836040820152612964565b846111d657855b823b15610a96576040516311f9fbc960e21b81526001600160a01b039290921660048301526024820187905290918391839160449183915af180156109aa576111c1575b506001600160a01b03600454168651813b156109b557829160448392604051948593849263b38ffd5f60e01b845260048401528860248401525af180156109aa576111ac575b506001600160a01b03875116865160405191610ffb83612528565b825260208201523360408201528960608201528260808201528360a08201528460c08201526001600160a01b0360025416803b156109b55760408051632b54892b60e01b815283516001600160a01b0390811660048301526020850151602483015291840151821660448201526060840151821660648201526080840151608482015260a084015190911660a482015260c09092015160c48301528290829060e490829084905af180156109aa57611197575b505060406001600160a01b03602496519751169701519760206001600160a01b0360045416604051978880926302ef145760e51b82528b60048301525afa94851561118c577f5ee194c82e2134ebf127f5c6abcd33122804c95eb8f2e9ac42afbb1c4f8067999961016099611167988d9861116b575b50604051998a523360208b015260408a01526060890152608088015260a087015260c086015260e08501526101008401524261012084015261014083019061273d565ba180f35b61118591985060203d60201161097f576109708183612560565b965f611124565b6040513d8c823e3d90fd5b816111a191612560565b610bcf57885f6110ae565b816111b691612560565b610bcf57885f610fe0565b816111cb91612560565b610bcf57885f610f9a565b82610f56565b9094506111f991935060403d604011610a7a57610a688183612560565b929092935f610f1f565b8161120d91612560565b610ba957875f610e96565b8161122291612560565b610ba957875f610de7565b9091506020813d602011611261575b8161124960209383612560565b81010312610ba95761125a906126d8565b905f610d96565b3d915061123c565b6040513d8a823e3d90fd5b9093503d8087833e6112868183612560565b810190602081830312610be85780519067ffffffffffffffff8211610ba957019061012082820312610be85760405191610120830183811067ffffffffffffffff8211176113b0576040526112da816126d8565b83526112e8602082016126d8565b602084015260408101516040840152606081015167ffffffffffffffff8111610bcf57826113179183016127df565b6060840152608081015167ffffffffffffffff8111610bcf578261133c918301612782565b608084015260a081015167ffffffffffffffff8111610bcf5782611361918301612782565b60a084015260c081015160c084015260e081015167ffffffffffffffff8111610bcf5761010092611393918301612825565b60e084015201516004811015610be857610100820152925f610d4f565b602489634e487b7160e01b81526041600452fd5b6040513d88823e3d90fd5b915092506113f5915060603d606011611400575b6113ed8183612560565b8101906126ec565b92919092915f610d16565b503d6113e3565b50346101255760203660031901126101255761142236612648565b816001600160a01b03600454168251813b156109b55782916044839260405194859384927f3ed5027500000000000000000000000000000000000000000000000000000000845233600485015260248401525af180156109aa576114b1575b507fc3c75c4774edd09c7fdd8bae55bab418801f3e47da88adef31bb59b7b70aeb2660208351604051908152a180f35b816114bb91612560565b61012357815f611481565b50602036600319011261012557806114dd36612648565b60406115236001600160a01b0360035416835183519586809481936316c9372360e11b83523390600484019092916001600160a01b036020916040840195845216910152565b03925af18015610a155783928491611cfc575b506001600160a01b03600354169184815160246040518096819363255709e560e11b835260048301525afa928315611cf1578593611aa2575b506001600160a01b036001541691604084019260206001600160a01b038551166024604051809481936304d0a64760e01b835260048301525afa908115611a97578791611a5d575b508673__$9a64d4390e1f317cfd7b279e493df8b9ee$__91823b1561012357816001600160a01b039160246040518094819363bf6341cf60e01b835216968760048301525af480156109aa57611a48575b5060a06001600160a01b038651169601956001600160a01b0387511660405191611631836124dc565b825233602083015260408201528360608201526001600160a01b036002541690813b156109b5576116b56084849283604051958694859363577ed67f60e11b85526004850190606080916001600160a01b0381511684526001600160a01b0360208201511660208501526001600160a01b0360408201511660408501520151910152565b5af180156109aa57611a33575b50506001600160a01b03845116956001600160a01b03865116604051976116e8896124dc565b885233602089019081526040808a0192835260608a018681526002548251630716fa0360e31b81529b516001600160a01b0390811660048e01529351841660248d01529351831660448c01525160648b01528a9290918a916084918391165afa928315610b1e5781988294611a0c575b50604051986117668a61250c565b6117886001600160a01b0382169a8b8152866020820152836040820152612964565b89611a0657845b823b15610a96576040516311f9fbc960e21b81526001600160a01b039290921660048301526024820186905290918391839160449183915af180156109aa576119f1575b5050611995575b866001600160a01b0385511684516001600160a01b03885116906040519261180184612528565b8352602083015233604083015260608201528360808201528760a08201528260c08201526001600160a01b0360025416803b156109b55760408051632b54892b60e01b815283516001600160a01b0390811660048301526020850151602483015291840151821660448201526060840151821660648201526080840151608482015260a084015190911660a482015260c09092015160c48301528290829060e490829084905af180156109aa57611980575b50506001600160a01b0380602494519551169551169560206001600160a01b0360035416604051958680926302ef145760e51b82528960048301525afa928315611269577f3be3e9461fae0d01c4c50446b8ef7aa62bd38045d385b7fbb89d50a83cc75a809761012097611167968b9661195f575b5060405197885233602089015260408801526060870152608086015260a085015260c08401524260e084015261010083019061273d565b61197991965060203d60201161097f576109708183612560565b945f611928565b8161198a91612560565b610be857865f6118b3565b866001600160a01b03600354168451813b156109b55782916024839260405194859384926305543f8560e01b845260048401525af180156109aa576119dc575b50506117da565b816119e691612560565b610be857865f6119d5565b816119fb91612560565b610ba957875f6117d3565b8261178f565b909350611a2991985060403d604011610a7a57610a688183612560565b979097925f611758565b81611a3d91612560565b610be857865f6116c2565b81611a5291612560565b610be857865f611608565b90506020813d602011611a8f575b81611a7860209383612560565b81010312610be857611a89906126d8565b5f6115b7565b3d9150611a6b565b6040513d89823e3d90fd5b9092503d8086833e611ab48183612560565b810190602081830312610a405780519067ffffffffffffffff8211610be857019061014082820312610a405760405191610140830183811067ffffffffffffffff821117611cdd57604052611b08816126d8565b8352602081015167ffffffffffffffff8111610ba957810182601f82011215610ba957805190611b3782612679565b91611b456040519384612560565b80835260208084019160051b83010191858311611cc157602001905b828210611cc5575050506020840152611b7c604082016126d8565b6040840152606081015167ffffffffffffffff8111610ba95782611ba1918301612782565b6060840152608081015167ffffffffffffffff8111610ba957810182601f82011215610ba957805190611bd382612679565b91611be16040519384612560565b80835260208084019160051b83010191858311611cc157602001905b828210611ca9575050506080840152611c1860a082016126d8565b60a084015260c081015167ffffffffffffffff8111610ba95782611c3d918301612782565b60c084015260e081015167ffffffffffffffff8111610ba95782611c629183016127df565b60e084015261010081015167ffffffffffffffff8111610ba95761012092611c8b918301612825565b61010084015201516004811015610a4057610120820152915f61156f565b60208091611cb68461275e565b815201910190611bfd565b8a80fd5b60208091611cd2846126d8565b815201910190611b61565b602488634e487b7160e01b81526041600452fd5b6040513d87823e3d90fd5b9050611d1891925060403d604011610b1757610b068183612560565b9190915f611536565b826020366003190112610b5a5760043567ffffffffffffffff8111610b5a5760806003198236030112610b5a57611d57836124dc565b611d6381600401612582565b8352602083019260248201358452604482013567ffffffffffffffff8111610b5a57611d9590600436918501016125b2565b916040820192835260648101359067ffffffffffffffff8211610b5a576004611dc192369201016125f8565b936060820194855273__$9a64d4390e1f317cfd7b279e493df8b9ee$__926001600160a01b0383511695843b15610b5a576040519663bf6341cf60e01b885260048801525f87602481885af480156124d1576124b9575b8596506001600160a01b036004969596541695602060405180987fb658330e000000000000000000000000000000000000000000000000000000008252336004830152604060248301526001600160a01b03885116604483015286516064830152818981611ea8611e958a516080608485015260c4840190612691565b89518382036043190160a48501526126b5565b03925af19687156113c4578697612482575b50600480546040516316c9372360e11b8152918201899052336024830152606090829060449082908b906001600160a01b03165af1908115611a975787908890899361245e575b506001600160a01b036001541660206001600160a01b038a51166024604051809481936304d0a64760e01b835260048301525afa90811561118c578a91612424575b50843b156109a657896001600160a01b039160246040518094819363bf6341cf60e01b835216988960048301525af490811561118c578a9161240f575b50506001600160a01b03808951169160405192611f9c846124dc565b835233602084015216908160408201528260608201526001600160a01b036002541690813b15611cc15761202360848c9283604051958694859363577ed67f60e11b85526004850190606080916001600160a01b0381511684526001600160a01b0360208201511660208501526001600160a01b0360408201511660408501520151910152565b5af190811561118c578a916123fa575b50506001600160a01b03885116926040519361204e856124dc565b845233602085019081526040808601848152606087018681526002548351630716fa0360e31b815298516001600160a01b0390811660048b01529451851660248a0152915184166044890152516064880152909186916084918391165afa94851561118c578a948b966123d3575b50604051946120ca8661250c565b6120ec6001600160a01b03821696878152886020820152836040820152612964565b856123cd57865b823b156123c9576040516311f9fbc960e21b81526001600160a01b039290921660048301526024820188905290918c91839160449183915af1908115610986578b916123b4575b50506001600160a01b0360045416803b15611cc1578a809160448e604051948593849263b38ffd5f60e01b845260048401528960248401525af1908115610986578b9161239f575b50506001600160a01b03895116986040519961219d8b612528565b8a528b60208b01523360408b01528260608b01528360808b01528460a08b01528560c08b01526001600160a01b0360025416803b1561239b5760408051632b54892b60e01b81528c516001600160a01b03908116600483015260208e01516024830152918d01518216604482015260608d01518216606482015260808d0151608482015260a08d015190911660a482015260c0909b015160c48c01528b908b9060e490829084905af18015610986578c9a8c91612380575b50506001600160a01b039051169751965195519660206001600160a01b036004541660246040519e8f9283916302ef145760e51b835260048301525afa988915610986577f3744b8fadedfebb31c995bbe9b714d3a32ab9c0b1f1592b9eebdf6196e62cd359c60409c9a612343575b5092612322959261233198959261233d9a98958e519e8f9e8f908152336020820152015260608d015260808c015260a08b015260c08a015260e0890152610100880152426101208801526101a06101408801526101a0870190612691565b908582036101608701526126b5565b9161018084019061273d565b0390a180f35b61233d999794919a509261233198959261236f612322989560203d60201161097f576109708183612560565b9b9295989a509295985092956122c4565b81929b509061238e91612560565b6109a6578a988a8e612255565b8b80fd5b816123a991612560565b6109a657898d612182565b816123be91612560565b6109a657898d61213a565b8c80fd5b8b6120f3565b9095506123f091945060403d604011610a7a57610a688183612560565b939093948d6120bc565b8161240491612560565b610bcf57888c612033565b8161241991612560565b610bcf57888c611f80565b90506020813d602011612456575b8161243f60209383612560565b810103126109a657612450906126d8565b8c611f43565b3d9150612432565b91505061247a915060603d606011611400576113ed8183612560565b91908b611f01565b955095506020853d6020116124b1575b8161249f60209383612560565b81010312610b5a578694519588611eba565b3d9150612492565b939450945f6124c791612560565b5f93928590611e18565b6040513d5f823e3d90fd5b6080810190811067ffffffffffffffff8211176124f857604052565b634e487b7160e01b5f52604160045260245ffd5b6060810190811067ffffffffffffffff8211176124f857604052565b60e0810190811067ffffffffffffffff8211176124f857604052565b6040810190811067ffffffffffffffff8211176124f857604052565b90601f8019910116810190811067ffffffffffffffff8211176124f857604052565b35906001600160a01b0382168203610b5a57565b67ffffffffffffffff81116124f857601f01601f191660200190565b81601f82011215610b5a578035906125c982612596565b926125d76040519485612560565b82845260208383010111610b5a57815f926020809301838601378301015290565b9190604083820312610b5a576040519061261182612544565b8193803560ff81168103610b5a57835260208101359167ffffffffffffffff8311610b5a5760209261264392016125b2565b910152565b6020906003190112610b5a57604051906020820182811067ffffffffffffffff8211176124f8576040526004358252565b67ffffffffffffffff81116124f85760051b60200190565b805180835260209291819084018484015e5f828201840152601f01601f1916010190565b90604060206126d59360ff81511684520151918160208201520190612691565b90565b51906001600160a01b0382168203610b5a57565b90816060910312610b5a578051916040612708602084016126d8565b92015190565b9190826040910312610b5a576020612708836126d8565b90816020910312610b5a57516004811015610b5a5790565b90600482101561274a5752565b634e487b7160e01b5f52602160045260245ffd5b51908115158203610b5a57565b9190826040910312610b5a5760206127088361275e565b9080601f83011215610b5a57815161279981612679565b926127a76040519485612560565b81845260208085019260051b820101928311610b5a57602001905b8282106127cf5750505090565b81518152602091820191016127c2565b81601f82011215610b5a578051906127f682612596565b926128046040519485612560565b82845260208383010111610b5a57815f9260208093018386015e8301015290565b9190604083820312610b5a576040519061283e82612544565b8193805160ff81168103610b5a57835260208101519167ffffffffffffffff8311610b5a5760209261264392016127df565b90602080835192838152019201905f5b81811061288d5750505090565b82516001600160a01b0316845260209384019390920191600101612880565b90602080835192838152019201905f5b8181106128c95750505090565b82518452602093840193909201916001016128bc565b604051906128ee604083612560565b600382527f31303000000000000000000000000000000000000000000000000000000000006020830152565b156129225750565b612960906040519182917f08c379a0000000000000000000000000000000000000000000000000000000008352602060048401526024830190612691565b0390fd5b80516001600160a01b031680612ada575034905b61299260208201928351111561298c6128df565b9061291a565b80516001600160a01b0316806129b55750506129b39051341461298c6128df565b565b612a0b90835190604051917f23b872dd000000000000000000000000000000000000000000000000000000006020840152336024840152306044840152606483015260648252612a06608483612560565b612b97565b6001600160a01b036040818351169201511691519060205f60405193612a6a85612a5c8582019363095ea7b360e01b85528960248401602090939291936001600160a01b0360408201951681520152565b03601f198101875286612560565b84519082855af15f513d82612abe575b505015612a8657505050565b612a066129b3936040519063095ea7b360e01b602083015260248201525f604482015260448152612ab8606482612560565b82612b97565b909150612ad25750803b15155b5f80612a7a565b600114612acb565b6020602491604051928380927f70a082310000000000000000000000000000000000000000000000000000000082523360048301525afa9081156124d1575f91612b26575b5090612978565b90506020813d602011612b50575b81612b4160209383612560565b81010312610b5a57515f612b1f565b3d9150612b34565b6001600160a01b035f54163303612b6b57565b7f118cdaa7000000000000000000000000000000000000000000000000000000005f523360045260245ffd5b905f602091828151910182855af1156124d1575f513d612bfb57506001600160a01b0381163b155b612bc65750565b6001600160a01b03907f5274afe7000000000000000000000000000000000000000000000000000000005f521660045260245ffd5b60011415612bbf56fea26469706673582212208c90599ac2a01cb58dd0148e52b61cad82311d798196c52a9f0937068ec10aa964736f6c634300081c0033",
          "opcodes": "PUSH1 0x80 CALLVALUE PUSH2 0x147 JUMPI PUSH1 0x1F PUSH2 0x2D9A CODESIZE DUP2 SWAP1 SUB SWAP2 DUP3 ADD PUSH1 0x1F NOT AND DUP4 ADD SWAP2 PUSH1 0x1 PUSH1 0x1 PUSH1 0x40 SHL SUB DUP4 GT DUP5 DUP5 LT OR PUSH2 0x14B JUMPI DUP1 DUP5 SWAP3 PUSH1 0x80 SWAP5 PUSH1 0x40 MSTORE DUP4 CODECOPY DUP2 ADD SUB SLT PUSH2 0x147 JUMPI DUP1 MLOAD PUSH1 0x1 PUSH1 0x1 PUSH1 0xA0 SHL SUB DUP2 AND SWAP2 SWAP1 DUP3 SWAP1 SUB PUSH2 0x147 JUMPI PUSH1 0x20 DUP2 ADD MLOAD PUSH1 0x1 PUSH1 0x1 PUSH1 0xA0 SHL SUB DUP2 AND SWAP2 SWAP1 DUP3 SWAP1 SUB PUSH2 0x147 JUMPI PUSH1 0x40 DUP2 ADD MLOAD PUSH1 0x1 PUSH1 0x1 PUSH1 0xA0 SHL SUB DUP2 AND SWAP2 SWAP1 DUP3 SWAP1 SUB PUSH2 0x147 JUMPI PUSH1 0x60 ADD MLOAD PUSH1 0x1 PUSH1 0x1 PUSH1 0xA0 SHL SUB DUP2 AND SWAP3 SWAP1 DUP4 SWAP1 SUB PUSH2 0x147 JUMPI CALLER ISZERO PUSH2 0x134 JUMPI PUSH0 DUP1 SLOAD CALLER PUSH1 0x1 PUSH1 0x1 PUSH1 0xA0 SHL SUB NOT DUP3 AND DUP2 OR DUP4 SSTORE PUSH1 0x40 MLOAD SWAP7 SWAP3 SWAP1 SWAP2 PUSH1 0x1 PUSH1 0x1 PUSH1 0xA0 SHL SUB AND SWAP1 PUSH32 0x8BE0079C531659141344CD1FD0A4F28419497F9722A3DAAFE3B4186F6B6457E0 SWAP1 DUP1 LOG3 PUSH1 0x1 DUP1 PUSH1 0xA0 SHL SUB NOT PUSH1 0x1 SLOAD AND OR PUSH1 0x1 SSTORE PUSH1 0x1 DUP1 PUSH1 0xA0 SHL SUB NOT PUSH1 0x3 SLOAD AND OR PUSH1 0x3 SSTORE PUSH1 0x1 DUP1 PUSH1 0xA0 SHL SUB NOT PUSH1 0x4 SLOAD AND OR PUSH1 0x4 SSTORE PUSH1 0x1 DUP1 PUSH1 0xA0 SHL SUB NOT PUSH1 0x2 SLOAD AND OR PUSH1 0x2 SSTORE PUSH2 0x2C3A SWAP1 DUP2 PUSH2 0x160 DUP3 CODECOPY RETURN JUMPDEST PUSH4 0x1E4FBDF7 PUSH1 0xE0 SHL PUSH0 MSTORE PUSH0 PUSH1 0x4 MSTORE PUSH1 0x24 PUSH0 REVERT JUMPDEST PUSH0 DUP1 REVERT JUMPDEST PUSH4 0x4E487B71 PUSH1 0xE0 SHL PUSH0 MSTORE PUSH1 0x41 PUSH1 0x4 MSTORE PUSH1 0x24 PUSH0 REVERT INVALID PUSH1 0x80 DUP1 PUSH1 0x40 MSTORE PUSH1 0x4 CALLDATASIZE LT ISZERO PUSH2 0x12 JUMPI PUSH0 DUP1 REVERT JUMPDEST PUSH0 SWAP1 PUSH0 CALLDATALOAD PUSH1 0xE0 SHR SWAP1 DUP2 PUSH4 0x1121D17B EQ PUSH2 0x1D21 JUMPI POP DUP1 PUSH4 0x163E2045 EQ PUSH2 0x14C6 JUMPI DUP1 PUSH4 0x1FD9B2BF EQ PUSH2 0x1407 JUMPI DUP1 PUSH4 0x384C7AA3 EQ PUSH2 0xCB8 JUMPI DUP1 PUSH4 0x715018A6 EQ PUSH2 0xC52 JUMPI DUP1 PUSH4 0x8DA5CB5B EQ PUSH2 0xC2C JUMPI DUP1 PUSH4 0xA0D95656 EQ PUSH2 0x128 JUMPI PUSH4 0xF2FDE38B EQ PUSH2 0x76 JUMPI PUSH0 DUP1 REVERT JUMPDEST CALLVALUE PUSH2 0x125 JUMPI PUSH1 0x20 CALLDATASIZE PUSH1 0x3 NOT ADD SLT PUSH2 0x125 JUMPI PUSH1 0x4 CALLDATALOAD PUSH1 0x1 PUSH1 0x1 PUSH1 0xA0 SHL SUB DUP2 AND DUP1 SWAP2 SUB PUSH2 0x123 JUMPI PUSH2 0xA3 PUSH2 0x2B58 JUMP JUMPDEST DUP1 ISZERO PUSH2 0xF7 JUMPI PUSH1 0x1 PUSH1 0x1 PUSH1 0xA0 SHL SUB DUP3 SLOAD DUP3 PUSH20 0xFFFFFFFFFFFFFFFFFFFFFFFFFFFFFFFFFFFFFFFF NOT DUP3 AND OR DUP5 SSTORE AND PUSH32 0x8BE0079C531659141344CD1FD0A4F28419497F9722A3DAAFE3B4186F6B6457E0 DUP4 DUP1 LOG3 DUP1 RETURN JUMPDEST PUSH1 0x24 DUP3 PUSH32 0x1E4FBDF700000000000000000000000000000000000000000000000000000000 DUP2 MSTORE DUP1 PUSH1 0x4 MSTORE REVERT JUMPDEST POP JUMPDEST DUP1 REVERT JUMPDEST POP PUSH1 0x20 CALLDATASIZE PUSH1 0x3 NOT ADD SLT PUSH2 0x125 JUMPI PUSH1 0x4 CALLDATALOAD PUSH8 0xFFFFFFFFFFFFFFFF DUP2 GT PUSH2 0x123 JUMPI PUSH1 0xC0 PUSH1 0x3 NOT DUP3 CALLDATASIZE SUB ADD SLT PUSH2 0x123 JUMPI PUSH1 0x40 MLOAD SWAP1 PUSH1 0xC0 DUP3 ADD DUP3 DUP2 LT PUSH8 0xFFFFFFFFFFFFFFFF DUP3 GT OR PUSH2 0xC18 JUMPI PUSH1 0x40 MSTORE DUP1 PUSH1 0x4 ADD CALLDATALOAD PUSH8 0xFFFFFFFFFFFFFFFF DUP2 GT PUSH2 0xA96 JUMPI DUP2 ADD CALLDATASIZE PUSH1 0x23 DUP3 ADD SLT ISZERO PUSH2 0xA96 JUMPI PUSH1 0x4 DUP2 ADD CALLDATALOAD SWAP1 PUSH2 0x1A3 DUP3 PUSH2 0x2679 JUMP JUMPDEST SWAP2 PUSH2 0x1B1 PUSH1 0x40 MLOAD SWAP4 DUP5 PUSH2 0x2560 JUMP JUMPDEST DUP1 DUP4 MSTORE PUSH1 0x20 PUSH1 0x4 DUP2 DUP6 ADD SWAP3 PUSH1 0x5 SHL DUP5 ADD ADD ADD SWAP2 CALLDATASIZE DUP4 GT PUSH2 0xBE8 JUMPI PUSH1 0x24 ADD SWAP1 JUMPDEST DUP3 DUP3 LT PUSH2 0xC00 JUMPI POP POP POP DUP3 MSTORE PUSH2 0x1E8 PUSH1 0x24 DUP3 ADD PUSH2 0x2582 JUMP JUMPDEST SWAP2 PUSH1 0x20 DUP2 ADD SWAP3 DUP4 MSTORE PUSH1 0x44 DUP3 ADD CALLDATALOAD PUSH8 0xFFFFFFFFFFFFFFFF DUP2 GT PUSH2 0xBFC JUMPI DUP3 ADD CALLDATASIZE PUSH1 0x23 DUP3 ADD SLT ISZERO PUSH2 0xBFC JUMPI PUSH1 0x4 DUP2 ADD CALLDATALOAD SWAP1 PUSH2 0x220 DUP3 PUSH2 0x2679 JUMP JUMPDEST SWAP2 PUSH2 0x22E PUSH1 0x40 MLOAD SWAP4 DUP5 PUSH2 0x2560 JUMP JUMPDEST DUP1 DUP4 MSTORE PUSH1 0x20 PUSH1 0x4 DUP2 DUP6 ADD SWAP3 PUSH1 0x5 SHL DUP5 ADD ADD ADD SWAP2 CALLDATASIZE DUP4 GT PUSH2 0xBA9 JUMPI PUSH1 0x24 ADD SWAP1 JUMPDEST DUP3 DUP3 LT PUSH2 0xBEC JUMPI POP POP POP PUSH1 0x40 DUP3 ADD SWAP1 DUP2 MSTORE PUSH2 0x26A PUSH1 0x64 DUP5 ADD PUSH2 0x2582 JUMP JUMPDEST SWAP3 PUSH1 0x60 DUP4 ADD SWAP4 DUP5 MSTORE PUSH1 0x84 DUP2 ADD CALLDATALOAD PUSH8 0xFFFFFFFFFFFFFFFF DUP2 GT PUSH2 0xBE8 JUMPI PUSH2 0x296 SWAP1 PUSH1 0x4 CALLDATASIZE SWAP2 DUP5 ADD ADD PUSH2 0x25B2 JUMP JUMPDEST SWAP1 PUSH1 0x80 DUP5 ADD SWAP2 DUP3 MSTORE PUSH1 0xA4 DUP2 ADD CALLDATALOAD SWAP1 PUSH8 0xFFFFFFFFFFFFFFFF DUP3 GT PUSH2 0xBA9 JUMPI PUSH1 0x4 PUSH2 0x2C2 SWAP3 CALLDATASIZE SWAP3 ADD ADD PUSH2 0x25F8 JUMP JUMPDEST SWAP1 PUSH1 0xA0 DUP5 ADD SWAP2 DUP3 MSTORE PUSH20 0x0 SWAP1 DUP8 PUSH1 0x1 PUSH1 0x1 PUSH1 0xA0 SHL SUB DUP9 MLOAD AND DUP4 EXTCODESIZE ISZERO PUSH2 0x123 JUMPI PUSH1 0x40 MLOAD SWAP1 PUSH4 0xBF6341CF PUSH1 0xE0 SHL DUP3 MSTORE PUSH1 0x4 DUP3 ADD MSTORE DUP2 DUP2 PUSH1 0x24 DUP2 DUP8 GAS DELEGATECALL DUP1 ISZERO PUSH2 0x9AA JUMPI PUSH2 0xBD3 JUMPI JUMPDEST POP POP DUP5 MLOAD DUP3 EXTCODESIZE ISZERO PUSH2 0xBCF JUMPI DUP9 SWAP1 PUSH1 0x40 MLOAD SWAP1 PUSH32 0x11F599A500000000000000000000000000000000000000000000000000000000 DUP3 MSTORE PUSH1 0x24 DUP3 ADD PUSH1 0x20 PUSH1 0x4 DUP5 ADD MSTORE DUP2 MLOAD DUP1 SWAP2 MSTORE PUSH1 0x20 PUSH1 0x44 DUP5 ADD SWAP3 ADD SWAP1 DUP5 JUMPDEST DUP2 DUP2 LT PUSH2 0xBAD JUMPI POP POP POP DUP2 DUP1 DUP5 SWAP3 SUB DUP2 DUP8 GAS DELEGATECALL DUP1 ISZERO PUSH2 0x9AA JUMPI PUSH2 0xB94 JUMPI JUMPDEST POP POP DUP4 MLOAD PUSH20 0x0 DUP1 EXTCODESIZE ISZERO PUSH2 0x9A6 JUMPI SWAP1 DUP10 SWAP4 SWAP3 SWAP2 PUSH1 0x40 MLOAD SWAP2 PUSH32 0xD0CA35ED00000000000000000000000000000000000000000000000000000000 DUP4 MSTORE PUSH1 0x24 DUP4 ADD PUSH1 0x20 PUSH1 0x4 DUP6 ADD MSTORE DUP2 MLOAD DUP1 SWAP2 MSTORE PUSH1 0x20 PUSH1 0x44 DUP6 ADD SWAP3 ADD SWAP1 DUP8 JUMPDEST DUP2 DUP2 LT PUSH2 0xB7B JUMPI POP POP POP DUP6 SWAP2 DUP4 DUP1 DUP1 SWAP4 SUB SWAP2 GAS DELEGATECALL SWAP1 DUP2 ISZERO PUSH2 0xA35 JUMPI DUP5 SWAP2 PUSH2 0xB66 JUMPI JUMPDEST POP POP PUSH1 0x3 SLOAD PUSH1 0x1 PUSH1 0x1 PUSH1 0xA0 SHL SUB AND SWAP7 PUSH1 0x40 MLOAD SWAP8 PUSH32 0x65B68B6F00000000000000000000000000000000000000000000000000000000 DUP10 MSTORE CALLER PUSH1 0x4 DUP11 ADD MSTORE PUSH1 0x24 DUP10 ADD PUSH1 0x40 SWAP1 MSTORE DUP9 DUP1 DUP10 MLOAD PUSH1 0x44 DUP3 ADD PUSH1 0xC0 SWAP1 MSTORE PUSH2 0x104 DUP3 ADD PUSH2 0x46D SWAP2 PUSH2 0x2870 JUMP JUMPDEST DUP13 MLOAD PUSH1 0x1 PUSH1 0x1 PUSH1 0xA0 SHL SUB AND PUSH1 0x64 DUP4 ADD MSTORE DUP10 MLOAD DUP3 DUP3 SUB PUSH1 0x43 NOT ADD PUSH1 0x84 DUP5 ADD MSTORE PUSH2 0x495 SWAP2 SWAP1 PUSH2 0x28AC JUMP JUMPDEST DUP5 MLOAD PUSH1 0x1 PUSH1 0x1 PUSH1 0xA0 SHL SUB AND PUSH1 0xA4 DUP4 ADD MSTORE DUP6 MLOAD DUP3 DUP3 SUB PUSH1 0x43 NOT ADD PUSH1 0xC4 DUP5 ADD MSTORE PUSH2 0x4BD SWAP2 SWAP1 PUSH2 0x2691 JUMP JUMPDEST DUP9 MLOAD DUP3 DUP3 SUB PUSH1 0x43 NOT ADD PUSH1 0xE4 DUP5 ADD MSTORE PUSH2 0x4D5 SWAP2 SWAP1 PUSH2 0x26B5 JUMP JUMPDEST SUB DUP2 DUP8 GAS SWAP5 PUSH1 0x20 SWAP6 CALL SWAP8 DUP9 ISZERO PUSH2 0xA35 JUMPI DUP5 SWAP9 PUSH2 0xB2B JUMPI JUMPDEST POP PUSH1 0x3 SLOAD PUSH1 0x40 DUP1 MLOAD PUSH4 0x16C93723 PUSH1 0xE1 SHL DUP2 MSTORE PUSH1 0x4 DUP2 ADD DUP12 SWAP1 MSTORE CALLER PUSH1 0x24 DUP3 ADD MSTORE SWAP6 SWAP2 DUP7 SWAP1 PUSH1 0x44 SWAP1 DUP3 SWAP1 DUP6 SWAP1 PUSH1 0x1 PUSH1 0x1 PUSH1 0xA0 SHL SUB AND GAS CALL DUP1 ISZERO PUSH2 0xB1E JUMPI DUP2 SWAP6 DUP3 SWAP2 PUSH2 0xAE9 JUMPI JUMPDEST POP PUSH1 0x1 PUSH1 0x1 PUSH1 0xA0 SHL SUB PUSH1 0x1 SLOAD AND PUSH1 0x20 PUSH1 0x1 PUSH1 0x1 PUSH1 0xA0 SHL SUB DUP14 MLOAD AND PUSH1 0x24 PUSH1 0x40 MLOAD DUP1 SWAP5 DUP2 SWAP4 PUSH4 0x4D0A647 PUSH1 0xE0 SHL DUP4 MSTORE PUSH1 0x4 DUP4 ADD MSTORE GAS STATICCALL SWAP1 DUP2 ISZERO PUSH2 0xA15 JUMPI DUP4 SWAP2 PUSH2 0xAAF JUMPI JUMPDEST POP DUP6 EXTCODESIZE ISZERO PUSH2 0x9B5 JUMPI DUP3 PUSH1 0x1 PUSH1 0x1 PUSH1 0xA0 SHL SUB SWAP2 PUSH1 0x24 PUSH1 0x40 MLOAD DUP1 SWAP5 DUP2 SWAP4 PUSH4 0xBF6341CF PUSH1 0xE0 SHL DUP4 MSTORE AND SWAP10 DUP11 PUSH1 0x4 DUP4 ADD MSTORE GAS DELEGATECALL SWAP1 DUP2 ISZERO PUSH2 0xA15 JUMPI DUP4 SWAP2 PUSH2 0xA9A JUMPI JUMPDEST POP POP PUSH1 0x1 PUSH1 0x1 PUSH1 0xA0 SHL SUB DUP12 MLOAD AND PUSH1 0x1 PUSH1 0x1 PUSH1 0xA0 SHL SUB DUP5 MLOAD AND PUSH1 0x40 MLOAD SWAP2 PUSH2 0x5D4 DUP4 PUSH2 0x24DC JUMP JUMPDEST DUP3 MSTORE CALLER PUSH1 0x20 DUP4 ADD MSTORE PUSH1 0x40 DUP3 ADD MSTORE DUP2 PUSH1 0x60 DUP3 ADD MSTORE PUSH1 0x1 PUSH1 0x1 PUSH1 0xA0 SHL SUB PUSH1 0x2 SLOAD AND SWAP1 DUP2 EXTCODESIZE ISZERO PUSH2 0xA96 JUMPI PUSH2 0x658 PUSH1 0x84 DUP6 SWAP3 DUP4 PUSH1 0x40 MLOAD SWAP6 DUP7 SWAP5 DUP6 SWAP4 PUSH4 0x577ED67F PUSH1 0xE1 SHL DUP6 MSTORE PUSH1 0x4 DUP6 ADD SWAP1 PUSH1 0x60 DUP1 SWAP2 PUSH1 0x1 PUSH1 0x1 PUSH1 0xA0 SHL SUB DUP2 MLOAD AND DUP5 MSTORE PUSH1 0x1 PUSH1 0x1 PUSH1 0xA0 SHL SUB PUSH1 0x20 DUP3 ADD MLOAD AND PUSH1 0x20 DUP6 ADD MSTORE PUSH1 0x1 PUSH1 0x1 PUSH1 0xA0 SHL SUB PUSH1 0x40 DUP3 ADD MLOAD AND PUSH1 0x40 DUP6 ADD MSTORE ADD MLOAD SWAP2 ADD MSTORE JUMP JUMPDEST GAS CALL SWAP1 DUP2 ISZERO PUSH2 0xA15 JUMPI DUP4 SWAP2 PUSH2 0xA81 JUMPI JUMPDEST POP POP PUSH1 0x1 PUSH1 0x1 PUSH1 0xA0 SHL SUB DUP12 MLOAD AND SWAP6 PUSH1 0x1 PUSH1 0x1 PUSH1 0xA0 SHL SUB DUP5 MLOAD AND PUSH1 0x40 MLOAD SWAP8 PUSH2 0x68E DUP10 PUSH2 0x24DC JUMP JUMPDEST DUP9 MSTORE CALLER PUSH1 0x20 DUP10 ADD SWAP1 DUP2 MSTORE PUSH1 0x40 DUP1 DUP11 ADD SWAP3 DUP4 MSTORE PUSH1 0x60 DUP11 ADD DUP6 DUP2 MSTORE PUSH1 0x2 SLOAD DUP3 MLOAD PUSH4 0x716FA03 PUSH1 0xE3 SHL DUP2 MSTORE SWAP12 MLOAD PUSH1 0x1 PUSH1 0x1 PUSH1 0xA0 SHL SUB SWAP1 DUP2 AND PUSH1 0x4 DUP15 ADD MSTORE SWAP4 MLOAD DUP5 AND PUSH1 0x24 DUP14 ADD MSTORE SWAP4 MLOAD DUP4 AND PUSH1 0x44 DUP13 ADD MSTORE MLOAD PUSH1 0x64 DUP12 ADD MSTORE SWAP2 DUP10 SWAP2 PUSH1 0x84 SWAP2 DUP4 SWAP2 AND GAS STATICCALL SWAP6 DUP7 ISZERO PUSH2 0xA15 JUMPI DUP4 SWAP8 DUP5 SWAP8 PUSH2 0xA4A JUMPI JUMPDEST POP PUSH1 0x40 MLOAD SWAP8 PUSH2 0x709 DUP10 PUSH2 0x250C JUMP JUMPDEST PUSH2 0x72B PUSH1 0x1 PUSH1 0x1 PUSH1 0xA0 SHL SUB DUP3 AND SWAP10 DUP11 DUP2 MSTORE DUP10 PUSH1 0x20 DUP3 ADD MSTORE DUP4 PUSH1 0x40 DUP3 ADD MSTORE PUSH2 0x2964 JUMP JUMPDEST DUP9 PUSH2 0xA44 JUMPI DUP8 JUMPDEST DUP3 EXTCODESIZE ISZERO PUSH2 0xA40 JUMPI PUSH1 0x40 MLOAD PUSH4 0x11F9FBC9 PUSH1 0xE2 SHL DUP2 MSTORE PUSH1 0x1 PUSH1 0x1 PUSH1 0xA0 SHL SUB SWAP3 SWAP1 SWAP3 AND PUSH1 0x4 DUP4 ADD MSTORE PUSH1 0x24 DUP3 ADD DUP10 SWAP1 MSTORE SWAP1 SWAP2 DUP6 SWAP2 DUP4 SWAP2 PUSH1 0x44 SWAP2 DUP4 SWAP2 GAS CALL SWAP1 DUP2 ISZERO PUSH2 0xA35 JUMPI DUP5 SWAP2 PUSH2 0xA20 JUMPI JUMPDEST POP POP PUSH2 0x9B9 JUMPI JUMPDEST PUSH1 0x1 PUSH1 0x1 PUSH1 0xA0 SHL SUB DUP12 MLOAD AND SWAP1 PUSH1 0x1 PUSH1 0x1 PUSH1 0xA0 SHL SUB DUP5 MLOAD AND PUSH1 0x40 MLOAD SWAP3 PUSH2 0x7A4 DUP5 PUSH2 0x2528 JUMP JUMPDEST DUP4 MSTORE DUP12 PUSH1 0x20 DUP5 ADD MSTORE CALLER PUSH1 0x40 DUP5 ADD MSTORE PUSH1 0x60 DUP4 ADD MSTORE PUSH1 0x80 DUP3 ADD MSTORE DUP6 PUSH1 0xA0 DUP3 ADD MSTORE DUP5 PUSH1 0xC0 DUP3 ADD MSTORE PUSH1 0x1 PUSH1 0x1 PUSH1 0xA0 SHL SUB PUSH1 0x2 SLOAD AND DUP1 EXTCODESIZE ISZERO PUSH2 0x9B5 JUMPI PUSH1 0x40 DUP1 MLOAD PUSH4 0x2B54892B PUSH1 0xE0 SHL DUP2 MSTORE DUP4 MLOAD PUSH1 0x1 PUSH1 0x1 PUSH1 0xA0 SHL SUB SWAP1 DUP2 AND PUSH1 0x4 DUP4 ADD MSTORE PUSH1 0x20 DUP6 ADD MLOAD PUSH1 0x24 DUP4 ADD MSTORE SWAP2 DUP5 ADD MLOAD DUP3 AND PUSH1 0x44 DUP3 ADD MSTORE PUSH1 0x60 DUP5 ADD MLOAD DUP3 AND PUSH1 0x64 DUP3 ADD MSTORE PUSH1 0x80 DUP5 ADD MLOAD PUSH1 0x84 DUP3 ADD MSTORE PUSH1 0xA0 DUP5 ADD MLOAD SWAP1 SWAP2 AND PUSH1 0xA4 DUP3 ADD MSTORE PUSH1 0xC0 SWAP1 SWAP3 ADD MLOAD PUSH1 0xC4 DUP4 ADD MSTORE DUP3 SWAP1 DUP3 SWAP1 PUSH1 0xE4 SWAP1 DUP3 SWAP1 DUP5 SWAP1 GAS CALL DUP1 ISZERO PUSH2 0x9AA JUMPI PUSH2 0x991 JUMPI JUMPDEST POP POP PUSH1 0x1 PUSH1 0x1 PUSH1 0xA0 SHL SUB DUP1 PUSH1 0x24 SWAP9 MLOAD SWAP11 MLOAD AND SWAP2 MLOAD AND SWAP6 MLOAD SWAP2 MLOAD SWAP5 MLOAD SWAP6 PUSH1 0x20 PUSH1 0x1 PUSH1 0x1 PUSH1 0xA0 SHL SUB PUSH1 0x3 SLOAD AND PUSH1 0x40 MLOAD SWAP10 DUP11 DUP1 SWAP3 PUSH4 0x2EF1457 PUSH1 0xE5 SHL DUP3 MSTORE DUP14 PUSH1 0x4 DUP4 ADD MSTORE GAS STATICCALL SWAP8 DUP9 ISZERO PUSH2 0x986 JUMPI DUP12 SWAP9 PUSH2 0x955 JUMPI JUMPDEST POP PUSH1 0x40 MLOAD SWAP10 DUP11 SWAP10 DUP11 MSTORE CALLER PUSH1 0x20 DUP12 ADD MSTORE PUSH1 0x40 DUP11 ADD PUSH2 0x180 SWAP1 MSTORE PUSH2 0x180 DUP11 ADD PUSH2 0x8CD SWAP2 PUSH2 0x2870 JUMP JUMPDEST SWAP2 PUSH1 0x60 DUP11 ADD MSTORE PUSH1 0x80 DUP10 ADD MSTORE DUP8 DUP2 SUB PUSH1 0xA0 DUP10 ADD MSTORE PUSH2 0x8E9 SWAP2 PUSH2 0x28AC JUMP JUMPDEST SWAP2 PUSH1 0xC0 DUP8 ADD MSTORE PUSH1 0xE0 DUP7 ADD MSTORE TIMESTAMP PUSH2 0x100 DUP7 ADD MSTORE DUP5 DUP2 SUB PUSH2 0x120 DUP7 ADD MSTORE PUSH2 0x90D SWAP2 PUSH2 0x2691 JUMP JUMPDEST DUP4 DUP2 SUB PUSH2 0x140 DUP6 ADD MSTORE PUSH2 0x91F SWAP2 PUSH2 0x26B5 JUMP JUMPDEST SWAP1 PUSH2 0x160 DUP4 ADD PUSH2 0x92E SWAP2 PUSH2 0x273D JUMP JUMPDEST SUB PUSH32 0x7BEB8A64E3D9F4B12C8FDABE8E255AE383C3A0E348B481A32734F2B4D0935D1D SWAP2 LOG1 DUP1 RETURN JUMPDEST PUSH2 0x978 SWAP2 SWAP9 POP PUSH1 0x20 RETURNDATASIZE PUSH1 0x20 GT PUSH2 0x97F JUMPI JUMPDEST PUSH2 0x970 DUP2 DUP4 PUSH2 0x2560 JUMP JUMPDEST DUP2 ADD SWAP1 PUSH2 0x2725 JUMP JUMPDEST SWAP7 PUSH0 PUSH2 0x8A7 JUMP JUMPDEST POP RETURNDATASIZE PUSH2 0x966 JUMP JUMPDEST PUSH1 0x40 MLOAD RETURNDATASIZE DUP14 DUP3 RETURNDATACOPY RETURNDATASIZE SWAP1 REVERT JUMPDEST DUP2 PUSH2 0x99B SWAP2 PUSH2 0x2560 JUMP JUMPDEST PUSH2 0x9A6 JUMPI DUP10 PUSH0 PUSH2 0x856 JUMP JUMPDEST DUP10 DUP1 REVERT JUMPDEST PUSH1 0x40 MLOAD RETURNDATASIZE DUP5 DUP3 RETURNDATACOPY RETURNDATASIZE SWAP1 REVERT JUMPDEST DUP3 DUP1 REVERT JUMPDEST PUSH1 0x1 PUSH1 0x1 PUSH1 0xA0 SHL SUB PUSH1 0x3 SLOAD AND DUP1 EXTCODESIZE ISZERO PUSH2 0x9B5 JUMPI DUP3 DUP1 SWAP2 PUSH1 0x24 DUP14 PUSH1 0x40 MLOAD SWAP5 DUP6 SWAP4 DUP5 SWAP3 PUSH4 0x5543F85 PUSH1 0xE0 SHL DUP5 MSTORE PUSH1 0x4 DUP5 ADD MSTORE GAS CALL SWAP1 DUP2 ISZERO PUSH2 0xA15 JUMPI DUP4 SWAP2 PUSH2 0xA00 JUMPI JUMPDEST POP POP PUSH2 0x780 JUMP JUMPDEST DUP2 PUSH2 0xA0A SWAP2 PUSH2 0x2560 JUMP JUMPDEST PUSH2 0x123 JUMPI DUP2 PUSH0 PUSH2 0x9F9 JUMP JUMPDEST PUSH1 0x40 MLOAD RETURNDATASIZE DUP6 DUP3 RETURNDATACOPY RETURNDATASIZE SWAP1 REVERT JUMPDEST DUP2 PUSH2 0xA2A SWAP2 PUSH2 0x2560 JUMP JUMPDEST PUSH2 0x9B5 JUMPI DUP3 PUSH0 PUSH2 0x779 JUMP JUMPDEST PUSH1 0x40 MLOAD RETURNDATASIZE DUP7 DUP3 RETURNDATACOPY RETURNDATASIZE SWAP1 REVERT JUMPDEST DUP6 DUP1 REVERT JUMPDEST DUP5 PUSH2 0x732 JUMP JUMPDEST SWAP1 SWAP7 POP PUSH2 0xA70 SWAP2 SWAP8 POP PUSH1 0x40 RETURNDATASIZE PUSH1 0x40 GT PUSH2 0xA7A JUMPI JUMPDEST PUSH2 0xA68 DUP2 DUP4 PUSH2 0x2560 JUMP JUMPDEST DUP2 ADD SWAP1 PUSH2 0x270E JUMP JUMPDEST SWAP7 SWAP1 SWAP7 SWAP6 PUSH0 PUSH2 0x6FB JUMP JUMPDEST POP RETURNDATASIZE PUSH2 0xA5E JUMP JUMPDEST DUP2 PUSH2 0xA8B SWAP2 PUSH2 0x2560 JUMP JUMPDEST PUSH2 0x123 JUMPI DUP2 PUSH0 PUSH2 0x668 JUMP JUMPDEST DUP4 DUP1 REVERT JUMPDEST DUP2 PUSH2 0xAA4 SWAP2 PUSH2 0x2560 JUMP JUMPDEST PUSH2 0x123 JUMPI DUP2 PUSH0 PUSH2 0x5AF JUMP JUMPDEST SWAP1 POP PUSH1 0x20 DUP2 RETURNDATASIZE PUSH1 0x20 GT PUSH2 0xAE1 JUMPI JUMPDEST DUP2 PUSH2 0xACA PUSH1 0x20 SWAP4 DUP4 PUSH2 0x2560 JUMP JUMPDEST DUP2 ADD SUB SLT PUSH2 0x9B5 JUMPI PUSH2 0xADB SWAP1 PUSH2 0x26D8 JUMP JUMPDEST PUSH0 PUSH2 0x572 JUMP JUMPDEST RETURNDATASIZE SWAP2 POP PUSH2 0xABD JUMP JUMPDEST SWAP1 POP PUSH2 0xB0E SWAP2 SWAP6 POP PUSH1 0x40 RETURNDATASIZE PUSH1 0x40 GT PUSH2 0xB17 JUMPI JUMPDEST PUSH2 0xB06 DUP2 DUP4 PUSH2 0x2560 JUMP JUMPDEST DUP2 ADD SWAP1 PUSH2 0x276B JUMP JUMPDEST SWAP5 SWAP1 SWAP5 PUSH0 PUSH2 0x530 JUMP JUMPDEST POP RETURNDATASIZE PUSH2 0xAFC JUMP JUMPDEST POP PUSH1 0x40 MLOAD SWAP1 RETURNDATASIZE SWAP1 DUP3 RETURNDATACOPY RETURNDATASIZE SWAP1 REVERT JUMPDEST SWAP4 POP SWAP7 POP PUSH1 0x20 DUP4 RETURNDATASIZE PUSH1 0x20 GT PUSH2 0xB5E JUMPI JUMPDEST DUP2 PUSH2 0xB48 PUSH1 0x20 SWAP4 DUP4 PUSH2 0x2560 JUMP JUMPDEST DUP2 ADD SUB SLT PUSH2 0xB5A JUMPI DUP9 SWAP3 MLOAD SWAP7 PUSH0 PUSH2 0x4EC JUMP JUMPDEST PUSH0 DUP1 REVERT JUMPDEST RETURNDATASIZE SWAP2 POP PUSH2 0xB3B JUMP JUMPDEST DUP2 PUSH2 0xB70 SWAP2 PUSH2 0x2560 JUMP JUMPDEST PUSH2 0x9B5 JUMPI DUP3 PUSH0 PUSH2 0x40F JUMP JUMPDEST DUP3 MLOAD DUP5 MSTORE DUP15 SWAP9 POP PUSH1 0x20 SWAP4 DUP5 ADD SWAP4 SWAP1 SWAP3 ADD SWAP2 PUSH1 0x1 ADD PUSH2 0x3ED JUMP JUMPDEST DUP2 PUSH2 0xB9E SWAP2 PUSH2 0x2560 JUMP JUMPDEST PUSH2 0xBA9 JUMPI DUP8 PUSH0 PUSH2 0x386 JUMP JUMPDEST DUP8 DUP1 REVERT JUMPDEST DUP3 MLOAD PUSH1 0x1 PUSH1 0x1 PUSH1 0xA0 SHL SUB AND DUP5 MSTORE DUP14 SWAP6 POP PUSH1 0x20 SWAP4 DUP5 ADD SWAP4 SWAP1 SWAP3 ADD SWAP2 PUSH1 0x1 ADD PUSH2 0x368 JUMP JUMPDEST DUP9 DUP1 REVERT JUMPDEST DUP2 PUSH2 0xBDD SWAP2 PUSH2 0x2560 JUMP JUMPDEST PUSH2 0xBA9 JUMPI DUP8 PUSH0 PUSH2 0x319 JUMP JUMPDEST DUP7 DUP1 REVERT JUMPDEST DUP2 CALLDATALOAD DUP2 MSTORE PUSH1 0x20 SWAP2 DUP3 ADD SWAP2 ADD PUSH2 0x24D JUMP JUMPDEST DUP5 DUP1 REVERT JUMPDEST PUSH1 0x20 DUP1 SWAP2 PUSH2 0xC0D DUP5 PUSH2 0x2582 JUMP JUMPDEST DUP2 MSTORE ADD SWAP2 ADD SWAP1 PUSH2 0x1D0 JUMP JUMPDEST PUSH1 0x24 DUP5 PUSH4 0x4E487B71 PUSH1 0xE0 SHL DUP2 MSTORE PUSH1 0x41 PUSH1 0x4 MSTORE REVERT JUMPDEST POP CALLVALUE PUSH2 0x125 JUMPI DUP1 PUSH1 0x3 NOT CALLDATASIZE ADD SLT PUSH2 0x125 JUMPI PUSH1 0x1 PUSH1 0x1 PUSH1 0xA0 SHL SUB PUSH1 0x20 SWAP2 SLOAD AND PUSH1 0x40 MLOAD SWAP1 DUP2 MSTORE RETURN JUMPDEST POP CALLVALUE PUSH2 0x125 JUMPI DUP1 PUSH1 0x3 NOT CALLDATASIZE ADD SLT PUSH2 0x125 JUMPI PUSH2 0xC6B PUSH2 0x2B58 JUMP JUMPDEST DUP1 PUSH1 0x1 PUSH1 0x1 PUSH1 0xA0 SHL SUB DUP2 SLOAD PUSH20 0xFFFFFFFFFFFFFFFFFFFFFFFFFFFFFFFFFFFFFFFF NOT DUP2 AND DUP4 SSTORE AND PUSH32 0x8BE0079C531659141344CD1FD0A4F28419497F9722A3DAAFE3B4186F6B6457E0 DUP3 DUP1 LOG3 DUP1 RETURN JUMPDEST POP PUSH1 0x20 CALLDATASIZE PUSH1 0x3 NOT ADD SLT PUSH2 0x125 JUMPI DUP1 PUSH2 0xCCF CALLDATASIZE PUSH2 0x2648 JUMP JUMPDEST PUSH1 0x4 DUP1 SLOAD DUP3 MLOAD PUSH1 0x40 MLOAD PUSH4 0x16C93723 PUSH1 0xE1 SHL DUP2 MSTORE SWAP3 DUP4 ADD MSTORE CALLER PUSH1 0x24 DUP4 ADD MSTORE SWAP1 SWAP3 PUSH1 0x60 SWAP2 DUP5 SWAP2 PUSH1 0x44 SWAP2 DUP4 SWAP2 SWAP1 PUSH1 0x1 PUSH1 0x1 PUSH1 0xA0 SHL SUB AND GAS CALL SWAP1 DUP2 ISZERO PUSH2 0xA15 JUMPI DUP4 SWAP1 DUP5 SWAP4 DUP6 SWAP4 PUSH2 0x13CF JUMPI JUMPDEST POP PUSH1 0x1 PUSH1 0x1 PUSH1 0xA0 SHL SUB PUSH1 0x4 SLOAD AND SWAP3 DUP6 DUP3 MLOAD PUSH1 0x24 PUSH1 0x40 MLOAD DUP1 SWAP8 DUP2 SWAP4 PUSH4 0x255709E5 PUSH1 0xE1 SHL DUP4 MSTORE PUSH1 0x4 DUP4 ADD MSTORE GAS STATICCALL SWAP4 DUP5 ISZERO PUSH2 0x13C4 JUMPI DUP7 SWAP5 PUSH2 0x1274 JUMPI JUMPDEST POP PUSH1 0x1 PUSH1 0x1 PUSH1 0xA0 SHL SUB PUSH1 0x1 SLOAD AND PUSH1 0x20 DUP6 ADD SWAP4 PUSH1 0x20 PUSH1 0x1 PUSH1 0x1 PUSH1 0xA0 SHL SUB DUP7 MLOAD AND PUSH1 0x24 PUSH1 0x40 MLOAD DUP1 SWAP6 DUP2 SWAP4 PUSH4 0x4D0A647 PUSH1 0xE0 SHL DUP4 MSTORE PUSH1 0x4 DUP4 ADD MSTORE GAS STATICCALL SWAP2 DUP3 ISZERO PUSH2 0x1269 JUMPI DUP9 SWAP3 PUSH2 0x122D JUMPI JUMPDEST POP DUP8 PUSH20 0x0 SWAP3 DUP4 EXTCODESIZE ISZERO PUSH2 0x123 JUMPI DUP2 PUSH1 0x1 PUSH1 0x1 PUSH1 0xA0 SHL SUB SWAP2 PUSH1 0x24 PUSH1 0x40 MLOAD DUP1 SWAP5 DUP2 SWAP4 PUSH4 0xBF6341CF PUSH1 0xE0 SHL DUP4 MSTORE AND SWAP8 DUP9 PUSH1 0x4 DUP4 ADD MSTORE GAS DELEGATECALL DUP1 ISZERO PUSH2 0x9AA JUMPI PUSH2 0x1218 JUMPI JUMPDEST POP PUSH1 0x1 PUSH1 0x1 PUSH1 0xA0 SHL SUB DUP1 DUP8 MLOAD AND SWAP9 PUSH1 0x40 MLOAD SWAP10 PUSH2 0xE02 DUP12 PUSH2 0x24DC JUMP JUMPDEST DUP11 MSTORE CALLER PUSH1 0x20 DUP12 ADD MSTORE AND SWAP8 DUP9 PUSH1 0x40 DUP3 ADD MSTORE DUP3 PUSH1 0x60 DUP3 ADD MSTORE PUSH1 0x1 PUSH1 0x1 PUSH1 0xA0 SHL SUB PUSH1 0x2 SLOAD AND SWAP1 DUP2 EXTCODESIZE ISZERO PUSH2 0x9B5 JUMPI PUSH2 0xE89 PUSH1 0x84 DUP5 SWAP3 DUP4 PUSH1 0x40 MLOAD SWAP6 DUP7 SWAP5 DUP6 SWAP4 PUSH4 0x577ED67F PUSH1 0xE1 SHL DUP6 MSTORE PUSH1 0x4 DUP6 ADD SWAP1 PUSH1 0x60 DUP1 SWAP2 PUSH1 0x1 PUSH1 0x1 PUSH1 0xA0 SHL SUB DUP2 MLOAD AND DUP5 MSTORE PUSH1 0x1 PUSH1 0x1 PUSH1 0xA0 SHL SUB PUSH1 0x20 DUP3 ADD MLOAD AND PUSH1 0x20 DUP6 ADD MSTORE PUSH1 0x1 PUSH1 0x1 PUSH1 0xA0 SHL SUB PUSH1 0x40 DUP3 ADD MLOAD AND PUSH1 0x40 DUP6 ADD MSTORE ADD MLOAD SWAP2 ADD MSTORE JUMP JUMPDEST GAS CALL DUP1 ISZERO PUSH2 0x9AA JUMPI PUSH2 0x1203 JUMPI JUMPDEST POP POP PUSH1 0x1 PUSH1 0x1 PUSH1 0xA0 SHL SUB DUP6 MLOAD AND SWAP1 PUSH1 0x40 MLOAD SWAP2 PUSH2 0xEB1 DUP4 PUSH2 0x24DC JUMP JUMPDEST DUP3 MSTORE CALLER PUSH1 0x20 DUP4 ADD SWAP1 DUP2 MSTORE PUSH1 0x40 DUP1 DUP5 ADD DUP11 DUP2 MSTORE PUSH1 0x60 DUP6 ADD DUP5 DUP2 MSTORE PUSH1 0x2 SLOAD DUP4 MLOAD PUSH4 0x716FA03 PUSH1 0xE3 SHL DUP2 MSTORE SWAP7 MLOAD PUSH1 0x1 PUSH1 0x1 PUSH1 0xA0 SHL SUB SWAP1 DUP2 AND PUSH1 0x4 DUP10 ADD MSTORE SWAP5 MLOAD DUP6 AND PUSH1 0x24 DUP9 ADD MSTORE SWAP2 MLOAD DUP5 AND PUSH1 0x44 DUP8 ADD MSTORE MLOAD PUSH1 0x64 DUP7 ADD MSTORE DUP12 SWAP3 DUP6 SWAP2 PUSH1 0x84 SWAP2 DUP4 SWAP2 AND GAS STATICCALL SWAP4 DUP5 ISZERO PUSH2 0xB1E JUMPI DUP2 SWAP4 DUP3 SWAP6 PUSH2 0x11DC JUMPI JUMPDEST POP PUSH1 0x40 MLOAD SWAP4 PUSH2 0xF2D DUP6 PUSH2 0x250C JUMP JUMPDEST PUSH2 0xF4F PUSH1 0x1 PUSH1 0x1 PUSH1 0xA0 SHL SUB DUP3 AND SWAP6 DUP7 DUP2 MSTORE DUP8 PUSH1 0x20 DUP3 ADD MSTORE DUP4 PUSH1 0x40 DUP3 ADD MSTORE PUSH2 0x2964 JUMP JUMPDEST DUP5 PUSH2 0x11D6 JUMPI DUP6 JUMPDEST DUP3 EXTCODESIZE ISZERO PUSH2 0xA96 JUMPI PUSH1 0x40 MLOAD PUSH4 0x11F9FBC9 PUSH1 0xE2 SHL DUP2 MSTORE PUSH1 0x1 PUSH1 0x1 PUSH1 0xA0 SHL SUB SWAP3 SWAP1 SWAP3 AND PUSH1 0x4 DUP4 ADD MSTORE PUSH1 0x24 DUP3 ADD DUP8 SWAP1 MSTORE SWAP1 SWAP2 DUP4 SWAP2 DUP4 SWAP2 PUSH1 0x44 SWAP2 DUP4 SWAP2 GAS CALL DUP1 ISZERO PUSH2 0x9AA JUMPI PUSH2 0x11C1 JUMPI JUMPDEST POP PUSH1 0x1 PUSH1 0x1 PUSH1 0xA0 SHL SUB PUSH1 0x4 SLOAD AND DUP7 MLOAD DUP2 EXTCODESIZE ISZERO PUSH2 0x9B5 JUMPI DUP3 SWAP2 PUSH1 0x44 DUP4 SWAP3 PUSH1 0x40 MLOAD SWAP5 DUP6 SWAP4 DUP5 SWAP3 PUSH4 0xB38FFD5F PUSH1 0xE0 SHL DUP5 MSTORE PUSH1 0x4 DUP5 ADD MSTORE DUP9 PUSH1 0x24 DUP5 ADD MSTORE GAS CALL DUP1 ISZERO PUSH2 0x9AA JUMPI PUSH2 0x11AC JUMPI JUMPDEST POP PUSH1 0x1 PUSH1 0x1 PUSH1 0xA0 SHL SUB DUP8 MLOAD AND DUP7 MLOAD PUSH1 0x40 MLOAD SWAP2 PUSH2 0xFFB DUP4 PUSH2 0x2528 JUMP JUMPDEST DUP3 MSTORE PUSH1 0x20 DUP3 ADD MSTORE CALLER PUSH1 0x40 DUP3 ADD MSTORE DUP10 PUSH1 0x60 DUP3 ADD MSTORE DUP3 PUSH1 0x80 DUP3 ADD MSTORE DUP4 PUSH1 0xA0 DUP3 ADD MSTORE DUP5 PUSH1 0xC0 DUP3 ADD MSTORE PUSH1 0x1 PUSH1 0x1 PUSH1 0xA0 SHL SUB PUSH1 0x2 SLOAD AND DUP1 EXTCODESIZE ISZERO PUSH2 0x9B5 JUMPI PUSH1 0x40 DUP1 MLOAD PUSH4 0x2B54892B PUSH1 0xE0 SHL DUP2 MSTORE DUP4 MLOAD PUSH1 0x1 PUSH1 0x1 PUSH1 0xA0 SHL SUB SWAP1 DUP2 AND PUSH1 0x4 DUP4 ADD MSTORE PUSH1 0x20 DUP6 ADD MLOAD PUSH1 0x24 DUP4 ADD MSTORE SWAP2 DUP5 ADD MLOAD DUP3 AND PUSH1 0x44 DUP3 ADD MSTORE PUSH1 0x60 DUP5 ADD MLOAD DUP3 AND PUSH1 0x64 DUP3 ADD MSTORE PUSH1 0x80 DUP5 ADD MLOAD PUSH1 0x84 DUP3 ADD MSTORE PUSH1 0xA0 DUP5 ADD MLOAD SWAP1 SWAP2 AND PUSH1 0xA4 DUP3 ADD MSTORE PUSH1 0xC0 SWAP1 SWAP3 ADD MLOAD PUSH1 0xC4 DUP4 ADD MSTORE DUP3 SWAP1 DUP3 SWAP1 PUSH1 0xE4 SWAP1 DUP3 SWAP1 DUP5 SWAP1 GAS CALL DUP1 ISZERO PUSH2 0x9AA JUMPI PUSH2 0x1197 JUMPI JUMPDEST POP POP PUSH1 0x40 PUSH1 0x1 PUSH1 0x1 PUSH1 0xA0 SHL SUB PUSH1 0x24 SWAP7 MLOAD SWAP8 MLOAD AND SWAP8 ADD MLOAD SWAP8 PUSH1 0x20 PUSH1 0x1 PUSH1 0x1 PUSH1 0xA0 SHL SUB PUSH1 0x4 SLOAD AND PUSH1 0x40 MLOAD SWAP8 DUP9 DUP1 SWAP3 PUSH4 0x2EF1457 PUSH1 0xE5 SHL DUP3 MSTORE DUP12 PUSH1 0x4 DUP4 ADD MSTORE GAS STATICCALL SWAP5 DUP6 ISZERO PUSH2 0x118C JUMPI PUSH32 0x5EE194C82E2134EBF127F5C6ABCD33122804C95EB8F2E9AC42AFBB1C4F806799 SWAP10 PUSH2 0x160 SWAP10 PUSH2 0x1167 SWAP9 DUP14 SWAP9 PUSH2 0x116B JUMPI JUMPDEST POP PUSH1 0x40 MLOAD SWAP10 DUP11 MSTORE CALLER PUSH1 0x20 DUP12 ADD MSTORE PUSH1 0x40 DUP11 ADD MSTORE PUSH1 0x60 DUP10 ADD MSTORE PUSH1 0x80 DUP9 ADD MSTORE PUSH1 0xA0 DUP8 ADD MSTORE PUSH1 0xC0 DUP7 ADD MSTORE PUSH1 0xE0 DUP6 ADD MSTORE PUSH2 0x100 DUP5 ADD MSTORE TIMESTAMP PUSH2 0x120 DUP5 ADD MSTORE PUSH2 0x140 DUP4 ADD SWAP1 PUSH2 0x273D JUMP JUMPDEST LOG1 DUP1 RETURN JUMPDEST PUSH2 0x1185 SWAP2 SWAP9 POP PUSH1 0x20 RETURNDATASIZE PUSH1 0x20 GT PUSH2 0x97F JUMPI PUSH2 0x970 DUP2 DUP4 PUSH2 0x2560 JUMP JUMPDEST SWAP7 PUSH0 PUSH2 0x1124 JUMP JUMPDEST PUSH1 0x40 MLOAD RETURNDATASIZE DUP13 DUP3 RETURNDATACOPY RETURNDATASIZE SWAP1 REVERT JUMPDEST DUP2 PUSH2 0x11A1 SWAP2 PUSH2 0x2560 JUMP JUMPDEST PUSH2 0xBCF JUMPI DUP9 PUSH0 PUSH2 0x10AE JUMP JUMPDEST DUP2 PUSH2 0x11B6 SWAP2 PUSH2 0x2560 JUMP JUMPDEST PUSH2 0xBCF JUMPI DUP9 PUSH0 PUSH2 0xFE0 JUMP JUMPDEST DUP2 PUSH2 0x11CB SWAP2 PUSH2 0x2560 JUMP JUMPDEST PUSH2 0xBCF JUMPI DUP9 PUSH0 PUSH2 0xF9A JUMP JUMPDEST DUP3 PUSH2 0xF56 JUMP JUMPDEST SWAP1 SWAP5 POP PUSH2 0x11F9 SWAP2 SWAP4 POP PUSH1 0x40 RETURNDATASIZE PUSH1 0x40 GT PUSH2 0xA7A JUMPI PUSH2 0xA68 DUP2 DUP4 PUSH2 0x2560 JUMP JUMPDEST SWAP3 SWAP1 SWAP3 SWAP4 PUSH0 PUSH2 0xF1F JUMP JUMPDEST DUP2 PUSH2 0x120D SWAP2 PUSH2 0x2560 JUMP JUMPDEST PUSH2 0xBA9 JUMPI DUP8 PUSH0 PUSH2 0xE96 JUMP JUMPDEST DUP2 PUSH2 0x1222 SWAP2 PUSH2 0x2560 JUMP JUMPDEST PUSH2 0xBA9 JUMPI DUP8 PUSH0 PUSH2 0xDE7 JUMP JUMPDEST SWAP1 SWAP2 POP PUSH1 0x20 DUP2 RETURNDATASIZE PUSH1 0x20 GT PUSH2 0x1261 JUMPI JUMPDEST DUP2 PUSH2 0x1249 PUSH1 0x20 SWAP4 DUP4 PUSH2 0x2560 JUMP JUMPDEST DUP2 ADD SUB SLT PUSH2 0xBA9 JUMPI PUSH2 0x125A SWAP1 PUSH2 0x26D8 JUMP JUMPDEST SWAP1 PUSH0 PUSH2 0xD96 JUMP JUMPDEST RETURNDATASIZE SWAP2 POP PUSH2 0x123C JUMP JUMPDEST PUSH1 0x40 MLOAD RETURNDATASIZE DUP11 DUP3 RETURNDATACOPY RETURNDATASIZE SWAP1 REVERT JUMPDEST SWAP1 SWAP4 POP RETURNDATASIZE DUP1 DUP8 DUP4 RETURNDATACOPY PUSH2 0x1286 DUP2 DUP4 PUSH2 0x2560 JUMP JUMPDEST DUP2 ADD SWAP1 PUSH1 0x20 DUP2 DUP4 SUB SLT PUSH2 0xBE8 JUMPI DUP1 MLOAD SWAP1 PUSH8 0xFFFFFFFFFFFFFFFF DUP3 GT PUSH2 0xBA9 JUMPI ADD SWAP1 PUSH2 0x120 DUP3 DUP3 SUB SLT PUSH2 0xBE8 JUMPI PUSH1 0x40 MLOAD SWAP2 PUSH2 0x120 DUP4 ADD DUP4 DUP2 LT PUSH8 0xFFFFFFFFFFFFFFFF DUP3 GT OR PUSH2 0x13B0 JUMPI PUSH1 0x40 MSTORE PUSH2 0x12DA DUP2 PUSH2 0x26D8 JUMP JUMPDEST DUP4 MSTORE PUSH2 0x12E8 PUSH1 0x20 DUP3 ADD PUSH2 0x26D8 JUMP JUMPDEST PUSH1 0x20 DUP5 ADD MSTORE PUSH1 0x40 DUP2 ADD MLOAD PUSH1 0x40 DUP5 ADD MSTORE PUSH1 0x60 DUP2 ADD MLOAD PUSH8 0xFFFFFFFFFFFFFFFF DUP2 GT PUSH2 0xBCF JUMPI DUP3 PUSH2 0x1317 SWAP2 DUP4 ADD PUSH2 0x27DF JUMP JUMPDEST PUSH1 0x60 DUP5 ADD MSTORE PUSH1 0x80 DUP2 ADD MLOAD PUSH8 0xFFFFFFFFFFFFFFFF DUP2 GT PUSH2 0xBCF JUMPI DUP3 PUSH2 0x133C SWAP2 DUP4 ADD PUSH2 0x2782 JUMP JUMPDEST PUSH1 0x80 DUP5 ADD MSTORE PUSH1 0xA0 DUP2 ADD MLOAD PUSH8 0xFFFFFFFFFFFFFFFF DUP2 GT PUSH2 0xBCF JUMPI DUP3 PUSH2 0x1361 SWAP2 DUP4 ADD PUSH2 0x2782 JUMP JUMPDEST PUSH1 0xA0 DUP5 ADD MSTORE PUSH1 0xC0 DUP2 ADD MLOAD PUSH1 0xC0 DUP5 ADD MSTORE PUSH1 0xE0 DUP2 ADD MLOAD PUSH8 0xFFFFFFFFFFFFFFFF DUP2 GT PUSH2 0xBCF JUMPI PUSH2 0x100 SWAP3 PUSH2 0x1393 SWAP2 DUP4 ADD PUSH2 0x2825 JUMP JUMPDEST PUSH1 0xE0 DUP5 ADD MSTORE ADD MLOAD PUSH1 0x4 DUP2 LT ISZERO PUSH2 0xBE8 JUMPI PUSH2 0x100 DUP3 ADD MSTORE SWAP3 PUSH0 PUSH2 0xD4F JUMP JUMPDEST PUSH1 0x24 DUP10 PUSH4 0x4E487B71 PUSH1 0xE0 SHL DUP2 MSTORE PUSH1 0x41 PUSH1 0x4 MSTORE REVERT JUMPDEST PUSH1 0x40 MLOAD RETURNDATASIZE DUP9 DUP3 RETURNDATACOPY RETURNDATASIZE SWAP1 REVERT JUMPDEST SWAP2 POP SWAP3 POP PUSH2 0x13F5 SWAP2 POP PUSH1 0x60 RETURNDATASIZE PUSH1 0x60 GT PUSH2 0x1400 JUMPI JUMPDEST PUSH2 0x13ED DUP2 DUP4 PUSH2 0x2560 JUMP JUMPDEST DUP2 ADD SWAP1 PUSH2 0x26EC JUMP JUMPDEST SWAP3 SWAP2 SWAP1 SWAP3 SWAP2 PUSH0 PUSH2 0xD16 JUMP JUMPDEST POP RETURNDATASIZE PUSH2 0x13E3 JUMP JUMPDEST POP CALLVALUE PUSH2 0x125 JUMPI PUSH1 0x20 CALLDATASIZE PUSH1 0x3 NOT ADD SLT PUSH2 0x125 JUMPI PUSH2 0x1422 CALLDATASIZE PUSH2 0x2648 JUMP JUMPDEST DUP2 PUSH1 0x1 PUSH1 0x1 PUSH1 0xA0 SHL SUB PUSH1 0x4 SLOAD AND DUP3 MLOAD DUP2 EXTCODESIZE ISZERO PUSH2 0x9B5 JUMPI DUP3 SWAP2 PUSH1 0x44 DUP4 SWAP3 PUSH1 0x40 MLOAD SWAP5 DUP6 SWAP4 DUP5 SWAP3 PUSH32 0x3ED5027500000000000000000000000000000000000000000000000000000000 DUP5 MSTORE CALLER PUSH1 0x4 DUP6 ADD MSTORE PUSH1 0x24 DUP5 ADD MSTORE GAS CALL DUP1 ISZERO PUSH2 0x9AA JUMPI PUSH2 0x14B1 JUMPI JUMPDEST POP PUSH32 0xC3C75C4774EDD09C7FDD8BAE55BAB418801F3E47DA88ADEF31BB59B7B70AEB26 PUSH1 0x20 DUP4 MLOAD PUSH1 0x40 MLOAD SWAP1 DUP2 MSTORE LOG1 DUP1 RETURN JUMPDEST DUP2 PUSH2 0x14BB SWAP2 PUSH2 0x2560 JUMP JUMPDEST PUSH2 0x123 JUMPI DUP2 PUSH0 PUSH2 0x1481 JUMP JUMPDEST POP PUSH1 0x20 CALLDATASIZE PUSH1 0x3 NOT ADD SLT PUSH2 0x125 JUMPI DUP1 PUSH2 0x14DD CALLDATASIZE PUSH2 0x2648 JUMP JUMPDEST PUSH1 0x40 PUSH2 0x1523 PUSH1 0x1 PUSH1 0x1 PUSH1 0xA0 SHL SUB PUSH1 0x3 SLOAD AND DUP4 MLOAD DUP4 MLOAD SWAP6 DUP7 DUP1 SWAP5 DUP2 SWAP4 PUSH4 0x16C93723 PUSH1 0xE1 SHL DUP4 MSTORE CALLER SWAP1 PUSH1 0x4 DUP5 ADD SWAP1 SWAP3 SWAP2 PUSH1 0x1 PUSH1 0x1 PUSH1 0xA0 SHL SUB PUSH1 0x20 SWAP2 PUSH1 0x40 DUP5 ADD SWAP6 DUP5 MSTORE AND SWAP2 ADD MSTORE JUMP JUMPDEST SUB SWAP3 GAS CALL DUP1 ISZERO PUSH2 0xA15 JUMPI DUP4 SWAP3 DUP5 SWAP2 PUSH2 0x1CFC JUMPI JUMPDEST POP PUSH1 0x1 PUSH1 0x1 PUSH1 0xA0 SHL SUB PUSH1 0x3 SLOAD AND SWAP2 DUP5 DUP2 MLOAD PUSH1 0x24 PUSH1 0x40 MLOAD DUP1 SWAP7 DUP2 SWAP4 PUSH4 0x255709E5 PUSH1 0xE1 SHL DUP4 MSTORE PUSH1 0x4 DUP4 ADD MSTORE GAS STATICCALL SWAP3 DUP4 ISZERO PUSH2 0x1CF1 JUMPI DUP6 SWAP4 PUSH2 0x1AA2 JUMPI JUMPDEST POP PUSH1 0x1 PUSH1 0x1 PUSH1 0xA0 SHL SUB PUSH1 0x1 SLOAD AND SWAP2 PUSH1 0x40 DUP5 ADD SWAP3 PUSH1 0x20 PUSH1 0x1 PUSH1 0x1 PUSH1 0xA0 SHL SUB DUP6 MLOAD AND PUSH1 0x24 PUSH1 0x40 MLOAD DUP1 SWAP5 DUP2 SWAP4 PUSH4 0x4D0A647 PUSH1 0xE0 SHL DUP4 MSTORE PUSH1 0x4 DUP4 ADD MSTORE GAS STATICCALL SWAP1 DUP2 ISZERO PUSH2 0x1A97 JUMPI DUP8 SWAP2 PUSH2 0x1A5D JUMPI JUMPDEST POP DUP7 PUSH20 0x0 SWAP2 DUP3 EXTCODESIZE ISZERO PUSH2 0x123 JUMPI DUP2 PUSH1 0x1 PUSH1 0x1 PUSH1 0xA0 SHL SUB SWAP2 PUSH1 0x24 PUSH1 0x40 MLOAD DUP1 SWAP5 DUP2 SWAP4 PUSH4 0xBF6341CF PUSH1 0xE0 SHL DUP4 MSTORE AND SWAP7 DUP8 PUSH1 0x4 DUP4 ADD MSTORE GAS DELEGATECALL DUP1 ISZERO PUSH2 0x9AA JUMPI PUSH2 0x1A48 JUMPI JUMPDEST POP PUSH1 0xA0 PUSH1 0x1 PUSH1 0x1 PUSH1 0xA0 SHL SUB DUP7 MLOAD AND SWAP7 ADD SWAP6 PUSH1 0x1 PUSH1 0x1 PUSH1 0xA0 SHL SUB DUP8 MLOAD AND PUSH1 0x40 MLOAD SWAP2 PUSH2 0x1631 DUP4 PUSH2 0x24DC JUMP JUMPDEST DUP3 MSTORE CALLER PUSH1 0x20 DUP4 ADD MSTORE PUSH1 0x40 DUP3 ADD MSTORE DUP4 PUSH1 0x60 DUP3 ADD MSTORE PUSH1 0x1 PUSH1 0x1 PUSH1 0xA0 SHL SUB PUSH1 0x2 SLOAD AND SWAP1 DUP2 EXTCODESIZE ISZERO PUSH2 0x9B5 JUMPI PUSH2 0x16B5 PUSH1 0x84 DUP5 SWAP3 DUP4 PUSH1 0x40 MLOAD SWAP6 DUP7 SWAP5 DUP6 SWAP4 PUSH4 0x577ED67F PUSH1 0xE1 SHL DUP6 MSTORE PUSH1 0x4 DUP6 ADD SWAP1 PUSH1 0x60 DUP1 SWAP2 PUSH1 0x1 PUSH1 0x1 PUSH1 0xA0 SHL SUB DUP2 MLOAD AND DUP5 MSTORE PUSH1 0x1 PUSH1 0x1 PUSH1 0xA0 SHL SUB PUSH1 0x20 DUP3 ADD MLOAD AND PUSH1 0x20 DUP6 ADD MSTORE PUSH1 0x1 PUSH1 0x1 PUSH1 0xA0 SHL SUB PUSH1 0x40 DUP3 ADD MLOAD AND PUSH1 0x40 DUP6 ADD MSTORE ADD MLOAD SWAP2 ADD MSTORE JUMP JUMPDEST GAS CALL DUP1 ISZERO PUSH2 0x9AA JUMPI PUSH2 0x1A33 JUMPI JUMPDEST POP POP PUSH1 0x1 PUSH1 0x1 PUSH1 0xA0 SHL SUB DUP5 MLOAD AND SWAP6 PUSH1 0x1 PUSH1 0x1 PUSH1 0xA0 SHL SUB DUP7 MLOAD AND PUSH1 0x40 MLOAD SWAP8 PUSH2 0x16E8 DUP10 PUSH2 0x24DC JUMP JUMPDEST DUP9 MSTORE CALLER PUSH1 0x20 DUP10 ADD SWAP1 DUP2 MSTORE PUSH1 0x40 DUP1 DUP11 ADD SWAP3 DUP4 MSTORE PUSH1 0x60 DUP11 ADD DUP7 DUP2 MSTORE PUSH1 0x2 SLOAD DUP3 MLOAD PUSH4 0x716FA03 PUSH1 0xE3 SHL DUP2 MSTORE SWAP12 MLOAD PUSH1 0x1 PUSH1 0x1 PUSH1 0xA0 SHL SUB SWAP1 DUP2 AND PUSH1 0x4 DUP15 ADD MSTORE SWAP4 MLOAD DUP5 AND PUSH1 0x24 DUP14 ADD MSTORE SWAP4 MLOAD DUP4 AND PUSH1 0x44 DUP13 ADD MSTORE MLOAD PUSH1 0x64 DUP12 ADD MSTORE DUP11 SWAP3 SWAP1 SWAP2 DUP11 SWAP2 PUSH1 0x84 SWAP2 DUP4 SWAP2 AND GAS STATICCALL SWAP3 DUP4 ISZERO PUSH2 0xB1E JUMPI DUP2 SWAP9 DUP3 SWAP5 PUSH2 0x1A0C JUMPI JUMPDEST POP PUSH1 0x40 MLOAD SWAP9 PUSH2 0x1766 DUP11 PUSH2 0x250C JUMP JUMPDEST PUSH2 0x1788 PUSH1 0x1 PUSH1 0x1 PUSH1 0xA0 SHL SUB DUP3 AND SWAP11 DUP12 DUP2 MSTORE DUP7 PUSH1 0x20 DUP3 ADD MSTORE DUP4 PUSH1 0x40 DUP3 ADD MSTORE PUSH2 0x2964 JUMP JUMPDEST DUP10 PUSH2 0x1A06 JUMPI DUP5 JUMPDEST DUP3 EXTCODESIZE ISZERO PUSH2 0xA96 JUMPI PUSH1 0x40 MLOAD PUSH4 0x11F9FBC9 PUSH1 0xE2 SHL DUP2 MSTORE PUSH1 0x1 PUSH1 0x1 PUSH1 0xA0 SHL SUB SWAP3 SWAP1 SWAP3 AND PUSH1 0x4 DUP4 ADD MSTORE PUSH1 0x24 DUP3 ADD DUP7 SWAP1 MSTORE SWAP1 SWAP2 DUP4 SWAP2 DUP4 SWAP2 PUSH1 0x44 SWAP2 DUP4 SWAP2 GAS CALL DUP1 ISZERO PUSH2 0x9AA JUMPI PUSH2 0x19F1 JUMPI JUMPDEST POP POP PUSH2 0x1995 JUMPI JUMPDEST DUP7 PUSH1 0x1 PUSH1 0x1 PUSH1 0xA0 SHL SUB DUP6 MLOAD AND DUP5 MLOAD PUSH1 0x1 PUSH1 0x1 PUSH1 0xA0 SHL SUB DUP9 MLOAD AND SWAP1 PUSH1 0x40 MLOAD SWAP3 PUSH2 0x1801 DUP5 PUSH2 0x2528 JUMP JUMPDEST DUP4 MSTORE PUSH1 0x20 DUP4 ADD MSTORE CALLER PUSH1 0x40 DUP4 ADD MSTORE PUSH1 0x60 DUP3 ADD MSTORE DUP4 PUSH1 0x80 DUP3 ADD MSTORE DUP8 PUSH1 0xA0 DUP3 ADD MSTORE DUP3 PUSH1 0xC0 DUP3 ADD MSTORE PUSH1 0x1 PUSH1 0x1 PUSH1 0xA0 SHL SUB PUSH1 0x2 SLOAD AND DUP1 EXTCODESIZE ISZERO PUSH2 0x9B5 JUMPI PUSH1 0x40 DUP1 MLOAD PUSH4 0x2B54892B PUSH1 0xE0 SHL DUP2 MSTORE DUP4 MLOAD PUSH1 0x1 PUSH1 0x1 PUSH1 0xA0 SHL SUB SWAP1 DUP2 AND PUSH1 0x4 DUP4 ADD MSTORE PUSH1 0x20 DUP6 ADD MLOAD PUSH1 0x24 DUP4 ADD MSTORE SWAP2 DUP5 ADD MLOAD DUP3 AND PUSH1 0x44 DUP3 ADD MSTORE PUSH1 0x60 DUP5 ADD MLOAD DUP3 AND PUSH1 0x64 DUP3 ADD MSTORE PUSH1 0x80 DUP5 ADD MLOAD PUSH1 0x84 DUP3 ADD MSTORE PUSH1 0xA0 DUP5 ADD MLOAD SWAP1 SWAP2 AND PUSH1 0xA4 DUP3 ADD MSTORE PUSH1 0xC0 SWAP1 SWAP3 ADD MLOAD PUSH1 0xC4 DUP4 ADD MSTORE DUP3 SWAP1 DUP3 SWAP1 PUSH1 0xE4 SWAP1 DUP3 SWAP1 DUP5 SWAP1 GAS CALL DUP1 ISZERO PUSH2 0x9AA JUMPI PUSH2 0x1980 JUMPI JUMPDEST POP POP PUSH1 0x1 PUSH1 0x1 PUSH1 0xA0 SHL SUB DUP1 PUSH1 0x24 SWAP5 MLOAD SWAP6 MLOAD AND SWAP6 MLOAD AND SWAP6 PUSH1 0x20 PUSH1 0x1 PUSH1 0x1 PUSH1 0xA0 SHL SUB PUSH1 0x3 SLOAD AND PUSH1 0x40 MLOAD SWAP6 DUP7 DUP1 SWAP3 PUSH4 0x2EF1457 PUSH1 0xE5 SHL DUP3 MSTORE DUP10 PUSH1 0x4 DUP4 ADD MSTORE GAS STATICCALL SWAP3 DUP4 ISZERO PUSH2 0x1269 JUMPI PUSH32 0x3BE3E9461FAE0D01C4C50446B8EF7AA62BD38045D385B7FBB89D50A83CC75A80 SWAP8 PUSH2 0x120 SWAP8 PUSH2 0x1167 SWAP7 DUP12 SWAP7 PUSH2 0x195F JUMPI JUMPDEST POP PUSH1 0x40 MLOAD SWAP8 DUP9 MSTORE CALLER PUSH1 0x20 DUP10 ADD MSTORE PUSH1 0x40 DUP9 ADD MSTORE PUSH1 0x60 DUP8 ADD MSTORE PUSH1 0x80 DUP7 ADD MSTORE PUSH1 0xA0 DUP6 ADD MSTORE PUSH1 0xC0 DUP5 ADD MSTORE TIMESTAMP PUSH1 0xE0 DUP5 ADD MSTORE PUSH2 0x100 DUP4 ADD SWAP1 PUSH2 0x273D JUMP JUMPDEST PUSH2 0x1979 SWAP2 SWAP7 POP PUSH1 0x20 RETURNDATASIZE PUSH1 0x20 GT PUSH2 0x97F JUMPI PUSH2 0x970 DUP2 DUP4 PUSH2 0x2560 JUMP JUMPDEST SWAP5 PUSH0 PUSH2 0x1928 JUMP JUMPDEST DUP2 PUSH2 0x198A SWAP2 PUSH2 0x2560 JUMP JUMPDEST PUSH2 0xBE8 JUMPI DUP7 PUSH0 PUSH2 0x18B3 JUMP JUMPDEST DUP7 PUSH1 0x1 PUSH1 0x1 PUSH1 0xA0 SHL SUB PUSH1 0x3 SLOAD AND DUP5 MLOAD DUP2 EXTCODESIZE ISZERO PUSH2 0x9B5 JUMPI DUP3 SWAP2 PUSH1 0x24 DUP4 SWAP3 PUSH1 0x40 MLOAD SWAP5 DUP6 SWAP4 DUP5 SWAP3 PUSH4 0x5543F85 PUSH1 0xE0 SHL DUP5 MSTORE PUSH1 0x4 DUP5 ADD MSTORE GAS CALL DUP1 ISZERO PUSH2 0x9AA JUMPI PUSH2 0x19DC JUMPI JUMPDEST POP POP PUSH2 0x17DA JUMP JUMPDEST DUP2 PUSH2 0x19E6 SWAP2 PUSH2 0x2560 JUMP JUMPDEST PUSH2 0xBE8 JUMPI DUP7 PUSH0 PUSH2 0x19D5 JUMP JUMPDEST DUP2 PUSH2 0x19FB SWAP2 PUSH2 0x2560 JUMP JUMPDEST PUSH2 0xBA9 JUMPI DUP8 PUSH0 PUSH2 0x17D3 JUMP JUMPDEST DUP3 PUSH2 0x178F JUMP JUMPDEST SWAP1 SWAP4 POP PUSH2 0x1A29 SWAP2 SWAP9 POP PUSH1 0x40 RETURNDATASIZE PUSH1 0x40 GT PUSH2 0xA7A JUMPI PUSH2 0xA68 DUP2 DUP4 PUSH2 0x2560 JUMP JUMPDEST SWAP8 SWAP1 SWAP8 SWAP3 PUSH0 PUSH2 0x1758 JUMP JUMPDEST DUP2 PUSH2 0x1A3D SWAP2 PUSH2 0x2560 JUMP JUMPDEST PUSH2 0xBE8 JUMPI DUP7 PUSH0 PUSH2 0x16C2 JUMP JUMPDEST DUP2 PUSH2 0x1A52 SWAP2 PUSH2 0x2560 JUMP JUMPDEST PUSH2 0xBE8 JUMPI DUP7 PUSH0 PUSH2 0x1608 JUMP JUMPDEST SWAP1 POP PUSH1 0x20 DUP2 RETURNDATASIZE PUSH1 0x20 GT PUSH2 0x1A8F JUMPI JUMPDEST DUP2 PUSH2 0x1A78 PUSH1 0x20 SWAP4 DUP4 PUSH2 0x2560 JUMP JUMPDEST DUP2 ADD SUB SLT PUSH2 0xBE8 JUMPI PUSH2 0x1A89 SWAP1 PUSH2 0x26D8 JUMP JUMPDEST PUSH0 PUSH2 0x15B7 JUMP JUMPDEST RETURNDATASIZE SWAP2 POP PUSH2 0x1A6B JUMP JUMPDEST PUSH1 0x40 MLOAD RETURNDATASIZE DUP10 DUP3 RETURNDATACOPY RETURNDATASIZE SWAP1 REVERT JUMPDEST SWAP1 SWAP3 POP RETURNDATASIZE DUP1 DUP7 DUP4 RETURNDATACOPY PUSH2 0x1AB4 DUP2 DUP4 PUSH2 0x2560 JUMP JUMPDEST DUP2 ADD SWAP1 PUSH1 0x20 DUP2 DUP4 SUB SLT PUSH2 0xA40 JUMPI DUP1 MLOAD SWAP1 PUSH8 0xFFFFFFFFFFFFFFFF DUP3 GT PUSH2 0xBE8 JUMPI ADD SWAP1 PUSH2 0x140 DUP3 DUP3 SUB SLT PUSH2 0xA40 JUMPI PUSH1 0x40 MLOAD SWAP2 PUSH2 0x140 DUP4 ADD DUP4 DUP2 LT PUSH8 0xFFFFFFFFFFFFFFFF DUP3 GT OR PUSH2 0x1CDD JUMPI PUSH1 0x40 MSTORE PUSH2 0x1B08 DUP2 PUSH2 0x26D8 JUMP JUMPDEST DUP4 MSTORE PUSH1 0x20 DUP2 ADD MLOAD PUSH8 0xFFFFFFFFFFFFFFFF DUP2 GT PUSH2 0xBA9 JUMPI DUP2 ADD DUP3 PUSH1 0x1F DUP3 ADD SLT ISZERO PUSH2 0xBA9 JUMPI DUP1 MLOAD SWAP1 PUSH2 0x1B37 DUP3 PUSH2 0x2679 JUMP JUMPDEST SWAP2 PUSH2 0x1B45 PUSH1 0x40 MLOAD SWAP4 DUP5 PUSH2 0x2560 JUMP JUMPDEST DUP1 DUP4 MSTORE PUSH1 0x20 DUP1 DUP5 ADD SWAP2 PUSH1 0x5 SHL DUP4 ADD ADD SWAP2 DUP6 DUP4 GT PUSH2 0x1CC1 JUMPI PUSH1 0x20 ADD SWAP1 JUMPDEST DUP3 DUP3 LT PUSH2 0x1CC5 JUMPI POP POP POP PUSH1 0x20 DUP5 ADD MSTORE PUSH2 0x1B7C PUSH1 0x40 DUP3 ADD PUSH2 0x26D8 JUMP JUMPDEST PUSH1 0x40 DUP5 ADD MSTORE PUSH1 0x60 DUP2 ADD MLOAD PUSH8 0xFFFFFFFFFFFFFFFF DUP2 GT PUSH2 0xBA9 JUMPI DUP3 PUSH2 0x1BA1 SWAP2 DUP4 ADD PUSH2 0x2782 JUMP JUMPDEST PUSH1 0x60 DUP5 ADD MSTORE PUSH1 0x80 DUP2 ADD MLOAD PUSH8 0xFFFFFFFFFFFFFFFF DUP2 GT PUSH2 0xBA9 JUMPI DUP2 ADD DUP3 PUSH1 0x1F DUP3 ADD SLT ISZERO PUSH2 0xBA9 JUMPI DUP1 MLOAD SWAP1 PUSH2 0x1BD3 DUP3 PUSH2 0x2679 JUMP JUMPDEST SWAP2 PUSH2 0x1BE1 PUSH1 0x40 MLOAD SWAP4 DUP5 PUSH2 0x2560 JUMP JUMPDEST DUP1 DUP4 MSTORE PUSH1 0x20 DUP1 DUP5 ADD SWAP2 PUSH1 0x5 SHL DUP4 ADD ADD SWAP2 DUP6 DUP4 GT PUSH2 0x1CC1 JUMPI PUSH1 0x20 ADD SWAP1 JUMPDEST DUP3 DUP3 LT PUSH2 0x1CA9 JUMPI POP POP POP PUSH1 0x80 DUP5 ADD MSTORE PUSH2 0x1C18 PUSH1 0xA0 DUP3 ADD PUSH2 0x26D8 JUMP JUMPDEST PUSH1 0xA0 DUP5 ADD MSTORE PUSH1 0xC0 DUP2 ADD MLOAD PUSH8 0xFFFFFFFFFFFFFFFF DUP2 GT PUSH2 0xBA9 JUMPI DUP3 PUSH2 0x1C3D SWAP2 DUP4 ADD PUSH2 0x2782 JUMP JUMPDEST PUSH1 0xC0 DUP5 ADD MSTORE PUSH1 0xE0 DUP2 ADD MLOAD PUSH8 0xFFFFFFFFFFFFFFFF DUP2 GT PUSH2 0xBA9 JUMPI DUP3 PUSH2 0x1C62 SWAP2 DUP4 ADD PUSH2 0x27DF JUMP JUMPDEST PUSH1 0xE0 DUP5 ADD MSTORE PUSH2 0x100 DUP2 ADD MLOAD PUSH8 0xFFFFFFFFFFFFFFFF DUP2 GT PUSH2 0xBA9 JUMPI PUSH2 0x120 SWAP3 PUSH2 0x1C8B SWAP2 DUP4 ADD PUSH2 0x2825 JUMP JUMPDEST PUSH2 0x100 DUP5 ADD MSTORE ADD MLOAD PUSH1 0x4 DUP2 LT ISZERO PUSH2 0xA40 JUMPI PUSH2 0x120 DUP3 ADD MSTORE SWAP2 PUSH0 PUSH2 0x156F JUMP JUMPDEST PUSH1 0x20 DUP1 SWAP2 PUSH2 0x1CB6 DUP5 PUSH2 0x275E JUMP JUMPDEST DUP2 MSTORE ADD SWAP2 ADD SWAP1 PUSH2 0x1BFD JUMP JUMPDEST DUP11 DUP1 REVERT JUMPDEST PUSH1 0x20 DUP1 SWAP2 PUSH2 0x1CD2 DUP5 PUSH2 0x26D8 JUMP JUMPDEST DUP2 MSTORE ADD SWAP2 ADD SWAP1 PUSH2 0x1B61 JUMP JUMPDEST PUSH1 0x24 DUP9 PUSH4 0x4E487B71 PUSH1 0xE0 SHL DUP2 MSTORE PUSH1 0x41 PUSH1 0x4 MSTORE REVERT JUMPDEST PUSH1 0x40 MLOAD RETURNDATASIZE DUP8 DUP3 RETURNDATACOPY RETURNDATASIZE SWAP1 REVERT JUMPDEST SWAP1 POP PUSH2 0x1D18 SWAP2 SWAP3 POP PUSH1 0x40 RETURNDATASIZE PUSH1 0x40 GT PUSH2 0xB17 JUMPI PUSH2 0xB06 DUP2 DUP4 PUSH2 0x2560 JUMP JUMPDEST SWAP2 SWAP1 SWAP2 PUSH0 PUSH2 0x1536 JUMP JUMPDEST DUP3 PUSH1 0x20 CALLDATASIZE PUSH1 0x3 NOT ADD SLT PUSH2 0xB5A JUMPI PUSH1 0x4 CALLDATALOAD PUSH8 0xFFFFFFFFFFFFFFFF DUP2 GT PUSH2 0xB5A JUMPI PUSH1 0x80 PUSH1 0x3 NOT DUP3 CALLDATASIZE SUB ADD SLT PUSH2 0xB5A JUMPI PUSH2 0x1D57 DUP4 PUSH2 0x24DC JUMP JUMPDEST PUSH2 0x1D63 DUP2 PUSH1 0x4 ADD PUSH2 0x2582 JUMP JUMPDEST DUP4 MSTORE PUSH1 0x20 DUP4 ADD SWAP3 PUSH1 0x24 DUP3 ADD CALLDATALOAD DUP5 MSTORE PUSH1 0x44 DUP3 ADD CALLDATALOAD PUSH8 0xFFFFFFFFFFFFFFFF DUP2 GT PUSH2 0xB5A JUMPI PUSH2 0x1D95 SWAP1 PUSH1 0x4 CALLDATASIZE SWAP2 DUP6 ADD ADD PUSH2 0x25B2 JUMP JUMPDEST SWAP2 PUSH1 0x40 DUP3 ADD SWAP3 DUP4 MSTORE PUSH1 0x64 DUP2 ADD CALLDATALOAD SWAP1 PUSH8 0xFFFFFFFFFFFFFFFF DUP3 GT PUSH2 0xB5A JUMPI PUSH1 0x4 PUSH2 0x1DC1 SWAP3 CALLDATASIZE SWAP3 ADD ADD PUSH2 0x25F8 JUMP JUMPDEST SWAP4 PUSH1 0x60 DUP3 ADD SWAP5 DUP6 MSTORE PUSH20 0x0 SWAP3 PUSH1 0x1 PUSH1 0x1 PUSH1 0xA0 SHL SUB DUP4 MLOAD AND SWAP6 DUP5 EXTCODESIZE ISZERO PUSH2 0xB5A JUMPI PUSH1 0x40 MLOAD SWAP7 PUSH4 0xBF6341CF PUSH1 0xE0 SHL DUP9 MSTORE PUSH1 0x4 DUP9 ADD MSTORE PUSH0 DUP8 PUSH1 0x24 DUP2 DUP9 GAS DELEGATECALL DUP1 ISZERO PUSH2 0x24D1 JUMPI PUSH2 0x24B9 JUMPI JUMPDEST DUP6 SWAP7 POP PUSH1 0x1 PUSH1 0x1 PUSH1 0xA0 SHL SUB PUSH1 0x4 SWAP7 SWAP6 SWAP7 SLOAD AND SWAP6 PUSH1 0x20 PUSH1 0x40 MLOAD DUP1 SWAP9 PUSH32 0xB658330E00000000000000000000000000000000000000000000000000000000 DUP3 MSTORE CALLER PUSH1 0x4 DUP4 ADD MSTORE PUSH1 0x40 PUSH1 0x24 DUP4 ADD MSTORE PUSH1 0x1 PUSH1 0x1 PUSH1 0xA0 SHL SUB DUP9 MLOAD AND PUSH1 0x44 DUP4 ADD MSTORE DUP7 MLOAD PUSH1 0x64 DUP4 ADD MSTORE DUP2 DUP10 DUP2 PUSH2 0x1EA8 PUSH2 0x1E95 DUP11 MLOAD PUSH1 0x80 PUSH1 0x84 DUP6 ADD MSTORE PUSH1 0xC4 DUP5 ADD SWAP1 PUSH2 0x2691 JUMP JUMPDEST DUP10 MLOAD DUP4 DUP3 SUB PUSH1 0x43 NOT ADD PUSH1 0xA4 DUP6 ADD MSTORE PUSH2 0x26B5 JUMP JUMPDEST SUB SWAP3 GAS CALL SWAP7 DUP8 ISZERO PUSH2 0x13C4 JUMPI DUP7 SWAP8 PUSH2 0x2482 JUMPI JUMPDEST POP PUSH1 0x4 DUP1 SLOAD PUSH1 0x40 MLOAD PUSH4 0x16C93723 PUSH1 0xE1 SHL DUP2 MSTORE SWAP2 DUP3 ADD DUP10 SWAP1 MSTORE CALLER PUSH1 0x24 DUP4 ADD MSTORE PUSH1 0x60 SWAP1 DUP3 SWAP1 PUSH1 0x44 SWAP1 DUP3 SWAP1 DUP12 SWAP1 PUSH1 0x1 PUSH1 0x1 PUSH1 0xA0 SHL SUB AND GAS CALL SWAP1 DUP2 ISZERO PUSH2 0x1A97 JUMPI DUP8 SWAP1 DUP9 SWAP1 DUP10 SWAP4 PUSH2 0x245E JUMPI JUMPDEST POP PUSH1 0x1 PUSH1 0x1 PUSH1 0xA0 SHL SUB PUSH1 0x1 SLOAD AND PUSH1 0x20 PUSH1 0x1 PUSH1 0x1 PUSH1 0xA0 SHL SUB DUP11 MLOAD AND PUSH1 0x24 PUSH1 0x40 MLOAD DUP1 SWAP5 DUP2 SWAP4 PUSH4 0x4D0A647 PUSH1 0xE0 SHL DUP4 MSTORE PUSH1 0x4 DUP4 ADD MSTORE GAS STATICCALL SWAP1 DUP2 ISZERO PUSH2 0x118C JUMPI DUP11 SWAP2 PUSH2 0x2424 JUMPI JUMPDEST POP DUP5 EXTCODESIZE ISZERO PUSH2 0x9A6 JUMPI DUP10 PUSH1 0x1 PUSH1 0x1 PUSH1 0xA0 SHL SUB SWAP2 PUSH1 0x24 PUSH1 0x40 MLOAD DUP1 SWAP5 DUP2 SWAP4 PUSH4 0xBF6341CF PUSH1 0xE0 SHL DUP4 MSTORE AND SWAP9 DUP10 PUSH1 0x4 DUP4 ADD MSTORE GAS DELEGATECALL SWAP1 DUP2 ISZERO PUSH2 0x118C JUMPI DUP11 SWAP2 PUSH2 0x240F JUMPI JUMPDEST POP POP PUSH1 0x1 PUSH1 0x1 PUSH1 0xA0 SHL SUB DUP1 DUP10 MLOAD AND SWAP2 PUSH1 0x40 MLOAD SWAP3 PUSH2 0x1F9C DUP5 PUSH2 0x24DC JUMP JUMPDEST DUP4 MSTORE CALLER PUSH1 0x20 DUP5 ADD MSTORE AND SWAP1 DUP2 PUSH1 0x40 DUP3 ADD MSTORE DUP3 PUSH1 0x60 DUP3 ADD MSTORE PUSH1 0x1 PUSH1 0x1 PUSH1 0xA0 SHL SUB PUSH1 0x2 SLOAD AND SWAP1 DUP2 EXTCODESIZE ISZERO PUSH2 0x1CC1 JUMPI PUSH2 0x2023 PUSH1 0x84 DUP13 SWAP3 DUP4 PUSH1 0x40 MLOAD SWAP6 DUP7 SWAP5 DUP6 SWAP4 PUSH4 0x577ED67F PUSH1 0xE1 SHL DUP6 MSTORE PUSH1 0x4 DUP6 ADD SWAP1 PUSH1 0x60 DUP1 SWAP2 PUSH1 0x1 PUSH1 0x1 PUSH1 0xA0 SHL SUB DUP2 MLOAD AND DUP5 MSTORE PUSH1 0x1 PUSH1 0x1 PUSH1 0xA0 SHL SUB PUSH1 0x20 DUP3 ADD MLOAD AND PUSH1 0x20 DUP6 ADD MSTORE PUSH1 0x1 PUSH1 0x1 PUSH1 0xA0 SHL SUB PUSH1 0x40 DUP3 ADD MLOAD AND PUSH1 0x40 DUP6 ADD MSTORE ADD MLOAD SWAP2 ADD MSTORE JUMP JUMPDEST GAS CALL SWAP1 DUP2 ISZERO PUSH2 0x118C JUMPI DUP11 SWAP2 PUSH2 0x23FA JUMPI JUMPDEST POP POP PUSH1 0x1 PUSH1 0x1 PUSH1 0xA0 SHL SUB DUP9 MLOAD AND SWAP3 PUSH1 0x40 MLOAD SWAP4 PUSH2 0x204E DUP6 PUSH2 0x24DC JUMP JUMPDEST DUP5 MSTORE CALLER PUSH1 0x20 DUP6 ADD SWAP1 DUP2 MSTORE PUSH1 0x40 DUP1 DUP7 ADD DUP5 DUP2 MSTORE PUSH1 0x60 DUP8 ADD DUP7 DUP2 MSTORE PUSH1 0x2 SLOAD DUP4 MLOAD PUSH4 0x716FA03 PUSH1 0xE3 SHL DUP2 MSTORE SWAP9 MLOAD PUSH1 0x1 PUSH1 0x1 PUSH1 0xA0 SHL SUB SWAP1 DUP2 AND PUSH1 0x4 DUP12 ADD MSTORE SWAP5 MLOAD DUP6 AND PUSH1 0x24 DUP11 ADD MSTORE SWAP2 MLOAD DUP5 AND PUSH1 0x44 DUP10 ADD MSTORE MLOAD PUSH1 0x64 DUP9 ADD MSTORE SWAP1 SWAP2 DUP7 SWAP2 PUSH1 0x84 SWAP2 DUP4 SWAP2 AND GAS STATICCALL SWAP5 DUP6 ISZERO PUSH2 0x118C JUMPI DUP11 SWAP5 DUP12 SWAP7 PUSH2 0x23D3 JUMPI JUMPDEST POP PUSH1 0x40 MLOAD SWAP5 PUSH2 0x20CA DUP7 PUSH2 0x250C JUMP JUMPDEST PUSH2 0x20EC PUSH1 0x1 PUSH1 0x1 PUSH1 0xA0 SHL SUB DUP3 AND SWAP7 DUP8 DUP2 MSTORE DUP9 PUSH1 0x20 DUP3 ADD MSTORE DUP4 PUSH1 0x40 DUP3 ADD MSTORE PUSH2 0x2964 JUMP JUMPDEST DUP6 PUSH2 0x23CD JUMPI DUP7 JUMPDEST DUP3 EXTCODESIZE ISZERO PUSH2 0x23C9 JUMPI PUSH1 0x40 MLOAD PUSH4 0x11F9FBC9 PUSH1 0xE2 SHL DUP2 MSTORE PUSH1 0x1 PUSH1 0x1 PUSH1 0xA0 SHL SUB SWAP3 SWAP1 SWAP3 AND PUSH1 0x4 DUP4 ADD MSTORE PUSH1 0x24 DUP3 ADD DUP9 SWAP1 MSTORE SWAP1 SWAP2 DUP13 SWAP2 DUP4 SWAP2 PUSH1 0x44 SWAP2 DUP4 SWAP2 GAS CALL SWAP1 DUP2 ISZERO PUSH2 0x986 JUMPI DUP12 SWAP2 PUSH2 0x23B4 JUMPI JUMPDEST POP POP PUSH1 0x1 PUSH1 0x1 PUSH1 0xA0 SHL SUB PUSH1 0x4 SLOAD AND DUP1 EXTCODESIZE ISZERO PUSH2 0x1CC1 JUMPI DUP11 DUP1 SWAP2 PUSH1 0x44 DUP15 PUSH1 0x40 MLOAD SWAP5 DUP6 SWAP4 DUP5 SWAP3 PUSH4 0xB38FFD5F PUSH1 0xE0 SHL DUP5 MSTORE PUSH1 0x4 DUP5 ADD MSTORE DUP10 PUSH1 0x24 DUP5 ADD MSTORE GAS CALL SWAP1 DUP2 ISZERO PUSH2 0x986 JUMPI DUP12 SWAP2 PUSH2 0x239F JUMPI JUMPDEST POP POP PUSH1 0x1 PUSH1 0x1 PUSH1 0xA0 SHL SUB DUP10 MLOAD AND SWAP9 PUSH1 0x40 MLOAD SWAP10 PUSH2 0x219D DUP12 PUSH2 0x2528 JUMP JUMPDEST DUP11 MSTORE DUP12 PUSH1 0x20 DUP12 ADD MSTORE CALLER PUSH1 0x40 DUP12 ADD MSTORE DUP3 PUSH1 0x60 DUP12 ADD MSTORE DUP4 PUSH1 0x80 DUP12 ADD MSTORE DUP5 PUSH1 0xA0 DUP12 ADD MSTORE DUP6 PUSH1 0xC0 DUP12 ADD MSTORE PUSH1 0x1 PUSH1 0x1 PUSH1 0xA0 SHL SUB PUSH1 0x2 SLOAD AND DUP1 EXTCODESIZE ISZERO PUSH2 0x239B JUMPI PUSH1 0x40 DUP1 MLOAD PUSH4 0x2B54892B PUSH1 0xE0 SHL DUP2 MSTORE DUP13 MLOAD PUSH1 0x1 PUSH1 0x1 PUSH1 0xA0 SHL SUB SWAP1 DUP2 AND PUSH1 0x4 DUP4 ADD MSTORE PUSH1 0x20 DUP15 ADD MLOAD PUSH1 0x24 DUP4 ADD MSTORE SWAP2 DUP14 ADD MLOAD DUP3 AND PUSH1 0x44 DUP3 ADD MSTORE PUSH1 0x60 DUP14 ADD MLOAD DUP3 AND PUSH1 0x64 DUP3 ADD MSTORE PUSH1 0x80 DUP14 ADD MLOAD PUSH1 0x84 DUP3 ADD MSTORE PUSH1 0xA0 DUP14 ADD MLOAD SWAP1 SWAP2 AND PUSH1 0xA4 DUP3 ADD MSTORE PUSH1 0xC0 SWAP1 SWAP12 ADD MLOAD PUSH1 0xC4 DUP13 ADD MSTORE DUP12 SWAP1 DUP12 SWAP1 PUSH1 0xE4 SWAP1 DUP3 SWAP1 DUP5 SWAP1 GAS CALL DUP1 ISZERO PUSH2 0x986 JUMPI DUP13 SWAP11 DUP13 SWAP2 PUSH2 0x2380 JUMPI JUMPDEST POP POP PUSH1 0x1 PUSH1 0x1 PUSH1 0xA0 SHL SUB SWAP1 MLOAD AND SWAP8 MLOAD SWAP7 MLOAD SWAP6 MLOAD SWAP7 PUSH1 0x20 PUSH1 0x1 PUSH1 0x1 PUSH1 0xA0 SHL SUB PUSH1 0x4 SLOAD AND PUSH1 0x24 PUSH1 0x40 MLOAD SWAP15 DUP16 SWAP3 DUP4 SWAP2 PUSH4 0x2EF1457 PUSH1 0xE5 SHL DUP4 MSTORE PUSH1 0x4 DUP4 ADD MSTORE GAS STATICCALL SWAP9 DUP10 ISZERO PUSH2 0x986 JUMPI PUSH32 0x3744B8FADEDFEBB31C995BBE9B714D3A32AB9C0B1F1592B9EEBDF6196E62CD35 SWAP13 PUSH1 0x40 SWAP13 SWAP11 PUSH2 0x2343 JUMPI JUMPDEST POP SWAP3 PUSH2 0x2322 SWAP6 SWAP3 PUSH2 0x2331 SWAP9 SWAP6 SWAP3 PUSH2 0x233D SWAP11 SWAP9 SWAP6 DUP15 MLOAD SWAP15 DUP16 SWAP15 DUP16 SWAP1 DUP2 MSTORE CALLER PUSH1 0x20 DUP3 ADD MSTORE ADD MSTORE PUSH1 0x60 DUP14 ADD MSTORE PUSH1 0x80 DUP13 ADD MSTORE PUSH1 0xA0 DUP12 ADD MSTORE PUSH1 0xC0 DUP11 ADD MSTORE PUSH1 0xE0 DUP10 ADD MSTORE PUSH2 0x100 DUP9 ADD MSTORE TIMESTAMP PUSH2 0x120 DUP9 ADD MSTORE PUSH2 0x1A0 PUSH2 0x140 DUP9 ADD MSTORE PUSH2 0x1A0 DUP8 ADD SWAP1 PUSH2 0x2691 JUMP JUMPDEST SWAP1 DUP6 DUP3 SUB PUSH2 0x160 DUP8 ADD MSTORE PUSH2 0x26B5 JUMP JUMPDEST SWAP2 PUSH2 0x180 DUP5 ADD SWAP1 PUSH2 0x273D JUMP JUMPDEST SUB SWAP1 LOG1 DUP1 RETURN JUMPDEST PUSH2 0x233D SWAP10 SWAP8 SWAP5 SWAP2 SWAP11 POP SWAP3 PUSH2 0x2331 SWAP9 SWAP6 SWAP3 PUSH2 0x236F PUSH2 0x2322 SWAP9 SWAP6 PUSH1 0x20 RETURNDATASIZE PUSH1 0x20 GT PUSH2 0x97F JUMPI PUSH2 0x970 DUP2 DUP4 PUSH2 0x2560 JUMP JUMPDEST SWAP12 SWAP3 SWAP6 SWAP9 SWAP11 POP SWAP3 SWAP6 SWAP9 POP SWAP3 SWAP6 PUSH2 0x22C4 JUMP JUMPDEST DUP2 SWAP3 SWAP12 POP SWAP1 PUSH2 0x238E SWAP2 PUSH2 0x2560 JUMP JUMPDEST PUSH2 0x9A6 JUMPI DUP11 SWAP9 DUP11 DUP15 PUSH2 0x2255 JUMP JUMPDEST DUP12 DUP1 REVERT JUMPDEST DUP2 PUSH2 0x23A9 SWAP2 PUSH2 0x2560 JUMP JUMPDEST PUSH2 0x9A6 JUMPI DUP10 DUP14 PUSH2 0x2182 JUMP JUMPDEST DUP2 PUSH2 0x23BE SWAP2 PUSH2 0x2560 JUMP JUMPDEST PUSH2 0x9A6 JUMPI DUP10 DUP14 PUSH2 0x213A JUMP JUMPDEST DUP13 DUP1 REVERT JUMPDEST DUP12 PUSH2 0x20F3 JUMP JUMPDEST SWAP1 SWAP6 POP PUSH2 0x23F0 SWAP2 SWAP5 POP PUSH1 0x40 RETURNDATASIZE PUSH1 0x40 GT PUSH2 0xA7A JUMPI PUSH2 0xA68 DUP2 DUP4 PUSH2 0x2560 JUMP JUMPDEST SWAP4 SWAP1 SWAP4 SWAP5 DUP14 PUSH2 0x20BC JUMP JUMPDEST DUP2 PUSH2 0x2404 SWAP2 PUSH2 0x2560 JUMP JUMPDEST PUSH2 0xBCF JUMPI DUP9 DUP13 PUSH2 0x2033 JUMP JUMPDEST DUP2 PUSH2 0x2419 SWAP2 PUSH2 0x2560 JUMP JUMPDEST PUSH2 0xBCF JUMPI DUP9 DUP13 PUSH2 0x1F80 JUMP JUMPDEST SWAP1 POP PUSH1 0x20 DUP2 RETURNDATASIZE PUSH1 0x20 GT PUSH2 0x2456 JUMPI JUMPDEST DUP2 PUSH2 0x243F PUSH1 0x20 SWAP4 DUP4 PUSH2 0x2560 JUMP JUMPDEST DUP2 ADD SUB SLT PUSH2 0x9A6 JUMPI PUSH2 0x2450 SWAP1 PUSH2 0x26D8 JUMP JUMPDEST DUP13 PUSH2 0x1F43 JUMP JUMPDEST RETURNDATASIZE SWAP2 POP PUSH2 0x2432 JUMP JUMPDEST SWAP2 POP POP PUSH2 0x247A SWAP2 POP PUSH1 0x60 RETURNDATASIZE PUSH1 0x60 GT PUSH2 0x1400 JUMPI PUSH2 0x13ED DUP2 DUP4 PUSH2 0x2560 JUMP JUMPDEST SWAP2 SWAP1 DUP12 PUSH2 0x1F01 JUMP JUMPDEST SWAP6 POP SWAP6 POP PUSH1 0x20 DUP6 RETURNDATASIZE PUSH1 0x20 GT PUSH2 0x24B1 JUMPI JUMPDEST DUP2 PUSH2 0x249F PUSH1 0x20 SWAP4 DUP4 PUSH2 0x2560 JUMP JUMPDEST DUP2 ADD SUB SLT PUSH2 0xB5A JUMPI DUP7 SWAP5 MLOAD SWAP6 DUP9 PUSH2 0x1EBA JUMP JUMPDEST RETURNDATASIZE SWAP2 POP PUSH2 0x2492 JUMP JUMPDEST SWAP4 SWAP5 POP SWAP5 PUSH0 PUSH2 0x24C7 SWAP2 PUSH2 0x2560 JUMP JUMPDEST PUSH0 SWAP4 SWAP3 DUP6 SWAP1 PUSH2 0x1E18 JUMP JUMPDEST PUSH1 0x40 MLOAD RETURNDATASIZE PUSH0 DUP3 RETURNDATACOPY RETURNDATASIZE SWAP1 REVERT JUMPDEST PUSH1 0x80 DUP2 ADD SWAP1 DUP2 LT PUSH8 0xFFFFFFFFFFFFFFFF DUP3 GT OR PUSH2 0x24F8 JUMPI PUSH1 0x40 MSTORE JUMP JUMPDEST PUSH4 0x4E487B71 PUSH1 0xE0 SHL PUSH0 MSTORE PUSH1 0x41 PUSH1 0x4 MSTORE PUSH1 0x24 PUSH0 REVERT JUMPDEST PUSH1 0x60 DUP2 ADD SWAP1 DUP2 LT PUSH8 0xFFFFFFFFFFFFFFFF DUP3 GT OR PUSH2 0x24F8 JUMPI PUSH1 0x40 MSTORE JUMP JUMPDEST PUSH1 0xE0 DUP2 ADD SWAP1 DUP2 LT PUSH8 0xFFFFFFFFFFFFFFFF DUP3 GT OR PUSH2 0x24F8 JUMPI PUSH1 0x40 MSTORE JUMP JUMPDEST PUSH1 0x40 DUP2 ADD SWAP1 DUP2 LT PUSH8 0xFFFFFFFFFFFFFFFF DUP3 GT OR PUSH2 0x24F8 JUMPI PUSH1 0x40 MSTORE JUMP JUMPDEST SWAP1 PUSH1 0x1F DUP1 NOT SWAP2 ADD AND DUP2 ADD SWAP1 DUP2 LT PUSH8 0xFFFFFFFFFFFFFFFF DUP3 GT OR PUSH2 0x24F8 JUMPI PUSH1 0x40 MSTORE JUMP JUMPDEST CALLDATALOAD SWAP1 PUSH1 0x1 PUSH1 0x1 PUSH1 0xA0 SHL SUB DUP3 AND DUP3 SUB PUSH2 0xB5A JUMPI JUMP JUMPDEST PUSH8 0xFFFFFFFFFFFFFFFF DUP2 GT PUSH2 0x24F8 JUMPI PUSH1 0x1F ADD PUSH1 0x1F NOT AND PUSH1 0x20 ADD SWAP1 JUMP JUMPDEST DUP2 PUSH1 0x1F DUP3 ADD SLT ISZERO PUSH2 0xB5A JUMPI DUP1 CALLDATALOAD SWAP1 PUSH2 0x25C9 DUP3 PUSH2 0x2596 JUMP JUMPDEST SWAP3 PUSH2 0x25D7 PUSH1 0x40 MLOAD SWAP5 DUP6 PUSH2 0x2560 JUMP JUMPDEST DUP3 DUP5 MSTORE PUSH1 0x20 DUP4 DUP4 ADD ADD GT PUSH2 0xB5A JUMPI DUP2 PUSH0 SWAP3 PUSH1 0x20 DUP1 SWAP4 ADD DUP4 DUP7 ADD CALLDATACOPY DUP4 ADD ADD MSTORE SWAP1 JUMP JUMPDEST SWAP2 SWAP1 PUSH1 0x40 DUP4 DUP3 SUB SLT PUSH2 0xB5A JUMPI PUSH1 0x40 MLOAD SWAP1 PUSH2 0x2611 DUP3 PUSH2 0x2544 JUMP JUMPDEST DUP2 SWAP4 DUP1 CALLDATALOAD PUSH1 0xFF DUP2 AND DUP2 SUB PUSH2 0xB5A JUMPI DUP4 MSTORE PUSH1 0x20 DUP2 ADD CALLDATALOAD SWAP2 PUSH8 0xFFFFFFFFFFFFFFFF DUP4 GT PUSH2 0xB5A JUMPI PUSH1 0x20 SWAP3 PUSH2 0x2643 SWAP3 ADD PUSH2 0x25B2 JUMP JUMPDEST SWAP2 ADD MSTORE JUMP JUMPDEST PUSH1 0x20 SWAP1 PUSH1 0x3 NOT ADD SLT PUSH2 0xB5A JUMPI PUSH1 0x40 MLOAD SWAP1 PUSH1 0x20 DUP3 ADD DUP3 DUP2 LT PUSH8 0xFFFFFFFFFFFFFFFF DUP3 GT OR PUSH2 0x24F8 JUMPI PUSH1 0x40 MSTORE PUSH1 0x4 CALLDATALOAD DUP3 MSTORE JUMP JUMPDEST PUSH8 0xFFFFFFFFFFFFFFFF DUP2 GT PUSH2 0x24F8 JUMPI PUSH1 0x5 SHL PUSH1 0x20 ADD SWAP1 JUMP JUMPDEST DUP1 MLOAD DUP1 DUP4 MSTORE PUSH1 0x20 SWAP3 SWAP2 DUP2 SWAP1 DUP5 ADD DUP5 DUP5 ADD MCOPY PUSH0 DUP3 DUP3 ADD DUP5 ADD MSTORE PUSH1 0x1F ADD PUSH1 0x1F NOT AND ADD ADD SWAP1 JUMP JUMPDEST SWAP1 PUSH1 0x40 PUSH1 0x20 PUSH2 0x26D5 SWAP4 PUSH1 0xFF DUP2 MLOAD AND DUP5 MSTORE ADD MLOAD SWAP2 DUP2 PUSH1 0x20 DUP3 ADD MSTORE ADD SWAP1 PUSH2 0x2691 JUMP JUMPDEST SWAP1 JUMP JUMPDEST MLOAD SWAP1 PUSH1 0x1 PUSH1 0x1 PUSH1 0xA0 SHL SUB DUP3 AND DUP3 SUB PUSH2 0xB5A JUMPI JUMP JUMPDEST SWAP1 DUP2 PUSH1 0x60 SWAP2 SUB SLT PUSH2 0xB5A JUMPI DUP1 MLOAD SWAP2 PUSH1 0x40 PUSH2 0x2708 PUSH1 0x20 DUP5 ADD PUSH2 0x26D8 JUMP JUMPDEST SWAP3 ADD MLOAD SWAP1 JUMP JUMPDEST SWAP2 SWAP1 DUP3 PUSH1 0x40 SWAP2 SUB SLT PUSH2 0xB5A JUMPI PUSH1 0x20 PUSH2 0x2708 DUP4 PUSH2 0x26D8 JUMP JUMPDEST SWAP1 DUP2 PUSH1 0x20 SWAP2 SUB SLT PUSH2 0xB5A JUMPI MLOAD PUSH1 0x4 DUP2 LT ISZERO PUSH2 0xB5A JUMPI SWAP1 JUMP JUMPDEST SWAP1 PUSH1 0x4 DUP3 LT ISZERO PUSH2 0x274A JUMPI MSTORE JUMP JUMPDEST PUSH4 0x4E487B71 PUSH1 0xE0 SHL PUSH0 MSTORE PUSH1 0x21 PUSH1 0x4 MSTORE PUSH1 0x24 PUSH0 REVERT JUMPDEST MLOAD SWAP1 DUP2 ISZERO ISZERO DUP3 SUB PUSH2 0xB5A JUMPI JUMP JUMPDEST SWAP2 SWAP1 DUP3 PUSH1 0x40 SWAP2 SUB SLT PUSH2 0xB5A JUMPI PUSH1 0x20 PUSH2 0x2708 DUP4 PUSH2 0x275E JUMP JUMPDEST SWAP1 DUP1 PUSH1 0x1F DUP4 ADD SLT ISZERO PUSH2 0xB5A JUMPI DUP2 MLOAD PUSH2 0x2799 DUP2 PUSH2 0x2679 JUMP JUMPDEST SWAP3 PUSH2 0x27A7 PUSH1 0x40 MLOAD SWAP5 DUP6 PUSH2 0x2560 JUMP JUMPDEST DUP2 DUP5 MSTORE PUSH1 0x20 DUP1 DUP6 ADD SWAP3 PUSH1 0x5 SHL DUP3 ADD ADD SWAP3 DUP4 GT PUSH2 0xB5A JUMPI PUSH1 0x20 ADD SWAP1 JUMPDEST DUP3 DUP3 LT PUSH2 0x27CF JUMPI POP POP POP SWAP1 JUMP JUMPDEST DUP2 MLOAD DUP2 MSTORE PUSH1 0x20 SWAP2 DUP3 ADD SWAP2 ADD PUSH2 0x27C2 JUMP JUMPDEST DUP2 PUSH1 0x1F DUP3 ADD SLT ISZERO PUSH2 0xB5A JUMPI DUP1 MLOAD SWAP1 PUSH2 0x27F6 DUP3 PUSH2 0x2596 JUMP JUMPDEST SWAP3 PUSH2 0x2804 PUSH1 0x40 MLOAD SWAP5 DUP6 PUSH2 0x2560 JUMP JUMPDEST DUP3 DUP5 MSTORE PUSH1 0x20 DUP4 DUP4 ADD ADD GT PUSH2 0xB5A JUMPI DUP2 PUSH0 SWAP3 PUSH1 0x20 DUP1 SWAP4 ADD DUP4 DUP7 ADD MCOPY DUP4 ADD ADD MSTORE SWAP1 JUMP JUMPDEST SWAP2 SWAP1 PUSH1 0x40 DUP4 DUP3 SUB SLT PUSH2 0xB5A JUMPI PUSH1 0x40 MLOAD SWAP1 PUSH2 0x283E DUP3 PUSH2 0x2544 JUMP JUMPDEST DUP2 SWAP4 DUP1 MLOAD PUSH1 0xFF DUP2 AND DUP2 SUB PUSH2 0xB5A JUMPI DUP4 MSTORE PUSH1 0x20 DUP2 ADD MLOAD SWAP2 PUSH8 0xFFFFFFFFFFFFFFFF DUP4 GT PUSH2 0xB5A JUMPI PUSH1 0x20 SWAP3 PUSH2 0x2643 SWAP3 ADD PUSH2 0x27DF JUMP JUMPDEST SWAP1 PUSH1 0x20 DUP1 DUP4 MLOAD SWAP3 DUP4 DUP2 MSTORE ADD SWAP3 ADD SWAP1 PUSH0 JUMPDEST DUP2 DUP2 LT PUSH2 0x288D JUMPI POP POP POP SWAP1 JUMP JUMPDEST DUP3 MLOAD PUSH1 0x1 PUSH1 0x1 PUSH1 0xA0 SHL SUB AND DUP5 MSTORE PUSH1 0x20 SWAP4 DUP5 ADD SWAP4 SWAP1 SWAP3 ADD SWAP2 PUSH1 0x1 ADD PUSH2 0x2880 JUMP JUMPDEST SWAP1 PUSH1 0x20 DUP1 DUP4 MLOAD SWAP3 DUP4 DUP2 MSTORE ADD SWAP3 ADD SWAP1 PUSH0 JUMPDEST DUP2 DUP2 LT PUSH2 0x28C9 JUMPI POP POP POP SWAP1 JUMP JUMPDEST DUP3 MLOAD DUP5 MSTORE PUSH1 0x20 SWAP4 DUP5 ADD SWAP4 SWAP1 SWAP3 ADD SWAP2 PUSH1 0x1 ADD PUSH2 0x28BC JUMP JUMPDEST PUSH1 0x40 MLOAD SWAP1 PUSH2 0x28EE PUSH1 0x40 DUP4 PUSH2 0x2560 JUMP JUMPDEST PUSH1 0x3 DUP3 MSTORE PUSH32 0x3130300000000000000000000000000000000000000000000000000000000000 PUSH1 0x20 DUP4 ADD MSTORE JUMP JUMPDEST ISZERO PUSH2 0x2922 JUMPI POP JUMP JUMPDEST PUSH2 0x2960 SWAP1 PUSH1 0x40 MLOAD SWAP2 DUP3 SWAP2 PUSH32 0x8C379A000000000000000000000000000000000000000000000000000000000 DUP4 MSTORE PUSH1 0x20 PUSH1 0x4 DUP5 ADD MSTORE PUSH1 0x24 DUP4 ADD SWAP1 PUSH2 0x2691 JUMP JUMPDEST SUB SWAP1 REVERT JUMPDEST DUP1 MLOAD PUSH1 0x1 PUSH1 0x1 PUSH1 0xA0 SHL SUB AND DUP1 PUSH2 0x2ADA JUMPI POP CALLVALUE SWAP1 JUMPDEST PUSH2 0x2992 PUSH1 0x20 DUP3 ADD SWAP3 DUP4 MLOAD GT ISZERO PUSH2 0x298C PUSH2 0x28DF JUMP JUMPDEST SWAP1 PUSH2 0x291A JUMP JUMPDEST DUP1 MLOAD PUSH1 0x1 PUSH1 0x1 PUSH1 0xA0 SHL SUB AND DUP1 PUSH2 0x29B5 JUMPI POP POP PUSH2 0x29B3 SWAP1 MLOAD CALLVALUE EQ PUSH2 0x298C PUSH2 0x28DF JUMP JUMPDEST JUMP JUMPDEST PUSH2 0x2A0B SWAP1 DUP4 MLOAD SWAP1 PUSH1 0x40 MLOAD SWAP2 PUSH32 0x23B872DD00000000000000000000000000000000000000000000000000000000 PUSH1 0x20 DUP5 ADD MSTORE CALLER PUSH1 0x24 DUP5 ADD MSTORE ADDRESS PUSH1 0x44 DUP5 ADD MSTORE PUSH1 0x64 DUP4 ADD MSTORE PUSH1 0x64 DUP3 MSTORE PUSH2 0x2A06 PUSH1 0x84 DUP4 PUSH2 0x2560 JUMP JUMPDEST PUSH2 0x2B97 JUMP JUMPDEST PUSH1 0x1 PUSH1 0x1 PUSH1 0xA0 SHL SUB PUSH1 0x40 DUP2 DUP4 MLOAD AND SWAP3 ADD MLOAD AND SWAP2 MLOAD SWAP1 PUSH1 0x20 PUSH0 PUSH1 0x40 MLOAD SWAP4 PUSH2 0x2A6A DUP6 PUSH2 0x2A5C DUP6 DUP3 ADD SWAP4 PUSH4 0x95EA7B3 PUSH1 0xE0 SHL DUP6 MSTORE DUP10 PUSH1 0x24 DUP5 ADD PUSH1 0x20 SWAP1 SWAP4 SWAP3 SWAP2 SWAP4 PUSH1 0x1 PUSH1 0x1 PUSH1 0xA0 SHL SUB PUSH1 0x40 DUP3 ADD SWAP6 AND DUP2 MSTORE ADD MSTORE JUMP JUMPDEST SUB PUSH1 0x1F NOT DUP2 ADD DUP8 MSTORE DUP7 PUSH2 0x2560 JUMP JUMPDEST DUP5 MLOAD SWAP1 DUP3 DUP6 GAS CALL PUSH0 MLOAD RETURNDATASIZE DUP3 PUSH2 0x2ABE JUMPI JUMPDEST POP POP ISZERO PUSH2 0x2A86 JUMPI POP POP POP JUMP JUMPDEST PUSH2 0x2A06 PUSH2 0x29B3 SWAP4 PUSH1 0x40 MLOAD SWAP1 PUSH4 0x95EA7B3 PUSH1 0xE0 SHL PUSH1 0x20 DUP4 ADD MSTORE PUSH1 0x24 DUP3 ADD MSTORE PUSH0 PUSH1 0x44 DUP3 ADD MSTORE PUSH1 0x44 DUP2 MSTORE PUSH2 0x2AB8 PUSH1 0x64 DUP3 PUSH2 0x2560 JUMP JUMPDEST DUP3 PUSH2 0x2B97 JUMP JUMPDEST SWAP1 SWAP2 POP PUSH2 0x2AD2 JUMPI POP DUP1 EXTCODESIZE ISZERO ISZERO JUMPDEST PUSH0 DUP1 PUSH2 0x2A7A JUMP JUMPDEST PUSH1 0x1 EQ PUSH2 0x2ACB JUMP JUMPDEST PUSH1 0x20 PUSH1 0x24 SWAP2 PUSH1 0x40 MLOAD SWAP3 DUP4 DUP1 SWAP3 PUSH32 0x70A0823100000000000000000000000000000000000000000000000000000000 DUP3 MSTORE CALLER PUSH1 0x4 DUP4 ADD MSTORE GAS STATICCALL SWAP1 DUP2 ISZERO PUSH2 0x24D1 JUMPI PUSH0 SWAP2 PUSH2 0x2B26 JUMPI JUMPDEST POP SWAP1 PUSH2 0x2978 JUMP JUMPDEST SWAP1 POP PUSH1 0x20 DUP2 RETURNDATASIZE PUSH1 0x20 GT PUSH2 0x2B50 JUMPI JUMPDEST DUP2 PUSH2 0x2B41 PUSH1 0x20 SWAP4 DUP4 PUSH2 0x2560 JUMP JUMPDEST DUP2 ADD SUB SLT PUSH2 0xB5A JUMPI MLOAD PUSH0 PUSH2 0x2B1F JUMP JUMPDEST RETURNDATASIZE SWAP2 POP PUSH2 0x2B34 JUMP JUMPDEST PUSH1 0x1 PUSH1 0x1 PUSH1 0xA0 SHL SUB PUSH0 SLOAD AND CALLER SUB PUSH2 0x2B6B JUMPI JUMP JUMPDEST PUSH32 0x118CDAA700000000000000000000000000000000000000000000000000000000 PUSH0 MSTORE CALLER PUSH1 0x4 MSTORE PUSH1 0x24 PUSH0 REVERT JUMPDEST SWAP1 PUSH0 PUSH1 0x20 SWAP2 DUP3 DUP2 MLOAD SWAP2 ADD DUP3 DUP6 GAS CALL ISZERO PUSH2 0x24D1 JUMPI PUSH0 MLOAD RETURNDATASIZE PUSH2 0x2BFB JUMPI POP PUSH1 0x1 PUSH1 0x1 PUSH1 0xA0 SHL SUB DUP2 AND EXTCODESIZE ISZERO JUMPDEST PUSH2 0x2BC6 JUMPI POP JUMP JUMPDEST PUSH1 0x1 PUSH1 0x1 PUSH1 0xA0 SHL SUB SWAP1 PUSH32 0x5274AFE700000000000000000000000000000000000000000000000000000000 PUSH0 MSTORE AND PUSH1 0x4 MSTORE PUSH1 0x24 PUSH0 REVERT JUMPDEST PUSH1 0x1 EQ ISZERO PUSH2 0x2BBF JUMP INVALID LOG2 PUSH5 0x6970667358 0x22 SLT KECCAK256 DUP13 SWAP1 MSIZE SWAP11 0xC2 LOG0 SHR 0xB5 DUP14 0xD0 EQ DUP15 MSTORE 0xB6 SHR 0xAD DUP3 BALANCE SAR PUSH26 0x8196C52A9F0937068EC10AA964736F6C634300081C0033000000 "
        },
        "methodIdentifiers": {
          "cancelRecurrentTransaction((bytes32))": "1fd9b2bf",
          "fulfillOneTimeTransaction((bytes32))": "163e2045",
          "fulfillRecurrentTransaction((bytes32))": "384c7aa3",
          "oneTimeTransaction((address[],address,uint256[],address,string,(uint8,string)))": "a0d95656",
          "owner()": "8da5cb5b",
          "recurrentTransaction((address,bytes32,string,(uint8,string)))": "1121d17b",
          "renounceOwnership()": "715018a6",
          "transferOwnership(address)": "f2fde38b"
        }
      }
    }
  }
}