{
  "contracts/libs/AddressLib.sol": {
    "AddressLib": {
      "abi": [
        {
          "inputs": [
            {
              "internalType": "address[]",
              "name": "value",
              "type": "address[]"
            }
          ],
          "name": "every",
          "outputs": [
            {
              "internalType": "bool",
              "name": "",
              "type": "bool"
            }
          ],
          "stateMutability": "pure",
          "type": "function"
        },
        {
          "inputs": [
            {
              "internalType": "address[]",
              "name": "value",
              "type": "address[]"
            }
          ],
          "name": "requireEvery",
          "outputs": [],
          "stateMutability": "pure",
          "type": "function"
        },
        {
          "inputs": [
            {
              "internalType": "address",
              "name": "value",
              "type": "address"
            }
          ],
          "name": "requireOne",
          "outputs": [],
          "stateMutability": "pure",
          "type": "function"
        }
      ],
      "evm": {
        "bytecode": {
          "linkReferences": {},
          "object": "608080604052346019576102ba908161001e823930815050f35b5f80fdfe60806040526004361015610011575f80fd5b5f3560e01c806311f599a5146100fa57806343e3cc1d146100dc5763bf6341cf1461003a575f80fd5b60203660031901126100d85760043573ffffffffffffffffffffffffffffffffffffffff81168091036100d8571561006e57005b608460405162461bcd60e51b815260206004820152602160248201527f416464726573734c69623a205a65726f20616464726573732070726f7669646560448201527f64000000000000000000000000000000000000000000000000000000000000006064820152fd5b5f80fd5b60206100f06100ea36610188565b9061023a565b6040519015158152f35b61010336610188565b5f5b81811061010e57005b73ffffffffffffffffffffffffffffffffffffffff6101366101318385876101dc565b610219565b161561014457600101610105565b606460405162461bcd60e51b815260206004820152601e60248201527f416464726573734c69623a205a65726f206164647265737320666f756e6400006044820152fd5b9060206003198301126100d85760043567ffffffffffffffff81116100d857826023820112156100d85780600401359267ffffffffffffffff84116100d85760248460051b830101116100d8576024019190565b91908110156101ec5760051b0190565b7f4e487b71000000000000000000000000000000000000000000000000000000005f52603260045260245ffd5b3573ffffffffffffffffffffffffffffffffffffffff811681036100d85790565b905f5b81811061024c57505050600190565b73ffffffffffffffffffffffffffffffffffffffff61026f6101318385876101dc565b161561027d5760010161023d565b5050505f9056fea26469706673582212204e4e50ff3aad213d2adfe8cf9877b3a2f7375511ef10d5ce9631838a4169f2e464736f6c634300081c0033",
          "opcodes": "PUSH1 0x80 DUP1 PUSH1 0x40 MSTORE CALLVALUE PUSH1 0x19 JUMPI PUSH2 0x2BA SWAP1 DUP2 PUSH2 0x1E DUP3 CODECOPY ADDRESS DUP2 POP POP RETURN JUMPDEST PUSH0 DUP1 REVERT INVALID PUSH1 0x80 PUSH1 0x40 MSTORE PUSH1 0x4 CALLDATASIZE LT ISZERO PUSH2 0x11 JUMPI PUSH0 DUP1 REVERT JUMPDEST PUSH0 CALLDATALOAD PUSH1 0xE0 SHR DUP1 PUSH4 0x11F599A5 EQ PUSH2 0xFA JUMPI DUP1 PUSH4 0x43E3CC1D EQ PUSH2 0xDC JUMPI PUSH4 0xBF6341CF EQ PUSH2 0x3A JUMPI PUSH0 DUP1 REVERT JUMPDEST PUSH1 0x20 CALLDATASIZE PUSH1 0x3 NOT ADD SLT PUSH2 0xD8 JUMPI PUSH1 0x4 CALLDATALOAD PUSH20 0xFFFFFFFFFFFFFFFFFFFFFFFFFFFFFFFFFFFFFFFF DUP2 AND DUP1 SWAP2 SUB PUSH2 0xD8 JUMPI ISZERO PUSH2 0x6E JUMPI STOP JUMPDEST PUSH1 0x84 PUSH1 0x40 MLOAD PUSH3 0x461BCD PUSH1 0xE5 SHL DUP2 MSTORE PUSH1 0x20 PUSH1 0x4 DUP3 ADD MSTORE PUSH1 0x21 PUSH1 0x24 DUP3 ADD MSTORE PUSH32 0x416464726573734C69623A205A65726F20616464726573732070726F76696465 PUSH1 0x44 DUP3 ADD MSTORE PUSH32 0x6400000000000000000000000000000000000000000000000000000000000000 PUSH1 0x64 DUP3 ADD MSTORE REVERT JUMPDEST PUSH0 DUP1 REVERT JUMPDEST PUSH1 0x20 PUSH2 0xF0 PUSH2 0xEA CALLDATASIZE PUSH2 0x188 JUMP JUMPDEST SWAP1 PUSH2 0x23A JUMP JUMPDEST PUSH1 0x40 MLOAD SWAP1 ISZERO ISZERO DUP2 MSTORE RETURN JUMPDEST PUSH2 0x103 CALLDATASIZE PUSH2 0x188 JUMP JUMPDEST PUSH0 JUMPDEST DUP2 DUP2 LT PUSH2 0x10E JUMPI STOP JUMPDEST PUSH20 0xFFFFFFFFFFFFFFFFFFFFFFFFFFFFFFFFFFFFFFFF PUSH2 0x136 PUSH2 0x131 DUP4 DUP6 DUP8 PUSH2 0x1DC JUMP JUMPDEST PUSH2 0x219 JUMP JUMPDEST AND ISZERO PUSH2 0x144 JUMPI PUSH1 0x1 ADD PUSH2 0x105 JUMP JUMPDEST PUSH1 0x64 PUSH1 0x40 MLOAD PUSH3 0x461BCD PUSH1 0xE5 SHL DUP2 MSTORE PUSH1 0x20 PUSH1 0x4 DUP3 ADD MSTORE PUSH1 0x1E PUSH1 0x24 DUP3 ADD MSTORE PUSH32 0x416464726573734C69623A205A65726F206164647265737320666F756E640000 PUSH1 0x44 DUP3 ADD MSTORE REVERT JUMPDEST SWAP1 PUSH1 0x20 PUSH1 0x3 NOT DUP4 ADD SLT PUSH2 0xD8 JUMPI PUSH1 0x4 CALLDATALOAD PUSH8 0xFFFFFFFFFFFFFFFF DUP2 GT PUSH2 0xD8 JUMPI DUP3 PUSH1 0x23 DUP3 ADD SLT ISZERO PUSH2 0xD8 JUMPI DUP1 PUSH1 0x4 ADD CALLDATALOAD SWAP3 PUSH8 0xFFFFFFFFFFFFFFFF DUP5 GT PUSH2 0xD8 JUMPI PUSH1 0x24 DUP5 PUSH1 0x5 SHL DUP4 ADD ADD GT PUSH2 0xD8 JUMPI PUSH1 0x24 ADD SWAP2 SWAP1 JUMP JUMPDEST SWAP2 SWAP1 DUP2 LT ISZERO PUSH2 0x1EC JUMPI PUSH1 0x5 SHL ADD SWAP1 JUMP JUMPDEST PUSH32 0x4E487B7100000000000000000000000000000000000000000000000000000000 PUSH0 MSTORE PUSH1 0x32 PUSH1 0x4 MSTORE PUSH1 0x24 PUSH0 REVERT JUMPDEST CALLDATALOAD PUSH20 0xFFFFFFFFFFFFFFFFFFFFFFFFFFFFFFFFFFFFFFFF DUP2 AND DUP2 SUB PUSH2 0xD8 JUMPI SWAP1 JUMP JUMPDEST SWAP1 PUSH0 JUMPDEST DUP2 DUP2 LT PUSH2 0x24C JUMPI POP POP POP PUSH1 0x1 SWAP1 JUMP JUMPDEST PUSH20 0xFFFFFFFFFFFFFFFFFFFFFFFFFFFFFFFFFFFFFFFF PUSH2 0x26F PUSH2 0x131 DUP4 DUP6 DUP8 PUSH2 0x1DC JUMP JUMPDEST AND ISZERO PUSH2 0x27D JUMPI PUSH1 0x1 ADD PUSH2 0x23D JUMP JUMPDEST POP POP POP PUSH0 SWAP1 JUMP INVALID LOG2 PUSH5 0x6970667358 0x22 SLT KECCAK256 0x4E 0x4E POP SELFDESTRUCT GASPRICE 0xAD 0x21 RETURNDATASIZE 0x2A 0xDF 0xE8 0xCF SWAP9 PUSH24 0xB3A2F7375511EF10D5CE9631838A4169F2E464736F6C6343 STOP ADDMOD SHR STOP CALLER "
        },
        "methodIdentifiers": {
          "every(address[])": "43e3cc1d",
          "requireEvery(address[])": "11f599a5",
          "requireOne(address)": "bf6341cf"
        }
      }
    }
  }
}