{
  "contracts/libs/IntegerLib.sol": {
    "IntegerLib": {
      "abi": [
        {
          "inputs": [
            {
              "internalType": "uint256[]",
              "name": "value",
              "type": "uint256[]"
            }
          ],
          "name": "every",
          "outputs": [
            {
              "internalType": "bool",
              "name": "",
              "type": "bool"
            }
          ],
          "stateMutability": "pure",
          "type": "function"
        },
        {
          "inputs": [
            {
              "internalType": "uint256[]",
              "name": "value",
              "type": "uint256[]"
            }
          ],
          "name": "requireEvery",
          "outputs": [],
          "stateMutability": "pure",
          "type": "function"
        },
        {
          "inputs": [
            {
              "internalType": "uint256",
              "name": "value",
              "type": "uint256"
            }
          ],
          "name": "requireOne",
          "outputs": [],
          "stateMutability": "pure",
          "type": "function"
        }
      ],
      "evm": {
        "bytecode": {
          "linkReferences": {},
          "object": "60808060405234601957610246908161001e823930815050f35b5f80fdfe60806040526004361015610011575f80fd5b5f3560e01c8063061c3ad51461012f5780638be4c965146100ab5763d0ca35ed1461003a575f80fd5b6100433661014d565b5f5b81811061004e57005b6100598183856101a1565b351561006757600101610045565b606460405162461bcd60e51b815260206004820152601e60248201527f496e74656765724c69623a205a65726f2075696e7432353620666f756e6400006044820152fd5b602036600319011261012b57600435156100c157005b608460405162461bcd60e51b815260206004820152602160248201527f496e74656765724c69623a205a65726f2075696e743235362070726f7669646560448201527f64000000000000000000000000000000000000000000000000000000000000006064820152fd5b5f80fd5b602061014361013d3661014d565b906101de565b6040519015158152f35b90602060031983011261012b5760043567ffffffffffffffff811161012b578260238201121561012b5780600401359267ffffffffffffffff841161012b5760248460051b8301011161012b576024019190565b91908110156101b15760051b0190565b7f4e487b71000000000000000000000000000000000000000000000000000000005f52603260045260245ffd5b905f5b8181106101f057505050600190565b6101fb8183856101a1565b3515610209576001016101e1565b5050505f9056fea26469706673582212208b37c6fbf39d06a0854a3f653c573e945ec86ad72616a63ee0bb7aa8ebba743c64736f6c634300081c0033",
          "opcodes": "PUSH1 0x80 DUP1 PUSH1 0x40 MSTORE CALLVALUE PUSH1 0x19 JUMPI PUSH2 0x246 SWAP1 DUP2 PUSH2 0x1E DUP3 CODECOPY ADDRESS DUP2 POP POP RETURN JUMPDEST PUSH0 DUP1 REVERT INVALID PUSH1 0x80 PUSH1 0x40 MSTORE PUSH1 0x4 CALLDATASIZE LT ISZERO PUSH2 0x11 JUMPI PUSH0 DUP1 REVERT JUMPDEST PUSH0 CALLDATALOAD PUSH1 0xE0 SHR DUP1 PUSH4 0x61C3AD5 EQ PUSH2 0x12F JUMPI DUP1 PUSH4 0x8BE4C965 EQ PUSH2 0xAB JUMPI PUSH4 0xD0CA35ED EQ PUSH2 0x3A JUMPI PUSH0 DUP1 REVERT JUMPDEST PUSH2 0x43 CALLDATASIZE PUSH2 0x14D JUMP JUMPDEST PUSH0 JUMPDEST DUP2 DUP2 LT PUSH2 0x4E JUMPI STOP JUMPDEST PUSH2 0x59 DUP2 DUP4 DUP6 PUSH2 0x1A1 JUMP JUMPDEST CALLDATALOAD ISZERO PUSH2 0x67 JUMPI PUSH1 0x1 ADD PUSH2 0x45 JUMP JUMPDEST PUSH1 0x64 PUSH1 0x40 MLOAD PUSH3 0x461BCD PUSH1 0xE5 SHL DUP2 MSTORE PUSH1 0x20 PUSH1 0x4 DUP3 ADD MSTORE PUSH1 0x1E PUSH1 0x24 DUP3 ADD MSTORE PUSH32 0x496E74656765724C69623A205A65726F2075696E7432353620666F756E640000 PUSH1 0x44 DUP3 ADD MSTORE REVERT JUMPDEST PUSH1 0x20 CALLDATASIZE PUSH1 0x3 NOT ADD SLT PUSH2 0x12B JUMPI PUSH1 0x4 CALLDATALOAD ISZERO PUSH2 0xC1 JUMPI STOP JUMPDEST PUSH1 0x84 PUSH1 0x40 MLOAD PUSH3 0x461BCD PUSH1 0xE5 SHL DUP2 MSTORE PUSH1 0x20 PUSH1 0x4 DUP3 ADD MSTORE PUSH1 0x21 PUSH1 0x24 DUP3 ADD MSTORE PUSH32 0x496E74656765724C69623A205A65726F2075696E743235362070726F76696465 PUSH1 0x44 DUP3 ADD MSTORE PUSH32 0x6400000000000000000000000000000000000000000000000000000000000000 PUSH1 0x64 DUP3 ADD MSTORE REVERT JUMPDEST PUSH0 DUP1 REVERT JUMPDEST PUSH1 0x20 PUSH2 0x143 PUSH2 0x13D CALLDATASIZE PUSH2 0x14D JUMP JUMPDEST SWAP1 PUSH2 0x1DE JUMP JUMPDEST PUSH1 0x40 MLOAD SWAP1 ISZERO ISZERO DUP2 MSTORE RETURN JUMPDEST SWAP1 PUSH1 0x20 PUSH1 0x3 NOT DUP4 ADD SLT PUSH2 0x12B JUMPI PUSH1 0x4 CALLDATALOAD PUSH8 0xFFFFFFFFFFFFFFFF DUP2 GT PUSH2 0x12B JUMPI DUP3 PUSH1 0x23 DUP3 ADD SLT ISZERO PUSH2 0x12B JUMPI DUP1 PUSH1 0x4 ADD CALLDATALOAD SWAP3 PUSH8 0xFFFFFFFFFFFFFFFF DUP5 GT PUSH2 0x12B JUMPI PUSH1 0x24 DUP5 PUSH1 0x5 SHL DUP4 ADD ADD GT PUSH2 0x12B JUMPI PUSH1 0x24 ADD SWAP2 SWAP1 JUMP JUMPDEST SWAP2 SWAP1 DUP2 LT ISZERO PUSH2 0x1B1 JUMPI PUSH1 0x5 SHL ADD SWAP1 JUMP JUMPDEST PUSH32 0x4E487B7100000000000000000000000000000000000000000000000000000000 PUSH0 MSTORE PUSH1 0x32 PUSH1 0x4 MSTORE PUSH1 0x24 PUSH0 REVERT JUMPDEST SWAP1 PUSH0 JUMPDEST DUP2 DUP2 LT PUSH2 0x1F0 JUMPI POP POP POP PUSH1 0x1 SWAP1 JUMP JUMPDEST PUSH2 0x1FB DUP2 DUP4 DUP6 PUSH2 0x1A1 JUMP JUMPDEST CALLDATALOAD ISZERO PUSH2 0x209 JUMPI PUSH1 0x1 ADD PUSH2 0x1E1 JUMP JUMPDEST POP POP POP PUSH0 SWAP1 JUMP INVALID LOG2 PUSH5 0x6970667358 0x22 SLT KECCAK256 DUP12 CALLDATACOPY 0xC6 0xFB RETURN SWAP14 MOD LOG0 DUP6 BLOBBASEFEE EXTCODEHASH PUSH6 0x3C573E945EC8 PUSH11 0xD72616A63EE0BB7AA8EBBA PUSH21 0x3C64736F6C634300081C0033000000000000000000 "
        },
        "methodIdentifiers": {
          "every(uint256[])": "061c3ad5",
          "requireEvery(uint256[])": "d0ca35ed",
          "requireOne(uint256)": "8be4c965"
        }
      }
    }
  }
}