{
  "_format": "hh-sol-artifact-1",
  "contractName": "Beam",
  "sourceName": "contracts/core/Beam.sol",
  "abi": [
    {
      "inputs": [
        {
          "internalType": "contract IMerchant",
          "name": "merchant_",
          "type": "address"
        },
        {
          "internalType": "contract IOneTimeTransaction",
          "name": "oneTimeTransaction_",
          "type": "address"
        },
        {
          "internalType": "contract IRecurrentTransaction",
          "name": "recurrentTransaction_",
          "type": "address"
        },
        {
          "internalType": "contract IHookManager",
          "name": "hookManager_",
          "type": "address"
        }
      ],
      "stateMutability": "nonpayable",
      "type": "constructor"
    },
    {
      "inputs": [
        {
          "internalType": "address",
          "name": "owner",
          "type": "address"
        }
      ],
      "name": "OwnableInvalidOwner",
      "type": "error"
    },
    {
      "inputs": [
        {
          "internalType": "address",
          "name": "account",
          "type": "address"
        }
      ],
      "name": "OwnableUnauthorizedAccount",
      "type": "error"
    },
    {
      "inputs": [
        {
          "internalType": "address",
          "name": "token",
          "type": "address"
        }
      ],
      "name": "SafeERC20FailedOperation",
      "type": "error"
    },
    {
      "anonymous": false,
      "inputs": [
        {
          "indexed": false,
          "internalType": "bytes32",
          "name": "transactionId",
          "type": "bytes32"
        },
        {
          "indexed": false,
          "internalType": "address",
          "name": "payer",
          "type": "address"
        },
        {
          "indexed": false,
          "internalType": "address[]",
          "name": "payers",
          "type": "address[]"
        },
        {
          "indexed": false,
          "internalType": "address",
          "name": "merchant",
          "type": "address"
        },
        {
          "indexed": false,
          "internalType": "address",
          "name": "token",
          "type": "address"
        },
        {
          "indexed": false,
          "internalType": "uint256[]",
          "name": "amounts",
          "type": "uint256[]"
        },
        {
          "indexed": false,
          "internalType": "address",
          "name": "adjustedToken",
          "type": "address"
        },
        {
          "indexed": false,
          "internalType": "uint256",
          "name": "adjustedAmount",
          "type": "uint256"
        },
        {
          "indexed": false,
          "internalType": "uint256",
          "name": "timestamp",
          "type": "uint256"
        },
        {
          "indexed": false,
          "internalType": "string",
          "name": "description",
          "type": "string"
        },
        {
          "components": [
            {
              "internalType": "uint8",
              "name": "schemaVersion",
              "type": "uint8"
            },
            {
              "internalType": "string",
              "name": "value",
              "type": "string"
            }
          ],
          "indexed": false,
          "internalType": "struct Types.Metadata",
          "name": "metadata",
          "type": "tuple"
        },
        {
          "indexed": false,
          "internalType": "enum Enums.TransactionStatus",
          "name": "status",
          "type": "uint8"
        }
      ],
      "name": "OneTimeTransactionCreated",
      "type": "event"
    },
    {
      "anonymous": false,
      "inputs": [
        {
          "indexed": false,
          "internalType": "bytes32",
          "name": "transactionId",
          "type": "bytes32"
        },
        {
          "indexed": false,
          "internalType": "address",
          "name": "payer",
          "type": "address"
        },
        {
          "indexed": false,
          "internalType": "address",
          "name": "merchant",
          "type": "address"
        },
        {
          "indexed": false,
          "internalType": "address",
          "name": "token",
          "type": "address"
        },
        {
          "indexed": false,
          "internalType": "uint256",
          "name": "amount",
          "type": "uint256"
        },
        {
          "indexed": false,
          "internalType": "address",
          "name": "adjustedToken",
          "type": "address"
        },
        {
          "indexed": false,
          "internalType": "uint256",
          "name": "adjustedAmount",
          "type": "uint256"
        },
        {
          "indexed": false,
          "internalType": "uint256",
          "name": "timestamp",
          "type": "uint256"
        },
        {
          "indexed": false,
          "internalType": "enum Enums.TransactionStatus",
          "name": "status",
          "type": "uint8"
        }
      ],
      "name": "OneTimeTransactionFulfilled",
      "type": "event"
    },
    {
      "anonymous": false,
      "inputs": [
        {
          "indexed": true,
          "internalType": "address",
          "name": "previousOwner",
          "type": "address"
        },
        {
          "indexed": true,
          "internalType": "address",
          "name": "newOwner",
          "type": "address"
        }
      ],
      "name": "OwnershipTransferred",
      "type": "event"
    },
    {
      "anonymous": false,
      "inputs": [
        {
          "indexed": false,
          "internalType": "bytes32",
          "name": "transactionId",
          "type": "bytes32"
        }
      ],
      "name": "RecurrentTransactionCancelled",
      "type": "event"
    },
    {
      "anonymous": false,
      "inputs": [
        {
          "indexed": false,
          "internalType": "bytes32",
          "name": "transactionId",
          "type": "bytes32"
        },
        {
          "indexed": false,
          "internalType": "address",
          "name": "payer",
          "type": "address"
        },
        {
          "indexed": false,
          "internalType": "address",
          "name": "merchant",
          "type": "address"
        },
        {
          "indexed": false,
          "internalType": "bytes32",
          "name": "subscriptionId",
          "type": "bytes32"
        },
        {
          "indexed": false,
          "internalType": "uint256",
          "name": "dueDate",
          "type": "uint256"
        },
        {
          "indexed": false,
          "internalType": "address",
          "name": "token",
          "type": "address"
        },
        {
          "indexed": false,
          "internalType": "uint256",
          "name": "amount",
          "type": "uint256"
        },
        {
          "indexed": false,
          "internalType": "address",
          "name": "adjustedToken",
          "type": "address"
        },
        {
          "indexed": false,
          "internalType": "uint256",
          "name": "adjustedAmount",
          "type": "uint256"
        },
        {
          "indexed": false,
          "internalType": "uint256",
          "name": "timestamp",
          "type": "uint256"
        },
        {
          "indexed": false,
          "internalType": "string",
          "name": "description",
          "type": "string"
        },
        {
          "components": [
            {
              "internalType": "uint8",
              "name": "schemaVersion",
              "type": "uint8"
            },
            {
              "internalType": "string",
              "name": "value",
              "type": "string"
            }
          ],
          "indexed": false,
          "internalType": "struct Types.Metadata",
          "name": "metadata",
          "type": "tuple"
        },
        {
          "indexed": false,
          "internalType": "enum Enums.TransactionStatus",
          "name": "status",
          "type": "uint8"
        }
      ],
      "name": "RecurrentTransactionCreated",
      "type": "event"
    },
    {
      "anonymous": false,
      "inputs": [
        {
          "indexed": false,
          "internalType": "bytes32",
          "name": "transactionId",
          "type": "bytes32"
        },
        {
          "indexed": false,
          "internalType": "address",
          "name": "payer",
          "type": "address"
        },
        {
          "indexed": false,
          "internalType": "address",
          "name": "merchant",
          "type": "address"
        },
        {
          "indexed": false,
          "internalType": "bytes32",
          "name": "subscriptionId",
          "type": "bytes32"
        },
        {
          "indexed": false,
          "internalType": "uint256",
          "name": "dueDate",
          "type": "uint256"
        },
        {
          "indexed": false,
          "internalType": "address",
          "name": "token",
          "type": "address"
        },
        {
          "indexed": false,
          "internalType": "uint256",
          "name": "amount",
          "type": "uint256"
        },
        {
          "indexed": false,
          "internalType": "address",
          "name": "adjustedToken",
          "type": "address"
        },
        {
          "indexed": false,
          "internalType": "uint256",
          "name": "adjustedAmount",
          "type": "uint256"
        },
        {
          "indexed": false,
          "internalType": "uint256",
          "name": "timestamp",
          "type": "uint256"
        },
        {
          "indexed": false,
          "internalType": "enum Enums.TransactionStatus",
          "name": "status",
          "type": "uint8"
        }
      ],
      "name": "RecurrentTransactionFulfilled",
      "type": "event"
    },
    {
      "inputs": [
        {
          "components": [
            {
              "internalType": "bytes32",
              "name": "transactionId",
              "type": "bytes32"
            }
          ],
          "internalType": "struct Params.CancelRecurrentTransaction",
          "name": "params",
          "type": "tuple"
        }
      ],
      "name": "cancelRecurrentTransaction",
      "outputs": [],
      "stateMutability": "nonpayable",
      "type": "function"
    },
    {
      "inputs": [
        {
          "components": [
            {
              "internalType": "bytes32",
              "name": "transactionId",
              "type": "bytes32"
            }
          ],
          "internalType": "struct Params.FulfillOneTimeTransaction",
          "name": "params",
          "type": "tuple"
        }
      ],
      "name": "fulfillOneTimeTransaction",
      "outputs": [],
      "stateMutability": "payable",
      "type": "function"
    },
    {
      "inputs": [
        {
          "components": [
            {
              "internalType": "bytes32",
              "name": "transactionId",
              "type": "bytes32"
            }
          ],
          "internalType": "struct Params.FulfillRecurrentTransaction",
          "name": "params",
          "type": "tuple"
        }
      ],
      "name": "fulfillRecurrentTransaction",
      "outputs": [],
      "stateMutability": "payable",
      "type": "function"
    },
    {
      "inputs": [
        {
          "components": [
            {
              "internalType": "address[]",
              "name": "payers",
              "type": "address[]"
            },
            {
              "internalType": "address",
              "name": "merchant",
              "type": "address"
            },
            {
              "internalType": "uint256[]",
              "name": "amounts",
              "type": "uint256[]"
            },
            {
              "internalType": "address",
              "name": "token",
              "type": "address"
            },
            {
              "internalType": "string",
              "name": "description",
              "type": "string"
            },
            {
              "components": [
                {
                  "internalType": "uint8",
                  "name": "schemaVersion",
                  "type": "uint8"
                },
                {
                  "internalType": "string",
                  "name": "value",
                  "type": "string"
                }
              ],
              "internalType": "struct Types.Metadata",
              "name": "metadata",
              "type": "tuple"
            }
          ],
          "internalType": "struct Params.CreateOneTimeTransaction",
          "name": "params",
          "type": "tuple"
        }
      ],
      "name": "oneTimeTransaction",
      "outputs": [],
      "stateMutability": "payable",
      "type": "function"
    },
    {
      "inputs": [],
      "name": "owner",
      "outputs": [
        {
          "internalType": "address",
          "name": "",
          "type": "address"
        }
      ],
      "stateMutability": "view",
      "type": "function"
    },
    {
      "inputs": [
        {
          "components": [
            {
              "internalType": "address",
              "name": "merchant",
              "type": "address"
            },
            {
              "internalType": "bytes32",
              "name": "subscriptionId",
              "type": "bytes32"
            },
            {
              "internalType": "string",
              "name": "description",
              "type": "string"
            },
            {
              "components": [
                {
                  "internalType": "uint8",
                  "name": "schemaVersion",
                  "type": "uint8"
                },
                {
                  "internalType": "string",
                  "name": "value",
                  "type": "string"
                }
              ],
              "internalType": "struct Types.Metadata",
              "name": "metadata",
              "type": "tuple"
            }
          ],
          "internalType": "struct Params.CreateRecurrentTransaction",
          "name": "params",
          "type": "tuple"
        }
      ],
      "name": "recurrentTransaction",
      "outputs": [],
      "stateMutability": "payable",
      "type": "function"
    },
    {
      "inputs": [],
      "name": "renounceOwnership",
      "outputs": [],
      "stateMutability": "nonpayable",
      "type": "function"
    },
    {
      "inputs": [
        {
          "internalType": "address",
          "name": "newOwner",
          "type": "address"
        }
      ],
      "name": "transferOwnership",
      "outputs": [],
      "stateMutability": "nonpayable",
      "type": "function"
    }
  ],
  "bytecode": "0x60803461014757601f612d9a38819003918201601f19168301916001600160401b0383118484101761014b578084926080946040528339810103126101475780516001600160a01b03811691908290036101475760208101516001600160a01b03811691908290036101475760408101516001600160a01b038116919082900361014757606001516001600160a01b0381169290839003610147573315610134575f8054336001600160a01b0319821681178355604051969290916001600160a01b0316907f8be0079c531659141344cd1fd0a4f28419497f9722a3daafe3b4186f6b6457e09080a360018060a01b0319600154161760015560018060a01b0319600354161760035560018060a01b0319600454161760045560018060a01b03196002541617600255612c3a90816101608239f35b631e4fbdf760e01b5f525f60045260245ffd5b5f80fd5b634e487b7160e01b5f52604160045260245ffdfe6080806040526004361015610012575f80fd5b5f905f3560e01c9081631121d17b14611d2157508063163e2045146114c65780631fd9b2bf14611407578063384c7aa314610cb8578063715018a614610c525780638da5cb5b14610c2c578063a0d95656146101285763f2fde38b14610076575f80fd5b34610125576020366003190112610125576004356001600160a01b038116809103610123576100a3612b58565b80156100f7576001600160a01b0382548273ffffffffffffffffffffffffffffffffffffffff198216178455167f8be0079c531659141344cd1fd0a4f28419497f9722a3daafe3b4186f6b6457e08380a380f35b6024827f1e4fbdf700000000000000000000000000000000000000000000000000000000815280600452fd5b505b80fd5b5060203660031901126101255760043567ffffffffffffffff81116101235760c06003198236030112610123576040519060c0820182811067ffffffffffffffff821117610c1857604052806004013567ffffffffffffffff8111610a9657810136602382011215610a96576004810135906101a382612679565b916101b16040519384612560565b808352602060048185019260051b8401010191368311610be857602401905b828210610c005750505082526101e860248201612582565b9160208101928352604482013567ffffffffffffffff8111610bfc57820136602382011215610bfc5760048101359061022082612679565b9161022e6040519384612560565b808352602060048185019260051b8401010191368311610ba957602401905b828210610bec575050506040820190815261026a60648401612582565b9260608301938452608481013567ffffffffffffffff8111610be85761029690600436918401016125b2565b906080840191825260a48101359067ffffffffffffffff8211610ba95760046102c292369201016125f8565b9060a0840191825273__$9a64d4390e1f317cfd7b279e493df8b9ee$__90876001600160a01b03885116833b15610123576040519063bf6341cf60e01b825260048201528181602481875af480156109aa57610bd3575b50508451823b15610bcf578890604051907f11f599a500000000000000000000000000000000000000000000000000000000825260248201602060048401528151809152602060448401920190845b818110610bad57505050818084920381875af480156109aa57610b94575b5050835173__$1472882dd151bacffe3e5240c3a944adb7$__803b156109a6579089939291604051917fd0ca35ed00000000000000000000000000000000000000000000000000000000835260248301602060048501528151809152602060448501920190875b818110610b7b5750505085918380809303915af4908115610a35578491610b66575b50506003546001600160a01b031696604051977f65b68b6f0000000000000000000000000000000000000000000000000000000089523360048a01526024890160409052888089516044820160c09052610104820161046d91612870565b8c516001600160a01b03166064830152895182820360431901608484015261049591906128ac565b84516001600160a01b031660a483015285518282036043190160c48401526104bd9190612691565b88518282036043190160e48401526104d591906126b5565b0381875a94602095f1978815610a35578498610b2b575b50600354604080516316c9372360e11b8152600481018b905233602482015295918690604490829085906001600160a01b03165af18015610b1e5781958291610ae9575b506001600160a01b036001541660206001600160a01b038d51166024604051809481936304d0a64760e01b835260048301525afa908115610a15578391610aaf575b50853b156109b557826001600160a01b039160246040518094819363bf6341cf60e01b835216998a60048301525af4908115610a15578391610a9a575b50506001600160a01b038b51166001600160a01b03845116604051916105d4836124dc565b825233602083015260408201528160608201526001600160a01b036002541690813b15610a96576106586084859283604051958694859363577ed67f60e11b85526004850190606080916001600160a01b0381511684526001600160a01b0360208201511660208501526001600160a01b0360408201511660408501520151910152565b5af1908115610a15578391610a81575b50506001600160a01b038b5116956001600160a01b038451166040519761068e896124dc565b885233602089019081526040808a0192835260608a018581526002548251630716fa0360e31b81529b516001600160a01b0390811660048e01529351841660248d01529351831660448c01525160648b01529189916084918391165afa958615610a155783978497610a4a575b50604051976107098961250c565b61072b6001600160a01b038216998a8152896020820152836040820152612964565b88610a4457875b823b15610a40576040516311f9fbc960e21b81526001600160a01b039290921660048301526024820189905290918591839160449183915af1908115610a35578491610a20575b50506109b9575b6001600160a01b038b5116906001600160a01b03845116604051926107a484612528565b83528b6020840152336040840152606083015260808201528560a08201528460c08201526001600160a01b0360025416803b156109b55760408051632b54892b60e01b815283516001600160a01b0390811660048301526020850151602483015291840151821660448201526060840151821660648201526080840151608482015260a084015190911660a482015260c09092015160c48301528290829060e490829084905af180156109aa57610991575b50506001600160a01b0380602498519a51169151169551915194519560206001600160a01b0360035416604051998a80926302ef145760e51b82528d60048301525afa978815610986578b98610955575b50604051998a998a523360208b015260408a0161018090526101808a016108cd91612870565b9160608a0152608089015287810360a08901526108e9916128ac565b9160c087015260e08601524261010086015284810361012086015261090d91612691565b83810361014085015261091f916126b5565b90610160830161092e9161273d565b037f7beb8a64e3d9f4b12c8fdabe8e255ae383c3a0e348b481a32734f2b4d0935d1d91a180f35b61097891985060203d60201161097f575b6109708183612560565b810190612725565b965f6108a7565b503d610966565b6040513d8d823e3d90fd5b8161099b91612560565b6109a657895f610856565b8980fd5b6040513d84823e3d90fd5b8280fd5b6001600160a01b0360035416803b156109b55782809160248d60405194859384926305543f8560e01b845260048401525af1908115610a15578391610a00575b5050610780565b81610a0a91612560565b61012357815f6109f9565b6040513d85823e3d90fd5b81610a2a91612560565b6109b557825f610779565b6040513d86823e3d90fd5b8580fd5b84610732565b909650610a7091975060403d604011610a7a575b610a688183612560565b81019061270e565b969096955f6106fb565b503d610a5e565b81610a8b91612560565b61012357815f610668565b8380fd5b81610aa491612560565b61012357815f6105af565b90506020813d602011610ae1575b81610aca60209383612560565b810103126109b557610adb906126d8565b5f610572565b3d9150610abd565b9050610b0e91955060403d604011610b17575b610b068183612560565b81019061276b565b9490945f610530565b503d610afc565b50604051903d90823e3d90fd5b935096506020833d602011610b5e575b81610b4860209383612560565b81010312610b5a57889251965f6104ec565b5f80fd5b3d9150610b3b565b81610b7091612560565b6109b557825f61040f565b825184528e9850602093840193909201916001016103ed565b81610b9e91612560565b610ba957875f610386565b8780fd5b82516001600160a01b031684528d955060209384019390920191600101610368565b8880fd5b81610bdd91612560565b610ba957875f610319565b8680fd5b813581526020918201910161024d565b8480fd5b60208091610c0d84612582565b8152019101906101d0565b602484634e487b7160e01b81526041600452fd5b50346101255780600319360112610125576001600160a01b036020915416604051908152f35b5034610125578060031936011261012557610c6b612b58565b806001600160a01b03815473ffffffffffffffffffffffffffffffffffffffff1981168355167f8be0079c531659141344cd1fd0a4f28419497f9722a3daafe3b4186f6b6457e08280a380f35b5060203660031901126101255780610ccf36612648565b6004805482516040516316c9372360e11b815292830152336024830152909260609184916044918391906001600160a01b03165af1908115610a15578390849385936113cf575b506001600160a01b03600454169285825160246040518097819363255709e560e11b835260048301525afa9384156113c4578694611274575b506001600160a01b0360015416602085019360206001600160a01b038651166024604051809581936304d0a64760e01b835260048301525afa91821561126957889261122d575b508773__$9a64d4390e1f317cfd7b279e493df8b9ee$__92833b1561012357816001600160a01b039160246040518094819363bf6341cf60e01b835216978860048301525af480156109aa57611218575b506001600160a01b03808751169860405199610e028b6124dc565b8a523360208b015216978860408201528260608201526001600160a01b036002541690813b156109b557610e896084849283604051958694859363577ed67f60e11b85526004850190606080916001600160a01b0381511684526001600160a01b0360208201511660208501526001600160a01b0360408201511660408501520151910152565b5af180156109aa57611203575b50506001600160a01b038551169060405191610eb1836124dc565b8252336020830190815260408084018a8152606085018481526002548351630716fa0360e31b815296516001600160a01b0390811660048901529451851660248801529151841660448701525160648601528b9285916084918391165afa938415610b1e57819382956111dc575b5060405193610f2d8561250c565b610f4f6001600160a01b03821695868152876020820152836040820152612964565b846111d657855b823b15610a96576040516311f9fbc960e21b81526001600160a01b039290921660048301526024820187905290918391839160449183915af180156109aa576111c1575b506001600160a01b03600454168651813b156109b557829160448392604051948593849263b38ffd5f60e01b845260048401528860248401525af180156109aa576111ac575b506001600160a01b03875116865160405191610ffb83612528565b825260208201523360408201528960608201528260808201528360a08201528460c08201526001600160a01b0360025416803b156109b55760408051632b54892b60e01b815283516001600160a01b0390811660048301526020850151602483015291840151821660448201526060840151821660648201526080840151608482015260a084015190911660a482015260c09092015160c48301528290829060e490829084905af180156109aa57611197575b505060406001600160a01b03602496519751169701519760206001600160a01b0360045416604051978880926302ef145760e51b82528b60048301525afa94851561118c577f5ee194c82e2134ebf127f5c6abcd33122804c95eb8f2e9ac42afbb1c4f8067999961016099611167988d9861116b575b50604051998a523360208b015260408a01526060890152608088015260a087015260c086015260e08501526101008401524261012084015261014083019061273d565ba180f35b61118591985060203d60201161097f576109708183612560565b965f611124565b6040513d8c823e3d90fd5b816111a191612560565b610bcf57885f6110ae565b816111b691612560565b610bcf57885f610fe0565b816111cb91612560565b610bcf57885f610f9a565b82610f56565b9094506111f991935060403d604011610a7a57610a688183612560565b929092935f610f1f565b8161120d91612560565b610ba957875f610e96565b8161122291612560565b610ba957875f610de7565b9091506020813d602011611261575b8161124960209383612560565b81010312610ba95761125a906126d8565b905f610d96565b3d915061123c565b6040513d8a823e3d90fd5b9093503d8087833e6112868183612560565b810190602081830312610be85780519067ffffffffffffffff8211610ba957019061012082820312610be85760405191610120830183811067ffffffffffffffff8211176113b0576040526112da816126d8565b83526112e8602082016126d8565b602084015260408101516040840152606081015167ffffffffffffffff8111610bcf57826113179183016127df565b6060840152608081015167ffffffffffffffff8111610bcf578261133c918301612782565b608084015260a081015167ffffffffffffffff8111610bcf5782611361918301612782565b60a084015260c081015160c084015260e081015167ffffffffffffffff8111610bcf5761010092611393918301612825565b60e084015201516004811015610be857610100820152925f610d4f565b602489634e487b7160e01b81526041600452fd5b6040513d88823e3d90fd5b915092506113f5915060603d606011611400575b6113ed8183612560565b8101906126ec565b92919092915f610d16565b503d6113e3565b50346101255760203660031901126101255761142236612648565b816001600160a01b03600454168251813b156109b55782916044839260405194859384927f3ed5027500000000000000000000000000000000000000000000000000000000845233600485015260248401525af180156109aa576114b1575b507fc3c75c4774edd09c7fdd8bae55bab418801f3e47da88adef31bb59b7b70aeb2660208351604051908152a180f35b816114bb91612560565b61012357815f611481565b50602036600319011261012557806114dd36612648565b60406115236001600160a01b0360035416835183519586809481936316c9372360e11b83523390600484019092916001600160a01b036020916040840195845216910152565b03925af18015610a155783928491611cfc575b506001600160a01b03600354169184815160246040518096819363255709e560e11b835260048301525afa928315611cf1578593611aa2575b506001600160a01b036001541691604084019260206001600160a01b038551166024604051809481936304d0a64760e01b835260048301525afa908115611a97578791611a5d575b508673__$9a64d4390e1f317cfd7b279e493df8b9ee$__91823b1561012357816001600160a01b039160246040518094819363bf6341cf60e01b835216968760048301525af480156109aa57611a48575b5060a06001600160a01b038651169601956001600160a01b0387511660405191611631836124dc565b825233602083015260408201528360608201526001600160a01b036002541690813b156109b5576116b56084849283604051958694859363577ed67f60e11b85526004850190606080916001600160a01b0381511684526001600160a01b0360208201511660208501526001600160a01b0360408201511660408501520151910152565b5af180156109aa57611a33575b50506001600160a01b03845116956001600160a01b03865116604051976116e8896124dc565b885233602089019081526040808a0192835260608a018681526002548251630716fa0360e31b81529b516001600160a01b0390811660048e01529351841660248d01529351831660448c01525160648b01528a9290918a916084918391165afa928315610b1e5781988294611a0c575b50604051986117668a61250c565b6117886001600160a01b0382169a8b8152866020820152836040820152612964565b89611a0657845b823b15610a96576040516311f9fbc960e21b81526001600160a01b039290921660048301526024820186905290918391839160449183915af180156109aa576119f1575b5050611995575b866001600160a01b0385511684516001600160a01b03885116906040519261180184612528565b8352602083015233604083015260608201528360808201528760a08201528260c08201526001600160a01b0360025416803b156109b55760408051632b54892b60e01b815283516001600160a01b0390811660048301526020850151602483015291840151821660448201526060840151821660648201526080840151608482015260a084015190911660a482015260c09092015160c48301528290829060e490829084905af180156109aa57611980575b50506001600160a01b0380602494519551169551169560206001600160a01b0360035416604051958680926302ef145760e51b82528960048301525afa928315611269577f3be3e9461fae0d01c4c50446b8ef7aa62bd38045d385b7fbb89d50a83cc75a809761012097611167968b9661195f575b5060405197885233602089015260408801526060870152608086015260a085015260c08401524260e084015261010083019061273d565b61197991965060203d60201161097f576109708183612560565b945f611928565b8161198a91612560565b610be857865f6118b3565b866001600160a01b03600354168451813b156109b55782916024839260405194859384926305543f8560e01b845260048401525af180156109aa576119dc575b50506117da565b816119e691612560565b610be857865f6119d5565b816119fb91612560565b610ba957875f6117d3565b8261178f565b909350611a2991985060403d604011610a7a57610a688183612560565b979097925f611758565b81611a3d91612560565b610be857865f6116c2565b81611a5291612560565b610be857865f611608565b90506020813d602011611a8f575b81611a7860209383612560565b81010312610be857611a89906126d8565b5f6115b7565b3d9150611a6b565b6040513d89823e3d90fd5b9092503d8086833e611ab48183612560565b810190602081830312610a405780519067ffffffffffffffff8211610be857019061014082820312610a405760405191610140830183811067ffffffffffffffff821117611cdd57604052611b08816126d8565b8352602081015167ffffffffffffffff8111610ba957810182601f82011215610ba957805190611b3782612679565b91611b456040519384612560565b80835260208084019160051b83010191858311611cc157602001905b828210611cc5575050506020840152611b7c604082016126d8565b6040840152606081015167ffffffffffffffff8111610ba95782611ba1918301612782565b6060840152608081015167ffffffffffffffff8111610ba957810182601f82011215610ba957805190611bd382612679565b91611be16040519384612560565b80835260208084019160051b83010191858311611cc157602001905b828210611ca9575050506080840152611c1860a082016126d8565b60a084015260c081015167ffffffffffffffff8111610ba95782611c3d918301612782565b60c084015260e081015167ffffffffffffffff8111610ba95782611c629183016127df565b60e084015261010081015167ffffffffffffffff8111610ba95761012092611c8b918301612825565b61010084015201516004811015610a4057610120820152915f61156f565b60208091611cb68461275e565b815201910190611bfd565b8a80fd5b60208091611cd2846126d8565b815201910190611b61565b602488634e487b7160e01b81526041600452fd5b6040513d87823e3d90fd5b9050611d1891925060403d604011610b1757610b068183612560565b9190915f611536565b826020366003190112610b5a5760043567ffffffffffffffff8111610b5a5760806003198236030112610b5a57611d57836124dc565b611d6381600401612582565b8352602083019260248201358452604482013567ffffffffffffffff8111610b5a57611d9590600436918501016125b2565b916040820192835260648101359067ffffffffffffffff8211610b5a576004611dc192369201016125f8565b936060820194855273__$9a64d4390e1f317cfd7b279e493df8b9ee$__926001600160a01b0383511695843b15610b5a576040519663bf6341cf60e01b885260048801525f87602481885af480156124d1576124b9575b8596506001600160a01b036004969596541695602060405180987fb658330e000000000000000000000000000000000000000000000000000000008252336004830152604060248301526001600160a01b03885116604483015286516064830152818981611ea8611e958a516080608485015260c4840190612691565b89518382036043190160a48501526126b5565b03925af19687156113c4578697612482575b50600480546040516316c9372360e11b8152918201899052336024830152606090829060449082908b906001600160a01b03165af1908115611a975787908890899361245e575b506001600160a01b036001541660206001600160a01b038a51166024604051809481936304d0a64760e01b835260048301525afa90811561118c578a91612424575b50843b156109a657896001600160a01b039160246040518094819363bf6341cf60e01b835216988960048301525af490811561118c578a9161240f575b50506001600160a01b03808951169160405192611f9c846124dc565b835233602084015216908160408201528260608201526001600160a01b036002541690813b15611cc15761202360848c9283604051958694859363577ed67f60e11b85526004850190606080916001600160a01b0381511684526001600160a01b0360208201511660208501526001600160a01b0360408201511660408501520151910152565b5af190811561118c578a916123fa575b50506001600160a01b03885116926040519361204e856124dc565b845233602085019081526040808601848152606087018681526002548351630716fa0360e31b815298516001600160a01b0390811660048b01529451851660248a0152915184166044890152516064880152909186916084918391165afa94851561118c578a948b966123d3575b50604051946120ca8661250c565b6120ec6001600160a01b03821696878152886020820152836040820152612964565b856123cd57865b823b156123c9576040516311f9fbc960e21b81526001600160a01b039290921660048301526024820188905290918c91839160449183915af1908115610986578b916123b4575b50506001600160a01b0360045416803b15611cc1578a809160448e604051948593849263b38ffd5f60e01b845260048401528960248401525af1908115610986578b9161239f575b50506001600160a01b03895116986040519961219d8b612528565b8a528b60208b01523360408b01528260608b01528360808b01528460a08b01528560c08b01526001600160a01b0360025416803b1561239b5760408051632b54892b60e01b81528c516001600160a01b03908116600483015260208e01516024830152918d01518216604482015260608d01518216606482015260808d0151608482015260a08d015190911660a482015260c0909b015160c48c01528b908b9060e490829084905af18015610986578c9a8c91612380575b50506001600160a01b039051169751965195519660206001600160a01b036004541660246040519e8f9283916302ef145760e51b835260048301525afa988915610986577f3744b8fadedfebb31c995bbe9b714d3a32ab9c0b1f1592b9eebdf6196e62cd359c60409c9a612343575b5092612322959261233198959261233d9a98958e519e8f9e8f908152336020820152015260608d015260808c015260a08b015260c08a015260e0890152610100880152426101208801526101a06101408801526101a0870190612691565b908582036101608701526126b5565b9161018084019061273d565b0390a180f35b61233d999794919a509261233198959261236f612322989560203d60201161097f576109708183612560565b9b9295989a509295985092956122c4565b81929b509061238e91612560565b6109a6578a988a8e612255565b8b80fd5b816123a991612560565b6109a657898d612182565b816123be91612560565b6109a657898d61213a565b8c80fd5b8b6120f3565b9095506123f091945060403d604011610a7a57610a688183612560565b939093948d6120bc565b8161240491612560565b610bcf57888c612033565b8161241991612560565b610bcf57888c611f80565b90506020813d602011612456575b8161243f60209383612560565b810103126109a657612450906126d8565b8c611f43565b3d9150612432565b91505061247a915060603d606011611400576113ed8183612560565b91908b611f01565b955095506020853d6020116124b1575b8161249f60209383612560565b81010312610b5a578694519588611eba565b3d9150612492565b939450945f6124c791612560565b5f93928590611e18565b6040513d5f823e3d90fd5b6080810190811067ffffffffffffffff8211176124f857604052565b634e487b7160e01b5f52604160045260245ffd5b6060810190811067ffffffffffffffff8211176124f857604052565b60e0810190811067ffffffffffffffff8211176124f857604052565b6040810190811067ffffffffffffffff8211176124f857604052565b90601f8019910116810190811067ffffffffffffffff8211176124f857604052565b35906001600160a01b0382168203610b5a57565b67ffffffffffffffff81116124f857601f01601f191660200190565b81601f82011215610b5a578035906125c982612596565b926125d76040519485612560565b82845260208383010111610b5a57815f926020809301838601378301015290565b9190604083820312610b5a576040519061261182612544565b8193803560ff81168103610b5a57835260208101359167ffffffffffffffff8311610b5a5760209261264392016125b2565b910152565b6020906003190112610b5a57604051906020820182811067ffffffffffffffff8211176124f8576040526004358252565b67ffffffffffffffff81116124f85760051b60200190565b805180835260209291819084018484015e5f828201840152601f01601f1916010190565b90604060206126d59360ff81511684520151918160208201520190612691565b90565b51906001600160a01b0382168203610b5a57565b90816060910312610b5a578051916040612708602084016126d8565b92015190565b9190826040910312610b5a576020612708836126d8565b90816020910312610b5a57516004811015610b5a5790565b90600482101561274a5752565b634e487b7160e01b5f52602160045260245ffd5b51908115158203610b5a57565b9190826040910312610b5a5760206127088361275e565b9080601f83011215610b5a57815161279981612679565b926127a76040519485612560565b81845260208085019260051b820101928311610b5a57602001905b8282106127cf5750505090565b81518152602091820191016127c2565b81601f82011215610b5a578051906127f682612596565b926128046040519485612560565b82845260208383010111610b5a57815f9260208093018386015e8301015290565b9190604083820312610b5a576040519061283e82612544565b8193805160ff81168103610b5a57835260208101519167ffffffffffffffff8311610b5a5760209261264392016127df565b90602080835192838152019201905f5b81811061288d5750505090565b82516001600160a01b0316845260209384019390920191600101612880565b90602080835192838152019201905f5b8181106128c95750505090565b82518452602093840193909201916001016128bc565b604051906128ee604083612560565b600382527f31303000000000000000000000000000000000000000000000000000000000006020830152565b156129225750565b612960906040519182917f08c379a0000000000000000000000000000000000000000000000000000000008352602060048401526024830190612691565b0390fd5b80516001600160a01b031680612ada575034905b61299260208201928351111561298c6128df565b9061291a565b80516001600160a01b0316806129b55750506129b39051341461298c6128df565b565b612a0b90835190604051917f23b872dd000000000000000000000000000000000000000000000000000000006020840152336024840152306044840152606483015260648252612a06608483612560565b612b97565b6001600160a01b036040818351169201511691519060205f60405193612a6a85612a5c8582019363095ea7b360e01b85528960248401602090939291936001600160a01b0360408201951681520152565b03601f198101875286612560565b84519082855af15f513d82612abe575b505015612a8657505050565b612a066129b3936040519063095ea7b360e01b602083015260248201525f604482015260448152612ab8606482612560565b82612b97565b909150612ad25750803b15155b5f80612a7a565b600114612acb565b6020602491604051928380927f70a082310000000000000000000000000000000000000000000000000000000082523360048301525afa9081156124d1575f91612b26575b5090612978565b90506020813d602011612b50575b81612b4160209383612560565b81010312610b5a57515f612b1f565b3d9150612b34565b6001600160a01b035f54163303612b6b57565b7f118cdaa7000000000000000000000000000000000000000000000000000000005f523360045260245ffd5b905f602091828151910182855af1156124d1575f513d612bfb57506001600160a01b0381163b155b612bc65750565b6001600160a01b03907f5274afe7000000000000000000000000000000000000000000000000000000005f521660045260245ffd5b60011415612bbf56fea2646970667358221220f5e5b17b80dffbbee02285f55bc79003236596e48ced6f13bc335a1ec475da9a64736f6c634300081c0033",
  "linkReferences": {
    "contracts/libs/AddressLib.sol": {
      "AddressLib": [
        {
          "length": 20,
          "start": 1068
        },
        {
          "length": 20,
          "start": 3834
        },
        {
          "length": 20,
          "start": 5915
        },
        {
          "length": 20,
          "start": 7979
        }
      ]
    },
    "contracts/libs/IntegerLib.sol": {
      "IntegerLib": [
        {
          "length": 20,
          "start": 1260
        }
      ]
    }
  },
  "deployedLinkReferences": {
    "contracts/libs/AddressLib.sol": {
      "AddressLib": [
        {
          "length": 20,
          "start": 716
        },
        {
          "length": 20,
          "start": 3482
        },
        {
          "length": 20,
          "start": 5563
        },
        {
          "length": 20,
          "start": 7627
        }
      ]
    },
    "contracts/libs/IntegerLib.sol": {
      "IntegerLib": [
        {
          "length": 20,
          "start": 908
        }
      ]
    }
  }
}