{
  "_format": "hh-sol-artifact-1",
  "contractName": "IntegerLib",
  "sourceName": "contracts/libs/IntegerLib.sol",
  "abi": [
    {
      "inputs": [
        {
          "internalType": "uint256[]",
          "name": "value",
          "type": "uint256[]"
        }
      ],
      "name": "every",
      "outputs": [
        {
          "internalType": "bool",
          "name": "",
          "type": "bool"
        }
      ],
      "stateMutability": "pure",
      "type": "function"
    },
    {
      "inputs": [
        {
          "internalType": "uint256[]",
          "name": "value",
          "type": "uint256[]"
        }
      ],
      "name": "requireEvery",
      "outputs": [],
      "stateMutability": "pure",
      "type": "function"
    },
    {
      "inputs": [
        {
          "internalType": "uint256",
          "name": "value",
          "type": "uint256"
        }
      ],
      "name": "requireOne",
      "outputs": [],
      "stateMutability": "pure",
      "type": "function"
    }
  ],
  "bytecode": "0x60808060405234601957610246908161001e823930815050f35b5f80fdfe60806040526004361015610011575f80fd5b5f3560e01c8063061c3ad51461012f5780638be4c965146100ab5763d0ca35ed1461003a575f80fd5b6100433661014d565b5f5b81811061004e57005b6100598183856101a1565b351561006757600101610045565b606460405162461bcd60e51b815260206004820152601e60248201527f496e74656765724c69623a205a65726f2075696e7432353620666f756e6400006044820152fd5b602036600319011261012b57600435156100c157005b608460405162461bcd60e51b815260206004820152602160248201527f496e74656765724c69623a205a65726f2075696e743235362070726f7669646560448201527f64000000000000000000000000000000000000000000000000000000000000006064820152fd5b5f80fd5b602061014361013d3661014d565b906101de565b6040519015158152f35b90602060031983011261012b5760043567ffffffffffffffff811161012b578260238201121561012b5780600401359267ffffffffffffffff841161012b5760248460051b8301011161012b576024019190565b91908110156101b15760051b0190565b7f4e487b71000000000000000000000000000000000000000000000000000000005f52603260045260245ffd5b905f5b8181106101f057505050600190565b6101fb8183856101a1565b3515610209576001016101e1565b5050505f9056fea26469706673582212208b37c6fbf39d06a0854a3f653c573e945ec86ad72616a63ee0bb7aa8ebba743c64736f6c634300081c0033",
  "linkReferences": {},
  "deployedLinkReferences": {}
}