{
  "_format": "hh-sol-artifact-1",
  "contractName": "AddressLib",
  "sourceName": "contracts/libs/AddressLib.sol",
  "abi": [
    {
      "inputs": [
        {
          "internalType": "address[]",
          "name": "value",
          "type": "address[]"
        }
      ],
      "name": "every",
      "outputs": [
        {
          "internalType": "bool",
          "name": "",
          "type": "bool"
        }
      ],
      "stateMutability": "pure",
      "type": "function"
    },
    {
      "inputs": [
        {
          "internalType": "address[]",
          "name": "value",
          "type": "address[]"
        }
      ],
      "name": "requireEvery",
      "outputs": [],
      "stateMutability": "pure",
      "type": "function"
    },
    {
      "inputs": [
        {
          "internalType": "address",
          "name": "value",
          "type": "address"
        }
      ],
      "name": "requireOne",
      "outputs": [],
      "stateMutability": "pure",
      "type": "function"
    }
  ],
  "bytecode": "0x608080604052346019576102ba908161001e823930815050f35b5f80fdfe60806040526004361015610011575f80fd5b5f3560e01c806311f599a5146100fa57806343e3cc1d146100dc5763bf6341cf1461003a575f80fd5b60203660031901126100d85760043573ffffffffffffffffffffffffffffffffffffffff81168091036100d8571561006e57005b608460405162461bcd60e51b815260206004820152602160248201527f416464726573734c69623a205a65726f20616464726573732070726f7669646560448201527f64000000000000000000000000000000000000000000000000000000000000006064820152fd5b5f80fd5b60206100f06100ea36610188565b9061023a565b6040519015158152f35b61010336610188565b5f5b81811061010e57005b73ffffffffffffffffffffffffffffffffffffffff6101366101318385876101dc565b610219565b161561014457600101610105565b606460405162461bcd60e51b815260206004820152601e60248201527f416464726573734c69623a205a65726f206164647265737320666f756e6400006044820152fd5b9060206003198301126100d85760043567ffffffffffffffff81116100d857826023820112156100d85780600401359267ffffffffffffffff84116100d85760248460051b830101116100d8576024019190565b91908110156101ec5760051b0190565b7f4e487b71000000000000000000000000000000000000000000000000000000005f52603260045260245ffd5b3573ffffffffffffffffffffffffffffffffffffffff811681036100d85790565b905f5b81811061024c57505050600190565b73ffffffffffffffffffffffffffffffffffffffff61026f6101318385876101dc565b161561027d5760010161023d565b5050505f9056fea26469706673582212204e4e50ff3aad213d2adfe8cf9877b3a2f7375511ef10d5ce9631838a4169f2e464736f6c634300081c0033",
  "linkReferences": {},
  "deployedLinkReferences": {}
}