{
  "_format": "hh-sol-artifact-1",
  "contractName": "HookManager",
  "sourceName": "contracts/core/HookManager.sol",
  "abi": [
    {
      "inputs": [],
      "stateMutability": "nonpayable",
      "type": "constructor"
    },
    {
      "inputs": [
        {
          "internalType": "address",
          "name": "owner",
          "type": "address"
        }
      ],
      "name": "OwnableInvalidOwner",
      "type": "error"
    },
    {
      "inputs": [
        {
          "internalType": "address",
          "name": "account",
          "type": "address"
        }
      ],
      "name": "OwnableUnauthorizedAccount",
      "type": "error"
    },
    {
      "anonymous": false,
      "inputs": [
        {
          "indexed": true,
          "internalType": "address",
          "name": "merchant",
          "type": "address"
        },
        {
          "indexed": false,
          "internalType": "address",
          "name": "hook",
          "type": "address"
        }
      ],
      "name": "HookRegistered",
      "type": "event"
    },
    {
      "anonymous": false,
      "inputs": [
        {
          "indexed": true,
          "internalType": "address",
          "name": "merchant",
          "type": "address"
        },
        {
          "indexed": false,
          "internalType": "address",
          "name": "hook",
          "type": "address"
        }
      ],
      "name": "HookUnRegistered",
      "type": "event"
    },
    {
      "anonymous": false,
      "inputs": [
        {
          "indexed": true,
          "internalType": "address",
          "name": "previousOwner",
          "type": "address"
        },
        {
          "indexed": true,
          "internalType": "address",
          "name": "newOwner",
          "type": "address"
        }
      ],
      "name": "OwnershipTransferred",
      "type": "event"
    },
    {
      "inputs": [
        {
          "components": [
            {
              "internalType": "address",
              "name": "merchant",
              "type": "address"
            },
            {
              "internalType": "address",
              "name": "payer",
              "type": "address"
            },
            {
              "internalType": "address",
              "name": "token",
              "type": "address"
            },
            {
              "internalType": "uint256",
              "name": "amount",
              "type": "uint256"
            }
          ],
          "internalType": "struct Params.AdjustTokenAmount",
          "name": "params",
          "type": "tuple"
        }
      ],
      "name": "adjustTokenAmount",
      "outputs": [
        {
          "internalType": "address",
          "name": "adjustedToken",
          "type": "address"
        },
        {
          "internalType": "uint256",
          "name": "adjustedAmount",
          "type": "uint256"
        }
      ],
      "stateMutability": "view",
      "type": "function"
    },
    {
      "inputs": [
        {
          "components": [
            {
              "internalType": "address",
              "name": "merchant",
              "type": "address"
            },
            {
              "internalType": "bytes32",
              "name": "transactionId",
              "type": "bytes32"
            },
            {
              "internalType": "address",
              "name": "payer",
              "type": "address"
            },
            {
              "internalType": "address",
              "name": "token",
              "type": "address"
            },
            {
              "internalType": "uint256",
              "name": "amount",
              "type": "uint256"
            },
            {
              "internalType": "address",
              "name": "adjustedToken",
              "type": "address"
            },
            {
              "internalType": "uint256",
              "name": "adjustedAmount",
              "type": "uint256"
            }
          ],
          "internalType": "struct Params.AfterPayment",
          "name": "params",
          "type": "tuple"
        }
      ],
      "name": "afterPayment",
      "outputs": [],
      "stateMutability": "nonpayable",
      "type": "function"
    },
    {
      "inputs": [
        {
          "components": [
            {
              "internalType": "address",
              "name": "merchant",
              "type": "address"
            },
            {
              "internalType": "address",
              "name": "payer",
              "type": "address"
            },
            {
              "internalType": "address",
              "name": "token",
              "type": "address"
            },
            {
              "internalType": "uint256",
              "name": "amount",
              "type": "uint256"
            }
          ],
          "internalType": "struct Params.BeforePayment",
          "name": "params",
          "type": "tuple"
        }
      ],
      "name": "beforePayment",
      "outputs": [],
      "stateMutability": "nonpayable",
      "type": "function"
    },
    {
      "inputs": [
        {
          "internalType": "address",
          "name": "merchant",
          "type": "address"
        }
      ],
      "name": "getHook",
      "outputs": [
        {
          "internalType": "address",
          "name": "",
          "type": "address"
        }
      ],
      "stateMutability": "view",
      "type": "function"
    },
    {
      "inputs": [],
      "name": "owner",
      "outputs": [
        {
          "internalType": "address",
          "name": "",
          "type": "address"
        }
      ],
      "stateMutability": "view",
      "type": "function"
    },
    {
      "inputs": [
        {
          "components": [
            {
              "internalType": "address",
              "name": "hook",
              "type": "address"
            }
          ],
          "internalType": "struct Params.RegisterHook",
          "name": "params",
          "type": "tuple"
        }
      ],
      "name": "register",
      "outputs": [],
      "stateMutability": "nonpayable",
      "type": "function"
    },
    {
      "inputs": [],
      "name": "renounceOwnership",
      "outputs": [],
      "stateMutability": "nonpayable",
      "type": "function"
    },
    {
      "inputs": [
        {
          "internalType": "address",
          "name": "newOwner",
          "type": "address"
        }
      ],
      "name": "transferOwnership",
      "outputs": [],
      "stateMutability": "nonpayable",
      "type": "function"
    },
    {
      "inputs": [],
      "name": "unRegister",
      "outputs": [],
      "stateMutability": "nonpayable",
      "type": "function"
    }
  ],
  "bytecode": "0x608080604052346071573315605e575f8054336001600160a01b0319821681178355916001600160a01b03909116907f8be0079c531659141344cd1fd0a4f28419497f9722a3daafe3b4186f6b6457e09080a3610bbb90816100768239f35b631e4fbdf760e01b5f525f60045260245ffd5b5f80fdfe6080806040526004361015610012575f80fd5b5f905f3560e01c90816326d7b3b41461080e575080632b54892b1461066657806338b7d0181461062c5780633d4304e6146105db578063715018a6146105755780638da5cb5b1461054f578063aefdacfe14610445578063edb789931461012e5763f2fde38b14610081575f80fd5b3461012b57602036600319011261012b576001600160a01b036100a261098d565b6100aa610b46565b1680156100ff576001600160a01b0382548273ffffffffffffffffffffffffffffffffffffffff198216178455167f8be0079c531659141344cd1fd0a4f28419497f9722a3daafe3b4186f6b6457e08380a380f35b6024827f1e4fbdf700000000000000000000000000000000000000000000000000000000815280600452fd5b80fd5b503461012b57602036600319011261012b57604051906020820182811067ffffffffffffffff8211176104315760405261016661098d565b80835273__$9a64d4390e1f317cfd7b279e493df8b9ee$__90813b1561042d576001600160a01b0360248492604051948593849263bf6341cf60e01b84521660048301525af480156103b857908291610418575b505033815260016020526001600160a01b036040822054161591604051604081019381851067ffffffffffffffff8611176103985783946040526003825260208201907f37303000000000000000000000000000000000000000000000000000000000008252156103c357505060606001600160a01b038251166004604051809681937fc7b90cc30000000000000000000000000000000000000000000000000000000083525af180156103b857829061031b575b906001600160a01b0391828251168452600260205260408420908051151590825460ff62ff0000604061ff006020860151151560081b16940151151560101b1693169062ffffff19161717179055818151163384526001602052604084209073ffffffffffffffffffffffffffffffffffffffff1982541617905551166040519081527f4941bb78cc88c86e525a7d4711f15cc16bc7de17a618b8384373bdceb1c9322860203392a280f35b506060833d6060116103b0575b8161033560609383610957565b810103126103ac576040516060810181811067ffffffffffffffff8211176103985760406001600160a01b03949561038b92825261037281610b39565b845261038060208201610b39565b602085015201610b39565b604082015283925061026f565b602484634e487b7160e01b81526041600452fd5b5080fd5b3d9150610328565b6040513d84823e3d90fd5b604492506040519384927f08c379a0000000000000000000000000000000000000000000000000000000008452602060048501525180928160248601528585015e828201840152601f01601f19168101030190fd5b8161042291610957565b61012b57805f6101ba565b8280fd5b602482634e487b7160e01b81526041600452fd5b503461012b57608036600319011261012b5780610461366109a3565b610469610b46565b6001600160a01b03610499818351166001600160a01b03165f5260016020526001600160a01b0360405f20541690565b16808352600260205260ff6040842054166104b2575050f35b6001600160a01b036020830151169060606001600160a01b0360408501511693015190803b1561054b576040517f674c7f130000000000000000000000000000000000000000000000000000000081526001600160a01b039384166004820152939092166024840152604483015282908290606490829084905af180156103b85761053a5750f35b8161054491610957565b61012b5780f35b8480fd5b503461012b578060031936011261012b576001600160a01b036020915416604051908152f35b503461012b578060031936011261012b5761058e610b46565b806001600160a01b03815473ffffffffffffffffffffffffffffffffffffffff1981168355167f8be0079c531659141344cd1fd0a4f28419497f9722a3daafe3b4186f6b6457e08280a380f35b503461012b57602036600319011261012b57602061061b6105fa61098d565b6001600160a01b03165f5260016020526001600160a01b0360405f20541690565b6001600160a01b0360405191168152f35b503461012b57608036600319011261012b57604061065161064c366109a3565b610a1d565b6001600160a01b038351921682526020820152f35b503461012b5760e036600319011261012b576040519060e082019180831067ffffffffffffffff8411176104315781926040526106a161098d565b8152602081016024358152604435916001600160a01b03831683036108095760408101928352606435906001600160a01b038216820361054b57606081019182526080810193608435855260a4356001600160a01b03811681036108055760a083019081526001600160a01b036107478160c086019560c4358752610724610b46565b51166001600160a01b03165f5260016020526001600160a01b0360405f20541690565b1694858852600260205260ff604089205460081c16610764578780f35b6001600160a01b03808092519451169551169651915116925194803b1561080157879560c4948793604051998a9889977f0acafada0000000000000000000000000000000000000000000000000000000089526004890152602488015260448701526064860152608485015260a48401525af180156103b8576107ec575b8080808080808780f35b816107f691610957565b61012b57805f6107e2565b8780fd5b8680fd5b505050fd5b905034610953575f36600319011261095357335f5260016020526001600160a01b0360405f2054169073__$9a64d4390e1f317cfd7b279e493df8b9ee$__803b1561095357816024815f9363bf6341cf60e01b82528660048301525af4801561094857610933575b50803b156103ac57816040517fce693760000000000000000000000000000000000000000000000000000000008152818160048183875af180156103b85761091e575b50819052600260205281604081205533825260016020526040822073ffffffffffffffffffffffffffffffffffffffff1981541690556040519081527fc945b44b54bbfab959d715564510fd4547cc9f415994de1c0b476ac7c94617ca60203392a280f35b8161092891610957565b6103ac57815f6108b9565b6109409192505f90610957565b5f905f610876565b6040513d5f823e3d90fd5b5f80fd5b90601f8019910116810190811067ffffffffffffffff82111761097957604052565b634e487b7160e01b5f52604160045260245ffd5b600435906001600160a01b038216820361095357565b608090600319011261095357604051906080820182811067ffffffffffffffff82111761097957604052816004356001600160a01b03811681036109535781526024356001600160a01b03811681036109535760208201526044356001600160a01b03811681036109535760408201526060606435910152565b906001600160a01b03610a4e818451166001600160a01b03165f5260016020526001600160a01b0360405f20541690565b16805f52600260205260ff60405f205460101c16610a7d575060606001600160a01b0360408401511692015190565b602083015160408085015160609095015181517fc48021a40000000000000000000000000000000000000000000000000000000081526001600160a01b03938416600482015292909516602483015260448201949094529290839060649082905afa918215610948575f905f93610af357509190565b9250506040823d604011610b31575b81610b0f60409383610957565b81010312610953578151916001600160a01b0383168303610953576020015190565b3d9150610b02565b5190811515820361095357565b6001600160a01b035f54163303610b5957565b7f118cdaa7000000000000000000000000000000000000000000000000000000005f523360045260245ffdfea26469706673582212205eb3139f15775c39433fd93c7c30247e7c8b55e62578aa0b2e58c3fdb1356bee64736f6c634300081c0033",
  "linkReferences": {
    "contracts/libs/AddressLib.sol": {
      "AddressLib": [
        {
          "length": 20,
          "start": 481
        },
        {
          "length": 20,
          "start": 2223
        }
      ]
    }
  },
  "deployedLinkReferences": {
    "contracts/libs/AddressLib.sol": {
      "AddressLib": [
        {
          "length": 20,
          "start": 363
        },
        {
          "length": 20,
          "start": 2105
        }
      ]
    }
  }
}