{
  "_format": "hh-sol-artifact-1",
  "contractName": "IdentityRegistry",
  "sourceName": "contracts/eip8004/IdentityRegistry.sol",
  "abi": [
    {
      "inputs": [],
      "stateMutability": "nonpayable",
      "type": "constructor"
    },
    {
      "inputs": [],
      "name": "ECDSAInvalidSignature",
      "type": "error"
    },
    {
      "inputs": [
        {
          "internalType": "uint256",
          "name": "length",
          "type": "uint256"
        }
      ],
      "name": "ECDSAInvalidSignatureLength",
      "type": "error"
    },
    {
      "inputs": [
        {
          "internalType": "bytes32",
          "name": "s",
          "type": "bytes32"
        }
      ],
      "name": "ECDSAInvalidSignatureS",
      "type": "error"
    },
    {
      "inputs": [
        {
          "internalType": "address",
          "name": "sender",
          "type": "address"
        },
        {
          "internalType": "uint256",
          "name": "tokenId",
          "type": "uint256"
        },
        {
          "internalType": "address",
          "name": "owner",
          "type": "address"
        }
      ],
      "name": "ERC721IncorrectOwner",
      "type": "error"
    },
    {
      "inputs": [
        {
          "internalType": "address",
          "name": "operator",
          "type": "address"
        },
        {
          "internalType": "uint256",
          "name": "tokenId",
          "type": "uint256"
        }
      ],
      "name": "ERC721InsufficientApproval",
      "type": "error"
    },
    {
      "inputs": [
        {
          "internalType": "address",
          "name": "approver",
          "type": "address"
        }
      ],
      "name": "ERC721InvalidApprover",
      "type": "error"
    },
    {
      "inputs": [
        {
          "internalType": "address",
          "name": "operator",
          "type": "address"
        }
      ],
      "name": "ERC721InvalidOperator",
      "type": "error"
    },
    {
      "inputs": [
        {
          "internalType": "address",
          "name": "owner",
          "type": "address"
        }
      ],
      "name": "ERC721InvalidOwner",
      "type": "error"
    },
    {
      "inputs": [
        {
          "internalType": "address",
          "name": "receiver",
          "type": "address"
        }
      ],
      "name": "ERC721InvalidReceiver",
      "type": "error"
    },
    {
      "inputs": [
        {
          "internalType": "address",
          "name": "sender",
          "type": "address"
        }
      ],
      "name": "ERC721InvalidSender",
      "type": "error"
    },
    {
      "inputs": [
        {
          "internalType": "uint256",
          "name": "tokenId",
          "type": "uint256"
        }
      ],
      "name": "ERC721NonexistentToken",
      "type": "error"
    },
    {
      "inputs": [],
      "name": "InvalidShortString",
      "type": "error"
    },
    {
      "inputs": [
        {
          "internalType": "string",
          "name": "str",
          "type": "string"
        }
      ],
      "name": "StringTooLong",
      "type": "error"
    },
    {
      "anonymous": false,
      "inputs": [
        {
          "indexed": true,
          "internalType": "address",
          "name": "owner",
          "type": "address"
        },
        {
          "indexed": true,
          "internalType": "address",
          "name": "approved",
          "type": "address"
        },
        {
          "indexed": true,
          "internalType": "uint256",
          "name": "tokenId",
          "type": "uint256"
        }
      ],
      "name": "Approval",
      "type": "event"
    },
    {
      "anonymous": false,
      "inputs": [
        {
          "indexed": true,
          "internalType": "address",
          "name": "owner",
          "type": "address"
        },
        {
          "indexed": true,
          "internalType": "address",
          "name": "operator",
          "type": "address"
        },
        {
          "indexed": false,
          "internalType": "bool",
          "name": "approved",
          "type": "bool"
        }
      ],
      "name": "ApprovalForAll",
      "type": "event"
    },
    {
      "anonymous": false,
      "inputs": [
        {
          "indexed": false,
          "internalType": "uint256",
          "name": "_fromTokenId",
          "type": "uint256"
        },
        {
          "indexed": false,
          "internalType": "uint256",
          "name": "_toTokenId",
          "type": "uint256"
        }
      ],
      "name": "BatchMetadataUpdate",
      "type": "event"
    },
    {
      "anonymous": false,
      "inputs": [],
      "name": "EIP712DomainChanged",
      "type": "event"
    },
    {
      "anonymous": false,
      "inputs": [
        {
          "indexed": true,
          "internalType": "uint256",
          "name": "agentId",
          "type": "uint256"
        },
        {
          "indexed": true,
          "internalType": "string",
          "name": "indexedMetadataKey",
          "type": "string"
        },
        {
          "indexed": false,
          "internalType": "string",
          "name": "metadataKey",
          "type": "string"
        },
        {
          "indexed": false,
          "internalType": "bytes",
          "name": "metadataValue",
          "type": "bytes"
        }
      ],
      "name": "MetadataSet",
      "type": "event"
    },
    {
      "anonymous": false,
      "inputs": [
        {
          "indexed": false,
          "internalType": "uint256",
          "name": "_tokenId",
          "type": "uint256"
        }
      ],
      "name": "MetadataUpdate",
      "type": "event"
    },
    {
      "anonymous": false,
      "inputs": [
        {
          "indexed": true,
          "internalType": "uint256",
          "name": "agentId",
          "type": "uint256"
        },
        {
          "indexed": false,
          "internalType": "string",
          "name": "agentURI",
          "type": "string"
        },
        {
          "indexed": true,
          "internalType": "address",
          "name": "owner",
          "type": "address"
        }
      ],
      "name": "Registered",
      "type": "event"
    },
    {
      "anonymous": false,
      "inputs": [
        {
          "indexed": true,
          "internalType": "address",
          "name": "from",
          "type": "address"
        },
        {
          "indexed": true,
          "internalType": "address",
          "name": "to",
          "type": "address"
        },
        {
          "indexed": true,
          "internalType": "uint256",
          "name": "tokenId",
          "type": "uint256"
        }
      ],
      "name": "Transfer",
      "type": "event"
    },
    {
      "anonymous": false,
      "inputs": [
        {
          "indexed": true,
          "internalType": "uint256",
          "name": "agentId",
          "type": "uint256"
        },
        {
          "indexed": false,
          "internalType": "string",
          "name": "newURI",
          "type": "string"
        },
        {
          "indexed": true,
          "internalType": "address",
          "name": "updatedBy",
          "type": "address"
        }
      ],
      "name": "URIUpdated",
      "type": "event"
    },
    {
      "inputs": [
        {
          "internalType": "address",
          "name": "to",
          "type": "address"
        },
        {
          "internalType": "uint256",
          "name": "tokenId",
          "type": "uint256"
        }
      ],
      "name": "approve",
      "outputs": [],
      "stateMutability": "nonpayable",
      "type": "function"
    },
    {
      "inputs": [
        {
          "internalType": "uint256",
          "name": "tokenId",
          "type": "uint256"
        },
        {
          "internalType": "address",
          "name": "executor",
          "type": "address"
        },
        {
          "internalType": "bytes",
          "name": "permissions",
          "type": "bytes"
        }
      ],
      "name": "authorizeUsage",
      "outputs": [],
      "stateMutability": "nonpayable",
      "type": "function"
    },
    {
      "inputs": [
        {
          "internalType": "address",
          "name": "owner",
          "type": "address"
        }
      ],
      "name": "balanceOf",
      "outputs": [
        {
          "internalType": "uint256",
          "name": "",
          "type": "uint256"
        }
      ],
      "stateMutability": "view",
      "type": "function"
    },
    {
      "inputs": [
        {
          "internalType": "address",
          "name": "to",
          "type": "address"
        },
        {
          "internalType": "uint256",
          "name": "tokenId",
          "type": "uint256"
        },
        {
          "internalType": "bytes",
          "name": "sealedKey",
          "type": "bytes"
        },
        {
          "internalType": "bytes",
          "name": "proof",
          "type": "bytes"
        }
      ],
      "name": "clone",
      "outputs": [
        {
          "internalType": "uint256",
          "name": "newTokenId",
          "type": "uint256"
        }
      ],
      "stateMutability": "nonpayable",
      "type": "function"
    },
    {
      "inputs": [],
      "name": "eip712Domain",
      "outputs": [
        {
          "internalType": "bytes1",
          "name": "fields",
          "type": "bytes1"
        },
        {
          "internalType": "string",
          "name": "name",
          "type": "string"
        },
        {
          "internalType": "string",
          "name": "version",
          "type": "string"
        },
        {
          "internalType": "uint256",
          "name": "chainId",
          "type": "uint256"
        },
        {
          "internalType": "address",
          "name": "verifyingContract",
          "type": "address"
        },
        {
          "internalType": "bytes32",
          "name": "salt",
          "type": "bytes32"
        },
        {
          "internalType": "uint256[]",
          "name": "extensions",
          "type": "uint256[]"
        }
      ],
      "stateMutability": "view",
      "type": "function"
    },
    {
      "inputs": [
        {
          "internalType": "uint256",
          "name": "agentId",
          "type": "uint256"
        }
      ],
      "name": "getAgentWallet",
      "outputs": [
        {
          "internalType": "address",
          "name": "",
          "type": "address"
        }
      ],
      "stateMutability": "view",
      "type": "function"
    },
    {
      "inputs": [
        {
          "internalType": "uint256",
          "name": "tokenId",
          "type": "uint256"
        }
      ],
      "name": "getApproved",
      "outputs": [
        {
          "internalType": "address",
          "name": "",
          "type": "address"
        }
      ],
      "stateMutability": "view",
      "type": "function"
    },
    {
      "inputs": [
        {
          "internalType": "uint256",
          "name": "agentId",
          "type": "uint256"
        },
        {
          "internalType": "string",
          "name": "metadataKey",
          "type": "string"
        }
      ],
      "name": "getMetadata",
      "outputs": [
        {
          "internalType": "bytes",
          "name": "",
          "type": "bytes"
        }
      ],
      "stateMutability": "view",
      "type": "function"
    },
    {
      "inputs": [
        {
          "internalType": "address",
          "name": "owner",
          "type": "address"
        },
        {
          "internalType": "address",
          "name": "operator",
          "type": "address"
        }
      ],
      "name": "isApprovedForAll",
      "outputs": [
        {
          "internalType": "bool",
          "name": "",
          "type": "bool"
        }
      ],
      "stateMutability": "view",
      "type": "function"
    },
    {
      "inputs": [],
      "name": "name",
      "outputs": [
        {
          "internalType": "string",
          "name": "",
          "type": "string"
        }
      ],
      "stateMutability": "view",
      "type": "function"
    },
    {
      "inputs": [
        {
          "internalType": "uint256",
          "name": "tokenId",
          "type": "uint256"
        }
      ],
      "name": "ownerOf",
      "outputs": [
        {
          "internalType": "address",
          "name": "",
          "type": "address"
        }
      ],
      "stateMutability": "view",
      "type": "function"
    },
    {
      "inputs": [],
      "name": "register",
      "outputs": [
        {
          "internalType": "uint256",
          "name": "agentId",
          "type": "uint256"
        }
      ],
      "stateMutability": "nonpayable",
      "type": "function"
    },
    {
      "inputs": [
        {
          "internalType": "string",
          "name": "agentURI",
          "type": "string"
        },
        {
          "components": [
            {
              "internalType": "string",
              "name": "metadataKey",
              "type": "string"
            },
            {
              "internalType": "bytes",
              "name": "metadataValue",
              "type": "bytes"
            }
          ],
          "internalType": "struct IdentityRegistry.MetadataEntry[]",
          "name": "metadata",
          "type": "tuple[]"
        }
      ],
      "name": "register",
      "outputs": [
        {
          "internalType": "uint256",
          "name": "agentId",
          "type": "uint256"
        }
      ],
      "stateMutability": "nonpayable",
      "type": "function"
    },
    {
      "inputs": [
        {
          "internalType": "string",
          "name": "agentURI",
          "type": "string"
        }
      ],
      "name": "register",
      "outputs": [
        {
          "internalType": "uint256",
          "name": "agentId",
          "type": "uint256"
        }
      ],
      "stateMutability": "nonpayable",
      "type": "function"
    },
    {
      "inputs": [
        {
          "internalType": "address",
          "name": "from",
          "type": "address"
        },
        {
          "internalType": "address",
          "name": "to",
          "type": "address"
        },
        {
          "internalType": "uint256",
          "name": "tokenId",
          "type": "uint256"
        }
      ],
      "name": "safeTransferFrom",
      "outputs": [],
      "stateMutability": "nonpayable",
      "type": "function"
    },
    {
      "inputs": [
        {
          "internalType": "address",
          "name": "from",
          "type": "address"
        },
        {
          "internalType": "address",
          "name": "to",
          "type": "address"
        },
        {
          "internalType": "uint256",
          "name": "tokenId",
          "type": "uint256"
        },
        {
          "internalType": "bytes",
          "name": "data",
          "type": "bytes"
        }
      ],
      "name": "safeTransferFrom",
      "outputs": [],
      "stateMutability": "nonpayable",
      "type": "function"
    },
    {
      "inputs": [
        {
          "internalType": "uint256",
          "name": "agentId",
          "type": "uint256"
        },
        {
          "internalType": "string",
          "name": "newURI",
          "type": "string"
        }
      ],
      "name": "setAgentURI",
      "outputs": [],
      "stateMutability": "nonpayable",
      "type": "function"
    },
    {
      "inputs": [
        {
          "internalType": "uint256",
          "name": "agentId",
          "type": "uint256"
        },
        {
          "internalType": "address",
          "name": "newWallet",
          "type": "address"
        },
        {
          "internalType": "uint256",
          "name": "deadline",
          "type": "uint256"
        },
        {
          "internalType": "bytes",
          "name": "signature",
          "type": "bytes"
        }
      ],
      "name": "setAgentWallet",
      "outputs": [],
      "stateMutability": "nonpayable",
      "type": "function"
    },
    {
      "inputs": [
        {
          "internalType": "address",
          "name": "operator",
          "type": "address"
        },
        {
          "internalType": "bool",
          "name": "approved",
          "type": "bool"
        }
      ],
      "name": "setApprovalForAll",
      "outputs": [],
      "stateMutability": "nonpayable",
      "type": "function"
    },
    {
      "inputs": [
        {
          "internalType": "uint256",
          "name": "agentId",
          "type": "uint256"
        },
        {
          "internalType": "string",
          "name": "metadataKey",
          "type": "string"
        },
        {
          "internalType": "bytes",
          "name": "metadataValue",
          "type": "bytes"
        }
      ],
      "name": "setMetadata",
      "outputs": [],
      "stateMutability": "nonpayable",
      "type": "function"
    },
    {
      "inputs": [
        {
          "internalType": "bytes4",
          "name": "interfaceId",
          "type": "bytes4"
        }
      ],
      "name": "supportsInterface",
      "outputs": [
        {
          "internalType": "bool",
          "name": "",
          "type": "bool"
        }
      ],
      "stateMutability": "view",
      "type": "function"
    },
    {
      "inputs": [],
      "name": "symbol",
      "outputs": [
        {
          "internalType": "string",
          "name": "",
          "type": "string"
        }
      ],
      "stateMutability": "view",
      "type": "function"
    },
    {
      "inputs": [
        {
          "internalType": "uint256",
          "name": "tokenId",
          "type": "uint256"
        }
      ],
      "name": "tokenURI",
      "outputs": [
        {
          "internalType": "string",
          "name": "",
          "type": "string"
        }
      ],
      "stateMutability": "view",
      "type": "function"
    },
    {
      "inputs": [
        {
          "internalType": "address",
          "name": "from",
          "type": "address"
        },
        {
          "internalType": "address",
          "name": "to",
          "type": "address"
        },
        {
          "internalType": "uint256",
          "name": "tokenId",
          "type": "uint256"
        },
        {
          "internalType": "bytes",
          "name": "sealedKey",
          "type": "bytes"
        },
        {
          "internalType": "bytes",
          "name": "proof",
          "type": "bytes"
        }
      ],
      "name": "transfer",
      "outputs": [],
      "stateMutability": "nonpayable",
      "type": "function"
    },
    {
      "inputs": [
        {
          "internalType": "address",
          "name": "from",
          "type": "address"
        },
        {
          "internalType": "address",
          "name": "to",
          "type": "address"
        },
        {
          "internalType": "uint256",
          "name": "tokenId",
          "type": "uint256"
        }
      ],
      "name": "transferFrom",
      "outputs": [],
      "stateMutability": "nonpayable",
      "type": "function"
    },
    {
      "inputs": [
        {
          "internalType": "uint256",
          "name": "agentId",
          "type": "uint256"
        }
      ],
      "name": "unsetAgentWallet",
      "outputs": [],
      "stateMutability": "nonpayable",
      "type": "function"
    }
  ],
  "bytecode": "0x6101606040523461044057604051610018604082610444565b601a815260208101907f5261696c6265616d204964656e74697479205265676973747279000000000000825260405191610053604084610444565b600183526020830191603160f81b8352604051610071604082610444565b600f81526e5261696c6265616d204167656e747360881b60208201526040519061009c604083610444565b60058252641051d1539560da1b60208301528051906001600160401b038211610347575f5490600182811c92168015610436575b60208310146103295781601f8493116103c9575b50602090601f8311600114610366575f9261035b575b50508160011b915f199060031b1c1916175f555b8051906001600160401b0382116103475760015490600182811c9216801561033d575b60208310146103295781601f8493116102bb575b50602090601f8311600114610255575f9261024a575b50508160011b915f199060031b1c1916176001555b61017981610467565b61012052610186846105ee565b61014052519020918260e05251902080610100524660a0526040519060208201927f8b73c3c69bb8fe3d512ecc4cf759cc79239f7b179b0ffacaa9a75d522b39400f8452604083015260608201524660808201523060a082015260a081526101ef60c082610444565b5190206080523060c0526040516124509081610727823960805181612108015260a051816121c5015260c051816120d9015260e051816121570152610100518161217d015261012051816108b2015261014051816108db0152f35b015190505f8061015b565b60015f9081528281209350601f198516905b8181106102a3575090846001959493921061028b575b505050811b01600155610170565b01515f1960f88460031b161c191690555f808061027d565b92936020600181928786015181550195019301610267565b60015f529091507fb10e2d527612073b26eecdfd717e6a320cf44b4afac2b0732d9fcbe2b7fa0cf6601f840160051c8101916020851061031f575b90601f859493920160051c01905b8181106103115750610145565b5f8155849350600101610304565b90915081906102f6565b634e487b7160e01b5f52602260045260245ffd5b91607f1691610131565b634e487b7160e01b5f52604160045260245ffd5b015190505f806100fa565b5f8080528281209350601f198516905b8181106103b15750908460019594939210610399575b505050811b015f5561010e565b01515f1960f88460031b161c191690555f808061038c565b92936020600181928786015181550195019301610376565b5f80529091507f290decd9548b62a8d60345a988386fc84ba6bc95484008f6362f93160ef3e563601f840160051c8101916020851061042c575b90601f859493920160051c01905b81811061041e57506100e4565b5f8155849350600101610411565b9091508190610403565b91607f16916100d0565b5f80fd5b601f909101601f19168101906001600160401b0382119082101761034757604052565b908151602081105f146104e1575090601f8151116104a1576020815191015160208210610492571790565b5f198260200360031b1b161790565b604460209160405192839163305a27a960e01b83528160048401528051918291826024860152018484015e5f828201840152601f01601f19168101030190fd5b6001600160401b03811161034757600754600181811c911680156105e4575b602082101461032957601f81116105b1575b50602092601f821160011461055057928192935f92610545575b50508160011b915f199060031b1c19161760075560ff90565b015190505f8061052c565b601f1982169360075f52805f20915f5b8681106105995750836001959610610581575b505050811b0160075560ff90565b01515f1960f88460031b161c191690555f8080610573565b91926020600181928685015181550194019201610560565b60075f52601f60205f20910160051c810190601f830160051c015b8181106105d95750610512565b5f81556001016105cc565b90607f1690610500565b908151602081105f14610619575090601f8151116104a1576020815191015160208210610492571790565b6001600160401b03811161034757600854600181811c9116801561071c575b602082101461032957601f81116106e9575b50602092601f821160011461068857928192935f9261067d575b50508160011b915f199060031b1c19161760085560ff90565b015190505f80610664565b601f1982169360085f52805f20915f5b8681106106d157508360019596106106b9575b505050811b0160085560ff90565b01515f1960f88460031b161c191690555f80806106ab565b91926020600181928685015181550194019201610698565b60085f52601f60205f20910160051c810190601f830160051c015b818110610711575061064a565b5f8155600101610704565b90607f169061063856fe60806040526004361015610011575f80fd5b5f3560e01c80623395091461126057806301ffc9a71461117357806306fdde03146110d1578063081812fc14611094578063095ea7b314610f8f5780630af28bd314610efe5780631aa3a00814610ed457806323b872dd14610ebd5780632d1ef5ae14610bd65780633fddcf1914610b3557806342842e0e14610b06578063466648da14610a885780636352211e14610a5957806370a08231146109ef5780637b297a6f146109ae57806384b0196e1461089a5780638ea422861461055457806395d89b411461048a578063a22cb465146103d6578063b88d4fde1461037b578063c78fed041461030d578063c87b56dd146102ee578063ca14bee71461026f578063cb4799f2146101e0578063e985e9c5146101875763f2c298be14610136575f80fd5b346101835760203660031901126101835760043567ffffffffffffffff81116101835761017b61017661016f60209336906004016112ed565b36916113c3565b6119a0565b604051908152f35b5f80fd5b34610183576040366003190112610183576101a06112c1565b6001600160a01b036101b06112d7565b91165f5260056020526001600160a01b0360405f2091165f52602052602060ff60405f2054166040519015158152f35b346101835760403660031901126101835760043560243567ffffffffffffffff8111610183576102149036906004016113f9565b61021d826117f6565b5060208151910120905f52600a60205260405f20905f5260205261026b61025061025760405f206040519283809261144f565b0382611385565b60405191829160208352602083019061129d565b0390f35b34610183576080366003190112610183576102886112c1565b5060243560443567ffffffffffffffff8111610183576102ac9036906004016112ed565b50506064359067ffffffffffffffff8211610183576102d26102e49236906004016112ed565b50506102dd816117f6565b3390612008565b60206040515f8152f35b346101835760203660031901126101835761026b6102576004356117bc565b346101835760a0366003190112610183576103266112c1565b5061032f6112d7565b5060443560643567ffffffffffffffff8111610183576103539036906004016112ed565b50506084359067ffffffffffffffff8211610183576102d26103799236906004016112ed565b005b34610183576080366003190112610183576103946112c1565b61039c6112d7565b906044356064359267ffffffffffffffff8411610183576103c46103799436906004016113f9565b926103d08383836114f0565b33611f47565b34610183576040366003190112610183576103ef6112c1565b60243590811515809203610183576001600160a01b031690811561045e57335f52600560205260405f20825f5260205260405f2060ff1981541660ff83161790556040519081527f17307eab39ab6107e8899845ad3d59bd9653f200f220920489ca2b5937696c3160203392a3005b507f5b08ba18000000000000000000000000000000000000000000000000000000005f5260045260245ffd5b34610183575f366003190112610183576040515f6001546104aa81611417565b808452906001811690811561053057506001146104d2575b61026b8361025781850382611385565b60015f9081527fb10e2d527612073b26eecdfd717e6a320cf44b4afac2b0732d9fcbe2b7fa0cf6939250905b808210610516575090915081016020016102576104c2565b9192600181602092548385880101520191019092916104fe565b60ff191660208086019190915291151560051b8401909101915061025790506104c2565b346101835760403660031901126101835760043567ffffffffffffffff8111610183576105859036906004016112ed565b60243567ffffffffffffffff811161018357366023820112156101835780600401359067ffffffffffffffff8211610183573660248360051b83010111610183576105d182939261177c565b936105df6040519586611385565b838552601f196105ee8561177c565b015f5b81811061086f5750503682900360621901925f5b858110156106a95760248160051b850101358581121561018357840190604060231983360301126101835760405161063c81611355565b602483013567ffffffffffffffff81116101835761066090602436918601016113f9565b8152604483013567ffffffffffffffff811161018357600193602461068892369201016113f9565b6020820152610697828a611794565b526106a28189611794565b5001610605565b866106b53684866113c3565b6009545f19811461085b57600101806009556020926040516106d78582611385565b5f81523315610848576001600160a01b036106f28433611b09565b1661081c5761070390833333611e3b565b825161080d575b815f52600b845260405f206001600160a01b0333166001600160a01b03198254161790556040513385820152848152610744604082611385565b827f2c149ed548c6d2993cd73efe187df6eccabe4538091b33adbd25fafdb8a1468b61078d600b6040516a1859d95b9d15d85b1b195d60aa1b8152209360405191829182611749565b0390a35f5b81518110156107c857806107c26107ab60019385611794565b5151876107b88487611794565b5101519086611c66565b01610792565b505090817fca52e62c367d81bb2e328eb795f7c7ba24afb478408a26c0e201d155c449bc4a6040518581528061080233958883019061129d565b0390a3604051908152f35b6108178383611878565b61070a565b7f73c6ac6e000000000000000000000000000000000000000000000000000000005f525f60045260245ffd5b633250574960e11b5f525f60045260245ffd5b634e487b7160e01b5f52601160045260245ffd5b60209060409695965161088181611355565b6060815260608382015282828a010152019493946105f1565b34610183575f366003190112610183576109526108d67f00000000000000000000000000000000000000000000000000000000000000006122e4565b6108ff7f0000000000000000000000000000000000000000000000000000000000000000612356565b6020610960604051926109128385611385565b5f84525f3681376040519586957f0f00000000000000000000000000000000000000000000000000000000000000875260e08588015260e087019061129d565b90858203604087015261129d565b4660608501523060808501525f60a085015283810360c08501528180845192838152019301915f5b82811061099757505050500390f35b835185528695509381019392810192600101610988565b34610183576060366003190112610183576004356109ca6112d7565b506044359067ffffffffffffffff8211610183576102d26103799236906004016112ed565b34610183576020366003190112610183576001600160a01b03610a106112c1565b168015610a2d575f526003602052602060405f2054604051908152f35b7f89c62b64000000000000000000000000000000000000000000000000000000005f525f60045260245ffd5b34610183576020366003190112610183576020610a776004356117f6565b6001600160a01b0360405191168152f35b346101835760603660031901126101835760043560243567ffffffffffffffff811161018357610abc9036906004016112ed565b919060443567ffffffffffffffff81116101835761037993610af8610ae8610b009336906004016112ed565b94909261016f876102dd816117f6565b9236916113c3565b91611c66565b3461018357610379610b173661131b565b9060405192610b27602085611385565b5f84526103d08383836114f0565b3461018357602036600319011261018357600435610b56816102dd816117f6565b805f52600b60205260405f206001600160a01b03198154169055604051905f602083015260208252610b89604083611385565b7f2c149ed548c6d2993cd73efe187df6eccabe4538091b33adbd25fafdb8a1468b610bd1600b6040516a1859d95b9d15d85b1b195d60aa1b8152209360405191829182611749565b0390a3005b3461018357608036600319011261018357600435610bf26112d7565b906044359160643567ffffffffffffffff811161018357610c179036906004016112ed565b9091610c26846102dd816117f6565b6001600160a01b038116916042604096610c778851610c458a82611385565b600181527f330000000000000000000000000000000000000000000000000000000000000060208201528615156116a4565b610cb98851610c868a82611385565b600381527f36303100000000000000000000000000000000000000000000000000000000006020820152824211156116a4565b875160208101917f5a2b87f3673ca6856d85d54cb1a9eb690f53c4d6b0954db34c84fe6c19c80d948352888a830152866060830152608082015260808152610d0260a082611385565b519020610d0d6120cf565b908851917f190100000000000000000000000000000000000000000000000000000000000083526002830152602282015220913b155f14610dfd57610d92610d89610bd19493610d837f2c149ed548c6d2993cd73efe187df6eccabe4538091b33adbd25fafdb8a1468b97610dab9536916113c3565b906121eb565b90929192612225565b826001600160a01b03610da361170e565b9216146116a4565b835f52600b602052845f20816001600160a01b0319825416179055845190602082015260208152610ddc8582611385565b600b85516a1859d95b9d15d85b1b195d60aa1b815220945191829182611749565b602091610e2987519586938493630b135d3f60e11b8552600485015289602485015260448401916114d0565b0381845afa908115610eb357610e7f610bd1927f2c149ed548c6d2993cd73efe187df6eccabe4538091b33adbd25fafdb8a1468b945f91610e84575b50630b135d3f60e11b6001600160e01b0319610da361170e565b610dab565b610ea6915060203d602011610eac575b610e9e8183611385565b8101906116ee565b87610e65565b503d610e94565b84513d5f823e3d90fd5b3461018357610379610ece3661131b565b916114f0565b34610183575f36600319011261018357602061017b604051610ef68382611385565b5f81526119a0565b346101835760403660031901126101835760243560043567ffffffffffffffff8211610183577f3a2c7fffc2cba7582c690e3b82c453ea02a308326a98a3ad7576c606336409fb610f56610bd19336906004016112ed565b9390610f65846102dd816117f6565b610f79610f733687846113c3565b85611878565b60405191829160208352339660208401916114d0565b3461018357604036600319011261018357610fa86112c1565b602435610fb4816117f6565b33151580611081575b8061104e575b6110225781906001600160a01b0380851691167f8c5be1e5ebec7d5bd14f71427d1e84f3dd0314c0f7b2291e5b200ac8c7c3b9255f80a45f5260046020526001600160a01b0360405f2091166001600160a01b03198254161790555f80f35b7fa9fbf51f000000000000000000000000000000000000000000000000000000005f523360045260245ffd5b506001600160a01b0381165f52600560205260405f206001600160a01b0333165f5260205260ff60405f20541615610fc3565b50336001600160a01b0382161415610fbd565b34610183576020366003190112610183576004356110b1816117f6565b505f52600460205260206001600160a01b0360405f205416604051908152f35b34610183575f366003190112610183576040515f5f546110f081611417565b808452906001811690811561053057506001146111175761026b8361025781850382611385565b5f8080527f290decd9548b62a8d60345a988386fc84ba6bc95484008f6362f93160ef3e563939250905b808210611159575090915081016020016102576104c2565b919260018160209254838588010152019101909291611141565b34610183576020366003190112610183576004356001600160e01b0319811680910361018357807f4906490600000000000000000000000000000000000000000000000000000000602092149081156111d2575b506040519015158152f35b7f80ac58cd00000000000000000000000000000000000000000000000000000000811491508115611236575b811561120c575b50826111c7565b7f01ffc9a70000000000000000000000000000000000000000000000000000000091501482611205565b7f5b5e139f00000000000000000000000000000000000000000000000000000000811491506111fe565b346101835760203660031901126101835760043561127d816117f6565b505f52600b60205260206001600160a01b0360405f205416604051908152f35b805180835260209291819084018484015e5f828201840152601f01601f1916010190565b600435906001600160a01b038216820361018357565b602435906001600160a01b038216820361018357565b9181601f840112156101835782359167ffffffffffffffff8311610183576020838186019501011161018357565b6060906003190112610183576004356001600160a01b038116810361018357906024356001600160a01b0381168103610183579060443590565b6040810190811067ffffffffffffffff82111761137157604052565b634e487b7160e01b5f52604160045260245ffd5b90601f8019910116810190811067ffffffffffffffff82111761137157604052565b67ffffffffffffffff811161137157601f01601f191660200190565b9291926113cf826113a7565b916113dd6040519384611385565b829481845281830111610183578281602093845f960137010152565b9080601f8301121561018357816020611414933591016113c3565b90565b90600182811c92168015611445575b602083101461143157565b634e487b7160e01b5f52602260045260245ffd5b91607f1691611426565b5f929181549161145e83611417565b80835292600181169081156114b3575060011461147a57505050565b5f9081526020812093945091925b838310611499575060209250010190565b600181602092949394548385870101520191019190611488565b915050602093945060ff929192191683830152151560051b010190565b908060209392818452848401375f828201840152601f01601f1916010190565b91906001600160a01b0316918215610848576001600160a01b0390825f5260026020528160405f2054169333611694575b8415158061165d575b815f52600360205260405f2060018154019055845f52600260205260405f20826001600160a01b031982541617905585604051928681837fddf252ad1be2c89b69c2b068fc378daa952ba7f163c4a11628f55a4df523b3ef5f80a482611652575b50506115d1575b50168083036115a057505050565b7f64283d7b000000000000000000000000000000000000000000000000000000005f5260045260245260445260645ffd5b835f52600b60205260405f206001600160a01b031981541690555f602082015260208152611600604082611385565b837f2c149ed548c6d2993cd73efe187df6eccabe4538091b33adbd25fafdb8a1468b611649600b6040516a1859d95b9d15d85b1b195d60aa1b8152209360405191829182611749565b0390a35f611592565b14159050855f61158b565b61167c855f52600460205260405f206001600160a01b03198154169055565b855f52600360205260405f205f19815401905561152a565b61169f843387612008565b611521565b156116ac5750565b6116ea906040519182917f08c379a000000000000000000000000000000000000000000000000000000000835260206004840152602483019061129d565b0390fd5b9081602091031261018357516001600160e01b0319811681036101835790565b6040519061171d604083611385565b600382527f36303000000000000000000000000000000000000000000000000000000000006020830152565b9060806114149260408152600b60408201526a1859d95b9d15d85b1b195d60aa1b6060820152816020820152019061129d565b67ffffffffffffffff81116113715760051b60200190565b80518210156117a85760209160051b010190565b634e487b7160e01b5f52603260045260245ffd5b6117c5816117f6565b505f5260066020526102506117e360405f206040519283809261144f565b5f6040516117f2602082611385565b5290565b805f5260026020526001600160a01b0360405f205416908115611817575090565b637e27328960e01b5f5260045260245ffd5b601f821161183657505050565b5f5260205f20906020601f840160051c8301931061186e575b601f0160051c01905b818110611863575050565b5f8155600101611858565b909150819061184f565b919091805f52600660205260405f20835167ffffffffffffffff8111611371576118ac816118a68454611417565b84611829565b6020601f821160011461191857816020949392611901927ff8e1a15aba9398e019f0b49df1a4fde98ee17ae345cb5f6b5e2c27f5033e8ce797985f9261190d575b50508160011b915f199060031b1c19161790565b90555b604051908152a1565b015190505f806118ed565b601f19821695835f52815f20965f5b818110611988575096600192849260209796957ff8e1a15aba9398e019f0b49df1a4fde98ee17ae345cb5f6b5e2c27f5033e8ce7999a10611970575b505050811b019055611904565b01515f1960f88460031b161c191690555f8080611963565b83830151895560019098019760209384019301611927565b906009545f19811461085b576001019081600955816020916040516119c58482611385565b5f81523315610848576001600160a01b036119e08633611b09565b1661081c576119f190853333611e3b565b8451611afa575b835f52600b835260405f206001600160a01b0333166001600160a01b03198254161790556040513384820152838152611a32604082611385565b847f2c149ed548c6d2993cd73efe187df6eccabe4538091b33adbd25fafdb8a1468b611a7b600b6040516a1859d95b9d15d85b1b195d60aa1b8152209360405191829182611749565b0390a35f5b606051811015611ab95780611ab3611a9b6001936060611794565b515186611aa9846060611794565b5101519088611c66565b01611a80565b50929093611af57fca52e62c367d81bb2e328eb795f7c7ba24afb478408a26c0e201d155c449bc4a91604051918291868352339683019061129d565b0390a3565b611b048585611878565b6119f8565b9190805f5260026020526001600160a01b0360405f205416906001600160a01b038215159485611c2f575b169384611c17575b815f52600260205260405f20856001600160a01b0319825416179055604051928286827fddf252ad1be2c89b69c2b068fc378daa952ba7f163c4a11628f55a4df523b3ef5f80a4809582611c0c575b5050611b95575050565b805f52600b60205260405f206001600160a01b031981541690555f602083015260208252611bc4604083611385565b7f2c149ed548c6d2993cd73efe187df6eccabe4538091b33adbd25fafdb8a1468b611af5600b6040516a1859d95b9d15d85b1b195d60aa1b8152209360405191829182611749565b141590505f80611b8b565b845f52600360205260405f2060018154019055611b3c565b611c4e835f52600460205260405f206001600160a01b03198154169055565b835f52600360205260405f205f198154019055611b34565b9291909283519360208101948520604090611cdf600b60208451611c8a8682611385565b828152016a1859d95b9d15d85b1b195d60aa1b815220821415835190611cb08583611385565b600182527f340000000000000000000000000000000000000000000000000000000000000060208301526116a4565b835f52600a602052815f20905f52602052805f209584519667ffffffffffffffff881161137157611d1a88611d148354611417565b83611829565b602097601f8111600114611db35790611d7182611af594937f2c149ed548c6d2993cd73efe187df6eccabe4538091b33adbd25fafdb8a1468b98999a9b5f91611da8575b508160011b915f199060031b1c19161790565b90555b8251809185518091835e81015f815203902095611d9a835194848695865285019061129d565b90838203602085015261129d565b90508a01515f611d5e565b601f198116825f52895f20905f5b818110611e235750916001917f2c149ed548c6d2993cd73efe187df6eccabe4538091b33adbd25fafdb8a1468b98999a9b82611af597969510611e0b575b5050811b019055611d74565b8b01515f1960f88460031b161c191690555f80611dff565b898c0151835560209b8c019b60019093019201611dc1565b90803b611e49575b50505050565b602091611e8f6001600160a01b03809316956040519586948594630a85bd0160e11b86521660048501525f6024850152604484015260806064840152608483019061129d565b03815f865af15f9181611f26575b50611ef257503d15611eeb573d611eb3816113a7565b90611ec16040519283611385565b81523d5f602083013e5b80519081611ee65782633250574960e11b5f5260045260245ffd5b602001fd5b6060611ecb565b6001600160e01b0319630a85bd0160e11b911603611f1457505f808080611e43565b633250574960e11b5f5260045260245ffd5b611f4091925060203d602011610eac57610e9e8183611385565b905f611e9d565b93909293823b611f59575b5050505050565b611fa06001600160a01b0392836020951696846040519788968796630a85bd0160e11b8852166004870152166024850152604484015260806064840152608483019061129d565b03815f865af15f9181611fe7575b50611fc457503d15611eeb573d611eb3816113a7565b6001600160e01b0319630a85bd0160e11b911603611f1457505f80808080611f52565b61200191925060203d602011610eac57610e9e8183611385565b905f611fae565b906001600160a01b03169081151580612074575b1561202657505050565b6001600160a01b03166120465750637e27328960e01b5f5260045260245ffd5b7f177e802f000000000000000000000000000000000000000000000000000000005f5260045260245260445ffd5b506001600160a01b0381168281149081156120ae575b508061201c5750825f526004602052816001600160a01b0360405f2054161461201c565b90505f52600560205260405f20825f5260205260ff60405f2054165f61208a565b6001600160a01b037f0000000000000000000000000000000000000000000000000000000000000000163014806121c2575b1561212a577f000000000000000000000000000000000000000000000000000000000000000090565b60405160208101907f8b73c3c69bb8fe3d512ecc4cf759cc79239f7b179b0ffacaa9a75d522b39400f82527f000000000000000000000000000000000000000000000000000000000000000060408201527f000000000000000000000000000000000000000000000000000000000000000060608201524660808201523060a082015260a081526121bc60c082611385565b51902090565b507f00000000000000000000000000000000000000000000000000000000000000004614612101565b815191906041830361221b576122149250602082015190606060408401519301515f1a9061238d565b9192909190565b50505f9160029190565b60048110156122d05780612237575050565b60018103612267577ff645eedf000000000000000000000000000000000000000000000000000000005f5260045ffd5b6002810361229b57507ffce698f7000000000000000000000000000000000000000000000000000000005f5260045260245ffd5b6003146122a55750565b7fd78bce0c000000000000000000000000000000000000000000000000000000005f5260045260245ffd5b634e487b7160e01b5f52602160045260245ffd5b60ff81146123435760ff811690601f821161231b5760405191612308604084611385565b6020808452838101919036833783525290565b7fb3512b0c000000000000000000000000000000000000000000000000000000005f5260045ffd5b506040516114148161025081600761144f565b60ff811461237a5760ff811690601f821161231b5760405191612308604084611385565b506040516114148161025081600861144f565b91907f7fffffffffffffffffffffffffffffff5d576e7357a4501ddfe92f46681b20a0841161240f579160209360809260ff5f9560405194855216868401526040830152606082015282805260015afa15612404575f516001600160a01b038116156123fa57905f905f90565b505f906001905f90565b6040513d5f823e3d90fd5b5050505f916003919056fea264697066735822122015fefdd6916858ad325e522b3e2aa179a08809b9bd9bf720a4addb0bf0fe1b5464736f6c634300081c0033",
  "linkReferences": {},
  "deployedLinkReferences": {}
}