{
  "_format": "hh-sol-artifact-1",
  "contractName": "Merchant",
  "sourceName": "contracts/core/Merchant.sol",
  "abi": [
    {
      "inputs": [],
      "stateMutability": "nonpayable",
      "type": "constructor"
    },
    {
      "inputs": [],
      "name": "EnforcedPause",
      "type": "error"
    },
    {
      "inputs": [],
      "name": "ExpectedPause",
      "type": "error"
    },
    {
      "inputs": [
        {
          "internalType": "address",
          "name": "owner",
          "type": "address"
        }
      ],
      "name": "OwnableInvalidOwner",
      "type": "error"
    },
    {
      "inputs": [
        {
          "internalType": "address",
          "name": "account",
          "type": "address"
        }
      ],
      "name": "OwnableUnauthorizedAccount",
      "type": "error"
    },
    {
      "anonymous": false,
      "inputs": [
        {
          "indexed": true,
          "internalType": "address",
          "name": "merchant",
          "type": "address"
        },
        {
          "components": [
            {
              "internalType": "uint8",
              "name": "schemaVersion",
              "type": "uint8"
            },
            {
              "internalType": "string",
              "name": "value",
              "type": "string"
            }
          ],
          "indexed": false,
          "internalType": "struct Types.Metadata",
          "name": "metadata",
          "type": "tuple"
        },
        {
          "indexed": false,
          "internalType": "address",
          "name": "wallet",
          "type": "address"
        },
        {
          "indexed": false,
          "internalType": "address[]",
          "name": "tokens",
          "type": "address[]"
        },
        {
          "indexed": false,
          "internalType": "address[]",
          "name": "signers",
          "type": "address[]"
        },
        {
          "indexed": false,
          "internalType": "uint256",
          "name": "minSigners",
          "type": "uint256"
        }
      ],
      "name": "MerchantCreated",
      "type": "event"
    },
    {
      "anonymous": false,
      "inputs": [
        {
          "indexed": true,
          "internalType": "address",
          "name": "merchant",
          "type": "address"
        },
        {
          "components": [
            {
              "internalType": "uint8",
              "name": "schemaVersion",
              "type": "uint8"
            },
            {
              "internalType": "string",
              "name": "value",
              "type": "string"
            }
          ],
          "indexed": false,
          "internalType": "struct Types.Metadata",
          "name": "metadata",
          "type": "tuple"
        }
      ],
      "name": "MerchantMetadataUpdated",
      "type": "event"
    },
    {
      "anonymous": false,
      "inputs": [
        {
          "indexed": true,
          "internalType": "address",
          "name": "previousOwner",
          "type": "address"
        },
        {
          "indexed": true,
          "internalType": "address",
          "name": "newOwner",
          "type": "address"
        }
      ],
      "name": "OwnershipTransferred",
      "type": "event"
    },
    {
      "anonymous": false,
      "inputs": [
        {
          "indexed": false,
          "internalType": "address",
          "name": "account",
          "type": "address"
        }
      ],
      "name": "Paused",
      "type": "event"
    },
    {
      "anonymous": false,
      "inputs": [
        {
          "indexed": true,
          "internalType": "bytes32",
          "name": "subsciptionId",
          "type": "bytes32"
        }
      ],
      "name": "SubsciptionDeleted",
      "type": "event"
    },
    {
      "anonymous": false,
      "inputs": [
        {
          "indexed": true,
          "internalType": "bytes32",
          "name": "subsciptionId",
          "type": "bytes32"
        },
        {
          "indexed": true,
          "internalType": "address",
          "name": "merchant",
          "type": "address"
        },
        {
          "indexed": false,
          "internalType": "address",
          "name": "token",
          "type": "address"
        },
        {
          "indexed": false,
          "internalType": "uint256",
          "name": "interval",
          "type": "uint256"
        },
        {
          "indexed": false,
          "internalType": "uint256",
          "name": "amount",
          "type": "uint256"
        },
        {
          "indexed": false,
          "internalType": "uint256",
          "name": "gracePeriod",
          "type": "uint256"
        },
        {
          "indexed": false,
          "internalType": "string",
          "name": "description",
          "type": "string"
        },
        {
          "components": [
            {
              "internalType": "uint8",
              "name": "schemaVersion",
              "type": "uint8"
            },
            {
              "internalType": "string",
              "name": "value",
              "type": "string"
            }
          ],
          "indexed": false,
          "internalType": "struct Types.Metadata",
          "name": "catalogMetadata",
          "type": "tuple"
        }
      ],
      "name": "SubscriptionCreated",
      "type": "event"
    },
    {
      "anonymous": false,
      "inputs": [
        {
          "indexed": true,
          "internalType": "bytes32",
          "name": "subsciptionId",
          "type": "bytes32"
        },
        {
          "indexed": false,
          "internalType": "uint256",
          "name": "amount",
          "type": "uint256"
        },
        {
          "indexed": false,
          "internalType": "uint256",
          "name": "gracePeriod",
          "type": "uint256"
        },
        {
          "indexed": false,
          "internalType": "string",
          "name": "description",
          "type": "string"
        },
        {
          "components": [
            {
              "internalType": "uint8",
              "name": "schemaVersion",
              "type": "uint8"
            },
            {
              "internalType": "string",
              "name": "value",
              "type": "string"
            }
          ],
          "indexed": false,
          "internalType": "struct Types.Metadata",
          "name": "catalogMetadata",
          "type": "tuple"
        },
        {
          "indexed": false,
          "internalType": "bool",
          "name": "active",
          "type": "bool"
        }
      ],
      "name": "SubscriptionUpdated",
      "type": "event"
    },
    {
      "anonymous": false,
      "inputs": [
        {
          "indexed": false,
          "internalType": "address",
          "name": "account",
          "type": "address"
        }
      ],
      "name": "Unpaused",
      "type": "event"
    },
    {
      "inputs": [
        {
          "components": [
            {
              "components": [
                {
                  "internalType": "uint8",
                  "name": "schemaVersion",
                  "type": "uint8"
                },
                {
                  "internalType": "string",
                  "name": "value",
                  "type": "string"
                }
              ],
              "internalType": "struct Types.Metadata",
              "name": "metadata",
              "type": "tuple"
            },
            {
              "internalType": "address[]",
              "name": "tokens",
              "type": "address[]"
            },
            {
              "internalType": "address[]",
              "name": "signers",
              "type": "address[]"
            },
            {
              "internalType": "uint256",
              "name": "minSigners",
              "type": "uint256"
            }
          ],
          "internalType": "struct Params.CreateMerchant",
          "name": "params",
          "type": "tuple"
        }
      ],
      "name": "create",
      "outputs": [],
      "stateMutability": "payable",
      "type": "function"
    },
    {
      "inputs": [
        {
          "components": [
            {
              "internalType": "address",
              "name": "token",
              "type": "address"
            },
            {
              "internalType": "uint256",
              "name": "interval",
              "type": "uint256"
            },
            {
              "internalType": "uint256",
              "name": "amount",
              "type": "uint256"
            },
            {
              "internalType": "uint256",
              "name": "gracePeriod",
              "type": "uint256"
            },
            {
              "internalType": "string",
              "name": "description",
              "type": "string"
            },
            {
              "components": [
                {
                  "internalType": "uint8",
                  "name": "schemaVersion",
                  "type": "uint8"
                },
                {
                  "internalType": "string",
                  "name": "value",
                  "type": "string"
                }
              ],
              "internalType": "struct Types.Metadata",
              "name": "catalogMetadata",
              "type": "tuple"
            }
          ],
          "internalType": "struct Params.CreateSubscription",
          "name": "params",
          "type": "tuple"
        }
      ],
      "name": "createSubscription",
      "outputs": [
        {
          "internalType": "bytes32",
          "name": "subscriptionId",
          "type": "bytes32"
        }
      ],
      "stateMutability": "nonpayable",
      "type": "function"
    },
    {
      "inputs": [
        {
          "components": [
            {
              "internalType": "bytes32",
              "name": "subscriptionId",
              "type": "bytes32"
            }
          ],
          "internalType": "struct Params.DeleteSubscription",
          "name": "params",
          "type": "tuple"
        }
      ],
      "name": "deleteSubscription",
      "outputs": [],
      "stateMutability": "nonpayable",
      "type": "function"
    },
    {
      "inputs": [
        {
          "internalType": "address",
          "name": "merchant",
          "type": "address"
        }
      ],
      "name": "getMerchant",
      "outputs": [
        {
          "components": [
            {
              "components": [
                {
                  "internalType": "uint8",
                  "name": "schemaVersion",
                  "type": "uint8"
                },
                {
                  "internalType": "string",
                  "name": "value",
                  "type": "string"
                }
              ],
              "internalType": "struct Types.Metadata",
              "name": "metadata",
              "type": "tuple"
            },
            {
              "internalType": "address",
              "name": "wallet",
              "type": "address"
            }
          ],
          "internalType": "struct Types.MerchantConfig",
          "name": "",
          "type": "tuple"
        }
      ],
      "stateMutability": "view",
      "type": "function"
    },
    {
      "inputs": [
        {
          "internalType": "bytes32",
          "name": "subscriptionId",
          "type": "bytes32"
        }
      ],
      "name": "getSubscription",
      "outputs": [
        {
          "components": [
            {
              "internalType": "address",
              "name": "token",
              "type": "address"
            },
            {
              "internalType": "uint256",
              "name": "interval",
              "type": "uint256"
            },
            {
              "internalType": "uint256",
              "name": "amount",
              "type": "uint256"
            },
            {
              "internalType": "uint256",
              "name": "gracePeriod",
              "type": "uint256"
            },
            {
              "internalType": "string",
              "name": "description",
              "type": "string"
            },
            {
              "components": [
                {
                  "internalType": "uint8",
                  "name": "schemaVersion",
                  "type": "uint8"
                },
                {
                  "internalType": "string",
                  "name": "value",
                  "type": "string"
                }
              ],
              "internalType": "struct Types.Metadata",
              "name": "catalogMetadata",
              "type": "tuple"
            },
            {
              "internalType": "address",
              "name": "merchant",
              "type": "address"
            },
            {
              "internalType": "bool",
              "name": "active",
              "type": "bool"
            }
          ],
          "internalType": "struct Types.Subscription",
          "name": "",
          "type": "tuple"
        }
      ],
      "stateMutability": "view",
      "type": "function"
    },
    {
      "inputs": [
        {
          "internalType": "address",
          "name": "merchant",
          "type": "address"
        }
      ],
      "name": "getWallet",
      "outputs": [
        {
          "internalType": "address",
          "name": "",
          "type": "address"
        }
      ],
      "stateMutability": "view",
      "type": "function"
    },
    {
      "inputs": [],
      "name": "owner",
      "outputs": [
        {
          "internalType": "address",
          "name": "",
          "type": "address"
        }
      ],
      "stateMutability": "view",
      "type": "function"
    },
    {
      "inputs": [],
      "name": "pause",
      "outputs": [],
      "stateMutability": "nonpayable",
      "type": "function"
    },
    {
      "inputs": [],
      "name": "paused",
      "outputs": [
        {
          "internalType": "bool",
          "name": "",
          "type": "bool"
        }
      ],
      "stateMutability": "view",
      "type": "function"
    },
    {
      "inputs": [],
      "name": "renounceOwnership",
      "outputs": [],
      "stateMutability": "nonpayable",
      "type": "function"
    },
    {
      "inputs": [
        {
          "internalType": "address",
          "name": "newOwner",
          "type": "address"
        }
      ],
      "name": "transferOwnership",
      "outputs": [],
      "stateMutability": "nonpayable",
      "type": "function"
    },
    {
      "inputs": [],
      "name": "unpause",
      "outputs": [],
      "stateMutability": "nonpayable",
      "type": "function"
    },
    {
      "inputs": [
        {
          "components": [
            {
              "components": [
                {
                  "internalType": "uint8",
                  "name": "schemaVersion",
                  "type": "uint8"
                },
                {
                  "internalType": "string",
                  "name": "value",
                  "type": "string"
                }
              ],
              "internalType": "struct Types.Metadata",
              "name": "metadata",
              "type": "tuple"
            }
          ],
          "internalType": "struct Params.UpdateMerchant",
          "name": "params",
          "type": "tuple"
        }
      ],
      "name": "update",
      "outputs": [],
      "stateMutability": "nonpayable",
      "type": "function"
    },
    {
      "inputs": [
        {
          "components": [
            {
              "internalType": "bytes32",
              "name": "subscriptionId",
              "type": "bytes32"
            },
            {
              "internalType": "uint256",
              "name": "amount",
              "type": "uint256"
            },
            {
              "internalType": "uint256",
              "name": "gracePeriod",
              "type": "uint256"
            },
            {
              "internalType": "string",
              "name": "description",
              "type": "string"
            },
            {
              "components": [
                {
                  "internalType": "uint8",
                  "name": "schemaVersion",
                  "type": "uint8"
                },
                {
                  "internalType": "string",
                  "name": "value",
                  "type": "string"
                }
              ],
              "internalType": "struct Types.Metadata",
              "name": "catalogMetadata",
              "type": "tuple"
            },
            {
              "internalType": "bool",
              "name": "active",
              "type": "bool"
            }
          ],
          "internalType": "struct Params.UpdateSubscription",
          "name": "params",
          "type": "tuple"
        }
      ],
      "name": "updateSubscription",
      "outputs": [],
      "stateMutability": "nonpayable",
      "type": "function"
    }
  ],
  "bytecode": "0x608080604052346085575f5433156072576001600160a81b0319811633600881811b610100600160a81b0316929092175f908155909290911c6001600160a01b0316907f8be0079c531659141344cd1fd0a4f28419497f9722a3daafe3b4186f6b6457e09080a3612f09908161008a8239f35b631e4fbdf760e01b5f525f60045260245ffd5b5f80fdfe6080806040526004361015610012575f80fd5b5f3560e01c90816304d0a64714611636575080631f32768e146114ea5780632e275b3c1461112a57806331443e0d146110475780633f4ba83a14610fca5780635583f820146109c9578063595c4e63146107705780635c975abb1461074f578063715018a6146106e75780638456cb59146106905780638da5cb5b14610668578063b2734eaf146105c1578063eb12d1ec146101845763f2fde38b146100b6575f80fd5b34610180576020366003190112610180576100cf611676565b6100d7611b37565b6001600160a01b038116908115610154576001600160a01b039074ffffffffffffffffffffffffffffffffffffffff005f549160081b1674ffffffffffffffffffffffffffffffffffffffff00198216175f5560081c167f8be0079c531659141344cd1fd0a4f28419497f9722a3daafe3b4186f6b6457e05f80a3005b7f1e4fbdf7000000000000000000000000000000000000000000000000000000005f525f60045260245ffd5b5f80fd5b346101805760203660031901126101805760043567ffffffffffffffff81116101805760c0600319823603011261018057604051906101c28261173c565b806004013582526020820190602481013582526040830160448201358152606482013567ffffffffffffffff811161018057610204906004369185010161177a565b9160608501928352608481013567ffffffffffffffff81116101805761023260a491600436918501016117d0565b916080870192835201359081151582036101805760a08601918252610255611b04565b335f5260036020526102816001600160a01b03600260405f20015416151561027b611a40565b906119a4565b85515f52600260205260405f209560078701926102ac336001600160a01b038654161461027b611a7b565b86516002890155845160038901558551805160048a019167ffffffffffffffff821161050f576102dc83546118a9565b601f8111610591575b50602090601f831160011461052e5761031592915f9183610523575b50508160011b915f199060031b1c19161790565b90555b602060068451996005810160ff8c511660ff198254161790550198015197885167ffffffffffffffff811161050f5761035182546118a9565b601f81116104d4575b506020601f8211600114610443579261042d9594926103b8836103f79461041f977fe24faa62a50acbe3feb7792658fa98b04e980996ee16844a8fb45564437576389e9f5f926104385750508160011b915f199060031b1c19161790565b90555b5115158096907fffffffffffffffffffffff00ffffffffffffffffffffffffffffffffffffffff60ff60a01b835492151560a01b169116179055565b519751945195519151916040519687968752602087015260a0604087015260a08601906116a0565b9084820360608601526116c4565b9060808301520390a2005b015190508f80610301565b601f1982169a835f52815f209b5f5b8181106104bc5750837fe24faa62a50acbe3feb7792658fa98b04e980996ee16844a8fb45564437576389c9d61041f979461042d9a9997946103f797600195106104a4575b505050811b0190556103bb565b01515f1960f88460031b161c191690558e8080610497565b838301518e556001909d019c60209384019301610452565b6104ff90835f5260205f20601f840160051c81019160208510610505575b601f0160051c0190611a2a565b8a61035a565b90915081906104f2565b634e487b7160e01b5f52604160045260245ffd5b015190508c80610301565b90601f19831691845f52815f20925f5b8181106105795750908460019594939210610561575b505050811b019055610318565b01515f1960f88460031b161c191690558b8080610554565b9293602060018192878601518155019501930161053e565b6105bb90845f5260205f20601f850160051c8101916020861061050557601f0160051c0190611a2a565b8b6102e5565b34610180576020366003190112610180576001600160a01b036105e2611676565b5f60206040516105f181611704565b6105f9611890565b81520152165f52600360205261065c60405f206001600160a01b0360026040519261062384611704565b61062c81611981565b8452015416602082019081526001600160a01b0360405193849360208552516040602086015260608501906116c4565b91511660408301520390f35b34610180575f3660031901126101805760206001600160a01b035f5460081c16604051908152f35b34610180575f366003190112610180576106a8611b37565b6106b0611b04565b600160ff195f5416175f557f62e78cea01bee320cd4e420270b5ea74000d11b0c9f74754ebdbfc544b05a2586020604051338152a1005b34610180575f366003190112610180576106ff611b37565b5f6001600160a01b03815474ffffffffffffffffffffffffffffffffffffffff00198116835560081c167f8be0079c531659141344cd1fd0a4f28419497f9722a3daafe3b4186f6b6457e08280a3005b34610180575f36600319011261018057602060ff5f54166040519015158152f35b346101805760203660031901126101805760043567ffffffffffffffff8111610180576020600319823603011261018057604051906107ae82611720565b80600401359067ffffffffffffffff82116101805760046107d292369201016117d0565b81526107dc611b04565b335f5260036020526108026001600160a01b03600260405f20015416151561027b611a40565b8051335f5260036020526001600160a01b03600260405f200154166040519161082a83611704565b825260208201908152335f52600360205260405f20915160ff81511660ff1984541617835560206001840191015180519067ffffffffffffffff821161050f5761087483546118a9565b601f8111610999575b50602090601f831160011461092957926108bb836001600160a01b0396939487956002975f9261091e5750508160011b915f199060031b1c19161790565b90555b51169201911673ffffffffffffffffffffffffffffffffffffffff19825416179055517fbea2c9a519cde2922bf069bc90d2ddf5f582d5faa634c63ccfb798662b29178f6040516020815280610919339460208301906116c4565b0390a2005b015190508a80610301565b90601f19831691845f52815f20925f5b8181106109815750936001600160a01b03969360029693600193838a9810610969575b505050811b0190556108be565b01515f1960f88460031b161c1916905589808061095c565b92936020600181928786015181550195019301610939565b6109c390845f5260205f20601f850160051c8101916020861061050557601f0160051c0190611a2a565b8661087d565b346101805760203660031901126101805760043567ffffffffffffffff81116101805760c060031982360301126101805760405190610a078261173c565b610a138160040161168c565b8252602481013560208301526044810135604083015260648101356060830152608481013567ffffffffffffffff811161018057610a57906004369184010161177a565b608083015260a48101359067ffffffffffffffff8211610180576004610a8092369201016117d0565b60a0820152610a8d611b04565b335f526003602052610ab36001600160a01b03600260405f20015416151561027b611a40565b6020810151151590610afd604092835190610ace8583611758565b600182527f330000000000000000000000000000000000000000000000000000000000000060208301526119a4565b60015491600183018311610fb65760019182840183556020610be06001600160a01b0383511695828401516040850151606086015160808701519160a08801519389519b610b4a8d6116e7565b8c52878c0152888b015260608a0152608089015260a08801523360c08801528560e0880152845190610b7c8683611758565b600882527f4d65726368616e7400000000000000000000000000000000000000000000000084830152855196879384937fd3d175220000000000000000000000000000000000000000000000000000000085526060600486015260648501906116a0565b91336024850152016044830152038173__$e8a316a189340483dbc2c3c1eb5060a774$__5af4928315610fac575f93610f78575b50825f526002602052815f20936001600160a01b03808251161673ffffffffffffffffffffffffffffffffffffffff198654161785556020810151600186015582810151600286015560608101516003860155608081015180519067ffffffffffffffff821161050f57610c8b60048801546118a9565b601f8111610f45575b50602090601f8311600114610ed857610cc392915f9183610ecd5750508160011b915f199060031b1c19161790565b60048601555b60206005860160a08301519060ff82511660ff19825416179055015194855167ffffffffffffffff811161050f57602096610d0760068401546118a9565b601f8111610e9c575b508790601f8311600114610e295792610d488360e094600794610d9e98975f926105235750508160011b915f199060031b1c19161790565b60068201555b60c08401519101805492909301517fffffffffffffffffffffff0000000000000000000000000000000000000000009092166001600160a01b03919091161790151560a01b60ff60a01b16179055565b827f479e8d3362138707a41ff91bd83b86b227bab6d9e63e4662651e6c37ee23581b6001600160a01b038351168684015190610e20610e11604087015196606081015160a06080830151920151988a5196879687528d8701528a860152606085015260c0608085015260c08401906116a0565b82810360a084015233966116c4565b0390a351908152f35b90600684015f52805f20915f5b601f1985168110610e85575083600793610d9e97969360019360e097601f19811610610e6d575b505050811b016006820155610d4e565b01515f1960f88460031b161c191690558b8080610e5d565b91928a600181928685015181550194019201610e36565b610ec790600685015f52895f20601f850160051c8101918b861061050557601f0160051c0190611a2a565b88610d10565b015190508880610301565b9190600488015f52805f20905f935b601f1984168510610f2a576001945083601f19811610610f12575b505050811b016004860155610cc9565b01515f1960f88460031b161c19169055878080610f02565b81810151835560209485019460019093019290910190610ee7565b610f7290600489015f5260205f20601f850160051c8101916020861061050557601f0160051c0190611a2a565b87610c94565b9092506020813d602011610fa4575b81610f9460209383611758565b8101031261018057519184610c14565b3d9150610f87565b82513d5f823e3d90fd5b634e487b7160e01b5f52601160045260245ffd5b34610180575f36600319011261018057610fe2611b37565b5f5460ff81161561101f5760ff19165f557f5db9ee0a495bf2e6ff9c91a7834c1ba4fdd244a5e8aa4e537bd38aeae4b073aa6020604051338152a1005b7f8dfc202b000000000000000000000000000000000000000000000000000000005f5260045ffd5b346101805760203660031901126101805760405161106481611720565b6004358152611071611b04565b335f5260036020526110976001600160a01b03600260405f20015416151561027b611a40565b80515f5260026020526110be336001600160a01b03600760405f200154161461027b611a7b565b80515f5260026020525f6007604082208281558260018201558260028201558260038201556110ef60048201611ab6565b82600582015561110160068201611ab6565b0155517f3069caa97100f73ac5895ba9f62b50f56346af8ea19525a58a7686226c70d1235f80a2005b60203660031901126101805760043567ffffffffffffffff81116101805760806003198236030112610180576040516080810181811067ffffffffffffffff82111761050f57604052816004013567ffffffffffffffff81116101805761119790600436918501016117d0565b8152602482013567ffffffffffffffff8111610180576111bd9060043691850101611820565b60208201908152604483013567ffffffffffffffff8111610180576111e89060043691860101611820565b92604083019384526064606084019101358152611203611b04565b335f5260036020526001600160a01b03600260405f2001541615926112606040948551906112318783611758565b600382527f343034000000000000000000000000000000000000000000000000000000000060208301526119a4565b8251855183519186519261135a8085019285841067ffffffffffffffff85111761050f5785946112a96112b692606094611b7a89393387526080602088015260808701906119ee565b908582038c8701526119ee565b920152039034f09485156114e0576001600160a01b0382519616918551966112dd88611704565b875260208701838152335f526003602052865f20975160ff81511660ff198a5416178955602060018a0191015180519067ffffffffffffffff821161050f5761132683546118a9565b601f81116114b0575b50602090601f8311600114611413576001600160a01b036113ec97956113fa9a9997956113997f8fa08b532ce6425030ae6e72e5ab5d1c2cd9d62713e92040877fd2306915a0299e9f968085976002975f926114085750508160011b915f199060031b1c19161790565b90555b51169201911673ffffffffffffffffffffffffffffffffffffffff1982541617905551955190519351976113da81519760a0895260a08901906116c4565b926020880152868303908701526119ee565b9083820360608501526119ee565b9260808201528033930390a2005b015190505f80610301565b90601f19831691845f52815f20925f5b8181106114985750956113fa9a99979560017f8fa08b532ce6425030ae6e72e5ab5d1c2cd9d62713e92040877fd2306915a0299e9f966001600160a01b03966002968896836113ec9f9d10611480575b505050811b01905561139c565b01515f1960f88460031b161c191690555f8080611473565b92936020600181928786015181550195019301611423565b6114da90845f5260205f20601f850160051c8101916020861061050557601f0160051c0190611a2a565b8b61132f565b84513d5f823e3d90fd5b34610180576020366003190112610180575f60e060405161150a816116e7565b8281528260208201528260408201528260608201526060608082015261152e611890565b60a08201528260c082015201526004355f5260026020526001600160a01b0360405f206040519061155e826116e7565b82815416825260018101549060208301918252836116216002830154926040860193845261160e60038201546060880190815261159d600484016118e1565b906080890191825260076115b360058601611981565b9460a08b0195865201549660c08a01988789168a5260ff60e08c019960a01c16151589526040519b8c9b60208d52511660208c01525160408b01525160608a01525160808901525161010060a08901526101208801906116a0565b9051868203601f190160c08801526116c4565b92511660e08401525115156101008301520390f35b34610180576020366003190112610180576020906001600160a01b0361165a611676565b165f52600382526001600160a01b03600260405f200154168152f35b600435906001600160a01b038216820361018057565b35906001600160a01b038216820361018057565b805180835260209291819084018484015e5f828201840152601f01601f1916010190565b90604060206116e49360ff815116845201519181602082015201906116a0565b90565b610100810190811067ffffffffffffffff82111761050f57604052565b6040810190811067ffffffffffffffff82111761050f57604052565b6020810190811067ffffffffffffffff82111761050f57604052565b60c0810190811067ffffffffffffffff82111761050f57604052565b90601f8019910116810190811067ffffffffffffffff82111761050f57604052565b81601f820112156101805780359067ffffffffffffffff821161050f57604051926117af601f8401601f191660200185611758565b8284526020838301011161018057815f926020809301838601378301015290565b919060408382031261018057604051906117e982611704565b8193803560ff8116810361018057835260208101359167ffffffffffffffff83116101805760209261181b920161177a565b910152565b9080601f830112156101805781359167ffffffffffffffff831161050f578260051b90604051936118546020840186611758565b845260208085019282010192831161018057602001905b8282106118785750505090565b602080916118858461168c565b81520191019061186b565b6040519061189d82611704565b60606020835f81520152565b90600182811c921680156118d7575b60208310146118c357565b634e487b7160e01b5f52602260045260245ffd5b91607f16916118b8565b9060405191825f8254926118f4846118a9565b808452936001811690811561195f575060011461191b575b5061191992500383611758565b565b90505f9291925260205f20905f915b818310611943575050906020611919928201015f61190c565b602091935080600191548385890101520191019091849261192a565b90506020925061191994915060ff191682840152151560051b8201015f61190c565b9060405161198e81611704565b602061181b6001839560ff8154168552016118e1565b156119ac5750565b6119ea906040519182917f08c379a00000000000000000000000000000000000000000000000000000000083526020600484015260248301906116a0565b0390fd5b90602080835192838152019201905f5b818110611a0b5750505090565b82516001600160a01b03168452602093840193909201916001016119fe565b818110611a35575050565b5f8155600101611a2a565b60405190611a4f604083611758565b600382527f34303500000000000000000000000000000000000000000000000000000000006020830152565b60405190611a8a604083611758565b600182527f32000000000000000000000000000000000000000000000000000000000000006020830152565b611ac081546118a9565b9081611aca575050565b81601f5f9311600114611adb575055565b81835260208320611af791601f0160051c810190600101611a2a565b8082528160208120915555565b60ff5f5416611b0f57565b7fd93c0665000000000000000000000000000000000000000000000000000000005f5260045ffd5b6001600160a01b035f5460081c163303611b4d57565b7f118cdaa7000000000000000000000000000000000000000000000000000000005f523360045260245ffdfe608060405261135a80380380610014816102a1565b92833981019060808183031261029d5761002d816102c6565b60208201519092906001600160401b03811161029d578161004f9184016102da565b60408301519091906001600160401b03811161029d576060916100739185016102da565b920151926001600160a01b0316801561028a575f80546001600160a01b03198116831782556001600160a01b0316907f8be0079c531659141344cd1fd0a4f28419497f9722a3daafe3b4186f6b6457e09080a3600180556100ef6100d760406102a1565b600381526203830360ec1b6020820152841515610344565b610115825184111561010160406102a1565b9060018252601b60f91b6020830152610344565b8051906001600160401b038211610215576801000000000000000082116102155760025482600255808310610246575b5060200160025f5260205f205f5b8381106102295784518690866001600160401b0382116102155768010000000000000000821161021557600354826003558083106101d1575b5060200160035f5260205f205f5b8381106101b45784600455604051610fce908161038c8239f35b82516001600160a01b03168183015560209092019160010161019a565b60035f527fc2575a0e9e593c00f959f8c92f12db2869c3395a3b0502d05e2516446f71f85b9081019083015b81811061020a575061018c565b5f81556001016101fd565b634e487b7160e01b5f52604160045260245ffd5b82516001600160a01b031681830155602090920191600101610153565b60025f527f405787fa12a823e0f2b7631cc41b3ba8828b3321ca811111fa75cd3aa3bb5ace9081019083015b81811061027f5750610145565b5f8155600101610272565b631e4fbdf760e01b5f525f60045260245ffd5b5f80fd5b6040519190601f01601f191682016001600160401b0381118382101761021557604052565b51906001600160a01b038216820361029d57565b9080601f8301121561029d578151916001600160401b038311610215578260051b9060208061030a8185016102a1565b80968152019282010192831161029d57602001905b82821061032c5750505090565b60208091610339846102c6565b81520191019061031f565b1561034c5750565b604460209160405192839162461bcd60e51b83528160048401528051918291826024860152018484015e5f828201840152601f01601f19168101030190fdfe6080604052600436101561001a575b3615610018575f80fd5b005b5f3560e01c806311ff708d14610a165780632104ebf11461078d57806344cbf1771461065f57806347e7ef2414610573578063715018a61461050f5780637df73e27146104ec5780638da5cb5b146104c757806394cf795e14610432578063de41691c146102bb578063ec4673d11461017c578063f2fde38b146100d35763f9eaee0d0361000e57346100cf5760203660031901126100cf5760206100c56100c0610bed565b610e81565b6040519015158152f35b5f80fd5b346100cf5760203660031901126100cf576001600160a01b036100f4610bed565b6100fc610ee1565b168015610150576001600160a01b035f548273ffffffffffffffffffffffffffffffffffffffff198216175f55167f8be0079c531659141344cd1fd0a4f28419497f9722a3daafe3b4186f6b6457e05f80a3005b7f1e4fbdf7000000000000000000000000000000000000000000000000000000005f525f60045260245ffd5b346100cf5760203660031901126100cf5760043561019933610e04565b6101db6040918251906101ac8483610bcb565b600182527f32000000000000000000000000000000000000000000000000000000000000006020830152610cb7565b815f5260066020526003815f206102096001600160a01b036002830154161515610203610d53565b90610cb7565b61021d60ff60058301541615610203610d8e565b600481016001600160a01b0333165f528060205261024460ff855f20541615610203610d8e565b6001600160a01b0333165f52602052825f20600160ff198254161790550180545f1981146102a75760010190557f78487974cc72de5c6bef86fe62e2102f7c904ce24ee2ce517ee055f6ce8f18ab60206001600160a01b035f54169251338152a3005b634e487b7160e01b5f52601160045260245ffd5b346100cf5760203660031901126100cf5760043567ffffffffffffffff81116100cf576102ec903690600401610c03565b6102f4610ee1565b61030381511515610203610d53565b805167ffffffffffffffff811161041e5768010000000000000000811161041e57600254816002558082106103c0575b506020820160025f525f5b82811061038357837fd98cf301fb2dcf478796c1ca646449e878f38c267e53debefa9310e84e2059df604051602081528061037e33946020830190610c7b565b0390a2005b60019060206001600160a01b03845116930192817f405787fa12a823e0f2b7631cc41b3ba8828b3321ca811111fa75cd3aa3bb5ace01550161033e565b7f405787fa12a823e0f2b7631cc41b3ba8828b3321ca811111fa75cd3aa3bb5ace01817f405787fa12a823e0f2b7631cc41b3ba8828b3321ca811111fa75cd3aa3bb5ace015b8181106104135750610333565b5f8155600101610406565b634e487b7160e01b5f52604160045260245ffd5b346100cf575f3660031901126100cf5760405180602060035491828152019060035f527fc2575a0e9e593c00f959f8c92f12db2869c3395a3b0502d05e2516446f71f85b905f5b8181106104a8576104a48561049081870382610bcb565b604051918291602083526020830190610c7b565b0390f35b82546001600160a01b0316845260209093019260019283019201610479565b346100cf575f3660031901126100cf5760206001600160a01b035f5416604051908152f35b346100cf5760203660031901126100cf5760206100c561050a610bed565b610e04565b346100cf575f3660031901126100cf57610527610ee1565b5f6001600160a01b03815473ffffffffffffffffffffffffffffffffffffffff1981168355167f8be0079c531659141344cd1fd0a4f28419497f9722a3daafe3b4186f6b6457e08280a3005b60403660031901126100cf57610587610bed565b6001600160a01b03602435916105dd61059f82610e81565b604051906105ae604083610bcb565b600382527f31303200000000000000000000000000000000000000000000000000000000006020830152610cb7565b6105f06105e8610d53565b841515610cb7565b16908161060c576100189150610604610d53565b903414610cb7565b61001891604051917f23b872dd00000000000000000000000000000000000000000000000000000000602084015233602484015230604484015260648301526064825261065a608483610bcb565b610f20565b346100cf5760603660031901126100cf57610678610bed565b602435604435916001600160a01b0383168093036100cf57610698610ee1565b6106a36105e8610d53565b600554600181018091116102a7577fdbd32aa86478e5dc17d3a10a48f542ba22fcbb506496672a9219632ac0d9531591816001600160a01b03926005555f526006602052600560405f2083831673ffffffffffffffffffffffffffffffffffffffff19825416178155856001820155600281018773ffffffffffffffffffffffffffffffffffffffff198254161790550160ff198154169055610782825f5416946005549660405191610757602084610bcb565b5f83525f3681376040519586951685526020850152604084015260a0606084015260a0830190610c7b565b5f60808301520390a3005b346100cf5760203660031901126100cf576004356002600154146109ee576002600155805f52600660205260405f2060028101906001600160a01b03825416916107d86105e8610d53565b60038201546004541115926108256040948551906107f68783610bcb565b600382527f38303100000000000000000000000000000000000000000000000000000000006020830152610cb7565b6005830160018154610842610838610d8e565b60ff831615610cb7565b60ff191617905582546001600160a01b0316806109095750505f8080936001600160a01b038294610884600147940154938461087c610dc9565b911015610cb7565b54165af13d156108ff573d9167ffffffffffffffff831161041e57516108ca926108b8601f8201601f191660200183610bcb565b81525f60203d92013e5b610203610d18565b6001600160a01b035f54167fe4316ed18911c398c6a0479d3101bb4b55e9c97d6cd59b334bc4e4e4e066c9785f80a360018055005b6108ca91506108c2565b915091928051907f70a08231000000000000000000000000000000000000000000000000000000008252306004830152602082602481865afa9182156109e4575f926109ac575b5061096660016109a7960154928361087c610dc9565b51927fa9059cbb000000000000000000000000000000000000000000000000000000006020850152602484015260448301526044825261065a606483610bcb565b6108ca565b9491506020853d6020116109dc575b816109c860209383610bcb565b810103126100cf5793519093610966610950565b3d91506109bb565b50513d5f823e3d90fd5b7f3ee5aeb5000000000000000000000000000000000000000000000000000000005f5260045ffd5b346100cf5760403660031901126100cf5760043567ffffffffffffffff81116100cf57610a47903690600401610c03565b60243590610a53610ee1565b604090610a978251610a658482610bcb565b600381527f38303000000000000000000000000000000000000000000000000000000000006020820152841515610cb7565b610aa78151841115610203610d18565b805167ffffffffffffffff811161041e5768010000000000000000811161041e5760035481600355808210610b6d575b506020820160035f525f5b828110610b3057857f6f8c25f4ead087c594c69b3eeda8bf24114aa4cdcd34adfb98ed343c6c5f800f86610b228784600455825192808452830190610c7b565b9260208201528033930390a2005b60019060206001600160a01b03845116930192817fc2575a0e9e593c00f959f8c92f12db2869c3395a3b0502d05e2516446f71f85b015501610ae2565b7fc2575a0e9e593c00f959f8c92f12db2869c3395a3b0502d05e2516446f71f85b01817fc2575a0e9e593c00f959f8c92f12db2869c3395a3b0502d05e2516446f71f85b015b818110610bc05750610ad7565b5f8155600101610bb3565b90601f8019910116810190811067ffffffffffffffff82111761041e57604052565b600435906001600160a01b03821682036100cf57565b81601f820112156100cf5780359167ffffffffffffffff831161041e578260051b916020830193610c376040519586610bcb565b84526020808501938201019182116100cf57602001915b818310610c5b5750505090565b82356001600160a01b03811681036100cf57815260209283019201610c4e565b90602080835192838152019201905f5b818110610c985750505090565b82516001600160a01b0316845260209384019390920191600101610c8b565b15610cbf5750565b60446020916040519283917f08c379a00000000000000000000000000000000000000000000000000000000083528160048401528051918291826024860152018484015e5f828201840152601f01601f19168101030190fd5b60405190610d27604083610bcb565b600182527f36000000000000000000000000000000000000000000000000000000000000006020830152565b60405190610d62604083610bcb565b600182527f33000000000000000000000000000000000000000000000000000000000000006020830152565b60405190610d9d604083610bcb565b600182527f34000000000000000000000000000000000000000000000000000000000000006020830152565b60405190610dd8604083610bcb565b600182527f35000000000000000000000000000000000000000000000000000000000000006020830152565b60035490815f5b838110610e1a57505050505f90565b81811015610e6d5760035f527fc2575a0e9e593c00f959f8c92f12db2869c3395a3b0502d05e2516446f71f85b8101546001600160a01b03848116911614610e6457600101610e0b565b50505050600190565b634e487b7160e01b5f52603260045260245ffd5b60025490815f5b838110610e9757505050505f90565b81811015610e6d5760025f527f405787fa12a823e0f2b7631cc41b3ba8828b3321ca811111fa75cd3aa3bb5ace8101546001600160a01b03848116911614610e6457600101610e88565b6001600160a01b035f54163303610ef457565b7f118cdaa7000000000000000000000000000000000000000000000000000000005f523360045260245ffd5b905f602091828151910182855af115610f8d575f513d610f8457506001600160a01b0381163b155b610f4f5750565b6001600160a01b03907f5274afe7000000000000000000000000000000000000000000000000000000005f521660045260245ffd5b60011415610f48565b6040513d5f823e3d90fdfea2646970667358221220795cc430a2c35b74fecea8b39aede36e79e5c9af30df1bc00db4d35e596f425f64736f6c634300081c0033a2646970667358221220d5d6537093c2bc8b7a64bc9cb03b4439a269ea29d722caa3ce69feaddc842d0864736f6c634300081c0033",
  "linkReferences": {
    "contracts/libs/HashLib.sol": {
      "HashLib": [
        {
          "length": 20,
          "start": 3195
        }
      ]
    }
  },
  "deployedLinkReferences": {
    "contracts/libs/HashLib.sol": {
      "HashLib": [
        {
          "length": 20,
          "start": 3057
        }
      ]
    }
  }
}