{
  "_format": "hh-sol-artifact-1",
  "contractName": "HashLib",
  "sourceName": "contracts/libs/HashLib.sol",
  "abi": [
    {
      "inputs": [
        {
          "internalType": "string",
          "name": "base",
          "type": "string"
        },
        {
          "internalType": "uint256",
          "name": "identifier",
          "type": "uint256"
        }
      ],
      "name": "generate",
      "outputs": [
        {
          "internalType": "bytes32",
          "name": "",
          "type": "bytes32"
        }
      ],
      "stateMutability": "pure",
      "type": "function"
    },
    {
      "inputs": [
        {
          "internalType": "string",
          "name": "base",
          "type": "string"
        },
        {
          "internalType": "address",
          "name": "user",
          "type": "address"
        },
        {
          "internalType": "uint256",
          "name": "identifier",
          "type": "uint256"
        }
      ],
      "name": "generateWithAddress",
      "outputs": [
        {
          "internalType": "bytes32",
          "name": "",
          "type": "bytes32"
        }
      ],
      "stateMutability": "pure",
      "type": "function"
    }
  ],
  "bytecode": "0x60808060405234601957610200908161001e823930815050f35b5f80fdfe6080806040526004361015610012575f80fd5b5f3560e01c90816320bed604146100cd575063d3d1752214610032575f80fd5b60603660031901126100c95760043567ffffffffffffffff81116100c95761005e90369060040161012d565b6024359173ffffffffffffffffffffffffffffffffffffffff83168093036100c9576100be6100a2916020946040519384928784019660608852608085019161015b565b906040830152604435606083015203601f19810183528261017b565b519020604051908152f35b5f80fd5b60403660031901126100c95760043567ffffffffffffffff81116100c957816100be60209361010361011794369060040161012d565b94908683019560408752606084019161015b565b602435604083015203601f19810183528261017b565b9181601f840112156100c95782359167ffffffffffffffff83116100c957602083818601950101116100c957565b908060209392818452848401375f828201840152601f01601f1916010190565b90601f8019910116810190811067ffffffffffffffff82111761019d57604052565b7f4e487b71000000000000000000000000000000000000000000000000000000005f52604160045260245ffdfea264697066735822122065e7f7ee5377f4e4a53c1d492f3fab917e0834d9f6f3dcbb812c03d0b915c48864736f6c634300081c0033",
  "linkReferences": {},
  "deployedLinkReferences": {}
}