{
  "_format": "hh-sol-artifact-1",
  "contractName": "BoolLib",
  "sourceName": "contracts/libs/BoolLib.sol",
  "abi": [
    {
      "inputs": [
        {
          "internalType": "bool[]",
          "name": "value",
          "type": "bool[]"
        }
      ],
      "name": "every",
      "outputs": [
        {
          "internalType": "bool",
          "name": "",
          "type": "bool"
        }
      ],
      "stateMutability": "pure",
      "type": "function"
    },
    {
      "inputs": [
        {
          "internalType": "bool[]",
          "name": "value",
          "type": "bool[]"
        }
      ],
      "name": "none",
      "outputs": [
        {
          "internalType": "bool",
          "name": "",
          "type": "bool"
        }
      ],
      "stateMutability": "pure",
      "type": "function"
    }
  ],
  "bytecode": "0x6080806040523460195761019c908161001e823930815050f35b5f80fdfe60806040526004361015610011575f80fd5b5f3560e01c8063875d1de11461004d5763be26ece91461002f575f80fd5b602061004361003d36610061565b9061013a565b6040519015158152f35b602061004361005b36610061565b90610103565b9060206003198301126100b55760043567ffffffffffffffff81116100b557826023820112156100b55780600401359267ffffffffffffffff84116100b55760248460051b830101116100b5576024019190565b5f80fd5b91908110156100c95760051b0190565b7f4e487b71000000000000000000000000000000000000000000000000000000005f52603260045260245ffd5b3580151581036100b55790565b5f5b82811061011457505050600190565b6101276101228285856100b9565b6100f6565b61013357600101610105565b5050505f90565b5f5b82811061014b57505050600190565b6101596101228285856100b9565b156101335760010161013c56fea26469706673582212207a8bdca7c809956e1a8741db0ad46c4630f9fadc007835e60ab69a700a9ac73c64736f6c634300081c0033",
  "linkReferences": {},
  "deployedLinkReferences": {}
}