{
  "_format": "hh-sol-artifact-1",
  "contractName": "Receipt",
  "sourceName": "contracts/core/Receipt.sol",
  "abi": [
    {
      "inputs": [
        {
          "internalType": "string",
          "name": "baseURI_",
          "type": "string"
        }
      ],
      "stateMutability": "nonpayable",
      "type": "constructor"
    },
    {
      "inputs": [],
      "name": "AccessControlBadConfirmation",
      "type": "error"
    },
    {
      "inputs": [
        {
          "internalType": "address",
          "name": "account",
          "type": "address"
        },
        {
          "internalType": "bytes32",
          "name": "neededRole",
          "type": "bytes32"
        }
      ],
      "name": "AccessControlUnauthorizedAccount",
      "type": "error"
    },
    {
      "inputs": [
        {
          "internalType": "address",
          "name": "sender",
          "type": "address"
        },
        {
          "internalType": "uint256",
          "name": "tokenId",
          "type": "uint256"
        },
        {
          "internalType": "address",
          "name": "owner",
          "type": "address"
        }
      ],
      "name": "ERC721IncorrectOwner",
      "type": "error"
    },
    {
      "inputs": [
        {
          "internalType": "address",
          "name": "operator",
          "type": "address"
        },
        {
          "internalType": "uint256",
          "name": "tokenId",
          "type": "uint256"
        }
      ],
      "name": "ERC721InsufficientApproval",
      "type": "error"
    },
    {
      "inputs": [
        {
          "internalType": "address",
          "name": "approver",
          "type": "address"
        }
      ],
      "name": "ERC721InvalidApprover",
      "type": "error"
    },
    {
      "inputs": [
        {
          "internalType": "address",
          "name": "operator",
          "type": "address"
        }
      ],
      "name": "ERC721InvalidOperator",
      "type": "error"
    },
    {
      "inputs": [
        {
          "internalType": "address",
          "name": "owner",
          "type": "address"
        }
      ],
      "name": "ERC721InvalidOwner",
      "type": "error"
    },
    {
      "inputs": [
        {
          "internalType": "address",
          "name": "receiver",
          "type": "address"
        }
      ],
      "name": "ERC721InvalidReceiver",
      "type": "error"
    },
    {
      "inputs": [
        {
          "internalType": "address",
          "name": "sender",
          "type": "address"
        }
      ],
      "name": "ERC721InvalidSender",
      "type": "error"
    },
    {
      "inputs": [
        {
          "internalType": "uint256",
          "name": "tokenId",
          "type": "uint256"
        }
      ],
      "name": "ERC721NonexistentToken",
      "type": "error"
    },
    {
      "anonymous": false,
      "inputs": [
        {
          "indexed": true,
          "internalType": "address",
          "name": "owner",
          "type": "address"
        },
        {
          "indexed": true,
          "internalType": "address",
          "name": "approved",
          "type": "address"
        },
        {
          "indexed": true,
          "internalType": "uint256",
          "name": "tokenId",
          "type": "uint256"
        }
      ],
      "name": "Approval",
      "type": "event"
    },
    {
      "anonymous": false,
      "inputs": [
        {
          "indexed": true,
          "internalType": "address",
          "name": "owner",
          "type": "address"
        },
        {
          "indexed": true,
          "internalType": "address",
          "name": "operator",
          "type": "address"
        },
        {
          "indexed": false,
          "internalType": "bool",
          "name": "approved",
          "type": "bool"
        }
      ],
      "name": "ApprovalForAll",
      "type": "event"
    },
    {
      "anonymous": false,
      "inputs": [
        {
          "indexed": true,
          "internalType": "address",
          "name": "to",
          "type": "address"
        },
        {
          "indexed": false,
          "internalType": "uint256",
          "name": "tokenId",
          "type": "uint256"
        },
        {
          "indexed": false,
          "internalType": "bytes32",
          "name": "transactionId",
          "type": "bytes32"
        }
      ],
      "name": "ReceiptMinted",
      "type": "event"
    },
    {
      "anonymous": false,
      "inputs": [
        {
          "indexed": true,
          "internalType": "bytes32",
          "name": "role",
          "type": "bytes32"
        },
        {
          "indexed": true,
          "internalType": "bytes32",
          "name": "previousAdminRole",
          "type": "bytes32"
        },
        {
          "indexed": true,
          "internalType": "bytes32",
          "name": "newAdminRole",
          "type": "bytes32"
        }
      ],
      "name": "RoleAdminChanged",
      "type": "event"
    },
    {
      "anonymous": false,
      "inputs": [
        {
          "indexed": true,
          "internalType": "bytes32",
          "name": "role",
          "type": "bytes32"
        },
        {
          "indexed": true,
          "internalType": "address",
          "name": "account",
          "type": "address"
        },
        {
          "indexed": true,
          "internalType": "address",
          "name": "sender",
          "type": "address"
        }
      ],
      "name": "RoleGranted",
      "type": "event"
    },
    {
      "anonymous": false,
      "inputs": [
        {
          "indexed": true,
          "internalType": "bytes32",
          "name": "role",
          "type": "bytes32"
        },
        {
          "indexed": true,
          "internalType": "address",
          "name": "account",
          "type": "address"
        },
        {
          "indexed": true,
          "internalType": "address",
          "name": "sender",
          "type": "address"
        }
      ],
      "name": "RoleRevoked",
      "type": "event"
    },
    {
      "anonymous": false,
      "inputs": [
        {
          "indexed": true,
          "internalType": "address",
          "name": "from",
          "type": "address"
        },
        {
          "indexed": true,
          "internalType": "address",
          "name": "to",
          "type": "address"
        },
        {
          "indexed": true,
          "internalType": "uint256",
          "name": "tokenId",
          "type": "uint256"
        }
      ],
      "name": "Transfer",
      "type": "event"
    },
    {
      "inputs": [],
      "name": "DEFAULT_ADMIN_ROLE",
      "outputs": [
        {
          "internalType": "bytes32",
          "name": "",
          "type": "bytes32"
        }
      ],
      "stateMutability": "view",
      "type": "function"
    },
    {
      "inputs": [],
      "name": "MINTER_ROLE",
      "outputs": [
        {
          "internalType": "bytes32",
          "name": "",
          "type": "bytes32"
        }
      ],
      "stateMutability": "view",
      "type": "function"
    },
    {
      "inputs": [
        {
          "internalType": "address",
          "name": "to",
          "type": "address"
        },
        {
          "internalType": "uint256",
          "name": "tokenId",
          "type": "uint256"
        }
      ],
      "name": "approve",
      "outputs": [],
      "stateMutability": "nonpayable",
      "type": "function"
    },
    {
      "inputs": [
        {
          "internalType": "address",
          "name": "owner",
          "type": "address"
        }
      ],
      "name": "balanceOf",
      "outputs": [
        {
          "internalType": "uint256",
          "name": "",
          "type": "uint256"
        }
      ],
      "stateMutability": "view",
      "type": "function"
    },
    {
      "inputs": [],
      "name": "baseURI",
      "outputs": [
        {
          "internalType": "string",
          "name": "",
          "type": "string"
        }
      ],
      "stateMutability": "view",
      "type": "function"
    },
    {
      "inputs": [
        {
          "internalType": "uint256",
          "name": "tokenId",
          "type": "uint256"
        }
      ],
      "name": "getApproved",
      "outputs": [
        {
          "internalType": "address",
          "name": "",
          "type": "address"
        }
      ],
      "stateMutability": "view",
      "type": "function"
    },
    {
      "inputs": [
        {
          "internalType": "bytes32",
          "name": "role",
          "type": "bytes32"
        }
      ],
      "name": "getRoleAdmin",
      "outputs": [
        {
          "internalType": "bytes32",
          "name": "",
          "type": "bytes32"
        }
      ],
      "stateMutability": "view",
      "type": "function"
    },
    {
      "inputs": [
        {
          "internalType": "bytes32",
          "name": "role",
          "type": "bytes32"
        },
        {
          "internalType": "address",
          "name": "account",
          "type": "address"
        }
      ],
      "name": "grantRole",
      "outputs": [],
      "stateMutability": "nonpayable",
      "type": "function"
    },
    {
      "inputs": [
        {
          "internalType": "bytes32",
          "name": "role",
          "type": "bytes32"
        },
        {
          "internalType": "address",
          "name": "account",
          "type": "address"
        }
      ],
      "name": "hasRole",
      "outputs": [
        {
          "internalType": "bool",
          "name": "",
          "type": "bool"
        }
      ],
      "stateMutability": "view",
      "type": "function"
    },
    {
      "inputs": [
        {
          "internalType": "address",
          "name": "owner",
          "type": "address"
        },
        {
          "internalType": "address",
          "name": "operator",
          "type": "address"
        }
      ],
      "name": "isApprovedForAll",
      "outputs": [
        {
          "internalType": "bool",
          "name": "",
          "type": "bool"
        }
      ],
      "stateMutability": "view",
      "type": "function"
    },
    {
      "inputs": [
        {
          "components": [
            {
              "internalType": "address",
              "name": "to",
              "type": "address"
            },
            {
              "internalType": "bytes32",
              "name": "transactionId",
              "type": "bytes32"
            },
            {
              "internalType": "string",
              "name": "URI",
              "type": "string"
            }
          ],
          "internalType": "struct Params.MintReceipt",
          "name": "params",
          "type": "tuple"
        }
      ],
      "name": "mint",
      "outputs": [],
      "stateMutability": "nonpayable",
      "type": "function"
    },
    {
      "inputs": [],
      "name": "name",
      "outputs": [
        {
          "internalType": "string",
          "name": "",
          "type": "string"
        }
      ],
      "stateMutability": "view",
      "type": "function"
    },
    {
      "inputs": [
        {
          "internalType": "uint256",
          "name": "tokenId",
          "type": "uint256"
        }
      ],
      "name": "ownerOf",
      "outputs": [
        {
          "internalType": "address",
          "name": "",
          "type": "address"
        }
      ],
      "stateMutability": "view",
      "type": "function"
    },
    {
      "inputs": [
        {
          "internalType": "bytes32",
          "name": "role",
          "type": "bytes32"
        },
        {
          "internalType": "address",
          "name": "callerConfirmation",
          "type": "address"
        }
      ],
      "name": "renounceRole",
      "outputs": [],
      "stateMutability": "nonpayable",
      "type": "function"
    },
    {
      "inputs": [
        {
          "internalType": "bytes32",
          "name": "role",
          "type": "bytes32"
        },
        {
          "internalType": "address",
          "name": "account",
          "type": "address"
        }
      ],
      "name": "revokeRole",
      "outputs": [],
      "stateMutability": "nonpayable",
      "type": "function"
    },
    {
      "inputs": [
        {
          "internalType": "address",
          "name": "from",
          "type": "address"
        },
        {
          "internalType": "address",
          "name": "to",
          "type": "address"
        },
        {
          "internalType": "uint256",
          "name": "tokenId",
          "type": "uint256"
        }
      ],
      "name": "safeTransferFrom",
      "outputs": [],
      "stateMutability": "nonpayable",
      "type": "function"
    },
    {
      "inputs": [
        {
          "internalType": "address",
          "name": "from",
          "type": "address"
        },
        {
          "internalType": "address",
          "name": "to",
          "type": "address"
        },
        {
          "internalType": "uint256",
          "name": "tokenId",
          "type": "uint256"
        },
        {
          "internalType": "bytes",
          "name": "data",
          "type": "bytes"
        }
      ],
      "name": "safeTransferFrom",
      "outputs": [],
      "stateMutability": "nonpayable",
      "type": "function"
    },
    {
      "inputs": [
        {
          "internalType": "address",
          "name": "operator",
          "type": "address"
        },
        {
          "internalType": "bool",
          "name": "approved",
          "type": "bool"
        }
      ],
      "name": "setApprovalForAll",
      "outputs": [],
      "stateMutability": "nonpayable",
      "type": "function"
    },
    {
      "inputs": [
        {
          "internalType": "bytes4",
          "name": "interfaceId",
          "type": "bytes4"
        }
      ],
      "name": "supportsInterface",
      "outputs": [
        {
          "internalType": "bool",
          "name": "",
          "type": "bool"
        }
      ],
      "stateMutability": "view",
      "type": "function"
    },
    {
      "inputs": [],
      "name": "symbol",
      "outputs": [
        {
          "internalType": "string",
          "name": "",
          "type": "string"
        }
      ],
      "stateMutability": "view",
      "type": "function"
    },
    {
      "inputs": [
        {
          "internalType": "uint256",
          "name": "tokenId",
          "type": "uint256"
        }
      ],
      "name": "tokenURI",
      "outputs": [
        {
          "internalType": "string",
          "name": "",
          "type": "string"
        }
      ],
      "stateMutability": "view",
      "type": "function"
    },
    {
      "inputs": [
        {
          "internalType": "address",
          "name": "from",
          "type": "address"
        },
        {
          "internalType": "address",
          "name": "to",
          "type": "address"
        },
        {
          "internalType": "uint256",
          "name": "tokenId",
          "type": "uint256"
        }
      ],
      "name": "transferFrom",
      "outputs": [],
      "stateMutability": "nonpayable",
      "type": "function"
    }
  ],
  "bytecode": "0x6080604052346104bb576119c680380380610019816104bf565b9283398101906020818303126104bb578051906001600160401b0382116104bb570181601f820112156104bb578051906001600160401b0382116102f65761006a601f8301601f19166020016104bf565b92828452602083830101116104bb57815f9260208093018386015e8301015261009360406104bf565b90600f82526e14985e5899585b48149958d95a5c1d608a1b60208301526100ba60406104bf565b6005815264149094941560da1b602082015282519091906001600160401b0381116102f6575f54600181811c911680156104b1575b60208210146102d857601f811161044f575b506020601f82116001146103ee57819293945f926103e3575b50508160011b915f199060031b1c1916175f555b81516001600160401b0381116102f657600154600181811c911680156103d9575b60208210146102d857601f8111610376575b50602092601f821160011461031557928192935f9261030a575b50508160011b915f199060031b1c1916176001555b80516001600160401b0381116102f657600754600181811c911680156102ec575b60208210146102d857601f8111610275575b50602091601f8211600114610215579181925f9261020a575b50508160011b915f199060031b1c1916176007555b6101fa336104e4565b50604051611438908161056e8239f35b015190505f806101dc565b601f1982169260075f52805f20915f5b85811061025d57508360019510610245575b505050811b016007556101f1565b01515f1960f88460031b161c191690555f8080610237565b91926020600181928685015181550194019201610225565b60075f527fa66cc928b5edb82af9bd49922954155ab7b0942694bea4ce44661d9a8736c688601f830160051c810191602084106102ce575b601f0160051c01905b8181106102c357506101c3565b5f81556001016102b6565b90915081906102ad565b634e487b7160e01b5f52602260045260245ffd5b90607f16906101b1565b634e487b7160e01b5f52604160045260245ffd5b015190505f8061017b565b601f1982169360015f52805f20915f5b86811061035e5750836001959610610346575b505050811b01600155610190565b01515f1960f88460031b161c191690555f8080610338565b91926020600181928685015181550194019201610325565b60015f527fb10e2d527612073b26eecdfd717e6a320cf44b4afac2b0732d9fcbe2b7fa0cf6601f830160051c810191602084106103cf575b601f0160051c01905b8181106103c45750610161565b5f81556001016103b7565b90915081906103ae565b90607f169061014f565b015190505f8061011a565b601f198216905f8052805f20915f5b8181106104375750958360019596971061041f575b505050811b015f5561012e565b01515f1960f88460031b161c191690555f8080610412565b9192602060018192868b0151815501940192016103fd565b5f80527f290decd9548b62a8d60345a988386fc84ba6bc95484008f6362f93160ef3e563601f830160051c810191602084106104a7575b601f0160051c01905b81811061049c5750610101565b5f815560010161048f565b9091508190610486565b90607f16906100ef565b5f80fd5b6040519190601f01601f191682016001600160401b038111838210176102f657604052565b6001600160a01b0381165f9081525f5160206119a65f395f51905f52602052604090205460ff16610568576001600160a01b03165f8181525f5160206119a65f395f51905f5260205260408120805460ff191660011790553391907f2f8788117e7eff1d82e926ec794901d17c78024a50270940304540a733656f0d8180a4600190565b505f9056fe6080806040526004361015610012575f80fd5b5f3560e01c90816301ffc9a714610d165750806306fdde0314610c74578063081812fc14610c37578063095ea7b314610b3257806323b872dd14610b1b578063248a9ca314610ae85780632f2ff15d14610aaa57806336568abe14610a4d57806342842e0e14610a245780636352211e146109f55780636c0360eb1461095057806370a08231146108e657806391d148541461089c57806395d89b41146107d2578063a217fddf146107b8578063a22cb46514610704578063b88d4fde146106a4578063c87b56dd146105cc578063cab72365146101ea578063d5391393146101b0578063d547741f1461016b5763e985e9c51461010e575f80fd5b3461016757604036600319011261016757610127610e3c565b6001600160a01b03610137610e52565b91165f5260056020526001600160a01b0360405f2091165f52602052602060ff60405f2054166040519015158152f35b5f80fd5b34610167576040366003190112610167576101ae60043561018a610e52565b906101a96101a4825f526006602052600160405f20015490565b6112ad565b61137d565b005b34610167575f3660031901126101675760206040517f9f2df0fed2c77648de5860a4cc508cd0818c85b8b8a1ab4ceeef8d981c8956a68152f35b346101675760203660031901126101675760043567ffffffffffffffff8111610167576060600319823603011261016757604051906060820182811067ffffffffffffffff8211176104f75760405280600401356001600160a01b038116810361016757825260208201906024810135825260448101359067ffffffffffffffff821161016757013660238201121561016757610291903690602460048201359101610ee0565b6040838101918252335f9081527f3195c024b2ddd6d9b8f6c836aa52f67fe69376c8903d009b80229b3ce4425f51602052205460ff1615610595576008546001810180911161058157806008556001600160a01b0384511690811561056e57805f5260026020526001600160a01b0360405f205416908115159283610537575b805f52600360205260405f2060018154019055815f52600260205260405f206001600160a01b0382166001600160a01b0319825416179055827fddf252ad1be2c89b69c2b068fc378daa952ba7f163c4a11628f55a4df523b3ef5f80a45061050b5751916008545f52600960205260405f20835167ffffffffffffffff81116104f75761039e8254610f16565b601f81116104b2575b506020601f8211600114610422579181604094926001600160a01b03947fcf56fb85b778fed39213679777369b9dadb3455c07cfda36549140f432b7e04c97985f92610417575b50508160011b915f199060031b1c19161790555b511692600854905182519182526020820152a2005b0151905088806103ee565b601f19821695835f52815f20965f5b81811061049a5750927fcf56fb85b778fed39213679777369b9dadb3455c07cfda36549140f432b7e04c96976001600160a01b039593600193836040999710610482575b505050811b019055610402565b01515f1960f88460031b161c19169055888080610475565b83830151895560019098019760209384019301610431565b825f5260205f20601f830160051c810191602084106104ed575b601f0160051c01905b8181106104e257506103a7565b5f81556001016104d5565b90915081906104cc565b634e487b7160e01b5f52604160045260245ffd5b7f73c6ac6e000000000000000000000000000000000000000000000000000000005f525f60045260245ffd5b610556825f52600460205260405f206001600160a01b03198154169055565b825f52600360205260405f205f198154019055610311565b633250574960e11b5f525f60045260245ffd5b634e487b7160e01b5f52601160045260245ffd5b63e2517d3f60e01b5f52336004527f9f2df0fed2c77648de5860a4cc508cd0818c85b8b8a1ab4ceeef8d981c8956a660245260445ffd5b34610167576020366003190112610167576004355f52600960205260405f20604051905f908054906105fd82610f16565b808552916001811690811561067d575060011461063d575b6106398461062581860382610ea2565b604051918291602083526020830190610e18565b0390f35b5f90815260208120939250905b8082106106635750909150810160200161062582610615565b91926001816020925483858801015201910190929161064a565b60ff191660208087019190915292151560051b850190920192506106259150839050610615565b34610167576080366003190112610167576106bd610e3c565b6106c5610e52565b6064359167ffffffffffffffff83116101675736602384011215610167576106fa6101ae933690602481600401359101610ee0565b916044359161110f565b346101675760403660031901126101675761071d610e3c565b60243590811515809203610167576001600160a01b031690811561078c57335f52600560205260405f20825f5260205260405f2060ff1981541660ff83161790556040519081527f17307eab39ab6107e8899845ad3d59bd9653f200f220920489ca2b5937696c3160203392a3005b507f5b08ba18000000000000000000000000000000000000000000000000000000005f5260045260245ffd5b34610167575f3660031901126101675760206040515f8152f35b34610167575f366003190112610167576040515f6001546107f281610f16565b8084529060018116908115610878575060011461081a575b6106398361062581850382610ea2565b60015f9081527fb10e2d527612073b26eecdfd717e6a320cf44b4afac2b0732d9fcbe2b7fa0cf6939250905b80821061085e5750909150810160200161062561080a565b919260018160209254838588010152019101909291610846565b60ff191660208086019190915291151560051b84019091019150610625905061080a565b34610167576040366003190112610167576108b5610e52565b6004355f5260066020526001600160a01b0360405f2091165f52602052602060ff60405f2054166040519015158152f35b34610167576020366003190112610167576001600160a01b03610907610e3c565b168015610924575f526003602052602060405f2054604051908152f35b7f89c62b64000000000000000000000000000000000000000000000000000000005f525f60045260245ffd5b34610167575f366003190112610167576040515f60075461097081610f16565b80845290600181169081156108785750600114610997576106398361062581850382610ea2565b60075f9081527fa66cc928b5edb82af9bd49922954155ab7b0942694bea4ce44661d9a8736c688939250905b8082106109db5750909150810160200161062561080a565b9192600181602092548385880101520191019092916109c3565b34610167576020366003190112610167576020610a1360043561127a565b6001600160a01b0360405191168152f35b34610167576101ae610a3536610e68565b9060405192610a45602085610ea2565b5f845261110f565b3461016757604036600319011261016757610a66610e52565b336001600160a01b03821603610a82576101ae9060043561137d565b7f6697b232000000000000000000000000000000000000000000000000000000005f5260045ffd5b34610167576040366003190112610167576101ae600435610ac9610e52565b90610ae36101a4825f526006602052600160405f20015490565b6112ee565b34610167576020366003190112610167576020610b136004355f526006602052600160405f20015490565b604051908152f35b34610167576101ae610b2c36610e68565b91610f4e565b3461016757604036600319011261016757610b4b610e3c565b602435610b578161127a565b33151580610c24575b80610bf1575b610bc55781906001600160a01b0380851691167f8c5be1e5ebec7d5bd14f71427d1e84f3dd0314c0f7b2291e5b200ac8c7c3b9255f80a45f5260046020526001600160a01b0360405f2091166001600160a01b03198254161790555f80f35b7fa9fbf51f000000000000000000000000000000000000000000000000000000005f523360045260245ffd5b506001600160a01b0381165f52600560205260405f206001600160a01b0333165f5260205260ff60405f20541615610b66565b50336001600160a01b0382161415610b60565b3461016757602036600319011261016757600435610c548161127a565b505f52600460205260206001600160a01b0360405f205416604051908152f35b34610167575f366003190112610167576040515f5f54610c9381610f16565b80845290600181169081156108785750600114610cba576106398361062581850382610ea2565b5f8080527f290decd9548b62a8d60345a988386fc84ba6bc95484008f6362f93160ef3e563939250905b808210610cfc5750909150810160200161062561080a565b919260018160209254838588010152019101909291610ce4565b3461016757602036600319011261016757600435907fffffffff00000000000000000000000000000000000000000000000000000000821680920361016757817f7965db0b0000000000000000000000000000000000000000000000000000000060209314908115610d8a575b5015158152f35b7f80ac58cd00000000000000000000000000000000000000000000000000000000811491508115610dee575b8115610dc4575b5083610d83565b7f01ffc9a70000000000000000000000000000000000000000000000000000000091501483610dbd565b7f5b5e139f0000000000000000000000000000000000000000000000000000000081149150610db6565b805180835260209291819084018484015e5f828201840152601f01601f1916010190565b600435906001600160a01b038216820361016757565b602435906001600160a01b038216820361016757565b6060906003190112610167576004356001600160a01b038116810361016757906024356001600160a01b0381168103610167579060443590565b90601f8019910116810190811067ffffffffffffffff8211176104f757604052565b67ffffffffffffffff81116104f757601f01601f191660200190565b929192610eec82610ec4565b91610efa6040519384610ea2565b829481845281830111610167578281602093845f960137010152565b90600182811c92168015610f44575b6020831014610f3057565b634e487b7160e01b5f52602260045260245ffd5b91607f1691610f25565b91906001600160a01b0316801561056e57815f5260026020526001600160a01b0360405f2054169282331515928361105a575b6001600160a01b03935085611023575b805f52600360205260405f2060018154019055815f52600260205260405f20816001600160a01b0319825416179055857fddf252ad1be2c89b69c2b068fc378daa952ba7f163c4a11628f55a4df523b3ef5f80a416808303610ff257505050565b7f64283d7b000000000000000000000000000000000000000000000000000000005f5260045260245260445260645ffd5b611042825f52600460205260405f206001600160a01b03198154169055565b855f52600360205260405f205f198154019055610f91565b91929050806110b8575b1561107157828291610f81565b828461108957637e27328960e01b5f5260045260245ffd5b7f177e802f000000000000000000000000000000000000000000000000000000005f523360045260245260445ffd5b5033841480156110e6575b806110645750825f526004602052336001600160a01b0360405f20541614611064565b50835f52600560205260405f206001600160a01b0333165f5260205260ff60405f2054166110c3565b9061111b838284610f4e565b803b611128575b50505050565b60209161116e6001600160a01b03809316956040519586948594630a85bd0160e11b86523360048701521660248501526044840152608060648401526084830190610e18565b03815f865af15f918161121d575b506111d157503d156111ca573d61119281610ec4565b906111a06040519283610ea2565b81523d5f602083013e5b805190816111c55782633250574960e11b5f5260045260245ffd5b602001fd5b60606111aa565b7fffffffff00000000000000000000000000000000000000000000000000000000630a85bd0160e11b91160361120b57505f808080611122565b633250574960e11b5f5260045260245ffd5b9091506020813d602011611272575b8161123960209383610ea2565b8101031261016757517fffffffff000000000000000000000000000000000000000000000000000000008116810361016757905f61117c565b3d915061122c565b805f5260026020526001600160a01b0360405f20541690811561129b575090565b637e27328960e01b5f5260045260245ffd5b805f52600660205260405f206001600160a01b0333165f5260205260ff60405f205416156112d85750565b63e2517d3f60e01b5f523360045260245260445ffd5b805f52600660205260405f206001600160a01b0383165f5260205260ff60405f205416155f1461137757805f52600660205260405f206001600160a01b0383165f5260205260405f20600160ff198254161790556001600160a01b03339216907f2f8788117e7eff1d82e926ec794901d17c78024a50270940304540a733656f0d5f80a4600190565b50505f90565b805f52600660205260405f206001600160a01b0383165f5260205260ff60405f2054165f1461137757805f52600660205260405f206001600160a01b0383165f5260205260405f2060ff1981541690556001600160a01b03339216907ff6391f5c32d9c69d2a47ea670b442974b53935d1edc7fd64eb21e047a839171b5f80a460019056fea26469706673582212202394370bd0c5e152755243ee2028318e1b014239e620b929cc2c74255fce6ed864736f6c634300081c003354cdd369e4e8a8515e52ca72ec816c2101831ad1f18bf44102ed171459c9b4f8",
  "linkReferences": {},
  "deployedLinkReferences": {}
}