{
  "_format": "hh-sol-artifact-1",
  "contractName": "RecurrentTransaction",
  "sourceName": "contracts/transactions/RecurrentTransaction.sol",
  "abi": [
    {
      "inputs": [
        {
          "internalType": "contract IReceipt",
          "name": "receipt_",
          "type": "address"
        },
        {
          "internalType": "contract IMerchant",
          "name": "merchant_",
          "type": "address"
        }
      ],
      "stateMutability": "nonpayable",
      "type": "constructor"
    },
    {
      "inputs": [
        {
          "internalType": "address",
          "name": "owner",
          "type": "address"
        }
      ],
      "name": "OwnableInvalidOwner",
      "type": "error"
    },
    {
      "inputs": [
        {
          "internalType": "address",
          "name": "account",
          "type": "address"
        }
      ],
      "name": "OwnableUnauthorizedAccount",
      "type": "error"
    },
    {
      "anonymous": false,
      "inputs": [
        {
          "indexed": true,
          "internalType": "address",
          "name": "previousOwner",
          "type": "address"
        },
        {
          "indexed": true,
          "internalType": "address",
          "name": "newOwner",
          "type": "address"
        }
      ],
      "name": "OwnershipTransferred",
      "type": "event"
    },
    {
      "inputs": [
        {
          "internalType": "address",
          "name": "payer",
          "type": "address"
        },
        {
          "components": [
            {
              "internalType": "address",
              "name": "merchant",
              "type": "address"
            },
            {
              "internalType": "bytes32",
              "name": "subscriptionId",
              "type": "bytes32"
            },
            {
              "internalType": "string",
              "name": "description",
              "type": "string"
            },
            {
              "components": [
                {
                  "internalType": "uint8",
                  "name": "schemaVersion",
                  "type": "uint8"
                },
                {
                  "internalType": "string",
                  "name": "value",
                  "type": "string"
                }
              ],
              "internalType": "struct Types.Metadata",
              "name": "metadata",
              "type": "tuple"
            }
          ],
          "internalType": "struct Params.CreateRecurrentTransaction",
          "name": "params",
          "type": "tuple"
        }
      ],
      "name": "create",
      "outputs": [
        {
          "internalType": "bytes32",
          "name": "transactionId",
          "type": "bytes32"
        }
      ],
      "stateMutability": "nonpayable",
      "type": "function"
    },
    {
      "inputs": [
        {
          "internalType": "bytes32",
          "name": "transactionId",
          "type": "bytes32"
        }
      ],
      "name": "getStatus",
      "outputs": [
        {
          "internalType": "enum Enums.TransactionStatus",
          "name": "",
          "type": "uint8"
        }
      ],
      "stateMutability": "view",
      "type": "function"
    },
    {
      "inputs": [
        {
          "internalType": "bytes32",
          "name": "transactionId",
          "type": "bytes32"
        }
      ],
      "name": "getTransaction",
      "outputs": [
        {
          "components": [
            {
              "internalType": "address",
              "name": "payer",
              "type": "address"
            },
            {
              "internalType": "address",
              "name": "merchant",
              "type": "address"
            },
            {
              "internalType": "bytes32",
              "name": "subscriptionId",
              "type": "bytes32"
            },
            {
              "internalType": "string",
              "name": "description",
              "type": "string"
            },
            {
              "internalType": "uint256[]",
              "name": "timestamps",
              "type": "uint256[]"
            },
            {
              "internalType": "uint256[]",
              "name": "amounts",
              "type": "uint256[]"
            },
            {
              "internalType": "uint256",
              "name": "dueDate",
              "type": "uint256"
            },
            {
              "components": [
                {
                  "internalType": "uint8",
                  "name": "schemaVersion",
                  "type": "uint8"
                },
                {
                  "internalType": "string",
                  "name": "value",
                  "type": "string"
                }
              ],
              "internalType": "struct Types.Metadata",
              "name": "metadata",
              "type": "tuple"
            },
            {
              "internalType": "enum Enums.TransactionStatus",
              "name": "status",
              "type": "uint8"
            }
          ],
          "internalType": "struct Types.RecurrentTransaction",
          "name": "",
          "type": "tuple"
        }
      ],
      "stateMutability": "view",
      "type": "function"
    },
    {
      "inputs": [
        {
          "components": [
            {
              "internalType": "address",
              "name": "to",
              "type": "address"
            },
            {
              "internalType": "bytes32",
              "name": "transactionId",
              "type": "bytes32"
            },
            {
              "internalType": "string",
              "name": "URI",
              "type": "string"
            }
          ],
          "internalType": "struct Params.MintReceipt",
          "name": "params",
          "type": "tuple"
        }
      ],
      "name": "mintReceipt",
      "outputs": [],
      "stateMutability": "nonpayable",
      "type": "function"
    },
    {
      "inputs": [
        {
          "internalType": "address",
          "name": "payer",
          "type": "address"
        },
        {
          "internalType": "bytes32",
          "name": "transactionId",
          "type": "bytes32"
        }
      ],
      "name": "onCancel",
      "outputs": [],
      "stateMutability": "nonpayable",
      "type": "function"
    },
    {
      "inputs": [
        {
          "internalType": "bytes32",
          "name": "transactionId",
          "type": "bytes32"
        },
        {
          "internalType": "uint256",
          "name": "amount",
          "type": "uint256"
        }
      ],
      "name": "onComplete",
      "outputs": [],
      "stateMutability": "nonpayable",
      "type": "function"
    },
    {
      "inputs": [
        {
          "internalType": "bytes32",
          "name": "transactionId",
          "type": "bytes32"
        },
        {
          "internalType": "address",
          "name": "payer",
          "type": "address"
        }
      ],
      "name": "onFulfill",
      "outputs": [
        {
          "internalType": "uint256",
          "name": "amount",
          "type": "uint256"
        },
        {
          "internalType": "address",
          "name": "token",
          "type": "address"
        },
        {
          "internalType": "uint256",
          "name": "dueDate",
          "type": "uint256"
        }
      ],
      "stateMutability": "nonpayable",
      "type": "function"
    },
    {
      "inputs": [],
      "name": "owner",
      "outputs": [
        {
          "internalType": "address",
          "name": "",
          "type": "address"
        }
      ],
      "stateMutability": "view",
      "type": "function"
    },
    {
      "inputs": [],
      "name": "renounceOwnership",
      "outputs": [],
      "stateMutability": "nonpayable",
      "type": "function"
    },
    {
      "inputs": [
        {
          "internalType": "address",
          "name": "newOwner",
          "type": "address"
        }
      ],
      "name": "transferOwnership",
      "outputs": [],
      "stateMutability": "nonpayable",
      "type": "function"
    }
  ],
  "bytecode": "0x6080346100f557601f61163238819003918201601f19168301916001600160401b038311848410176100f95780849260409485528339810103126100f55780516001600160a01b03811691908290036100f557602001516001600160a01b038116908190036100f55733156100e2575f8054336001600160a01b0319821681178355604051949290916001600160a01b0316907f8be0079c531659141344cd1fd0a4f28419497f9722a3daafe3b4186f6b6457e09080a360018060a01b0319600154161760015560018060a01b03196002541617600255611524908161010e8239f35b631e4fbdf760e01b5f525f60045260245ffd5b5f80fd5b634e487b7160e01b5f52604160045260245ffdfe60806040526004361015610011575f80fd5b5f5f3560e01c80632d926e4614610d4a5780633ed5027514610cac5780634aae13ca14610aad5780635de28ae014610a76578063715018a614610a125780638da5cb5b146109ed578063b38ffd5f14610975578063b658330e1461032e578063eb70fc28146101355763f2fde38b14610088575f80fd5b34610132576020366003190112610132576001600160a01b036100a96110d4565b6100b16114af565b168015610106576001600160a01b0382548273ffffffffffffffffffffffffffffffffffffffff198216178455167f8be0079c531659141344cd1fd0a4f28419497f9722a3daafe3b4186f6b6457e08380a380f35b6024827f1e4fbdf700000000000000000000000000000000000000000000000000000000815280600452fd5b80fd5b50346103025760203660031901126103025760043567ffffffffffffffff81116103025760606003198236030112610302576040516060810181811067ffffffffffffffff82111761031a57604052610190826004016110ea565b815260208101916024810135835260448101359067ffffffffffffffff82116103025760046101c292369201016111d9565b916040820192835280515f52600460205260405f206101f56001600160a01b038254166101ed6112a4565b90331461125a565b60ff60098201541660048110156103065761026391610221600492600161021a61121f565b911461125a565b015415156040519061023460408361119b565b600382527f3130360000000000000000000000000000000000000000000000000000000000602083015261125a565b6001600160a01b0360015416803b15610302576001600160a01b035f80946102d7604051978896879586947fcab723650000000000000000000000000000000000000000000000000000000086526020600487015251166024850152516044840152516060606484015260848301906110fe565b03925af180156102f7576102e9575080f35b6102f591505f9061119b565b005b6040513d5f823e3d90fd5b5f80fd5b634e487b7160e01b5f52602160045260245ffd5b634e487b7160e01b5f52604160045260245ffd5b34610302576040366003190112610302576103476110d4565b60243567ffffffffffffffff8111610302576080600319823603011261030257604051906080820182811067ffffffffffffffff82111761031a57604052610391816004016110ea565b82526020820160248201358152604482013567ffffffffffffffff8111610302576103c290600436918501016111d9565b916040840192835260648101359067ffffffffffffffff82116103025701936040600319863603011261030257604051946103fc86611162565b600481013560ff8116810361030257865260248101359067ffffffffffffffff821161030257600461043192369201016111d9565b6020860152606084019485526104456114af565b6003549260018401809411610961576001600160a01b0361056095856003555116925190519060209660405161047b898261119b565b5f81525f368137604051916104908a8461119b565b5f83525f36813751936001600160a01b03604051966104ae8861117e565b16865289860196875260408601938452606086019081526080860191825260a0860192835260c086019342855260e08701958652610100870197600189528b60409a8b8051916104fe828461119b565b601483527f526563757272656e745472616e73616374696f6e0000000000000000000000008484015281519e8f9384937f20bed604000000000000000000000000000000000000000000000000000000008552600485015260448401906110fe565b906024830152038173__$e8a316a189340483dbc2c3c1eb5060a774$__5af49a8b15610957575f9b610921575b506001600160a01b03908b5f5260048d5281808c5f209a51161673ffffffffffffffffffffffffffffffffffffffff198a541617895551166001600160a01b0360018901911673ffffffffffffffffffffffffffffffffffffffff1982541617905551600287015560038601905180519067ffffffffffffffff821161031a5781906106198454611339565b8d601f82116108f2575b50508c908d601f841160011461088e57505f92610883575b50508160011b915f199060031b1c19161790555b51805190600486019067ffffffffffffffff831161031a5768010000000000000000831161031a578a908254848455808510610868575b5001905f52895f205f5b83811061085657505050506005840190519081519167ffffffffffffffff831161031a5768010000000000000000831161031a578990825484845580851061083b575b5001905f52885f205f5b83811061082957505050505160068301556007820190519060ff82511660ff19825416179055856008830191015180519067ffffffffffffffff821161031a576107278354611339565b601f81116107f0575b508790601f8311600114610789576009949392915f918361077e575b50508160011b915f199060031b1c19161790555b01905160048110156103065760ff8019835416911617905551908152f35b01519050898061074c565b90601f19831691845f52895f20925f5b8b8282106107da575050916001939185600998979694106107c2575b505050811b019055610760565b01515f1960f88460031b161c191690558980806107b5565b6001859682939686015181550195019301610799565b61081990845f52895f20601f850160051c8101918b861061081f575b601f0160051c0190611499565b88610730565b909150819061080c565b825182820155918a01916001016106dd565b61085090845f5285845f209182019101611499565b8b6106d3565b825182820155918b0191600101610690565b61087d90845f5285845f209182019101611499565b8c610686565b015190508c8061063b565b5f8681528181209450601f198616915b8282106108da5750509084600195949392106108c2575b505050811b01905561064f565b01515f1960f88460031b161c191690558c80806108b5565b8060018697829497870151815501960194019061089e565b61091a91865f52815f2090601f860160051c820192861061081f57601f0160051c0190611499565b8d8d610623565b909a508b81813d8311610950575b610939818361119b565b810103126103025751996001600160a01b0361058d565b503d61092f565b8a513d5f823e3d90fd5b634e487b7160e01b5f52601160045260245ffd5b34610302576040366003190112610302576004356109916114af565b805f52600460205260ff600960405f200154166004811015610306576109bb90600161021a61121f565b805f5260046020526109d4600460405f20014290611459565b5f5260046020526102f5602435600560405f2001611459565b34610302575f3660031901126103025760206001600160a01b035f5416604051908152f35b34610302575f36600319011261030257610a2a6114af565b5f6001600160a01b03815473ffffffffffffffffffffffffffffffffffffffff1981168355167f8be0079c531659141344cd1fd0a4f28419497f9722a3daafe3b4186f6b6457e08280a3005b34610302576020366003190112610302576004355f526004602052602060ff600960405f20015416610aab6040518092611155565bf35b34610302576020366003190112610302575f610100604051610ace8161117e565b82815282602082015282604082015260608082015260606080820152606060a08201528260c0820152604051610b0381611162565b8381526060602082015260e082015201526004355f52600460205260405f20604051610b2e8161117e565b6001600160a01b0382541681526001600160a01b03600183015416916020820192835260028101549060408301918252610b6a60038201611371565b9060608401918252610b7e60048201611411565b60808501908152610b9160058301611411565b9060a0860191825260068301549360c0870194855260ff600960405195610bb787611162565b826007820154168752610bcc60088201611371565b602088015260e08a0196875201541695610100880196600481101561030657875260405198899860208a52516001600160a01b031660208a0152516001600160a01b03166040890152516060880152516080870161012090526101408701610c33916110fe565b9051868203601f190160a0880152610c4b9190611122565b9051858203601f190160c0870152610c639190611122565b915160e085015251601f1984830301610100850152805160ff16825260200151906020810160409052604001610c98916110fe565b90516101208301610ca891611155565b0390f35b3461030257604036600319011261030257610cc56110d4565b60243590610cd16114af565b815f52600460205260ff600960405f2001541690600482101561030657610cff610d2d92600161021a61121f565b825f5260046020526001600160a01b0360405f2054166001600160a01b03610d256112a4565b92161461125a565b5f908152600460205260409020600901805460ff19166003179055005b3461030257604036600319011261030257600435602435906001600160a01b03821680920361030257610d7b6114af565b805f52600460205260ff600960405f20015416600481101561030657610da590600161021a61121f565b5f526004602052610dce60405f20916001600160a01b0383541614610dc86112a4565b9061125a565b600681019081546040610e198151610de6838261119b565b600381527f333033000000000000000000000000000000000000000000000000000000000060208201528342101561125a565b6001600160a01b0360025416925f600282015460248451809781937f1f32768e00000000000000000000000000000000000000000000000000000000835260048301525afa9384156110ca575f94610f91575b50610f0990610eb760e08601511515845190610e88868361119b565b600382527f3230310000000000000000000000000000000000000000000000000000000000602083015261125a565b6001600160a01b0360018160c0880151169201541614825190610eda848361119b565b600182527f3200000000000000000000000000000000000000000000000000000000000000602083015261125a565b6020830191610f5183511515835190610f22858361119b565b600182527f3300000000000000000000000000000000000000000000000000000000000000602083015261125a565b8042115f14610f8b575042915b5182018092116109615781606094556001600160a01b038184015193511681519384526020840152820152f35b91610f5e565b9093503d805f833e610fa3818361119b565b8101906020818303126103025780519067ffffffffffffffff82116103025701906101008282031261030257825191610100830183811067ffffffffffffffff82111761031a578452610ff5816112df565b835260208101516020840152838101518484015260608101516060840152608081015167ffffffffffffffff811161030257826110339183016112f3565b608084015260a081015167ffffffffffffffff811161030257810184818403126103025784519061106382611162565b805160ff8116810361030257825260208101519367ffffffffffffffff85116103025760e09461109392016112f3565b602082015260a08401526110a960c082016112df565b60c0840152015190811515820361030257610f099160e08201529390610e6c565b82513d5f823e3d90fd5b600435906001600160a01b038216820361030257565b35906001600160a01b038216820361030257565b805180835260209291819084018484015e5f828201840152601f01601f1916010190565b90602080835192838152019201905f5b81811061113f5750505090565b8251845260209384019390920191600101611132565b9060048210156103065752565b6040810190811067ffffffffffffffff82111761031a57604052565b610120810190811067ffffffffffffffff82111761031a57604052565b90601f8019910116810190811067ffffffffffffffff82111761031a57604052565b67ffffffffffffffff811161031a57601f01601f191660200190565b81601f82011215610302578035906111f0826111bd565b926111fe604051948561119b565b8284526020838301011161030257815f926020809301838601378301015290565b6040519061122e60408361119b565b600382527f31303300000000000000000000000000000000000000000000000000000000006020830152565b156112625750565b6112a0906040519182917f08c379a00000000000000000000000000000000000000000000000000000000083526020600484015260248301906110fe565b0390fd5b604051906112b360408361119b565b600382527f31303400000000000000000000000000000000000000000000000000000000006020830152565b51906001600160a01b038216820361030257565b81601f820112156103025780519061130a826111bd565b92611318604051948561119b565b8284526020838301011161030257815f9260208093018386015e8301015290565b90600182811c92168015611367575b602083101461135357565b634e487b7160e01b5f52602260045260245ffd5b91607f1691611348565b9060405191825f82549261138484611339565b80845293600181169081156113ef57506001146113ab575b506113a99250038361119b565b565b90505f9291925260205f20905f915b8183106113d35750509060206113a9928201015f61139c565b60209193508060019154838589010152019101909184926113ba565b9050602092506113a994915060ff191682840152151560051b8201015f61139c565b90604051918281549182825260208201905f5260205f20925f5b8181106114405750506113a99250038361119b565b845483526001948501948794506020909301920161142b565b8054906801000000000000000082101561031a5760018201808255821015611485575f5260205f200155565b634e487b7160e01b5f52603260045260245ffd5b8181106114a4575050565b5f8155600101611499565b6001600160a01b035f541633036114c257565b7f118cdaa7000000000000000000000000000000000000000000000000000000005f523360045260245ffdfea26469706673582212204cc1535715ffabbee67524525792f43eeb26117d705cedb1f741fd4628baf33164736f6c634300081c0033",
  "linkReferences": {
    "contracts/libs/HashLib.sol": {
      "HashLib": [
        {
          "length": 20,
          "start": 1656
        }
      ]
    }
  },
  "deployedLinkReferences": {
    "contracts/libs/HashLib.sol": {
      "HashLib": [
        {
          "length": 20,
          "start": 1386
        }
      ]
    }
  }
}