{
  "_format": "hh3-artifact-1",
  "contractName": "ValidationRegistry",
  "sourceName": "contracts/ValidationRegistry.sol",
  "abi": [
    {
      "anonymous": false,
      "inputs": [
        {
          "indexed": true,
          "internalType": "address",
          "name": "validatorAddress",
          "type": "address"
        },
        {
          "indexed": true,
          "internalType": "uint256",
          "name": "agentId",
          "type": "uint256"
        },
        {
          "indexed": false,
          "internalType": "string",
          "name": "requestURI",
          "type": "string"
        },
        {
          "indexed": true,
          "internalType": "bytes32",
          "name": "requestHash",
          "type": "bytes32"
        }
      ],
      "name": "ValidationRequest",
      "type": "event"
    },
    {
      "anonymous": false,
      "inputs": [
        {
          "indexed": true,
          "internalType": "address",
          "name": "validatorAddress",
          "type": "address"
        },
        {
          "indexed": true,
          "internalType": "uint256",
          "name": "agentId",
          "type": "uint256"
        },
        {
          "indexed": true,
          "internalType": "bytes32",
          "name": "requestHash",
          "type": "bytes32"
        },
        {
          "indexed": false,
          "internalType": "uint8",
          "name": "response",
          "type": "uint8"
        },
        {
          "indexed": false,
          "internalType": "string",
          "name": "responseURI",
          "type": "string"
        },
        {
          "indexed": false,
          "internalType": "bytes32",
          "name": "responseHash",
          "type": "bytes32"
        },
        {
          "indexed": false,
          "internalType": "string",
          "name": "tag",
          "type": "string"
        }
      ],
      "name": "ValidationResponse",
      "type": "event"
    },
    {
      "inputs": [
        {
          "internalType": "uint256",
          "name": "agentId",
          "type": "uint256"
        }
      ],
      "name": "getAgentValidations",
      "outputs": [
        {
          "internalType": "bytes32[]",
          "name": "requestHashes",
          "type": "bytes32[]"
        }
      ],
      "stateMutability": "view",
      "type": "function"
    },
    {
      "inputs": [],
      "name": "getIdentityRegistry",
      "outputs": [
        {
          "internalType": "address",
          "name": "identityRegistry",
          "type": "address"
        }
      ],
      "stateMutability": "view",
      "type": "function"
    },
    {
      "inputs": [
        {
          "internalType": "uint256",
          "name": "agentId",
          "type": "uint256"
        },
        {
          "internalType": "address[]",
          "name": "validatorAddresses",
          "type": "address[]"
        },
        {
          "internalType": "string",
          "name": "tag",
          "type": "string"
        }
      ],
      "name": "getSummary",
      "outputs": [
        {
          "internalType": "uint64",
          "name": "count",
          "type": "uint64"
        },
        {
          "internalType": "uint8",
          "name": "averageResponse",
          "type": "uint8"
        }
      ],
      "stateMutability": "view",
      "type": "function"
    },
    {
      "inputs": [
        {
          "internalType": "bytes32",
          "name": "requestHash",
          "type": "bytes32"
        }
      ],
      "name": "getValidationStatus",
      "outputs": [
        {
          "internalType": "address",
          "name": "validatorAddress",
          "type": "address"
        },
        {
          "internalType": "uint256",
          "name": "agentId",
          "type": "uint256"
        },
        {
          "internalType": "uint8",
          "name": "response",
          "type": "uint8"
        },
        {
          "internalType": "bytes32",
          "name": "responseHash",
          "type": "bytes32"
        },
        {
          "internalType": "string",
          "name": "tag",
          "type": "string"
        },
        {
          "internalType": "uint256",
          "name": "lastUpdate",
          "type": "uint256"
        }
      ],
      "stateMutability": "view",
      "type": "function"
    },
    {
      "inputs": [
        {
          "internalType": "address",
          "name": "validatorAddress",
          "type": "address"
        }
      ],
      "name": "getValidatorRequests",
      "outputs": [
        {
          "internalType": "bytes32[]",
          "name": "requestHashes",
          "type": "bytes32[]"
        }
      ],
      "stateMutability": "view",
      "type": "function"
    },
    {
      "inputs": [
        {
          "internalType": "address",
          "name": "identityRegistry_",
          "type": "address"
        }
      ],
      "name": "initialize",
      "outputs": [],
      "stateMutability": "nonpayable",
      "type": "function"
    },
    {
      "inputs": [
        {
          "internalType": "address",
          "name": "validatorAddress",
          "type": "address"
        },
        {
          "internalType": "uint256",
          "name": "agentId",
          "type": "uint256"
        },
        {
          "internalType": "string",
          "name": "requestURI",
          "type": "string"
        },
        {
          "internalType": "bytes32",
          "name": "requestHash",
          "type": "bytes32"
        }
      ],
      "name": "validationRequest",
      "outputs": [],
      "stateMutability": "nonpayable",
      "type": "function"
    },
    {
      "inputs": [
        {
          "internalType": "bytes32",
          "name": "requestHash",
          "type": "bytes32"
        },
        {
          "internalType": "uint8",
          "name": "response",
          "type": "uint8"
        },
        {
          "internalType": "string",
          "name": "responseURI",
          "type": "string"
        },
        {
          "internalType": "bytes32",
          "name": "responseHash",
          "type": "bytes32"
        },
        {
          "internalType": "string",
          "name": "tag",
          "type": "string"
        }
      ],
      "name": "validationResponse",
      "outputs": [],
      "stateMutability": "nonpayable",
      "type": "function"
    }
  ],
  "bytecode": "0x60808060405234601557610eb6908161001a8239f35b5f80fdfe60806040526004361015610011575f80fd5b5f3560e01c80631b7cabd6146108e05780633d659a961461066e5780634bf3158c146105fc5780638d5d0c2d14610588578063aaf400c4146101b1578063bc4d861b1461018c578063c4d66de8146101235763ff2febfc14610071575f80fd5b3461011f57602036600319011261011f576004355f52600160205260405f206100a960ff6006830154166100a3610caa565b90610ce5565b6001600160a01b03815416600182015491610115600460ff6002840154166003840154906100ed6005860154956100e66040518096819301610a86565b0384610b07565b604051968796875260208701526040860152606085015260c0608085015260c0840190610a01565b9060a08301520390f35b5f80fd5b3461011f57602036600319011261011f5761013c6109b2565b73ffffffffffffffffffffffffffffffffffffffff196001600160a01b035f5492610171610168610dbf565b83861615610ce5565b169161018661017e610caa565b841515610ce5565b16175f55005b3461011f575f36600319011261011f5760206001600160a01b035f5416604051908152f35b3461011f57608036600319011261011f576101ca6109b2565b60243560443567ffffffffffffffff811161011f576101ed903690600401610984565b9092606435936001600160a01b035f5416926001600160a01b0360409361024b85516102198782610b07565b600381527f35303000000000000000000000000000000000000000000000000000000000006020820152871515610ce5565b1693610260610258610caa565b861515610ce5565b61027361026b610caa565b881515610ce5565b83517f6352211e000000000000000000000000000000000000000000000000000000008152866004820152602081602481855afa90811561057e57906001600160a01b03915f9161055f575b5016908133149182156104d0575b8215610416575b50507f530436c3634a98e1e626b0898be2f1e9980cc1bd2a78c07a0aba52d0a48a5059936103076103bc926100a3610d2f565b875f526001602052805f206006810160ff815416155f146103e057600160ff198254161790558673ffffffffffffffffffffffffffffffffffffffff198254161781558760018201556002810160ff1981541690555f60038201555f600482016103718154610a4e565b601f81116103c1575b5055600542910155865f52600260205261039688825f20610dfa565b855f5260036020526103aa88825f20610dfa565b51928392602084526020840191610d80565b0390a4005b818352602083206103da91601f0160051c810190610d6a565b8b61037a565b506103f9876001600160a01b03835416146100a3610dbf565b61040b886001830154146100a3610dbf565b6005429101556103aa565b602091925060448651809481937fe985e9c500000000000000000000000000000000000000000000000000000000835260048301523360248301525afa9081156104c6575f9161046b575b50836103076102d4565b90506020813d6020116104be575b8161048660209383610b07565b8101031261011f5751801515810361011f577f530436c3634a98e1e626b0898be2f1e9980cc1bd2a78c07a0aba52d0a48a5059610461565b3d9150610479565b84513d5f823e3d90fd5b915084517f081812fc000000000000000000000000000000000000000000000000000000008152876004820152602081602481855afa908115610555575f91610526575b506001600160a01b03163314916102cd565b610548915060203d60201161054e575b6105408183610b07565b810190610da0565b89610514565b503d610536565b86513d5f823e3d90fd5b610578915060203d60201161054e576105408183610b07565b896102bf565b85513d5f823e3d90fd5b3461011f57602036600319011261011f576004355f52600260205260405f206040519081602082549182815201915f5260205f20905f5b8181106105e6576105e2856105d681870382610b07565b604051918291826109c8565b0390f35b82548452602090930192600192830192016105bf565b3461011f57602036600319011261011f576001600160a01b0361061d6109b2565b165f52600360205260405f206040519081602082549182815201915f5260205f20905f5b818110610658576105e2856105d681870382610b07565b8254845260209093019260019283019201610641565b3461011f5760a036600319011261011f5760043560243560ff811680910361011f5760443567ffffffffffffffff811161011f576106b0903690600401610984565b6064929192359160843567ffffffffffffffff811161011f576106d7903690600401610984565b6106ef6106e5959295610caa565b6064851115610ce5565b865f52600160205260405f209461070f60ff6006880154166100a3610caa565b6107276001600160a01b0387541633146100a3610d2f565b600286018460ff198254161790558260038701556004860167ffffffffffffffff83116108cc576107588154610a4e565b601f8111610891575b505f601f8411600114610805579183916103bc947fafddf629e874ccc3963b6a888c477bd464a6c8525024fc88759ea3b2326349ae989796945f916107fa575b508360011b905f198560031b1c19161790555b4260058901556107e760016001600160a01b038a5416990154996040519788978852608060208901526080880191610d80565b9260408601528483036060860152610d80565b90508201358c6107a1565b601f19841690825f5260205f20915f5b8181106108795750918593916103bc967fafddf629e874ccc3963b6a888c477bd464a6c8525024fc88759ea3b2326349ae9a9998969410610860575b5050600183811b0190556107b4565b8301355f19600386901b60f8161c191690558b80610851565b91926020600181928689013581550194019201610815565b6108bc90825f5260205f20601f860160051c810191602087106108c2575b601f0160051c0190610d6a565b89610761565b90915081906108af565b634e487b7160e01b5f52604160045260245ffd5b3461011f57606036600319011261011f5760243567ffffffffffffffff811161011f573660238201121561011f5780600401359067ffffffffffffffff821161011f573660248360051b8301011161011f576044359167ffffffffffffffff831161011f57602460ff9261096a9261095e6040963690600401610984565b93909201600435610b29565b67ffffffffffffffff849392935193168352166020820152f35b9181601f8401121561011f5782359167ffffffffffffffff831161011f576020838186019501011161011f57565b600435906001600160a01b038216820361011f57565b60206040818301928281528451809452019201905f5b8181106109eb5750505090565b82518452602093840193909201916001016109de565b805180835260209291819084018484015e5f828201840152601f01601f1916010190565b8054821015610a3a575f5260205f2001905f90565b634e487b7160e01b5f52603260045260245ffd5b90600182811c92168015610a7c575b6020831014610a6857565b634e487b7160e01b5f52602260045260245ffd5b91607f1691610a5d565b5f9291815491610a9583610a4e565b8083529260018116908115610aea5750600114610ab157505050565b5f9081526020812093945091925b838310610ad0575060209250010190565b600181602092949394548385870101520191019190610abf565b915050602093945060ff929192191683830152151560051b010190565b90601f8019910116810190811067ffffffffffffffff8211176108cc57604052565b949392945f52600260205260405f20905f955f945f948454945b858710610b75575050505050505067ffffffffffffffff8116908115610b6b57920460ff1690565b505090505f905f90565b9091929394959698610b878883610a25565b90549060031b1c5f52600160205260405f2060ff60068201541615610c135783151580610c8e575b610c135784151580610c1e575b610c1357600260ff910154168101809111610bff5767ffffffffffffffff90991667ffffffffffffffff8114610bff576001809101975b01959493929190610b43565b634e487b7160e01b5f52601160045260245ffd5b509896600190610bf3565b50604051610c3a81610c338160048601610a86565b0382610b07565b6020815191012067ffffffffffffffff86116108cc57604051610c67601f8801601f191660200182610b07565b868152602081019036888a011161011f57878983375f602089830101525190201415610bbc565b50610ca46001600160a01b038254168589610e33565b15610baf565b60405190610cb9604083610b07565b600182527f33000000000000000000000000000000000000000000000000000000000000006020830152565b15610ced5750565b610d2b906040519182917f08c379a0000000000000000000000000000000000000000000000000000000008352602060048401526024830190610a01565b0390fd5b60405190610d3e604083610b07565b600182527f32000000000000000000000000000000000000000000000000000000000000006020830152565b818110610d75575050565b5f8155600101610d6a565b908060209392818452848401375f828201840152601f01601f1916010190565b9081602091031261011f57516001600160a01b038116810361011f5790565b60405190610dce604083610b07565b600182527f34000000000000000000000000000000000000000000000000000000000000006020830152565b8054680100000000000000008110156108cc57610e1c91600182018155610a25565b819291549060031b91821b915f19901b1916179055565b9190915f5b83811015610e78578060051b8201356001600160a01b03811680910361011f576001600160a01b03841614610e6f57600101610e38565b50505050600190565b505050505f9056fea264697066735822122052de03af8a93b887d0ce866ec198217abc576c8b3131039832e6eb8e3e130afb64736f6c634300081c0033",
  "linkReferences": {},
  "deployedLinkReferences": {},
  "immutableReferences": {},
  "inputSourceName": "project/contracts/ValidationRegistry.sol",
  "buildInfoId": "solc-0_8_28-35f870905455f8283dbb72ee3a98eebde0931055"
}