{
  "_format": "hh-sol-artifact-1",
  "contractName": "Beam",
  "sourceName": "contracts/Beam.sol",
  "abi": [
    {
      "inputs": [
        {
          "internalType": "contract IMerchant",
          "name": "merchant_",
          "type": "address"
        },
        {
          "internalType": "contract IOneTimeTransaction",
          "name": "oneTimeTransaction_",
          "type": "address"
        },
        {
          "internalType": "contract IRecurrentTransaction",
          "name": "recurrentTransaction_",
          "type": "address"
        },
        {
          "internalType": "contract IHookManager",
          "name": "hookManager_",
          "type": "address"
        },
        {
          "internalType": "contract IAaveV3",
          "name": "aave_",
          "type": "address"
        },
        {
          "internalType": "contract IUniswap",
          "name": "uniswap_",
          "type": "address"
        }
      ],
      "stateMutability": "nonpayable",
      "type": "constructor"
    },
    {
      "inputs": [
        {
          "internalType": "address",
          "name": "owner",
          "type": "address"
        }
      ],
      "name": "OwnableInvalidOwner",
      "type": "error"
    },
    {
      "inputs": [
        {
          "internalType": "address",
          "name": "account",
          "type": "address"
        }
      ],
      "name": "OwnableUnauthorizedAccount",
      "type": "error"
    },
    {
      "inputs": [
        {
          "internalType": "address",
          "name": "token",
          "type": "address"
        }
      ],
      "name": "SafeERC20FailedOperation",
      "type": "error"
    },
    {
      "anonymous": false,
      "inputs": [
        {
          "indexed": false,
          "internalType": "bytes32",
          "name": "transactionId",
          "type": "bytes32"
        },
        {
          "indexed": false,
          "internalType": "address",
          "name": "payer",
          "type": "address"
        },
        {
          "indexed": false,
          "internalType": "address[]",
          "name": "payers",
          "type": "address[]"
        },
        {
          "indexed": false,
          "internalType": "address",
          "name": "merchant",
          "type": "address"
        },
        {
          "indexed": false,
          "internalType": "address",
          "name": "token",
          "type": "address"
        },
        {
          "indexed": false,
          "internalType": "uint256[]",
          "name": "amounts",
          "type": "uint256[]"
        },
        {
          "indexed": false,
          "internalType": "address",
          "name": "adjustedToken",
          "type": "address"
        },
        {
          "indexed": false,
          "internalType": "uint256",
          "name": "adjustedAmount",
          "type": "uint256"
        },
        {
          "indexed": false,
          "internalType": "uint256",
          "name": "timestamp",
          "type": "uint256"
        },
        {
          "indexed": false,
          "internalType": "string",
          "name": "description",
          "type": "string"
        },
        {
          "components": [
            {
              "internalType": "uint8",
              "name": "schemaVersion",
              "type": "uint8"
            },
            {
              "internalType": "string",
              "name": "value",
              "type": "string"
            }
          ],
          "indexed": false,
          "internalType": "struct Types.Metadata",
          "name": "metadata",
          "type": "tuple"
        },
        {
          "indexed": false,
          "internalType": "enum Enums.TransactionStatus",
          "name": "status",
          "type": "uint8"
        }
      ],
      "name": "OneTimeTransactionCreated",
      "type": "event"
    },
    {
      "anonymous": false,
      "inputs": [
        {
          "indexed": false,
          "internalType": "bytes32",
          "name": "transactionId",
          "type": "bytes32"
        },
        {
          "indexed": false,
          "internalType": "address",
          "name": "payer",
          "type": "address"
        },
        {
          "indexed": false,
          "internalType": "address",
          "name": "merchant",
          "type": "address"
        },
        {
          "indexed": false,
          "internalType": "address",
          "name": "token",
          "type": "address"
        },
        {
          "indexed": false,
          "internalType": "uint256",
          "name": "amount",
          "type": "uint256"
        },
        {
          "indexed": false,
          "internalType": "address",
          "name": "adjustedToken",
          "type": "address"
        },
        {
          "indexed": false,
          "internalType": "uint256",
          "name": "adjustedAmount",
          "type": "uint256"
        },
        {
          "indexed": false,
          "internalType": "uint256",
          "name": "timestamp",
          "type": "uint256"
        },
        {
          "indexed": false,
          "internalType": "enum Enums.TransactionStatus",
          "name": "status",
          "type": "uint8"
        }
      ],
      "name": "OneTimeTransactionFulfilled",
      "type": "event"
    },
    {
      "anonymous": false,
      "inputs": [
        {
          "indexed": true,
          "internalType": "address",
          "name": "previousOwner",
          "type": "address"
        },
        {
          "indexed": true,
          "internalType": "address",
          "name": "newOwner",
          "type": "address"
        }
      ],
      "name": "OwnershipTransferred",
      "type": "event"
    },
    {
      "anonymous": false,
      "inputs": [
        {
          "indexed": false,
          "internalType": "bytes32",
          "name": "transactionId",
          "type": "bytes32"
        }
      ],
      "name": "RecurrentTransactionCancelled",
      "type": "event"
    },
    {
      "anonymous": false,
      "inputs": [
        {
          "indexed": false,
          "internalType": "bytes32",
          "name": "transactionId",
          "type": "bytes32"
        },
        {
          "indexed": false,
          "internalType": "address",
          "name": "payer",
          "type": "address"
        },
        {
          "indexed": false,
          "internalType": "address",
          "name": "merchant",
          "type": "address"
        },
        {
          "indexed": false,
          "internalType": "bytes32",
          "name": "subscriptionId",
          "type": "bytes32"
        },
        {
          "indexed": false,
          "internalType": "uint256",
          "name": "dueDate",
          "type": "uint256"
        },
        {
          "indexed": false,
          "internalType": "address",
          "name": "token",
          "type": "address"
        },
        {
          "indexed": false,
          "internalType": "uint256",
          "name": "amount",
          "type": "uint256"
        },
        {
          "indexed": false,
          "internalType": "address",
          "name": "adjustedToken",
          "type": "address"
        },
        {
          "indexed": false,
          "internalType": "uint256",
          "name": "adjustedAmount",
          "type": "uint256"
        },
        {
          "indexed": false,
          "internalType": "uint256",
          "name": "timestamp",
          "type": "uint256"
        },
        {
          "indexed": false,
          "internalType": "string",
          "name": "description",
          "type": "string"
        },
        {
          "components": [
            {
              "internalType": "uint8",
              "name": "schemaVersion",
              "type": "uint8"
            },
            {
              "internalType": "string",
              "name": "value",
              "type": "string"
            }
          ],
          "indexed": false,
          "internalType": "struct Types.Metadata",
          "name": "metadata",
          "type": "tuple"
        },
        {
          "indexed": false,
          "internalType": "enum Enums.TransactionStatus",
          "name": "status",
          "type": "uint8"
        }
      ],
      "name": "RecurrentTransactionCreated",
      "type": "event"
    },
    {
      "anonymous": false,
      "inputs": [
        {
          "indexed": false,
          "internalType": "bytes32",
          "name": "transactionId",
          "type": "bytes32"
        },
        {
          "indexed": false,
          "internalType": "address",
          "name": "payer",
          "type": "address"
        },
        {
          "indexed": false,
          "internalType": "address",
          "name": "merchant",
          "type": "address"
        },
        {
          "indexed": false,
          "internalType": "bytes32",
          "name": "subscriptionId",
          "type": "bytes32"
        },
        {
          "indexed": false,
          "internalType": "uint256",
          "name": "dueDate",
          "type": "uint256"
        },
        {
          "indexed": false,
          "internalType": "address",
          "name": "token",
          "type": "address"
        },
        {
          "indexed": false,
          "internalType": "uint256",
          "name": "amount",
          "type": "uint256"
        },
        {
          "indexed": false,
          "internalType": "address",
          "name": "adjustedToken",
          "type": "address"
        },
        {
          "indexed": false,
          "internalType": "uint256",
          "name": "adjustedAmount",
          "type": "uint256"
        },
        {
          "indexed": false,
          "internalType": "uint256",
          "name": "timestamp",
          "type": "uint256"
        },
        {
          "indexed": false,
          "internalType": "enum Enums.TransactionStatus",
          "name": "status",
          "type": "uint8"
        }
      ],
      "name": "RecurrentTransactionFulfilled",
      "type": "event"
    },
    {
      "inputs": [
        {
          "components": [
            {
              "internalType": "bytes32",
              "name": "transactionId",
              "type": "bytes32"
            }
          ],
          "internalType": "struct Params.CancelRecurrentTransaction",
          "name": "params",
          "type": "tuple"
        }
      ],
      "name": "cancelRecurrentTransaction",
      "outputs": [],
      "stateMutability": "nonpayable",
      "type": "function"
    },
    {
      "inputs": [
        {
          "components": [
            {
              "internalType": "bytes32",
              "name": "transactionId",
              "type": "bytes32"
            },
            {
              "internalType": "address",
              "name": "tokenB",
              "type": "address"
            },
            {
              "internalType": "uint256",
              "name": "slippage",
              "type": "uint256"
            },
            {
              "internalType": "uint256",
              "name": "healthFactorMultiplier",
              "type": "uint256"
            },
            {
              "internalType": "enum Enums.TransactionRoute",
              "name": "route",
              "type": "uint8"
            },
            {
              "components": [
                {
                  "internalType": "uint256",
                  "name": "deadline",
                  "type": "uint256"
                },
                {
                  "internalType": "uint8",
                  "name": "v",
                  "type": "uint8"
                },
                {
                  "internalType": "bytes32",
                  "name": "r",
                  "type": "bytes32"
                },
                {
                  "internalType": "bytes32",
                  "name": "s",
                  "type": "bytes32"
                }
              ],
              "internalType": "struct Params.Signature",
              "name": "signature",
              "type": "tuple"
            }
          ],
          "internalType": "struct Params.FulfillOneTimeTransaction",
          "name": "params",
          "type": "tuple"
        }
      ],
      "name": "fulfillOneTimeTransaction",
      "outputs": [],
      "stateMutability": "payable",
      "type": "function"
    },
    {
      "inputs": [
        {
          "components": [
            {
              "internalType": "bytes32",
              "name": "transactionId",
              "type": "bytes32"
            },
            {
              "internalType": "address",
              "name": "tokenB",
              "type": "address"
            },
            {
              "internalType": "uint256",
              "name": "slippage",
              "type": "uint256"
            },
            {
              "internalType": "uint256",
              "name": "healthFactorMultiplier",
              "type": "uint256"
            },
            {
              "internalType": "enum Enums.TransactionRoute",
              "name": "route",
              "type": "uint8"
            },
            {
              "components": [
                {
                  "internalType": "uint256",
                  "name": "deadline",
                  "type": "uint256"
                },
                {
                  "internalType": "uint8",
                  "name": "v",
                  "type": "uint8"
                },
                {
                  "internalType": "bytes32",
                  "name": "r",
                  "type": "bytes32"
                },
                {
                  "internalType": "bytes32",
                  "name": "s",
                  "type": "bytes32"
                }
              ],
              "internalType": "struct Params.Signature",
              "name": "signature",
              "type": "tuple"
            }
          ],
          "internalType": "struct Params.FulfillRecurrentTransaction",
          "name": "params",
          "type": "tuple"
        }
      ],
      "name": "fulfillRecurrentTransaction",
      "outputs": [],
      "stateMutability": "payable",
      "type": "function"
    },
    {
      "inputs": [
        {
          "components": [
            {
              "internalType": "address",
              "name": "merchant",
              "type": "address"
            },
            {
              "internalType": "address",
              "name": "payer",
              "type": "address"
            },
            {
              "internalType": "address",
              "name": "token",
              "type": "address"
            },
            {
              "internalType": "uint256",
              "name": "amount",
              "type": "uint256"
            }
          ],
          "internalType": "struct Params.AdjustTokenAmount",
          "name": "params",
          "type": "tuple"
        }
      ],
      "name": "getAdjustTokenAmount",
      "outputs": [
        {
          "internalType": "address",
          "name": "adjustedToken",
          "type": "address"
        },
        {
          "internalType": "uint256",
          "name": "adjustedAmount",
          "type": "uint256"
        }
      ],
      "stateMutability": "view",
      "type": "function"
    },
    {
      "inputs": [
        {
          "components": [
            {
              "internalType": "address",
              "name": "to",
              "type": "address"
            },
            {
              "internalType": "bytes32",
              "name": "transactionId",
              "type": "bytes32"
            },
            {
              "internalType": "string",
              "name": "URI",
              "type": "string"
            }
          ],
          "internalType": "struct Params.MintReceipt",
          "name": "params",
          "type": "tuple"
        }
      ],
      "name": "mintOneTimeTransactionReceipt",
      "outputs": [],
      "stateMutability": "nonpayable",
      "type": "function"
    },
    {
      "inputs": [
        {
          "components": [
            {
              "internalType": "address",
              "name": "to",
              "type": "address"
            },
            {
              "internalType": "bytes32",
              "name": "transactionId",
              "type": "bytes32"
            },
            {
              "internalType": "string",
              "name": "URI",
              "type": "string"
            }
          ],
          "internalType": "struct Params.MintReceipt",
          "name": "params",
          "type": "tuple"
        }
      ],
      "name": "mintRecurrentTransactionReceipt",
      "outputs": [],
      "stateMutability": "nonpayable",
      "type": "function"
    },
    {
      "inputs": [
        {
          "components": [
            {
              "internalType": "address[]",
              "name": "payers",
              "type": "address[]"
            },
            {
              "internalType": "address",
              "name": "merchant",
              "type": "address"
            },
            {
              "internalType": "uint256[]",
              "name": "amounts",
              "type": "uint256[]"
            },
            {
              "internalType": "address",
              "name": "token",
              "type": "address"
            },
            {
              "internalType": "address",
              "name": "tokenB",
              "type": "address"
            },
            {
              "internalType": "string",
              "name": "description",
              "type": "string"
            },
            {
              "components": [
                {
                  "internalType": "uint8",
                  "name": "schemaVersion",
                  "type": "uint8"
                },
                {
                  "internalType": "string",
                  "name": "value",
                  "type": "string"
                }
              ],
              "internalType": "struct Types.Metadata",
              "name": "metadata",
              "type": "tuple"
            },
            {
              "internalType": "uint256",
              "name": "slippage",
              "type": "uint256"
            },
            {
              "internalType": "uint256",
              "name": "healthFactorMultiplier",
              "type": "uint256"
            },
            {
              "internalType": "enum Enums.TransactionRoute",
              "name": "route",
              "type": "uint8"
            },
            {
              "components": [
                {
                  "internalType": "uint256",
                  "name": "deadline",
                  "type": "uint256"
                },
                {
                  "internalType": "uint8",
                  "name": "v",
                  "type": "uint8"
                },
                {
                  "internalType": "bytes32",
                  "name": "r",
                  "type": "bytes32"
                },
                {
                  "internalType": "bytes32",
                  "name": "s",
                  "type": "bytes32"
                }
              ],
              "internalType": "struct Params.Signature",
              "name": "signature",
              "type": "tuple"
            }
          ],
          "internalType": "struct Params.CreateOneTimeTransaction",
          "name": "params",
          "type": "tuple"
        }
      ],
      "name": "oneTimeTransaction",
      "outputs": [],
      "stateMutability": "payable",
      "type": "function"
    },
    {
      "inputs": [],
      "name": "owner",
      "outputs": [
        {
          "internalType": "address",
          "name": "",
          "type": "address"
        }
      ],
      "stateMutability": "view",
      "type": "function"
    },
    {
      "inputs": [
        {
          "components": [
            {
              "internalType": "address",
              "name": "merchant",
              "type": "address"
            },
            {
              "internalType": "address",
              "name": "tokenB",
              "type": "address"
            },
            {
              "internalType": "bytes32",
              "name": "subscriptionId",
              "type": "bytes32"
            },
            {
              "internalType": "string",
              "name": "description",
              "type": "string"
            },
            {
              "components": [
                {
                  "internalType": "uint8",
                  "name": "schemaVersion",
                  "type": "uint8"
                },
                {
                  "internalType": "string",
                  "name": "value",
                  "type": "string"
                }
              ],
              "internalType": "struct Types.Metadata",
              "name": "metadata",
              "type": "tuple"
            },
            {
              "internalType": "uint256",
              "name": "slippage",
              "type": "uint256"
            },
            {
              "internalType": "uint256",
              "name": "healthFactorMultiplier",
              "type": "uint256"
            },
            {
              "internalType": "enum Enums.TransactionRoute",
              "name": "route",
              "type": "uint8"
            },
            {
              "components": [
                {
                  "internalType": "uint256",
                  "name": "deadline",
                  "type": "uint256"
                },
                {
                  "internalType": "uint8",
                  "name": "v",
                  "type": "uint8"
                },
                {
                  "internalType": "bytes32",
                  "name": "r",
                  "type": "bytes32"
                },
                {
                  "internalType": "bytes32",
                  "name": "s",
                  "type": "bytes32"
                }
              ],
              "internalType": "struct Params.Signature",
              "name": "signature",
              "type": "tuple"
            }
          ],
          "internalType": "struct Params.CreateRecurrentTransaction",
          "name": "params",
          "type": "tuple"
        }
      ],
      "name": "recurrentTransaction",
      "outputs": [],
      "stateMutability": "payable",
      "type": "function"
    },
    {
      "inputs": [],
      "name": "renounceOwnership",
      "outputs": [],
      "stateMutability": "nonpayable",
      "type": "function"
    },
    {
      "inputs": [
        {
          "internalType": "contract IAaveV3",
          "name": "aave",
          "type": "address"
        }
      ],
      "name": "setAave",
      "outputs": [],
      "stateMutability": "nonpayable",
      "type": "function"
    },
    {
      "inputs": [
        {
          "internalType": "contract IOneTimeTransaction",
          "name": "transaction",
          "type": "address"
        }
      ],
      "name": "setOneTimeTransaction",
      "outputs": [],
      "stateMutability": "nonpayable",
      "type": "function"
    },
    {
      "inputs": [
        {
          "internalType": "contract IRecurrentTransaction",
          "name": "transaction",
          "type": "address"
        }
      ],
      "name": "setRecurentTransaction",
      "outputs": [],
      "stateMutability": "nonpayable",
      "type": "function"
    },
    {
      "inputs": [
        {
          "internalType": "contract IRecurrentTransaction",
          "name": "transaction",
          "type": "address"
        }
      ],
      "name": "setRecurrentTransaction",
      "outputs": [],
      "stateMutability": "nonpayable",
      "type": "function"
    },
    {
      "inputs": [
        {
          "internalType": "contract IUniswap",
          "name": "uniswap",
          "type": "address"
        }
      ],
      "name": "setUniswap",
      "outputs": [],
      "stateMutability": "nonpayable",
      "type": "function"
    },
    {
      "inputs": [
        {
          "internalType": "address",
          "name": "newOwner",
          "type": "address"
        }
      ],
      "name": "transferOwnership",
      "outputs": [],
      "stateMutability": "nonpayable",
      "type": "function"
    },
    {
      "stateMutability": "payable",
      "type": "receive"
    }
  ],
  "bytecode": "0x60803461019457601f613d5538819003918201601f19168301916001600160401b038311848410176101985780849260c0946040528339810103126101945780516001600160a01b038116908190036101945760208201516001600160a01b038116908190036101945760408301516001600160a01b03811692908390036101945760608401516001600160a01b03811691908290036101945760808501516001600160a01b03811695908690036101945760a001516001600160a01b03811690819003610194573315610181575f8054336001600160a01b0319821681178355604051989290916001600160a01b0316907f8be0079c531659141344cd1fd0a4f28419497f9722a3daafe3b4186f6b6457e09080a360018060a01b0319600154161760015560018060a01b0319600254161760025560018060a01b0319600354161760035560018060a01b0319600454161760045560018060a01b0319600554161760055560018060a01b03196006541617600655613ba890816101ad8239f35b631e4fbdf760e01b5f525f60045260245ffd5b5f80fd5b634e487b7160e01b5f52604160045260245ffdfe608080604052600436101561001c575b50361561001a575f80fd5b005b5f905f3560e01c9081630bd0c23e14612aef575080631fd9b2bf146129f8578063228b79d3146121395780632ad6c02f146120f75780633c46247c1461141b5780633da03a141461146b578063535c1f7f1461141b5780635e1d56a9146113d4578063632c847d14610c2e57806369eb7f26146102f3578063715018a61461029a5780638da5cb5b146102745780638efecdda14610232578063d6b5891e146101ec578063e2f999a5146101745763f2fde38b0361000f5734610171576020366003190112610171576001600160a01b036100f5612cd0565b6100fd6139a6565b168015610145576001600160a01b038254826001600160a01b03198216178455167f8be0079c531659141344cd1fd0a4f28419497f9722a3daafe3b4186f6b6457e08380a380f35b6024827f1e4fbdf700000000000000000000000000000000000000000000000000000000815280600452fd5b80fd5b5034610171578061018436612e7a565b6001600160a01b0360065416803b156101e8576101bb8392918392604051948580948193631d6e1f8560e31b835260048301613151565b03925af180156101dd576101cc5750f35b816101d691612cae565b6101715780f35b6040513d84823e3d90fd5b5050fd5b5034610171576020366003190112610171576004356001600160a01b03811680910361022e5761021a6139a6565b6001600160a01b0319600154161760015580f35b5080fd5b5034610171576020366003190112610171576004356001600160a01b03811680910361022e576102606139a6565b6001600160a01b0319600254161760025580f35b50346101715780600319360112610171576001600160a01b036020915416604051908152f35b50346101715780600319360112610171576102b36139a6565b806001600160a01b0381546001600160a01b031981168355167f8be0079c531659141344cd1fd0a4f28419497f9722a3daafe3b4186f6b6457e08280a380f35b5060203660031901126101715760043567ffffffffffffffff811161022e57610180600319823603011261022e576040519061032e82612c59565b61033a81600401612ce6565b825261034860248201612ce6565b6020830190815260448201356040840152606482013567ffffffffffffffff8111610b5f5761037d9060043691850101612dec565b9060608401918252608483013567ffffffffffffffff8111610b46576103a99060043691860101612e32565b6080850190815260a085019160a4850135835260c086019260c4860135845260e4860135956003871015610c2a576103ed9060e08901978852610104369101612d08565b61010088015273__$9a64d4390e1f317cfd7b279e493df8b9ee$__886001600160a01b03895116823b1561022e576040519063bf6341cf60e01b825260048201528181602481865af480156101dd57610c15575b506006546001600160a01b031697604051987feccad175000000000000000000000000000000000000000000000000000000008a523360048b015260248a01604090528a516001600160a01b031660448b015285516001600160a01b031660648b015260408b015160848b015289808a5160a4820161018090526101c482016104c9916130fd565b89518282036043190160c48401526104e19190613121565b875160e48301528a516101048301528d8551610124840161050191613144565b61010001518051610144840152602081015160ff166101648401526040810151610184840152606001516101a48301520381855a94602095f19889156101dd578299610bda575b506006546040516316c9372360e11b8152600481018b90523360248201529291906060908490604490829086906001600160a01b03165af19788156101dd578b9183958495859b610b9f575b5060206001600160a01b0380600354169551166024604051809781936304d0a64760e01b835260048301525afa938415610b22578594610b63575b50803b15610b5f57846024916040519283809263bf6341cf60e01b82526001600160a01b03891660048301525af4908115610b22578591610b4a575b50506001600160a01b038d51166040519061062582612c04565b81523360208201526001600160a01b03861660408201528660608201526001600160a01b036004541690813b15610b46576106b36084879283604051958694859363577ed67f60e11b85526004850190606080916001600160a01b0381511684526001600160a01b0360208201511660208501526001600160a01b0360408201511660408501520151910152565b5af1908115610b22578591610b2d575b50506001600160a01b038d511697604051986106de8a612c04565b89523360208a01526001600160a01b03861660408a01528660608a0152604061076360846001600160a01b03600454169b83519c8d938492630716fa0360e31b84526004840190606080916001600160a01b0381511684526001600160a01b0360208201511660208501526001600160a01b0360408201511660408501520151910152565b5afa988915610b22578599610ae6575b506001600160a01b039051169651915190516003811015610ad257916107f5918f9594938f906101006107eb92015192604051946107b086612c20565b6001600160a01b0389169c8d875260208701528d60408701526001600160a01b0388166060870152608086015260a085015260c08401613049565b60e0820152613291565b6001600160a01b0381163b15610aa4576040516311f9fbc960e21b81526001600160a01b03928316600482015260248101889052918391839160449183913491165af180156101dd57610abd575b506001600160a01b0360065416803b1561022e5781809160448c604051948593849263b38ffd5f60e01b845260048401528960248401525af180156101dd57610aa8575b506001600160a01b038a5116604051906108a082612c3d565b81528960208201523360408201526001600160a01b03831660608201528360808201528460a08201528560c08201526001600160a01b0360045416803b15610aa45760408051632b54892b60e01b815283516001600160a01b0390811660048301526020850151602483015291840151821660448201526060840151821660648201526080840151608482015260a084015190911660a482015260c09092015160c48301528290829060e490829084905af180156101dd57610a8b575b505060406001600160a01b038a511699015196519451956001600160a01b03600654169760208a6024604051809c81936302ef145760e51b835260048301525afa988915610a80578c99610a4f575b506040519a8b9a8b523360208c015260408b015260608a015260808901526001600160a01b031660a088015260c087015260e08601526101008501524261012085015261014084016101a090526101a08401610a07916130fd565b838103610160850152610a1991613121565b906101808301610a2891613081565b037f3744b8fadedfebb31c995bbe9b714d3a32ab9c0b1f1592b9eebdf6196e62cd3591a180f35b610a7291995060203d602011610a79575b610a6a8183612cae565b810190613069565b975f6109ac565b503d610a60565b6040513d8e823e3d90fd5b81610a9591612cae565b610aa057895f61095d565b8980fd5b8280fd5b81610ab291612cae565b610aa057895f610887565b81610ac791612cae565b610aa057895f610843565b60248f634e487b7160e01b81526021600452fd5b610b139199506001600160a01b03955060403d604011610b1b575b610b0b8183612cae565b810190612f1a565b989094610773565b503d610b01565b6040513d87823e3d90fd5b81610b3791612cae565b610b4257835f6106c3565b8380fd5b8580fd5b81610b5491612cae565b610b4257835f61060b565b8480fd5b9093506020813d602011610b97575b81610b7f60209383612cae565b81010312610b5f57610b9090612f06565b925f6105cf565b3d9150610b72565b9196509950610bc791945060603d606011610bd3575b610bbf8183612cae565b810190613186565b9491959094995f610594565b503d610bb5565b915097506020813d602011610c0d575b81610bf760209383612cae565b81010312610c09575196899081610548565b5f80fd5b3d9150610bea565b81610c1f91612cae565b610c2a57885f610441565b8880fd5b506101203660031901126101715780610c4636612d4b565b60065481516040516316c9372360e11b815260048101919091523360248201529260609184916044918391906001600160a01b03165af19081156113c9578390849385936113a1575b506001600160a01b03600654169285825160246040518097819363255709e560e11b835260048301525afa938415611396578694611268575b506001600160a01b036003541692602085019360206001600160a01b038651166024604051809481936304d0a64760e01b835260048301525afa90811561125d578891611223575b508773__$9a64d4390e1f317cfd7b279e493df8b9ee$__91823b1561022e57816001600160a01b039160246040518094819363bf6341cf60e01b835216968760048301525af480156101dd5761120e575b506001600160a01b03808751169860405199610d7c8b612c04565b8a523360208b015216978860408201528360608201526001600160a01b036004541690813b15610aa457610e036084849283604051958694859363577ed67f60e11b85526004850190606080916001600160a01b0381511684526001600160a01b0360208201511660208501526001600160a01b0360408201511660408501520151910152565b5af180156101dd576111f5575b50506001600160a01b038551169160405192610e2b84612c04565b83523360208401528760408401528060608401526040610ea760846001600160a01b03600454169583519687938492630716fa0360e31b84526004840190606080916001600160a01b0381511684526001600160a01b0360208201511660208501526001600160a01b0360408201511660408501520151910152565b5afa9283156111ea5789908a946111c6575b506001600160a01b036020870151169260408701516060880151608089015160038110156111b25791610f32916107eb8f96959460a08d01519260405194610f0086612c20565b6001600160a01b0389169b8c875260208701528c6040870152876060870152608086015260a085015260c08401613049565b803b15610aa4576040516311f9fbc960e21b81526001600160a01b039290921660048301526024820186905282908290604490829034905af180156101dd5761119d575b506001600160a01b03600654168651813b15610aa457829160448392604051948593849263b38ffd5f60e01b845260048401528860248401525af180156101dd57611188575b506001600160a01b03875116865160405191610fd783612c3d565b825260208201523360408201528960608201528260808201528360a08201528460c08201526001600160a01b0360045416803b15610aa45760408051632b54892b60e01b815283516001600160a01b0390811660048301526020850151602483015291840151821660448201526060840151821660648201526080840151608482015260a084015190911660a482015260c09092015160c48301528290829060e490829084905af180156101dd57611173575b505060406001600160a01b03602496519751169701519760206001600160a01b0360065416604051978880926302ef145760e51b82528b60048301525afa948515611168577f5ee194c82e2134ebf127f5c6abcd33122804c95eb8f2e9ac42afbb1c4f8067999961016099611143988d98611147575b50604051998a523360208b015260408a01526060890152608088015260a087015260c086015260e085015261010084015242610120840152610140830190613081565ba180f35b61116191985060203d602011610a7957610a6a8183612cae565b965f611100565b6040513d8c823e3d90fd5b8161117d91612cae565b610c2a57885f61108a565b8161119291612cae565b610c2a57885f610fbc565b816111a791612cae565b610c2a57885f610f76565b60248e634e487b7160e01b81526021600452fd5b90506111e291935060403d604011610b1b57610b0b8183612cae565b92905f610eb9565b6040513d8b823e3d90fd5b816111ff91612cae565b61120a57875f610e10565b8780fd5b8161121891612cae565b61120a57875f610d61565b90506020813d602011611255575b8161123e60209383612cae565b8101031261120a5761124f90612f06565b5f610d10565b3d9150611231565b6040513d8a823e3d90fd5b9093503d8087833e61127a8183612cae565b8101906020818303126113925780519067ffffffffffffffff821161120a5701906101208282031261139257604051916112b383612c59565b6112bc81612f06565b83526112ca60208201612f06565b602084015260408101516040840152606081015167ffffffffffffffff8111610c2a57826112f9918301612fb8565b6060840152608081015167ffffffffffffffff8111610c2a578261131e918301612f5b565b608084015260a081015167ffffffffffffffff8111610c2a5782611343918301612f5b565b60a084015260c081015160c084015260e081015167ffffffffffffffff8111610c2a5761010092611375918301612ffe565b60e08401520151600481101561139257610100820152925f610cc8565b8680fd5b6040513d88823e3d90fd5b915092506113be915060603d606011610bd357610bbf8183612cae565b92919092915f610c8f565b6040513d85823e3d90fd5b503461017157806113e436612e7a565b6001600160a01b0360055416803b156101e8576101bb8392918392604051948580948193631d6e1f8560e31b835260048301613151565b5034610171576020366003190112610171576004356001600160a01b038116810361022e576114689061144c6139a6565b6001600160a01b03166001600160a01b03196006541617600655565b80f35b5060203660031901126101715760043567ffffffffffffffff811161022e576101c0600319823603011261022e5760405190610160820182811067ffffffffffffffff8211176120e357604052806004013567ffffffffffffffff8111610b4257810136602382011215610b42576004810135906114e882612db8565b916114f66040519384612cae565b808352602060048185019260051b840101019136831161139257602401905b8282106120cb57505050825261152d60248201612ce6565b6020830152604481013567ffffffffffffffff8111610b4257810136602382011215610b425760048101359061156282612db8565b916115706040519384612cae565b808352602060048185019260051b840101019136831161139257602401905b8282106120bb5750505060408301526115aa60648201612ce6565b60608301526115bb60848201612ce6565b608083015260a481013567ffffffffffffffff8111610b42576115e49060043691840101612dec565b60a083015260c481013567ffffffffffffffff8111610b425761160d9060043691840101612e32565b60c083015260e481013560e0830152610104810135610100830152610124810135906003821015610b425761164d91610120840152610144369101612d08565b610140820152816001600160a01b0360208301511673__$9a64d4390e1f317cfd7b279e493df8b9ee$__3b1561022e576040519063bf6341cf60e01b82526004820152818160248173__$9a64d4390e1f317cfd7b279e493df8b9ee$__5af480156101dd576120a6575b5050805173__$9a64d4390e1f317cfd7b279e493df8b9ee$__3b15610aa4578290604051907f11f599a500000000000000000000000000000000000000000000000000000000825260248201602060048401528151809152602060448401920190845b8181106120845750505081808492038173__$9a64d4390e1f317cfd7b279e493df8b9ee$__5af480156101dd5761206f575b5050604081015173__$1472882dd151bacffe3e5240c3a944adb7$__3b15610aa4578290604051907fd0ca35ed00000000000000000000000000000000000000000000000000000000825260248201602060048401528151809152602060448401920190845b8181106120565750505081808492038173__$1472882dd151bacffe3e5240c3a944adb7$__5af480156101dd57612041575b50506001600160a01b0360055416602060405180927f63423f93000000000000000000000000000000000000000000000000000000008252336004830152604060248301528186816118c86118b161187561184d8b516101c0604487015261020486019061308e565b8b8a01516001600160a01b0316606486015260408c01518582036043190160848701526130ca565b6001600160a01b0360608c01511660a48501526001600160a01b0360808c01511660c485015260a08b01516043198583030160e48601526130fd565b60c08a015183820360431901610104850152613121565b60e08901516101248301526101008901516101448301526118f36101208a0151610164840190613144565b6101408901518051610184840152602081015160ff166101a484015260408101516101c4840152606001516101e483015203925af19081156113c957839161200f575b50600554604080516316c9372360e11b81526004810184905233602482015293918490604490829088906001600160a01b03165af1928315611f275784908594611fdb575b506001600160a01b03600354169360206001600160a01b0381850151166024604051809881936304d0a64760e01b835260048301525afa948515611396578695611f9f575b5073__$9a64d4390e1f317cfd7b279e493df8b9ee$__3b15610b46578560405163bf6341cf60e01b81526001600160a01b0387166004820152818160248173__$9a64d4390e1f317cfd7b279e493df8b9ee$__5af480156101dd57611f8a575b506001600160a01b036020850151166001600160a01b0360608601511660405191611a4a83612c04565b825233602083015260408201528260608201526001600160a01b036004541690813b15610aa457611ace6084849283604051958694859363577ed67f60e11b85526004850190606080916001600160a01b0381511684526001600160a01b0360208201511660208501526001600160a01b0360408201511660408501520151910152565b5af180156101dd57611f75575b50506001600160a01b03602084015116916001600160a01b0360608501511660405193611b0785612c04565b845233602085015260408401528160608401526040611b8260846001600160a01b03600454169583519687938492630716fa0360e31b84526004840190606080916001600160a01b0381511684526001600160a01b0360208201511660208501526001600160a01b0360408201511660408501520151910152565b5afa928315611f6a5787908894611f46575b506001600160a01b036080860151169660e08601516101008701516101208801516003811015611f3257908b9695949392916101408a01519160405193611bda85612c20565b6001600160a01b0387169d8e865260208601528a60408601526001600160a01b0386166060860152608085015260a084015260c0830190611c1a91613049565b60e0820152611c2890613291565b6001600160a01b0381163b15610b5f576040516311f9fbc960e21b81526001600160a01b03928316600482015260248101879052918591839160449183913491165af1908115611f27578491611f12575b5050611eb7575b6001600160a01b03602085015116906001600160a01b0360608601511660405192611caa84612c3d565b8352866020840152336040840152606083015260808201528560a08201528260c08201526001600160a01b0360045416803b15610aa45760408051632b54892b60e01b815283516001600160a01b0390811660048301526020850151602483015291840151821660448201526060840151821660648201526080840151608482015260a084015190911660a482015260c09092015160c48301528290829060e490829084905af180156101dd57611ea2575b50508160249251946001600160a01b03602083015116926001600160a01b036060840151169360408401519060c060a08601519501519560206001600160a01b0360055416604051998a80926302ef145760e51b82528d60048301525afa978815611e97578b98611e76575b50604051998a998a523360208b015260408a0161018090526101808a01611dee9161308e565b9160608a0152608089015287810360a0890152611e0a916130ca565b9160c087015260e086015242610100860152848103610120860152611e2e916130fd565b838103610140850152611e4091613121565b906101608301611e4f91613081565b037f7beb8a64e3d9f4b12c8fdabe8e255ae383c3a0e348b481a32734f2b4d0935d1d91a180f35b611e9091985060203d602011610a7957610a6a8183612cae565b965f611dc8565b6040513d8d823e3d90fd5b81611eac91612cae565b610b5f57845f611d5c565b6001600160a01b0360055416803b15610aa4578280916024604051809481936305543f8560e01b83528b60048401525af19081156113c9578391611efd575b5050611c80565b81611f0791612cae565b61022e57815f611ef6565b81611f1c91612cae565b610aa457825f611c79565b6040513d86823e3d90fd5b60248c634e487b7160e01b81526021600452fd5b9050611f6291935060403d604011610b1b57610b0b8183612cae565b92905f611b94565b6040513d89823e3d90fd5b81611f7f91612cae565b610b4657855f611adb565b81611f9491612cae565b610b4657855f611a20565b9094506020813d602011611fd3575b81611fbb60209383612cae565b81010312610b4657611fcc90612f06565b935f6119c0565b3d9150611fae565b905061200091935060403d604011612008575b611ff88183612cae565b810190612f44565b92905f61197b565b503d611fee565b90506020813d602011612039575b8161202a60209383612cae565b81010312610c0957515f611936565b3d915061201d565b8161204b91612cae565b61022e57815f6117e4565b82518452879550602093840193909201916001016117b2565b8161207991612cae565b61022e57815f61174c565b82516001600160a01b031684528795506020938401939092019160010161171a565b816120b091612cae565b61022e57815f6116b7565b813581526020918201910161158f565b602080916120d884612ce6565b815201910190611515565b602484634e487b7160e01b81526041600452fd5b5034610171576020366003190112610171576004356001600160a01b03811680910361022e576121256139a6565b6001600160a01b0319600554161760055580f35b50610120366003190112610171578061215136612d4b565b60406121976001600160a01b0360055416835183519586809481936316c9372360e11b83523390600484019092916001600160a01b036020916040840195845216910152565b03925af19182156113c957839084936129d4575b506001600160a01b03600554169184815160246040518096819363255709e560e11b835260048301525afa928315610b22578593612785575b506001600160a01b036003541693604084019260206001600160a01b038551166024604051809981936304d0a64760e01b835260048301525afa958615611f6a578796612749575b508673__$9a64d4390e1f317cfd7b279e493df8b9ee$__96873b1561022e57816001600160a01b039160246040518094819363bf6341cf60e01b8352169b8c60048301525af480156101dd57612734575b5060a06001600160a01b038651169601956001600160a01b03875116604051916122a683612c04565b825233602083015260408201528360608201526001600160a01b036004541690813b15610aa45761232a6084849283604051958694859363577ed67f60e11b85526004850190606080916001600160a01b0381511684526001600160a01b0360208201511660208501526001600160a01b0360408201511660408501520151910152565b5af180156101dd5761271f575b50506001600160a01b03845116906001600160a01b038651166040519261235d84612c04565b8352336020840152604083015282606083015260406123d860846001600160a01b03600454169483519586938492630716fa0360e31b84526004840190606080916001600160a01b0381511684526001600160a01b0360208201511660208501526001600160a01b0360408201511660408501520151910152565b5afa91821561125d57889089936126fb575b506001600160a01b036020860151169760408601516060870151608088015160038110156126e757908c9493929160a08a0151916040519361242b85612c20565b6001600160a01b0387169e8f86526020860152896040860152856060860152608085015260a084015260c083019061246291613049565b60e082015261247090613291565b803b15610aa4576040516311f9fbc960e21b81526001600160a01b039290921660048301526024820185905282908290604490829034905af180156101dd576126d2575b5050612676575b866001600160a01b0385511684516001600160a01b0388511690604051926124e284612c3d565b8352602083015233604083015260608201528360808201528760a08201528260c08201526001600160a01b0360045416803b15610aa45760408051632b54892b60e01b815283516001600160a01b0390811660048301526020850151602483015291840151821660448201526060840151821660648201526080840151608482015260a084015190911660a482015260c09092015160c48301528290829060e490829084905af180156101dd57612661575b50506001600160a01b0380602494519551169551169560206001600160a01b0360055416604051958680926302ef145760e51b82528960048301525afa92831561125d577f3be3e9461fae0d01c4c50446b8ef7aa62bd38045d385b7fbb89d50a83cc75a809761012097611143968b96612640575b5060405197885233602089015260408801526060870152608086015260a085015260c08401524260e0840152610100830190613081565b61265a91965060203d602011610a7957610a6a8183612cae565b945f612609565b8161266b91612cae565b61139257865f612594565b866001600160a01b03600554168451813b15610aa45782916024839260405194859384926305543f8560e01b845260048401525af180156101dd576126bd575b50506124bb565b816126c791612cae565b61139257865f6126b6565b816126dc91612cae565b61120a57875f6124b4565b60248d634e487b7160e01b81526021600452fd5b905061271791925060403d604011610b1b57610b0b8183612cae565b91905f6123ea565b8161272991612cae565b61139257865f612337565b8161273e91612cae565b61139257865f61227d565b9095506020813d60201161277d575b8161276560209383612cae565b810103126113925761277690612f06565b945f61222c565b3d9150612758565b9092503d8086833e6127978183612cae565b810190602081830312610b465780519067ffffffffffffffff821161139257019061014082820312610b465760405191610140830183811067ffffffffffffffff8211176129c0576040526127eb81612f06565b8352602081015167ffffffffffffffff811161120a57810182601f8201121561120a5780519061281a82612db8565b916128286040519384612cae565b80835260208084019160051b830101918583116129a457602001905b8282106129a857505050602084015261285f60408201612f06565b6040840152606081015167ffffffffffffffff811161120a5782612884918301612f5b565b6060840152608081015167ffffffffffffffff811161120a57810182601f8201121561120a578051906128b682612db8565b916128c46040519384612cae565b80835260208084019160051b830101918583116129a457602001905b82821061298c5750505060808401526128fb60a08201612f06565b60a084015260c081015167ffffffffffffffff811161120a5782612920918301612f5b565b60c084015260e081015167ffffffffffffffff811161120a5782612945918301612fb8565b60e084015261010081015167ffffffffffffffff811161120a576101209261296e918301612ffe565b61010084015201516004811015610b4657610120820152915f6121e4565b6020809161299984612f37565b8152019101906128e0565b8a80fd5b602080916129b584612f06565b815201910190612844565b602488634e487b7160e01b81526041600452fd5b90506129f091925060403d60401161200857611ff88183612cae565b91905f6121ab565b5034610c09576020366003190112610c09576040516020810181811067ffffffffffffffff821117612adb576040526004358082526001600160a01b036006541690813b15610c09575f916044839260405194859384927f3ed5027500000000000000000000000000000000000000000000000000000000845233600485015260248401525af18015612ad057612aba575b5060207fc3c75c4774edd09c7fdd8bae55bab418801f3e47da88adef31bb59b7b70aeb269151604051908152a180f35b612ac79192505f90612cae565b5f906020612a8a565b6040513d5f823e3d90fd5b634e487b7160e01b5f52604160045260245ffd5b34610c09576080366003190112610c0957612b0981612c04565b612b11612cd0565b81526024356001600160a01b0381168103610c095760208201526044356001600160a01b0381168103610c0957604082015260643560608201526040612bb360846001600160a01b03600454169383519485938492630716fa0360e31b84526004840190606080916001600160a01b0381511684526001600160a01b0360208201511660208501526001600160a01b0360408201511660408501520151910152565b5afa908115612ad0575f905f92612be2575b50604080516001600160a01b039290921682526020820192909252f35b9050612bfd915060403d604011610b1b57610b0b8183612cae565b9082612bc5565b6080810190811067ffffffffffffffff821117612adb57604052565b610100810190811067ffffffffffffffff821117612adb57604052565b60e0810190811067ffffffffffffffff821117612adb57604052565b610120810190811067ffffffffffffffff821117612adb57604052565b60c0810190811067ffffffffffffffff821117612adb57604052565b6040810190811067ffffffffffffffff821117612adb57604052565b90601f8019910116810190811067ffffffffffffffff821117612adb57604052565b600435906001600160a01b0382168203610c0957565b35906001600160a01b0382168203610c0957565b359060ff82168203610c0957565b9190826080910312610c0957604051612d2081612c04565b606080829480358452612d3560208201612cfa565b6020850152604081013560408501520135910152565b90610120600319830112610c0957604051612d6581612c76565b809260043582526024356001600160a01b0381168103610c09576020830152604435604083015260643560608301526084356003811015610c095760a091612db391608085015260a4612d08565b910152565b67ffffffffffffffff8111612adb5760051b60200190565b67ffffffffffffffff8111612adb57601f01601f191660200190565b81601f82011215610c0957803590612e0382612dd0565b92612e116040519485612cae565b82845260208383010111610c0957815f926020809301838601378301015290565b9190604083820312610c095760405190612e4b82612c92565b8193612e5681612cfa565b835260208101359167ffffffffffffffff8311610c0957602092612db39201612dec565b6020600319820112610c095760043567ffffffffffffffff8111610c095760608183036003190112610c0957604051916060830183811067ffffffffffffffff821117612adb57604052612ed082600401612ce6565b83526024820135602084015260448201359167ffffffffffffffff8311610c0957612efe9201600401612dec565b604082015290565b51906001600160a01b0382168203610c0957565b9190826040910312610c09576020612f3183612f06565b92015190565b51908115158203610c0957565b9190826040910312610c09576020612f3183612f37565b9080601f83011215610c09578151612f7281612db8565b92612f806040519485612cae565b81845260208085019260051b820101928311610c0957602001905b828210612fa85750505090565b8151815260209182019101612f9b565b81601f82011215610c0957805190612fcf82612dd0565b92612fdd6040519485612cae565b82845260208383010111610c0957815f9260208093018386015e8301015290565b9190604083820312610c09576040519061301782612c92565b8193805160ff81168103610c0957835260208101519167ffffffffffffffff8311610c0957602092612db39201612fb8565b60038210156130555752565b634e487b7160e01b5f52602160045260245ffd5b90816020910312610c0957516004811015610c095790565b9060048210156130555752565b90602080835192838152019201905f5b8181106130ab5750505090565b82516001600160a01b031684526020938401939092019160010161309e565b90602080835192838152019201905f5b8181106130e75750505090565b82518452602093840193909201916001016130da565b805180835260209291819084018484015e5f828201840152601f01601f1916010190565b90604060206131419360ff815116845201519181602082015201906130fd565b90565b9060038210156130555752565b6080604061314193602084526001600160a01b03815116602085015260208101518285015201519160608082015201906130fd565b90816060910312610c09578051916040612f3160208401612f06565b604051906131b1604083612cae565b600382527f31303000000000000000000000000000000000000000000000000000000000006020830152565b156131e55750565b6132099060405191829162461bcd60e51b83526020600484015260248301906130fd565b0390fd5b61328f9092919260a0806101208301956001600160a01b0381511684526001600160a01b036020820151166020850152604081015160408501526001600160a01b036060820151166060850152608081015160808501520151910190606080918051845260ff6020820151166020850152604081015160408501520151910152565b565b5f906001600160a01b0381511680155f14613928575034915b60408201928351808210156138c8575080613860575b8351908082039180831161384c5703613301575b50506001600160a01b0380606081845116945193015116921691826132f857505050565b61328f92613a44565b60c0830180516003811015613055576001036135a0575060208301906001600160a01b03825116916001600160a01b038551166080860151906040519461334786612c04565b8552602080860191825260408087018681526060880194855260025491517fdd016b7900000000000000000000000000000000000000000000000000000000815297516001600160a01b0390811660048a01529351841660248901525160448801529251606487015291859160849183918991165af1928315611f2757849361356c575b506001600160a01b03815116916001600160a01b03865116604051936133f085612c04565b8452602084015283604084015260608301526001600160a01b0381511680155f146134ab5750506001600160a01b036002541691823b15610b42576084849261347f926040519586948593630f5a9fad60e21b85526004850190606080916001600160a01b0381511684526001600160a01b036020820151166020850152604081015160408501520151910152565b5af180156101dd57613496575b50505b5f806132d4565b6134a1828092612cae565b610171578061348c565b83916134c76134db94956001600160a01b0393309033906139e5565b51166001600160a01b036002541690613a44565b6001600160a01b036002541690813b15610aa45761354360848492836040519586948593630f5a9fad60e21b85526004850190606080916001600160a01b0381511684526001600160a01b036020820151166020850152604081015160408501520151910152565b5af180156101dd57613557575b505061348f565b613562828092612cae565b6101715780613550565b9092506020813d602011613598575b8161358860209383612cae565b81010312610c095751915f6133cb565b3d915061357b565b51600381101561305557600203613821576001600160a01b03835116602084016001600160a01b038151169160a08601516040519360a085019085821067ffffffffffffffff831117612adb576001600160a01b0391604052338652602086019384526040860187815260608701918252608087019384528280600154169581604051997ff293357b000000000000000000000000000000000000000000000000000000008b52511660048a0152511660248801525160448701525116606485015251608484015260208360a481845afa928315612ad0575f936137ed575b506001600160a01b03825116936001600160a01b038751169060e088015191604051966136ab88612c76565b33885260208801528560408801526060870152608086015260a08501526001600160a01b03825116155f14613728575050906001600160a01b036001541690813b15610b4257839161371391604051948580948193637b4efcfd60e01b83526004830161320d565b03925af180156101dd5761355757505061348f565b82156137985750906001600160a01b038261374d8383613761965116309033906139e5565b51166001600160a01b036001541690613a44565b6001600160a01b036001541690813b15610aa45761371383928392604051948580948193637b4efcfd60e01b83526004830161320d565b9293505050803b15610c09576137c85f92918392604051948580948193637b4efcfd60e01b83526004830161320d565b03925af18015612ad0576137dd575b5061348f565b5f6137e791612cae565b5f6137d7565b9092506020813d602011613819575b8161380960209383612cae565b81010312610c095751915f61367f565b3d91506137fc565b61320961382c6131a2565b60405191829162461bcd60e51b83526020600484015260248301906130fd565b634e487b7160e01b5f52601160045260245ffd5b82516001600160a01b031681816138bb5750506138b6604051613884604082612cae565b600181527f350000000000000000000000000000000000000000000000000000000000000060208201528234146131dd565b6132c0565b6138b691309033906139e5565b83516001600160a01b031692509050816139165750506138f482513410156138ee6131a2565b906131dd565b6001600160a01b0380606081845116945193015116921691826132f857505050565b61392391309033906139e5565b6138f4565b6020602491604051928380927f70a082310000000000000000000000000000000000000000000000000000000082523360048301525afa908115612ad0575f91613974575b50916132aa565b90506020813d60201161399e575b8161398f60209383612cae565b81010312610c0957515f61396d565b3d9150613982565b6001600160a01b035f541633036139b957565b7f118cdaa7000000000000000000000000000000000000000000000000000000005f523360045260245ffd5b9091926001600160a01b0361328f9481604051957f23b872dd000000000000000000000000000000000000000000000000000000006020880152166024860152166044840152606483015260648252613a3f608483612cae565b613b05565b60405163095ea7b360e01b60208083019182526001600160a01b0385166024840152604480840196909652948252929390925f90613a83606486612cae565b84519082855af15f513d82613ae0575b505015613a9f57505050565b613a3f61328f936001600160a01b036040519163095ea7b360e01b60208401521660248201525f604482015260448152613ada606482612cae565b82613b05565b909150613afd57506001600160a01b0381163b15155b5f80613a93565b600114613af6565b905f602091828151910182855af115612ad0575f513d613b6957506001600160a01b0381163b155b613b345750565b6001600160a01b03907f5274afe7000000000000000000000000000000000000000000000000000000005f521660045260245ffd5b60011415613b2d56fea2646970667358221220cf6b9095929db451fc0b6430d17c7a6a9e64e3fbc74fa42eb458eba86bf3b97964736f6c634300081c0033",
  "linkReferences": {
    "contracts/libs/AddressLib.sol": {
      "AddressLib": [
        {
          "length": 20,
          "start": 1442
        },
        {
          "length": 20,
          "start": 3777
        },
        {
          "length": 20,
          "start": 6161
        },
        {
          "length": 20,
          "start": 6212
        },
        {
          "length": 20,
          "start": 6250
        },
        {
          "length": 20,
          "start": 6361
        },
        {
          "length": 20,
          "start": 7024
        },
        {
          "length": 20,
          "start": 7085
        },
        {
          "length": 20,
          "start": 9181
        }
      ]
    },
    "contracts/libs/IntegerLib.sol": {
      "IntegerLib": [
        {
          "length": 20,
          "start": 6402
        },
        {
          "length": 20,
          "start": 6513
        }
      ]
    }
  },
  "deployedLinkReferences": {
    "contracts/libs/AddressLib.sol": {
      "AddressLib": [
        {
          "length": 20,
          "start": 1013
        },
        {
          "length": 20,
          "start": 3348
        },
        {
          "length": 20,
          "start": 5732
        },
        {
          "length": 20,
          "start": 5783
        },
        {
          "length": 20,
          "start": 5821
        },
        {
          "length": 20,
          "start": 5932
        },
        {
          "length": 20,
          "start": 6595
        },
        {
          "length": 20,
          "start": 6656
        },
        {
          "length": 20,
          "start": 8752
        }
      ]
    },
    "contracts/libs/IntegerLib.sol": {
      "IntegerLib": [
        {
          "length": 20,
          "start": 5973
        },
        {
          "length": 20,
          "start": 6084
        }
      ]
    }
  }
}