{
  "_format": "hh-sol-artifact-1",
  "contractName": "MultiSigWallet",
  "sourceName": "contracts/MultiSigWallet.sol",
  "abi": [
    {
      "inputs": [
        {
          "internalType": "address",
          "name": "merchant_",
          "type": "address"
        },
        {
          "internalType": "address[]",
          "name": "tokens_",
          "type": "address[]"
        },
        {
          "internalType": "address[]",
          "name": "signers_",
          "type": "address[]"
        },
        {
          "internalType": "uint256",
          "name": "minSigners_",
          "type": "uint256"
        }
      ],
      "stateMutability": "payable",
      "type": "constructor"
    },
    {
      "inputs": [
        {
          "internalType": "address",
          "name": "owner",
          "type": "address"
        }
      ],
      "name": "OwnableInvalidOwner",
      "type": "error"
    },
    {
      "inputs": [
        {
          "internalType": "address",
          "name": "account",
          "type": "address"
        }
      ],
      "name": "OwnableUnauthorizedAccount",
      "type": "error"
    },
    {
      "anonymous": false,
      "inputs": [
        {
          "indexed": true,
          "internalType": "address",
          "name": "previousOwner",
          "type": "address"
        },
        {
          "indexed": true,
          "internalType": "address",
          "name": "newOwner",
          "type": "address"
        }
      ],
      "name": "OwnershipTransferred",
      "type": "event"
    },
    {
      "anonymous": false,
      "inputs": [
        {
          "indexed": true,
          "internalType": "address",
          "name": "merchant",
          "type": "address"
        },
        {
          "indexed": false,
          "internalType": "address[]",
          "name": "signers",
          "type": "address[]"
        },
        {
          "indexed": false,
          "internalType": "uint256",
          "name": "minSigners",
          "type": "uint256"
        }
      ],
      "name": "SignersUpdated",
      "type": "event"
    },
    {
      "anonymous": false,
      "inputs": [
        {
          "indexed": true,
          "internalType": "address",
          "name": "merchant",
          "type": "address"
        },
        {
          "indexed": false,
          "internalType": "address[]",
          "name": "tokens",
          "type": "address[]"
        }
      ],
      "name": "TokensUpdated",
      "type": "event"
    },
    {
      "anonymous": false,
      "inputs": [
        {
          "indexed": true,
          "internalType": "address",
          "name": "merchant",
          "type": "address"
        },
        {
          "indexed": false,
          "internalType": "address",
          "name": "token",
          "type": "address"
        },
        {
          "indexed": false,
          "internalType": "address",
          "name": "payer",
          "type": "address"
        },
        {
          "indexed": false,
          "internalType": "uint256",
          "name": "amount",
          "type": "uint256"
        },
        {
          "indexed": false,
          "internalType": "bytes32",
          "name": "transactionId",
          "type": "bytes32"
        }
      ],
      "name": "TransactionReceived",
      "type": "event"
    },
    {
      "anonymous": false,
      "inputs": [
        {
          "indexed": true,
          "internalType": "address",
          "name": "merchant",
          "type": "address"
        },
        {
          "indexed": true,
          "internalType": "uint256",
          "name": "requestId",
          "type": "uint256"
        },
        {
          "indexed": false,
          "internalType": "address",
          "name": "signer",
          "type": "address"
        }
      ],
      "name": "WithdrawRequestApproved",
      "type": "event"
    },
    {
      "anonymous": false,
      "inputs": [
        {
          "indexed": true,
          "internalType": "address",
          "name": "merchant",
          "type": "address"
        },
        {
          "indexed": true,
          "internalType": "uint256",
          "name": "requestId",
          "type": "uint256"
        },
        {
          "indexed": false,
          "internalType": "address",
          "name": "token",
          "type": "address"
        },
        {
          "indexed": false,
          "internalType": "uint256",
          "name": "amount",
          "type": "uint256"
        },
        {
          "indexed": false,
          "internalType": "address",
          "name": "recipient",
          "type": "address"
        },
        {
          "indexed": false,
          "internalType": "address[]",
          "name": "signers",
          "type": "address[]"
        },
        {
          "indexed": false,
          "internalType": "bool",
          "name": "executed",
          "type": "bool"
        }
      ],
      "name": "WithdrawRequestCreated",
      "type": "event"
    },
    {
      "anonymous": false,
      "inputs": [
        {
          "indexed": true,
          "internalType": "address",
          "name": "merchant",
          "type": "address"
        },
        {
          "indexed": true,
          "internalType": "uint256",
          "name": "requestId",
          "type": "uint256"
        }
      ],
      "name": "WithdrawRequestExecuted",
      "type": "event"
    },
    {
      "inputs": [
        {
          "internalType": "uint256",
          "name": "requestId",
          "type": "uint256"
        }
      ],
      "name": "approveWithdraw",
      "outputs": [],
      "stateMutability": "nonpayable",
      "type": "function"
    },
    {
      "inputs": [
        {
          "internalType": "address",
          "name": "token",
          "type": "address"
        },
        {
          "internalType": "uint256",
          "name": "amount",
          "type": "uint256"
        }
      ],
      "name": "deposit",
      "outputs": [],
      "stateMutability": "payable",
      "type": "function"
    },
    {
      "inputs": [
        {
          "internalType": "uint256",
          "name": "requestId",
          "type": "uint256"
        }
      ],
      "name": "executeWithdraw",
      "outputs": [],
      "stateMutability": "nonpayable",
      "type": "function"
    },
    {
      "inputs": [],
      "name": "getSigners",
      "outputs": [
        {
          "internalType": "address[]",
          "name": "",
          "type": "address[]"
        }
      ],
      "stateMutability": "view",
      "type": "function"
    },
    {
      "inputs": [
        {
          "internalType": "address",
          "name": "account",
          "type": "address"
        }
      ],
      "name": "isSigner",
      "outputs": [
        {
          "internalType": "bool",
          "name": "",
          "type": "bool"
        }
      ],
      "stateMutability": "view",
      "type": "function"
    },
    {
      "inputs": [
        {
          "internalType": "address",
          "name": "token",
          "type": "address"
        }
      ],
      "name": "isTokenAllowed",
      "outputs": [
        {
          "internalType": "bool",
          "name": "",
          "type": "bool"
        }
      ],
      "stateMutability": "view",
      "type": "function"
    },
    {
      "inputs": [],
      "name": "owner",
      "outputs": [
        {
          "internalType": "address",
          "name": "",
          "type": "address"
        }
      ],
      "stateMutability": "view",
      "type": "function"
    },
    {
      "inputs": [],
      "name": "renounceOwnership",
      "outputs": [],
      "stateMutability": "nonpayable",
      "type": "function"
    },
    {
      "inputs": [
        {
          "internalType": "address",
          "name": "token",
          "type": "address"
        },
        {
          "internalType": "uint256",
          "name": "amount",
          "type": "uint256"
        },
        {
          "internalType": "address",
          "name": "recipient",
          "type": "address"
        }
      ],
      "name": "requestWithdraw",
      "outputs": [],
      "stateMutability": "nonpayable",
      "type": "function"
    },
    {
      "inputs": [
        {
          "internalType": "address",
          "name": "newOwner",
          "type": "address"
        }
      ],
      "name": "transferOwnership",
      "outputs": [],
      "stateMutability": "nonpayable",
      "type": "function"
    },
    {
      "inputs": [
        {
          "internalType": "address[]",
          "name": "signers",
          "type": "address[]"
        },
        {
          "internalType": "uint256",
          "name": "minSigners",
          "type": "uint256"
        }
      ],
      "name": "updateSigners",
      "outputs": [],
      "stateMutability": "nonpayable",
      "type": "function"
    },
    {
      "inputs": [
        {
          "internalType": "address[]",
          "name": "tokens",
          "type": "address[]"
        }
      ],
      "name": "updateTokens",
      "outputs": [],
      "stateMutability": "nonpayable",
      "type": "function"
    },
    {
      "stateMutability": "payable",
      "type": "receive"
    }
  ],
  "bytecode": "0x60806040526112a2803803806100148161029d565b9283398101906080818303126102995761002d816102c2565b60208201519092906001600160401b038111610299578161004f9184016102d6565b60408301519091906001600160401b038111610299576060916100739185016102d6565b920151926001600160a01b03168015610286575f80546001600160a01b03198116831782556001600160a01b0316907f8be0079c531659141344cd1fd0a4f28419497f9722a3daafe3b4186f6b6457e09080a36100eb6100d3604061029d565b600381526203830360ec1b6020820152841515610340565b61011182518411156100fd604061029d565b9060018252601b60f91b6020830152610340565b8051906001600160401b038211610211576801000000000000000082116102115760015482600155808310610242575b5060200160015f5260205f205f5b8381106102255784518690866001600160401b0382116102115768010000000000000000821161021157600254826002558083106101cd575b5060200160025f5260205f205f5b8381106101b05784600355604051610f1a90816103888239f35b82516001600160a01b031681830155602090920191600101610196565b60025f527f405787fa12a823e0f2b7631cc41b3ba8828b3321ca811111fa75cd3aa3bb5ace9081019083015b8181106102065750610188565b5f81556001016101f9565b634e487b7160e01b5f52604160045260245ffd5b82516001600160a01b03168183015560209092019160010161014f565b60015f527fb10e2d527612073b26eecdfd717e6a320cf44b4afac2b0732d9fcbe2b7fa0cf69081019083015b81811061027b5750610141565b5f815560010161026e565b631e4fbdf760e01b5f525f60045260245ffd5b5f80fd5b6040519190601f01601f191682016001600160401b0381118382101761021157604052565b51906001600160a01b038216820361029957565b9080601f83011215610299578151916001600160401b038311610211578260051b9060208061030681850161029d565b80968152019282010192831161029957602001905b8282106103285750505090565b60208091610335846102c2565b81520191019061031b565b156103485750565b604460209160405192839162461bcd60e51b83528160048401528051918291826024860152018484015e5f828201840152601f01601f19168101030190fdfe6080604052600436101561001a575b3615610018575f80fd5b005b5f3560e01c806311ff708d14610a765780632104ebf11461082457806344cbf177146106f057806347e7ef24146105ac578063715018a6146105485780637df73e27146105255780638da5cb5b1461050057806394cf795e1461046b578063de41691c146102da578063ec4673d11461017c578063f2fde38b146100d35763f9eaee0d0361000e57346100cf5760203660031901126100cf5760206100c56100c0610c85565b610e45565b6040519015158152f35b5f80fd5b346100cf5760203660031901126100cf576001600160a01b036100f4610c85565b6100fc610ea5565b168015610150576001600160a01b035f548273ffffffffffffffffffffffffffffffffffffffff198216175f55167f8be0079c531659141344cd1fd0a4f28419497f9722a3daafe3b4186f6b6457e05f80a3005b7f1e4fbdf7000000000000000000000000000000000000000000000000000000005f525f60045260245ffd5b346100cf5760203660031901126100cf576004356101da61019c33610dc8565b604051906101ab604083610c63565b600182527f32000000000000000000000000000000000000000000000000000000000000006020830152610d4f565b805f526005602052600360405f2061023260ff6005830154161560405190610203604083610c63565b600182527f34000000000000000000000000000000000000000000000000000000000000006020830152610d4f565b600481016001600160a01b0333165f528060205261026160ff60405f2054161560405190610203604083610c63565b6001600160a01b0333165f5260205260405f20600160ff198254161790550180545f1981146102c65760010190556001600160a01b035f54167f78487974cc72de5c6bef86fe62e2102f7c904ce24ee2ce517ee055f6ce8f18ab6020604051338152a3005b634e487b7160e01b5f52601160045260245ffd5b346100cf5760203660031901126100cf5760043567ffffffffffffffff81116100cf5761030b903690600401610c9b565b610313610ea5565b61033c8151151560405190610329604083610c63565b60018252603360f81b6020830152610d4f565b805167ffffffffffffffff81116104575768010000000000000000811161045757600154816001558082106103f9575b506020820160015f525f5b8281106103bc57837fd98cf301fb2dcf478796c1ca646449e878f38c267e53debefa9310e84e2059df60405160208152806103b733946020830190610d13565b0390a2005b60019060206001600160a01b03845116930192817fb10e2d527612073b26eecdfd717e6a320cf44b4afac2b0732d9fcbe2b7fa0cf6015501610377565b7fb10e2d527612073b26eecdfd717e6a320cf44b4afac2b0732d9fcbe2b7fa0cf601817fb10e2d527612073b26eecdfd717e6a320cf44b4afac2b0732d9fcbe2b7fa0cf6015b81811061044c575061036c565b5f815560010161043f565b634e487b7160e01b5f52604160045260245ffd5b346100cf575f3660031901126100cf5760405180602060025491828152019060025f527f405787fa12a823e0f2b7631cc41b3ba8828b3321ca811111fa75cd3aa3bb5ace905f5b8181106104e1576104dd856104c981870382610c63565b604051918291602083526020830190610d13565b0390f35b82546001600160a01b03168452602090930192600192830192016104b2565b346100cf575f3660031901126100cf5760206001600160a01b035f5416604051908152f35b346100cf5760203660031901126100cf5760206100c5610543610c85565b610dc8565b346100cf575f3660031901126100cf57610560610ea5565b5f6001600160a01b03815473ffffffffffffffffffffffffffffffffffffffff1981168355167f8be0079c531659141344cd1fd0a4f28419497f9722a3daafe3b4186f6b6457e08280a3005b60403660031901126100cf576105c0610c85565b6001600160a01b03602435916106166105d882610e45565b604051906105e7604083610c63565b600382527f31303200000000000000000000000000000000000000000000000000000000006020830152610d4f565b61063d604051610627604082610c63565b60018152603360f81b6020820152841515610d4f565b168061066c57506100189060405190610657604083610c63565b60018252603360f81b60208301523414610d4f565b60209060645f9360405194859384927f23b872dd00000000000000000000000000000000000000000000000000000000845233600485015230602485015260448401525af180156106e5576106bd57005b6100189060203d6020116106de575b6106d68183610c63565b810190610db0565b503d6106cc565b6040513d5f823e3d90fd5b346100cf5760603660031901126100cf57610709610c85565b602435604435916001600160a01b0383168093036100cf57610729610ea5565b61073a604051610627604082610c63565b600454600181018091116102c6577fdbd32aa86478e5dc17d3a10a48f542ba22fcbb506496672a9219632ac0d9531591816001600160a01b03926004555f526005602052600560405f2083831673ffffffffffffffffffffffffffffffffffffffff19825416178155856001820155600281018773ffffffffffffffffffffffffffffffffffffffff198254161790550160ff198154169055610819825f54169460045496604051916107ee602084610c63565b5f83525f3681376040519586951685526020850152604084015260a0606084015260a0830190610d13565b5f60808301520390a3005b346100cf5760203660031901126100cf57600435805f52600560205260405f2061088f6003820154600354111560405190610860604083610c63565b600382527f38303100000000000000000000000000000000000000000000000000000000006020830152610d4f565b60058101906108ac60ff8354161560405190610203604083610c63565b80546001600160a01b03168061095357505f808080936001600160a01b03600247926108fc60018201549485604051916108e7604084610c63565b60018352603560f81b60208401521015610d4f565b01541682821561094a575bf1156106e5575b600160ff198254161790556001600160a01b035f54167fe4316ed18911c398c6a0479d3101bb4b55e9c97d6cd59b334bc4e4e4e066c9785f80a3005b506108fc610907565b90604051907f70a08231000000000000000000000000000000000000000000000000000000008252306004830152602082602481865afa9182156106e5575f92610a41575b509060446001600160a01b036002846109d6600160209701549586604051916109c2604084610c63565b60018352603560f81b8a8401521015610d4f565b0154165f60405195869485937fa9059cbb000000000000000000000000000000000000000000000000000000008552600485015260248401525af180156106e557610a22575b5061090e565b610a3a9060203d6020116106de576106d68183610c63565b5082610a1c565b91506020823d602011610a6e575b81610a5c60209383610c63565b810103126100cf579051906044610998565b3d9150610a4f565b346100cf5760403660031901126100cf5760043567ffffffffffffffff81116100cf57610aa7903690600401610c9b565b60243590610ab3610ea5565b610af6604051610ac4604082610c63565b600381527f38303000000000000000000000000000000000000000000000000000000000006020820152831515610d4f565b610b3c815183111560405190610b0d604083610c63565b600182527f36000000000000000000000000000000000000000000000000000000000000006020830152610d4f565b805167ffffffffffffffff8111610457576801000000000000000081116104575760025481600255808210610c05575b506020820160025f525f5b828110610bc857847f6f8c25f4ead087c594c69b3eeda8bf24114aa4cdcd34adfb98ed343c6c5f800f8582600355610bba60405191604083526040830190610d13565b9260208201528033930390a2005b60019060206001600160a01b03845116930192817f405787fa12a823e0f2b7631cc41b3ba8828b3321ca811111fa75cd3aa3bb5ace015501610b77565b7f405787fa12a823e0f2b7631cc41b3ba8828b3321ca811111fa75cd3aa3bb5ace01817f405787fa12a823e0f2b7631cc41b3ba8828b3321ca811111fa75cd3aa3bb5ace015b818110610c585750610b6c565b5f8155600101610c4b565b90601f8019910116810190811067ffffffffffffffff82111761045757604052565b600435906001600160a01b03821682036100cf57565b81601f820112156100cf5780359167ffffffffffffffff8311610457578260051b916020830193610ccf6040519586610c63565b84526020808501938201019182116100cf57602001915b818310610cf35750505090565b82356001600160a01b03811681036100cf57815260209283019201610ce6565b90602080835192838152019201905f5b818110610d305750505090565b82516001600160a01b0316845260209384019390920191600101610d23565b15610d575750565b60446020916040519283917f08c379a00000000000000000000000000000000000000000000000000000000083528160048401528051918291826024860152018484015e5f828201840152601f01601f19168101030190fd5b908160209103126100cf575180151581036100cf5790565b60025490815f5b838110610dde57505050505f90565b81811015610e315760025f527f405787fa12a823e0f2b7631cc41b3ba8828b3321ca811111fa75cd3aa3bb5ace8101546001600160a01b03848116911614610e2857600101610dcf565b50505050600190565b634e487b7160e01b5f52603260045260245ffd5b60015490815f5b838110610e5b57505050505f90565b81811015610e315760015f527fb10e2d527612073b26eecdfd717e6a320cf44b4afac2b0732d9fcbe2b7fa0cf68101546001600160a01b03848116911614610e2857600101610e4c565b6001600160a01b035f54163303610eb857565b7f118cdaa7000000000000000000000000000000000000000000000000000000005f523360045260245ffdfea2646970667358221220dd348f0defc9088c718baf89d94fccc26ff0b5bc9682d49730103c445e62969864736f6c634300081c0033",
  "linkReferences": {},
  "deployedLinkReferences": {}
}