{
  "_format": "hh-sol-artifact-1",
  "contractName": "IdentityRegistry",
  "sourceName": "contracts/eip8004/IdentityRegistry.sol",
  "abi": [
    {
      "inputs": [],
      "stateMutability": "nonpayable",
      "type": "constructor"
    },
    {
      "inputs": [],
      "name": "ECDSAInvalidSignature",
      "type": "error"
    },
    {
      "inputs": [
        {
          "internalType": "uint256",
          "name": "length",
          "type": "uint256"
        }
      ],
      "name": "ECDSAInvalidSignatureLength",
      "type": "error"
    },
    {
      "inputs": [
        {
          "internalType": "bytes32",
          "name": "s",
          "type": "bytes32"
        }
      ],
      "name": "ECDSAInvalidSignatureS",
      "type": "error"
    },
    {
      "inputs": [
        {
          "internalType": "address",
          "name": "sender",
          "type": "address"
        },
        {
          "internalType": "uint256",
          "name": "tokenId",
          "type": "uint256"
        },
        {
          "internalType": "address",
          "name": "owner",
          "type": "address"
        }
      ],
      "name": "ERC721IncorrectOwner",
      "type": "error"
    },
    {
      "inputs": [
        {
          "internalType": "address",
          "name": "operator",
          "type": "address"
        },
        {
          "internalType": "uint256",
          "name": "tokenId",
          "type": "uint256"
        }
      ],
      "name": "ERC721InsufficientApproval",
      "type": "error"
    },
    {
      "inputs": [
        {
          "internalType": "address",
          "name": "approver",
          "type": "address"
        }
      ],
      "name": "ERC721InvalidApprover",
      "type": "error"
    },
    {
      "inputs": [
        {
          "internalType": "address",
          "name": "operator",
          "type": "address"
        }
      ],
      "name": "ERC721InvalidOperator",
      "type": "error"
    },
    {
      "inputs": [
        {
          "internalType": "address",
          "name": "owner",
          "type": "address"
        }
      ],
      "name": "ERC721InvalidOwner",
      "type": "error"
    },
    {
      "inputs": [
        {
          "internalType": "address",
          "name": "receiver",
          "type": "address"
        }
      ],
      "name": "ERC721InvalidReceiver",
      "type": "error"
    },
    {
      "inputs": [
        {
          "internalType": "address",
          "name": "sender",
          "type": "address"
        }
      ],
      "name": "ERC721InvalidSender",
      "type": "error"
    },
    {
      "inputs": [
        {
          "internalType": "uint256",
          "name": "tokenId",
          "type": "uint256"
        }
      ],
      "name": "ERC721NonexistentToken",
      "type": "error"
    },
    {
      "inputs": [],
      "name": "InvalidShortString",
      "type": "error"
    },
    {
      "inputs": [
        {
          "internalType": "string",
          "name": "str",
          "type": "string"
        }
      ],
      "name": "StringTooLong",
      "type": "error"
    },
    {
      "anonymous": false,
      "inputs": [
        {
          "indexed": true,
          "internalType": "address",
          "name": "owner",
          "type": "address"
        },
        {
          "indexed": true,
          "internalType": "address",
          "name": "approved",
          "type": "address"
        },
        {
          "indexed": true,
          "internalType": "uint256",
          "name": "tokenId",
          "type": "uint256"
        }
      ],
      "name": "Approval",
      "type": "event"
    },
    {
      "anonymous": false,
      "inputs": [
        {
          "indexed": true,
          "internalType": "address",
          "name": "owner",
          "type": "address"
        },
        {
          "indexed": true,
          "internalType": "address",
          "name": "operator",
          "type": "address"
        },
        {
          "indexed": false,
          "internalType": "bool",
          "name": "approved",
          "type": "bool"
        }
      ],
      "name": "ApprovalForAll",
      "type": "event"
    },
    {
      "anonymous": false,
      "inputs": [
        {
          "indexed": false,
          "internalType": "uint256",
          "name": "_fromTokenId",
          "type": "uint256"
        },
        {
          "indexed": false,
          "internalType": "uint256",
          "name": "_toTokenId",
          "type": "uint256"
        }
      ],
      "name": "BatchMetadataUpdate",
      "type": "event"
    },
    {
      "anonymous": false,
      "inputs": [],
      "name": "EIP712DomainChanged",
      "type": "event"
    },
    {
      "anonymous": false,
      "inputs": [
        {
          "indexed": true,
          "internalType": "uint256",
          "name": "agentId",
          "type": "uint256"
        },
        {
          "indexed": true,
          "internalType": "string",
          "name": "indexedMetadataKey",
          "type": "string"
        },
        {
          "indexed": false,
          "internalType": "string",
          "name": "metadataKey",
          "type": "string"
        },
        {
          "indexed": false,
          "internalType": "bytes",
          "name": "metadataValue",
          "type": "bytes"
        }
      ],
      "name": "MetadataSet",
      "type": "event"
    },
    {
      "anonymous": false,
      "inputs": [
        {
          "indexed": false,
          "internalType": "uint256",
          "name": "_tokenId",
          "type": "uint256"
        }
      ],
      "name": "MetadataUpdate",
      "type": "event"
    },
    {
      "anonymous": false,
      "inputs": [
        {
          "indexed": true,
          "internalType": "uint256",
          "name": "agentId",
          "type": "uint256"
        },
        {
          "indexed": false,
          "internalType": "string",
          "name": "agentURI",
          "type": "string"
        },
        {
          "indexed": true,
          "internalType": "address",
          "name": "owner",
          "type": "address"
        }
      ],
      "name": "Registered",
      "type": "event"
    },
    {
      "anonymous": false,
      "inputs": [
        {
          "indexed": true,
          "internalType": "address",
          "name": "from",
          "type": "address"
        },
        {
          "indexed": true,
          "internalType": "address",
          "name": "to",
          "type": "address"
        },
        {
          "indexed": true,
          "internalType": "uint256",
          "name": "tokenId",
          "type": "uint256"
        }
      ],
      "name": "Transfer",
      "type": "event"
    },
    {
      "anonymous": false,
      "inputs": [
        {
          "indexed": true,
          "internalType": "uint256",
          "name": "agentId",
          "type": "uint256"
        },
        {
          "indexed": false,
          "internalType": "string",
          "name": "newURI",
          "type": "string"
        },
        {
          "indexed": true,
          "internalType": "address",
          "name": "updatedBy",
          "type": "address"
        }
      ],
      "name": "URIUpdated",
      "type": "event"
    },
    {
      "inputs": [
        {
          "internalType": "address",
          "name": "to",
          "type": "address"
        },
        {
          "internalType": "uint256",
          "name": "tokenId",
          "type": "uint256"
        }
      ],
      "name": "approve",
      "outputs": [],
      "stateMutability": "nonpayable",
      "type": "function"
    },
    {
      "inputs": [
        {
          "internalType": "address",
          "name": "owner",
          "type": "address"
        }
      ],
      "name": "balanceOf",
      "outputs": [
        {
          "internalType": "uint256",
          "name": "",
          "type": "uint256"
        }
      ],
      "stateMutability": "view",
      "type": "function"
    },
    {
      "inputs": [],
      "name": "eip712Domain",
      "outputs": [
        {
          "internalType": "bytes1",
          "name": "fields",
          "type": "bytes1"
        },
        {
          "internalType": "string",
          "name": "name",
          "type": "string"
        },
        {
          "internalType": "string",
          "name": "version",
          "type": "string"
        },
        {
          "internalType": "uint256",
          "name": "chainId",
          "type": "uint256"
        },
        {
          "internalType": "address",
          "name": "verifyingContract",
          "type": "address"
        },
        {
          "internalType": "bytes32",
          "name": "salt",
          "type": "bytes32"
        },
        {
          "internalType": "uint256[]",
          "name": "extensions",
          "type": "uint256[]"
        }
      ],
      "stateMutability": "view",
      "type": "function"
    },
    {
      "inputs": [
        {
          "internalType": "uint256",
          "name": "agentId",
          "type": "uint256"
        }
      ],
      "name": "getAgentWallet",
      "outputs": [
        {
          "internalType": "address",
          "name": "",
          "type": "address"
        }
      ],
      "stateMutability": "view",
      "type": "function"
    },
    {
      "inputs": [
        {
          "internalType": "uint256",
          "name": "tokenId",
          "type": "uint256"
        }
      ],
      "name": "getApproved",
      "outputs": [
        {
          "internalType": "address",
          "name": "",
          "type": "address"
        }
      ],
      "stateMutability": "view",
      "type": "function"
    },
    {
      "inputs": [
        {
          "internalType": "uint256",
          "name": "agentId",
          "type": "uint256"
        },
        {
          "internalType": "string",
          "name": "metadataKey",
          "type": "string"
        }
      ],
      "name": "getMetadata",
      "outputs": [
        {
          "internalType": "bytes",
          "name": "",
          "type": "bytes"
        }
      ],
      "stateMutability": "view",
      "type": "function"
    },
    {
      "inputs": [
        {
          "internalType": "address",
          "name": "owner",
          "type": "address"
        },
        {
          "internalType": "address",
          "name": "operator",
          "type": "address"
        }
      ],
      "name": "isApprovedForAll",
      "outputs": [
        {
          "internalType": "bool",
          "name": "",
          "type": "bool"
        }
      ],
      "stateMutability": "view",
      "type": "function"
    },
    {
      "inputs": [],
      "name": "name",
      "outputs": [
        {
          "internalType": "string",
          "name": "",
          "type": "string"
        }
      ],
      "stateMutability": "view",
      "type": "function"
    },
    {
      "inputs": [
        {
          "internalType": "uint256",
          "name": "tokenId",
          "type": "uint256"
        }
      ],
      "name": "ownerOf",
      "outputs": [
        {
          "internalType": "address",
          "name": "",
          "type": "address"
        }
      ],
      "stateMutability": "view",
      "type": "function"
    },
    {
      "inputs": [],
      "name": "register",
      "outputs": [
        {
          "internalType": "uint256",
          "name": "agentId",
          "type": "uint256"
        }
      ],
      "stateMutability": "nonpayable",
      "type": "function"
    },
    {
      "inputs": [
        {
          "internalType": "string",
          "name": "agentURI",
          "type": "string"
        },
        {
          "components": [
            {
              "internalType": "string",
              "name": "metadataKey",
              "type": "string"
            },
            {
              "internalType": "bytes",
              "name": "metadataValue",
              "type": "bytes"
            }
          ],
          "internalType": "struct IdentityRegistry.MetadataEntry[]",
          "name": "metadata",
          "type": "tuple[]"
        }
      ],
      "name": "register",
      "outputs": [
        {
          "internalType": "uint256",
          "name": "agentId",
          "type": "uint256"
        }
      ],
      "stateMutability": "nonpayable",
      "type": "function"
    },
    {
      "inputs": [
        {
          "internalType": "string",
          "name": "agentURI",
          "type": "string"
        }
      ],
      "name": "register",
      "outputs": [
        {
          "internalType": "uint256",
          "name": "agentId",
          "type": "uint256"
        }
      ],
      "stateMutability": "nonpayable",
      "type": "function"
    },
    {
      "inputs": [
        {
          "internalType": "address",
          "name": "from",
          "type": "address"
        },
        {
          "internalType": "address",
          "name": "to",
          "type": "address"
        },
        {
          "internalType": "uint256",
          "name": "tokenId",
          "type": "uint256"
        }
      ],
      "name": "safeTransferFrom",
      "outputs": [],
      "stateMutability": "nonpayable",
      "type": "function"
    },
    {
      "inputs": [
        {
          "internalType": "address",
          "name": "from",
          "type": "address"
        },
        {
          "internalType": "address",
          "name": "to",
          "type": "address"
        },
        {
          "internalType": "uint256",
          "name": "tokenId",
          "type": "uint256"
        },
        {
          "internalType": "bytes",
          "name": "data",
          "type": "bytes"
        }
      ],
      "name": "safeTransferFrom",
      "outputs": [],
      "stateMutability": "nonpayable",
      "type": "function"
    },
    {
      "inputs": [
        {
          "internalType": "uint256",
          "name": "agentId",
          "type": "uint256"
        },
        {
          "internalType": "string",
          "name": "newURI",
          "type": "string"
        }
      ],
      "name": "setAgentURI",
      "outputs": [],
      "stateMutability": "nonpayable",
      "type": "function"
    },
    {
      "inputs": [
        {
          "internalType": "uint256",
          "name": "agentId",
          "type": "uint256"
        },
        {
          "internalType": "address",
          "name": "newWallet",
          "type": "address"
        },
        {
          "internalType": "uint256",
          "name": "deadline",
          "type": "uint256"
        },
        {
          "internalType": "bytes",
          "name": "signature",
          "type": "bytes"
        }
      ],
      "name": "setAgentWallet",
      "outputs": [],
      "stateMutability": "nonpayable",
      "type": "function"
    },
    {
      "inputs": [
        {
          "internalType": "address",
          "name": "operator",
          "type": "address"
        },
        {
          "internalType": "bool",
          "name": "approved",
          "type": "bool"
        }
      ],
      "name": "setApprovalForAll",
      "outputs": [],
      "stateMutability": "nonpayable",
      "type": "function"
    },
    {
      "inputs": [
        {
          "internalType": "uint256",
          "name": "agentId",
          "type": "uint256"
        },
        {
          "internalType": "string",
          "name": "metadataKey",
          "type": "string"
        },
        {
          "internalType": "bytes",
          "name": "metadataValue",
          "type": "bytes"
        }
      ],
      "name": "setMetadata",
      "outputs": [],
      "stateMutability": "nonpayable",
      "type": "function"
    },
    {
      "inputs": [
        {
          "internalType": "bytes4",
          "name": "interfaceId",
          "type": "bytes4"
        }
      ],
      "name": "supportsInterface",
      "outputs": [
        {
          "internalType": "bool",
          "name": "",
          "type": "bool"
        }
      ],
      "stateMutability": "view",
      "type": "function"
    },
    {
      "inputs": [],
      "name": "symbol",
      "outputs": [
        {
          "internalType": "string",
          "name": "",
          "type": "string"
        }
      ],
      "stateMutability": "view",
      "type": "function"
    },
    {
      "inputs": [
        {
          "internalType": "uint256",
          "name": "tokenId",
          "type": "uint256"
        }
      ],
      "name": "tokenURI",
      "outputs": [
        {
          "internalType": "string",
          "name": "",
          "type": "string"
        }
      ],
      "stateMutability": "view",
      "type": "function"
    },
    {
      "inputs": [
        {
          "internalType": "address",
          "name": "from",
          "type": "address"
        },
        {
          "internalType": "address",
          "name": "to",
          "type": "address"
        },
        {
          "internalType": "uint256",
          "name": "tokenId",
          "type": "uint256"
        }
      ],
      "name": "transferFrom",
      "outputs": [],
      "stateMutability": "nonpayable",
      "type": "function"
    },
    {
      "inputs": [
        {
          "internalType": "uint256",
          "name": "agentId",
          "type": "uint256"
        }
      ],
      "name": "unsetAgentWallet",
      "outputs": [],
      "stateMutability": "nonpayable",
      "type": "function"
    }
  ],
  "bytecode": "0x6101606040523461044057604051610018604082610444565b601a815260208101907f4552432d38303034204964656e74697479205265676973747279000000000000825260405191610053604084610444565b600183526020830191603160f81b8352604051610071604082610444565b600f81526e4552432d38303034204167656e747360881b60208201526040519061009c604083610444565b60058252641051d1539560da1b60208301528051906001600160401b038211610347575f5490600182811c92168015610436575b60208310146103295781601f8493116103c9575b50602090601f8311600114610366575f9261035b575b50508160011b915f199060031b1c1916175f555b8051906001600160401b0382116103475760015490600182811c9216801561033d575b60208310146103295781601f8493116102bb575b50602090601f8311600114610255575f9261024a575b50508160011b915f199060031b1c1916176001555b61017981610467565b61012052610186846105ee565b61014052519020918260e05251902080610100524660a0526040519060208201927f8b73c3c69bb8fe3d512ecc4cf759cc79239f7b179b0ffacaa9a75d522b39400f8452604083015260608201524660808201523060a082015260a081526101ef60c082610444565b5190206080523060c05260405161230a9081610727823960805181611fc2015260a0518161207f015260c05181611f93015260e0518161201101526101005181612037015261012051816107a6015261014051816107cf0152f35b015190505f8061015b565b60015f9081528281209350601f198516905b8181106102a3575090846001959493921061028b575b505050811b01600155610170565b01515f1960f88460031b161c191690555f808061027d565b92936020600181928786015181550195019301610267565b60015f529091507fb10e2d527612073b26eecdfd717e6a320cf44b4afac2b0732d9fcbe2b7fa0cf6601f840160051c8101916020851061031f575b90601f859493920160051c01905b8181106103115750610145565b5f8155849350600101610304565b90915081906102f6565b634e487b7160e01b5f52602260045260245ffd5b91607f1691610131565b634e487b7160e01b5f52604160045260245ffd5b015190505f806100fa565b5f8080528281209350601f198516905b8181106103b15750908460019594939210610399575b505050811b015f5561010e565b01515f1960f88460031b161c191690555f808061038c565b92936020600181928786015181550195019301610376565b5f80529091507f290decd9548b62a8d60345a988386fc84ba6bc95484008f6362f93160ef3e563601f840160051c8101916020851061042c575b90601f859493920160051c01905b81811061041e57506100e4565b5f8155849350600101610411565b9091508190610403565b91607f16916100d0565b5f80fd5b601f909101601f19168101906001600160401b0382119082101761034757604052565b908151602081105f146104e1575090601f8151116104a1576020815191015160208210610492571790565b5f198260200360031b1b161790565b604460209160405192839163305a27a960e01b83528160048401528051918291826024860152018484015e5f828201840152601f01601f19168101030190fd5b6001600160401b03811161034757600754600181811c911680156105e4575b602082101461032957601f81116105b1575b50602092601f821160011461055057928192935f92610545575b50508160011b915f199060031b1c19161760075560ff90565b015190505f8061052c565b601f1982169360075f52805f20915f5b8681106105995750836001959610610581575b505050811b0160075560ff90565b01515f1960f88460031b161c191690555f8080610573565b91926020600181928685015181550194019201610560565b60075f52601f60205f20910160051c810190601f830160051c015b8181106105d95750610512565b5f81556001016105cc565b90607f1690610500565b908151602081105f14610619575090601f8151116104a1576020815191015160208210610492571790565b6001600160401b03811161034757600854600181811c9116801561071c575b602082101461032957601f81116106e9575b50602092601f821160011461068857928192935f9261067d575b50508160011b915f199060031b1c19161760085560ff90565b015190505f80610664565b601f1982169360085f52805f20915f5b8681106106d157508360019596106106b9575b505050811b0160085560ff90565b01515f1960f88460031b161c191690555f80806106ab565b91926020600181928685015181550194019201610698565b60085f52601f60205f20910160051c810190601f830160051c015b818110610711575061064a565b5f8155600101610704565b90607f169061063856fe60806040526004361015610011575f80fd5b5f3560e01c80623395091461111a57806301ffc9a71461102d57806306fdde0314610f8b578063081812fc14610f4e578063095ea7b314610e495780630af28bd314610db85780631aa3a00814610d8e57806323b872dd14610d775780632d1ef5ae14610a905780633fddcf19146109ef57806342842e0e146109c0578063466648da1461093b5780636352211e1461090c57806370a08231146108a257806384b0196e1461078e5780638ea422861461044857806395d89b411461037e578063a22cb465146102ca578063b88d4fde1461026d578063c87b56dd1461024e578063cb4799f2146101bf578063e985e9c5146101665763f2c298be14610115575f80fd5b346101625760203660031901126101625760043567ffffffffffffffff81116101625761015a61015561014e60209336906004016111a7565b369161127d565b61185a565b604051908152f35b5f80fd5b346101625760403660031901126101625761017f61117b565b6001600160a01b0361018f611191565b91165f5260056020526001600160a01b0360405f2091165f52602052602060ff60405f2054166040519015158152f35b346101625760403660031901126101625760043560243567ffffffffffffffff8111610162576101f39036906004016112b3565b6101fc826116b0565b5060208151910120905f52600a60205260405f20905f5260205261024a61022f61023660405f2060405192838092611309565b038261123f565b604051918291602083526020830190611157565b0390f35b346101625760203660031901126101625761024a610236600435611676565b346101625760803660031901126101625761028661117b565b61028e611191565b906044356064359267ffffffffffffffff8411610162576102b66102c89436906004016112b3565b926102c28383836113aa565b33611e01565b005b34610162576040366003190112610162576102e361117b565b60243590811515809203610162576001600160a01b031690811561035257335f52600560205260405f20825f5260205260405f2060ff1981541660ff83161790556040519081527f17307eab39ab6107e8899845ad3d59bd9653f200f220920489ca2b5937696c3160203392a3005b507f5b08ba18000000000000000000000000000000000000000000000000000000005f5260045260245ffd5b34610162575f366003190112610162576040515f60015461039e816112d1565b808452906001811690811561042457506001146103c6575b61024a836102368185038261123f565b60015f9081527fb10e2d527612073b26eecdfd717e6a320cf44b4afac2b0732d9fcbe2b7fa0cf6939250905b80821061040a575090915081016020016102366103b6565b9192600181602092548385880101520191019092916103f2565b60ff191660208086019190915291151560051b8401909101915061023690506103b6565b346101625760403660031901126101625760043567ffffffffffffffff8111610162576104799036906004016111a7565b60243567ffffffffffffffff811161016257366023820112156101625780600401359067ffffffffffffffff8211610162573660248360051b83010111610162576104c5829392611636565b936104d3604051958661123f565b838552601f196104e285611636565b015f5b8181106107635750503682900360621901925f5b8581101561059d5760248160051b85010135858112156101625784019060406023198336030112610162576040516105308161120f565b602483013567ffffffffffffffff81116101625761055490602436918601016112b3565b8152604483013567ffffffffffffffff811161016257600193602461057c92369201016112b3565b602082015261058b828a61164e565b52610596818961164e565b50016104f9565b866105a936848661127d565b6009545f19811461074f57600101806009556020926040516105cb858261123f565b5f8152331561073c576001600160a01b036105e684336119c3565b16610710576105f790833333611cf5565b8251610701575b815f52600b845260405f206001600160a01b0333166001600160a01b0319825416179055604051338582015284815261063860408261123f565b827f2c149ed548c6d2993cd73efe187df6eccabe4538091b33adbd25fafdb8a1468b610681600b6040516a1859d95b9d15d85b1b195d60aa1b8152209360405191829182611603565b0390a35f5b81518110156106bc57806106b661069f6001938561164e565b5151876106ac848761164e565b5101519086611b20565b01610686565b505090817fca52e62c367d81bb2e328eb795f7c7ba24afb478408a26c0e201d155c449bc4a604051858152806106f6339588830190611157565b0390a3604051908152f35b61070b8383611732565b6105fe565b7f73c6ac6e000000000000000000000000000000000000000000000000000000005f525f60045260245ffd5b633250574960e11b5f525f60045260245ffd5b634e487b7160e01b5f52601160045260245ffd5b6020906040969596516107758161120f565b6060815260608382015282828a010152019493946104e5565b34610162575f366003190112610162576108466107ca7f000000000000000000000000000000000000000000000000000000000000000061219e565b6107f37f0000000000000000000000000000000000000000000000000000000000000000612210565b602061085460405192610806838561123f565b5f84525f3681376040519586957f0f00000000000000000000000000000000000000000000000000000000000000875260e08588015260e0870190611157565b908582036040870152611157565b4660608501523060808501525f60a085015283810360c08501528180845192838152019301915f5b82811061088b57505050500390f35b83518552869550938101939281019260010161087c565b34610162576020366003190112610162576001600160a01b036108c361117b565b1680156108e0575f526003602052602060405f2054604051908152f35b7f89c62b64000000000000000000000000000000000000000000000000000000005f525f60045260245ffd5b3461016257602036600319011261016257602061092a6004356116b0565b6001600160a01b0360405191168152f35b346101625760603660031901126101625760043560243567ffffffffffffffff81116101625761096f9036906004016111a7565b919060443567ffffffffffffffff8111610162576102c8936109b261099b6109ba9336906004016111a7565b94909261014e876109ab816116b0565b3390611ec2565b92369161127d565b91611b20565b34610162576102c86109d1366111d5565b90604051926109e160208561123f565b5f84526102c28383836113aa565b3461016257602036600319011261016257600435610a10816109ab816116b0565b805f52600b60205260405f206001600160a01b03198154169055604051905f602083015260208252610a4360408361123f565b7f2c149ed548c6d2993cd73efe187df6eccabe4538091b33adbd25fafdb8a1468b610a8b600b6040516a1859d95b9d15d85b1b195d60aa1b8152209360405191829182611603565b0390a3005b3461016257608036600319011261016257600435610aac611191565b906044359160643567ffffffffffffffff811161016257610ad19036906004016111a7565b9091610ae0846109ab816116b0565b6001600160a01b038116916042604096610b318851610aff8a8261123f565b600181527f3300000000000000000000000000000000000000000000000000000000000000602082015286151561155e565b610b738851610b408a8261123f565b600381527f363031000000000000000000000000000000000000000000000000000000000060208201528242111561155e565b875160208101917f5a2b87f3673ca6856d85d54cb1a9eb690f53c4d6b0954db34c84fe6c19c80d948352888a830152866060830152608082015260808152610bbc60a08261123f565b519020610bc7611f89565b908851917f190100000000000000000000000000000000000000000000000000000000000083526002830152602282015220913b155f14610cb757610c4c610c43610a8b9493610c3d7f2c149ed548c6d2993cd73efe187df6eccabe4538091b33adbd25fafdb8a1468b97610c6595369161127d565b906120a5565b909291926120df565b826001600160a01b03610c5d6115c8565b92161461155e565b835f52600b602052845f20816001600160a01b0319825416179055845190602082015260208152610c96858261123f565b600b85516a1859d95b9d15d85b1b195d60aa1b815220945191829182611603565b602091610ce387519586938493630b135d3f60e11b85526004850152896024850152604484019161138a565b0381845afa908115610d6d57610d39610a8b927f2c149ed548c6d2993cd73efe187df6eccabe4538091b33adbd25fafdb8a1468b945f91610d3e575b50630b135d3f60e11b6001600160e01b0319610c5d6115c8565b610c65565b610d60915060203d602011610d66575b610d58818361123f565b8101906115a8565b87610d1f565b503d610d4e565b84513d5f823e3d90fd5b34610162576102c8610d88366111d5565b916113aa565b34610162575f36600319011261016257602061015a604051610db0838261123f565b5f815261185a565b346101625760403660031901126101625760243560043567ffffffffffffffff8211610162577f3a2c7fffc2cba7582c690e3b82c453ea02a308326a98a3ad7576c606336409fb610e10610a8b9336906004016111a7565b9390610e1f846109ab816116b0565b610e33610e2d36878461127d565b85611732565b604051918291602083523396602084019161138a565b3461016257604036600319011261016257610e6261117b565b602435610e6e816116b0565b33151580610f3b575b80610f08575b610edc5781906001600160a01b0380851691167f8c5be1e5ebec7d5bd14f71427d1e84f3dd0314c0f7b2291e5b200ac8c7c3b9255f80a45f5260046020526001600160a01b0360405f2091166001600160a01b03198254161790555f80f35b7fa9fbf51f000000000000000000000000000000000000000000000000000000005f523360045260245ffd5b506001600160a01b0381165f52600560205260405f206001600160a01b0333165f5260205260ff60405f20541615610e7d565b50336001600160a01b0382161415610e77565b3461016257602036600319011261016257600435610f6b816116b0565b505f52600460205260206001600160a01b0360405f205416604051908152f35b34610162575f366003190112610162576040515f5f54610faa816112d1565b80845290600181169081156104245750600114610fd15761024a836102368185038261123f565b5f8080527f290decd9548b62a8d60345a988386fc84ba6bc95484008f6362f93160ef3e563939250905b808210611013575090915081016020016102366103b6565b919260018160209254838588010152019101909291610ffb565b34610162576020366003190112610162576004356001600160e01b0319811680910361016257807f49064906000000000000000000000000000000000000000000000000000000006020921490811561108c575b506040519015158152f35b7f80ac58cd000000000000000000000000000000000000000000000000000000008114915081156110f0575b81156110c6575b5082611081565b7f01ffc9a700000000000000000000000000000000000000000000000000000000915014826110bf565b7f5b5e139f00000000000000000000000000000000000000000000000000000000811491506110b8565b3461016257602036600319011261016257600435611137816116b0565b505f52600b60205260206001600160a01b0360405f205416604051908152f35b805180835260209291819084018484015e5f828201840152601f01601f1916010190565b600435906001600160a01b038216820361016257565b602435906001600160a01b038216820361016257565b9181601f840112156101625782359167ffffffffffffffff8311610162576020838186019501011161016257565b6060906003190112610162576004356001600160a01b038116810361016257906024356001600160a01b0381168103610162579060443590565b6040810190811067ffffffffffffffff82111761122b57604052565b634e487b7160e01b5f52604160045260245ffd5b90601f8019910116810190811067ffffffffffffffff82111761122b57604052565b67ffffffffffffffff811161122b57601f01601f191660200190565b92919261128982611261565b91611297604051938461123f565b829481845281830111610162578281602093845f960137010152565b9080601f83011215610162578160206112ce9335910161127d565b90565b90600182811c921680156112ff575b60208310146112eb57565b634e487b7160e01b5f52602260045260245ffd5b91607f16916112e0565b5f9291815491611318836112d1565b808352926001811690811561136d575060011461133457505050565b5f9081526020812093945091925b838310611353575060209250010190565b600181602092949394548385870101520191019190611342565b915050602093945060ff929192191683830152151560051b010190565b908060209392818452848401375f828201840152601f01601f1916010190565b91906001600160a01b031691821561073c576001600160a01b0390825f5260026020528160405f205416933361154e575b84151580611517575b815f52600360205260405f2060018154019055845f52600260205260405f20826001600160a01b031982541617905585604051928681837fddf252ad1be2c89b69c2b068fc378daa952ba7f163c4a11628f55a4df523b3ef5f80a48261150c575b505061148b575b501680830361145a57505050565b7f64283d7b000000000000000000000000000000000000000000000000000000005f5260045260245260445260645ffd5b835f52600b60205260405f206001600160a01b031981541690555f6020820152602081526114ba60408261123f565b837f2c149ed548c6d2993cd73efe187df6eccabe4538091b33adbd25fafdb8a1468b611503600b6040516a1859d95b9d15d85b1b195d60aa1b8152209360405191829182611603565b0390a35f61144c565b14159050855f611445565b611536855f52600460205260405f206001600160a01b03198154169055565b855f52600360205260405f205f1981540190556113e4565b611559843387611ec2565b6113db565b156115665750565b6115a4906040519182917f08c379a0000000000000000000000000000000000000000000000000000000008352602060048401526024830190611157565b0390fd5b9081602091031261016257516001600160e01b0319811681036101625790565b604051906115d760408361123f565b600382527f36303000000000000000000000000000000000000000000000000000000000006020830152565b9060806112ce9260408152600b60408201526a1859d95b9d15d85b1b195d60aa1b60608201528160208201520190611157565b67ffffffffffffffff811161122b5760051b60200190565b80518210156116625760209160051b010190565b634e487b7160e01b5f52603260045260245ffd5b61167f816116b0565b505f52600660205261022f61169d60405f2060405192838092611309565b5f6040516116ac60208261123f565b5290565b805f5260026020526001600160a01b0360405f2054169081156116d1575090565b637e27328960e01b5f5260045260245ffd5b601f82116116f057505050565b5f5260205f20906020601f840160051c83019310611728575b601f0160051c01905b81811061171d575050565b5f8155600101611712565b9091508190611709565b919091805f52600660205260405f20835167ffffffffffffffff811161122b576117668161176084546112d1565b846116e3565b6020601f82116001146117d2578160209493926117bb927ff8e1a15aba9398e019f0b49df1a4fde98ee17ae345cb5f6b5e2c27f5033e8ce797985f926117c7575b50508160011b915f199060031b1c19161790565b90555b604051908152a1565b015190505f806117a7565b601f19821695835f52815f20965f5b818110611842575096600192849260209796957ff8e1a15aba9398e019f0b49df1a4fde98ee17ae345cb5f6b5e2c27f5033e8ce7999a1061182a575b505050811b0190556117be565b01515f1960f88460031b161c191690555f808061181d565b838301518955600190980197602093840193016117e1565b906009545f19811461074f5760010190816009558160209160405161187f848261123f565b5f8152331561073c576001600160a01b0361189a86336119c3565b16610710576118ab90853333611cf5565b84516119b4575b835f52600b835260405f206001600160a01b0333166001600160a01b031982541617905560405133848201528381526118ec60408261123f565b847f2c149ed548c6d2993cd73efe187df6eccabe4538091b33adbd25fafdb8a1468b611935600b6040516a1859d95b9d15d85b1b195d60aa1b8152209360405191829182611603565b0390a35f5b606051811015611973578061196d611955600193606061164e565b51518661196384606061164e565b5101519088611b20565b0161193a565b509290936119af7fca52e62c367d81bb2e328eb795f7c7ba24afb478408a26c0e201d155c449bc4a916040519182918683523396830190611157565b0390a3565b6119be8585611732565b6118b2565b9190805f5260026020526001600160a01b0360405f205416906001600160a01b038215159485611ae9575b169384611ad1575b815f52600260205260405f20856001600160a01b0319825416179055604051928286827fddf252ad1be2c89b69c2b068fc378daa952ba7f163c4a11628f55a4df523b3ef5f80a4809582611ac6575b5050611a4f575050565b805f52600b60205260405f206001600160a01b031981541690555f602083015260208252611a7e60408361123f565b7f2c149ed548c6d2993cd73efe187df6eccabe4538091b33adbd25fafdb8a1468b6119af600b6040516a1859d95b9d15d85b1b195d60aa1b8152209360405191829182611603565b141590505f80611a45565b845f52600360205260405f20600181540190556119f6565b611b08835f52600460205260405f206001600160a01b03198154169055565b835f52600360205260405f205f1981540190556119ee565b9291909283519360208101948520604090611b99600b60208451611b44868261123f565b828152016a1859d95b9d15d85b1b195d60aa1b815220821415835190611b6a858361123f565b600182527f3400000000000000000000000000000000000000000000000000000000000000602083015261155e565b835f52600a602052815f20905f52602052805f209584519667ffffffffffffffff881161122b57611bd488611bce83546112d1565b836116e3565b602097601f8111600114611c6d5790611c2b826119af94937f2c149ed548c6d2993cd73efe187df6eccabe4538091b33adbd25fafdb8a1468b98999a9b5f91611c62575b508160011b915f199060031b1c19161790565b90555b8251809185518091835e81015f815203902095611c548351948486958652850190611157565b908382036020850152611157565b90508a01515f611c18565b601f198116825f52895f20905f5b818110611cdd5750916001917f2c149ed548c6d2993cd73efe187df6eccabe4538091b33adbd25fafdb8a1468b98999a9b826119af97969510611cc5575b5050811b019055611c2e565b8b01515f1960f88460031b161c191690555f80611cb9565b898c0151835560209b8c019b60019093019201611c7b565b90803b611d03575b50505050565b602091611d496001600160a01b03809316956040519586948594630a85bd0160e11b86521660048501525f60248501526044840152608060648401526084830190611157565b03815f865af15f9181611de0575b50611dac57503d15611da5573d611d6d81611261565b90611d7b604051928361123f565b81523d5f602083013e5b80519081611da05782633250574960e11b5f5260045260245ffd5b602001fd5b6060611d85565b6001600160e01b0319630a85bd0160e11b911603611dce57505f808080611cfd565b633250574960e11b5f5260045260245ffd5b611dfa91925060203d602011610d6657610d58818361123f565b905f611d57565b93909293823b611e13575b5050505050565b611e5a6001600160a01b0392836020951696846040519788968796630a85bd0160e11b88521660048701521660248501526044840152608060648401526084830190611157565b03815f865af15f9181611ea1575b50611e7e57503d15611da5573d611d6d81611261565b6001600160e01b0319630a85bd0160e11b911603611dce57505f80808080611e0c565b611ebb91925060203d602011610d6657610d58818361123f565b905f611e68565b906001600160a01b03169081151580611f2e575b15611ee057505050565b6001600160a01b0316611f005750637e27328960e01b5f5260045260245ffd5b7f177e802f000000000000000000000000000000000000000000000000000000005f5260045260245260445ffd5b506001600160a01b038116828114908115611f68575b5080611ed65750825f526004602052816001600160a01b0360405f20541614611ed6565b90505f52600560205260405f20825f5260205260ff60405f2054165f611f44565b6001600160a01b037f00000000000000000000000000000000000000000000000000000000000000001630148061207c575b15611fe4577f000000000000000000000000000000000000000000000000000000000000000090565b60405160208101907f8b73c3c69bb8fe3d512ecc4cf759cc79239f7b179b0ffacaa9a75d522b39400f82527f000000000000000000000000000000000000000000000000000000000000000060408201527f000000000000000000000000000000000000000000000000000000000000000060608201524660808201523060a082015260a0815261207660c08261123f565b51902090565b507f00000000000000000000000000000000000000000000000000000000000000004614611fbb565b81519190604183036120d5576120ce9250602082015190606060408401519301515f1a90612247565b9192909190565b50505f9160029190565b600481101561218a57806120f1575050565b60018103612121577ff645eedf000000000000000000000000000000000000000000000000000000005f5260045ffd5b6002810361215557507ffce698f7000000000000000000000000000000000000000000000000000000005f5260045260245ffd5b60031461215f5750565b7fd78bce0c000000000000000000000000000000000000000000000000000000005f5260045260245ffd5b634e487b7160e01b5f52602160045260245ffd5b60ff81146121fd5760ff811690601f82116121d557604051916121c260408461123f565b6020808452838101919036833783525290565b7fb3512b0c000000000000000000000000000000000000000000000000000000005f5260045ffd5b506040516112ce8161022f816007611309565b60ff81146122345760ff811690601f82116121d557604051916121c260408461123f565b506040516112ce8161022f816008611309565b91907f7fffffffffffffffffffffffffffffff5d576e7357a4501ddfe92f46681b20a084116122c9579160209360809260ff5f9560405194855216868401526040830152606082015282805260015afa156122be575f516001600160a01b038116156122b457905f905f90565b505f906001905f90565b6040513d5f823e3d90fd5b5050505f916003919056fea26469706673582212202e68538734a66b0e076fe2c122930d2bbc1b9929dcf385b254ad0ca09b0ecd6a64736f6c634300081c0033",
  "linkReferences": {},
  "deployedLinkReferences": {}
}