{
  "_format": "hh-sol-artifact-1",
  "contractName": "OneTimeTransaction",
  "sourceName": "contracts/transactions/OneTimeTransaction.sol",
  "abi": [
    {
      "inputs": [
        {
          "internalType": "contract IReceipt",
          "name": "receipt_",
          "type": "address"
        }
      ],
      "stateMutability": "nonpayable",
      "type": "constructor"
    },
    {
      "inputs": [
        {
          "internalType": "address",
          "name": "owner",
          "type": "address"
        }
      ],
      "name": "OwnableInvalidOwner",
      "type": "error"
    },
    {
      "inputs": [
        {
          "internalType": "address",
          "name": "account",
          "type": "address"
        }
      ],
      "name": "OwnableUnauthorizedAccount",
      "type": "error"
    },
    {
      "anonymous": false,
      "inputs": [
        {
          "indexed": true,
          "internalType": "address",
          "name": "previousOwner",
          "type": "address"
        },
        {
          "indexed": true,
          "internalType": "address",
          "name": "newOwner",
          "type": "address"
        }
      ],
      "name": "OwnershipTransferred",
      "type": "event"
    },
    {
      "inputs": [
        {
          "internalType": "address",
          "name": "payer",
          "type": "address"
        },
        {
          "components": [
            {
              "internalType": "address[]",
              "name": "payers",
              "type": "address[]"
            },
            {
              "internalType": "address",
              "name": "merchant",
              "type": "address"
            },
            {
              "internalType": "uint256[]",
              "name": "amounts",
              "type": "uint256[]"
            },
            {
              "internalType": "address",
              "name": "token",
              "type": "address"
            },
            {
              "internalType": "string",
              "name": "description",
              "type": "string"
            },
            {
              "components": [
                {
                  "internalType": "uint8",
                  "name": "schemaVersion",
                  "type": "uint8"
                },
                {
                  "internalType": "string",
                  "name": "value",
                  "type": "string"
                }
              ],
              "internalType": "struct Types.Metadata",
              "name": "metadata",
              "type": "tuple"
            }
          ],
          "internalType": "struct Params.CreateOneTimeTransaction",
          "name": "params",
          "type": "tuple"
        }
      ],
      "name": "create",
      "outputs": [
        {
          "internalType": "bytes32",
          "name": "transactionId",
          "type": "bytes32"
        }
      ],
      "stateMutability": "nonpayable",
      "type": "function"
    },
    {
      "inputs": [
        {
          "internalType": "bytes32",
          "name": "transactionId",
          "type": "bytes32"
        }
      ],
      "name": "getStatus",
      "outputs": [
        {
          "internalType": "enum Enums.TransactionStatus",
          "name": "",
          "type": "uint8"
        }
      ],
      "stateMutability": "view",
      "type": "function"
    },
    {
      "inputs": [
        {
          "internalType": "bytes32",
          "name": "transactionId",
          "type": "bytes32"
        }
      ],
      "name": "getTransaction",
      "outputs": [
        {
          "components": [
            {
              "internalType": "address",
              "name": "payer",
              "type": "address"
            },
            {
              "internalType": "address[]",
              "name": "payers",
              "type": "address[]"
            },
            {
              "internalType": "address",
              "name": "merchant",
              "type": "address"
            },
            {
              "internalType": "uint256[]",
              "name": "amounts",
              "type": "uint256[]"
            },
            {
              "internalType": "bool[]",
              "name": "fulfillments",
              "type": "bool[]"
            },
            {
              "internalType": "address",
              "name": "token",
              "type": "address"
            },
            {
              "internalType": "uint256[]",
              "name": "timestamps",
              "type": "uint256[]"
            },
            {
              "internalType": "string",
              "name": "description",
              "type": "string"
            },
            {
              "components": [
                {
                  "internalType": "uint8",
                  "name": "schemaVersion",
                  "type": "uint8"
                },
                {
                  "internalType": "string",
                  "name": "value",
                  "type": "string"
                }
              ],
              "internalType": "struct Types.Metadata",
              "name": "metadata",
              "type": "tuple"
            },
            {
              "internalType": "enum Enums.TransactionStatus",
              "name": "status",
              "type": "uint8"
            }
          ],
          "internalType": "struct Types.OneTimeTransaction",
          "name": "",
          "type": "tuple"
        }
      ],
      "stateMutability": "view",
      "type": "function"
    },
    {
      "inputs": [
        {
          "components": [
            {
              "internalType": "address",
              "name": "to",
              "type": "address"
            },
            {
              "internalType": "bytes32",
              "name": "transactionId",
              "type": "bytes32"
            },
            {
              "internalType": "string",
              "name": "URI",
              "type": "string"
            }
          ],
          "internalType": "struct Params.MintReceipt",
          "name": "params",
          "type": "tuple"
        }
      ],
      "name": "mintReceipt",
      "outputs": [],
      "stateMutability": "nonpayable",
      "type": "function"
    },
    {
      "inputs": [
        {
          "internalType": "bytes32",
          "name": "transactionId",
          "type": "bytes32"
        }
      ],
      "name": "onComplete",
      "outputs": [],
      "stateMutability": "nonpayable",
      "type": "function"
    },
    {
      "inputs": [
        {
          "internalType": "bytes32",
          "name": "transactionId",
          "type": "bytes32"
        },
        {
          "internalType": "address",
          "name": "payer",
          "type": "address"
        }
      ],
      "name": "onFulfill",
      "outputs": [
        {
          "internalType": "bool",
          "name": "completed",
          "type": "bool"
        },
        {
          "internalType": "uint256",
          "name": "amount",
          "type": "uint256"
        }
      ],
      "stateMutability": "nonpayable",
      "type": "function"
    },
    {
      "inputs": [],
      "name": "owner",
      "outputs": [
        {
          "internalType": "address",
          "name": "",
          "type": "address"
        }
      ],
      "stateMutability": "view",
      "type": "function"
    },
    {
      "inputs": [],
      "name": "renounceOwnership",
      "outputs": [],
      "stateMutability": "nonpayable",
      "type": "function"
    },
    {
      "inputs": [
        {
          "internalType": "address",
          "name": "newOwner",
          "type": "address"
        }
      ],
      "name": "transferOwnership",
      "outputs": [],
      "stateMutability": "nonpayable",
      "type": "function"
    }
  ],
  "bytecode": "0x60803460cd57601f611df938819003918201601f19168301916001600160401b0383118484101760d15780849260209460405283398101031260cd57516001600160a01b0381169081900360cd57331560ba575f8054336001600160a01b0319821681178355604051939290916001600160a01b0316907f8be0079c531659141344cd1fd0a4f28419497f9722a3daafe3b4186f6b6457e09080a3600180546001600160a01b031916919091179055611d1390816100e68239f35b631e4fbdf760e01b5f525f60045260245ffd5b5f80fd5b634e487b7160e01b5f52604160045260245ffdfe60806040526004361015610011575f80fd5b5f5f3560e01c806305543f851461118f5780632d926e4614610fd95780634aae13ca14610cca5780635de28ae014610c9357806365b68b6f14610366578063715018a61461030f5780638da5cb5b146102ea578063eb70fc281461011d5763f2fde38b1461007d575f80fd5b3461011a57602036600319011261011a576001600160a01b0361009e61125a565b6100a6611bfd565b1680156100ee576001600160a01b038254826001600160a01b03198216178455167f8be0079c531659141344cd1fd0a4f28419497f9722a3daafe3b4186f6b6457e08380a380f35b6024827f1e4fbdf700000000000000000000000000000000000000000000000000000000815280600452fd5b80fd5b50346102be5760203660031901126102be5760043567ffffffffffffffff81116102be57606060031982360301126102be576040516060810181811067ffffffffffffffff8211176102d65760405261017882600401611270565b815260208101916024810135835260448101359067ffffffffffffffff82116102be5760046101aa923692010161135b565b916040820192835280515f52600360205260ff600a60405f206101cd3382611c3c565b5001541660048110156102c25761021f906002604051916101ef604084611321565b600383527f31303600000000000000000000000000000000000000000000000000000000006020840152146113ec565b6001600160a01b0360015416803b156102be576001600160a01b035f8094610293604051978896879586947fcab723650000000000000000000000000000000000000000000000000000000086526020600487015251166024850152516044840152516060606484015260848301906112b7565b03925af180156102b3576102a5575080f35b6102b191505f90611321565b005b6040513d5f823e3d90fd5b5f80fd5b634e487b7160e01b5f52602160045260245ffd5b634e487b7160e01b5f52604160045260245ffd5b346102be575f3660031901126102be5760206001600160a01b035f5416604051908152f35b346102be575f3660031901126102be57610327611bfd565b5f6001600160a01b0381546001600160a01b031981168355167f8be0079c531659141344cd1fd0a4f28419497f9722a3daafe3b4186f6b6457e08280a3005b346102be5760403660031901126102be5761037f61125a565b60243567ffffffffffffffff81116102be5760c060031982360301126102be5760405160c0810181811067ffffffffffffffff8211176102d657604052816004013567ffffffffffffffff81116102be578201366023820112156102be576004810135906103ec82611343565b916103fa6040519384611321565b808352602060048185019260051b84010101913683116102be57602401905b828210610c7b57505050815261043160248301611270565b9260208201938452604483013567ffffffffffffffff81116102be578301366023820112156102be5760048101359061046982611343565b916104776040519384611321565b808352602060048185019260051b84010101913683116102be57602401905b828210610c6b57505050604083019081526104b360648501611270565b9360608401948552608481013567ffffffffffffffff81116102be576104df906004369184010161135b565b906080850191825260a48101359067ffffffffffffffff82116102be570190604060031983360301126102be576040519161051983611305565b600481013560ff811681036102be57835260248101359067ffffffffffffffff82116102be57600461054e923692010161135b565b602083015260a08501918252610562611bfd565b6002549460018601809611610c57576106c796866002556001600160a01b03825199511694516001600160a01b038a519261059c84611343565b936105aa6040519586611321565b8085526105b9601f1991611343565b013660208601375116925151936105cf85611343565b946105dd6040519687611321565b8086526105ec601f1991611343565b01366020870137519451956001600160a01b036040519861060c8a6112e8565b168852602088019a8b5260408801908152606088019182526080880192835260a0880193845260c0880194855260e08801958652610100880196875261012088019a60018c52602060409a8b8051916106658284611321565b601283527f4f6e6554696d655472616e73616374696f6e00000000000000000000000000008484015281519e8f9384937f20bed604000000000000000000000000000000000000000000000000000000008552600485015260448401906112b7565b906024830152038173__$e8a316a189340483dbc2c3c1eb5060a774$__5af49a8b15610c4d575f9b610c19575b508a5f5260036020526001600160a01b03808b5f209a5116166001600160a01b03198a54161789556001890190519081519167ffffffffffffffff83116102d6576801000000000000000083116102d65760209061075784845481865585611bdc565b01905f5260205f205f5b838110610bfc57505050506001600160a01b039051166001600160a01b036002890191166001600160a01b03198254161790556003870190519081519167ffffffffffffffff83116102d6576801000000000000000083116102d6576020906107cf84845481865585611bdc565b01905f5260205f205f5b838110610be8575050505060048601905180519067ffffffffffffffff82116102d6576801000000000000000082116102d6576020908354838555808410610b9e575b5001915f5260205f208160051c915f5b838110610b595750601f198116900380610b09575b505050506001600160a01b039051166001600160a01b036005860191166001600160a01b03198254161790556006840190519081519167ffffffffffffffff83116102d6576801000000000000000083116102d6576020906108a884845481865585611bdc565b01905f5260205f205f5b838110610af5575050505060078301905180519067ffffffffffffffff82116102d65781906108e18454611af0565b601f8111610ac5575b50602090601f8311600114610a62575f92610a57575b50508160011b915f199060031b1c19161790555b6008820190519060ff82511660ff1982541617905560206009830191015180519067ffffffffffffffff82116102d65761094e8354611af0565b601f8111610a1c575b50602090601f83116001146109b557600a949392915f91836109aa575b50508160011b915f199060031b1c19161790555b0192519260048410156102c25760209360ff8019835416911617905551908152f35b015190508880610974565b90601f19831691845f52815f20925f5b818110610a045750916001939185600a98979694106109ec575b505050811b019055610988565b01515f1960f88460031b161c191690558880806109df565b929360206001819287860151815501950193016109c5565b610a4790845f5260205f20601f850160051c81019160208610610a4d575b601f0160051c0190611bc6565b87610957565b9091508190610a3a565b015190508880610900565b5f8581528281209350601f198516905b818110610aad5750908460019594939210610a95575b505050811b019055610914565b01515f1960f88460031b161c19169055888080610a88565b92936020600181928786015181550195019301610a72565b610aef90855f5260205f20601f850160051c81019160208610610a4d57601f0160051c0190611bc6565b896108ea565b6001906020845194019381840155016108b2565b925f935f5b818110610b2a5750505001556001600160a01b03898080610841565b9091946020610b4f6001928489511515919060ff809160031b9316831b921b19161790565b9601929101610b0e565b5f5f5b60208110610b7157508382015560010161082c565b95906020610b956001928985511515919060ff809160031b9316831b921b19161790565b92019601610b5c565b610bc890855f52835f20601f80870160051c82019281881680610bce575b500160051c0190611bc6565b8c61081c565b5f198501908154905f19908a0360031b1c1690555f610bbc565b6001906020845194019381840155016107d9565b60019060206001600160a01b038551169401938184015501610761565b909a506020813d602011610c45575b81610c3560209383611321565b810103126102be5751998c6106f4565b3d9150610c28565b8a513d5f823e3d90fd5b634e487b7160e01b5f52601160045260245ffd5b8135815260209182019101610496565b60208091610c8884611270565b815201910190610419565b346102be5760203660031901126102be576004355f526003602052602060ff600a60405f20015416610cc860405180926112db565bf35b346102be5760203660031901126102be575f610120604051610ceb816112e8565b82815260606020820152826040820152606080820152606060808201528260a0820152606060c0820152606060e0820152604051610d2881611305565b8381526060602082015261010082015201526004355f52600360205260405f2060405190610d55826112e8565b6001600160a01b0381541682526001810190604051808360208295549384815201905f5260205f20925f5b818110610fb7575050610d9592500383611321565b602083019182526001600160a01b036002820154169060408401918252610dbe60038201611aa6565b6060850190815260405194610de186610dda816004870161144e565b0387611321565b608081019586526001600160a01b0360058401541660a08201908152610e0960068501611aa6565b9160c08101928352610e1d60078601611b28565b9360e0820194855260ff600a60405197610e3689611305565b826008820154168952610e4b60098201611b28565b60208a015261010085019889520154169661012083019760048110156102c25788526040519860208a526001600160a01b036101608b0194511660208b0152519261014060408b0152835180915260206101808b019401905f5b818110610f9857505090516001600160a01b031660608a01525051878203601f19016080890152610ed69190611284565b965196601f198782030160a0880152602080895192838152019801905f5b818110610f80575050506020610f49610f6f94610f35899a610f7c98966001600160a01b03604097511660c08d015251601f198c83030160e08d0152611284565b9051898203601f19016101008b01526112b7565b9251601f198885030161012089015260ff815116845201519181602082015201906112b7565b91516101408401906112db565b0390f35b825115158a526020998a019990920191600101610ef4565b82516001600160a01b0316865260209586019590920191600101610ea5565b84546001600160a01b0316835260019485019487945060209093019201610d80565b346102be5760403660031901126102be576024356001600160a01b03811681036102be57611005611bfd565b6004355f52600360205260405f209060ff600a830154169060048210156102c25761103e6110449260016110376113b1565b91146113ec565b82611c3c565b906111056004820192602060ff61105b8387611a5f565b90549060031b1c1615946110a66040968751906110788983611321565b600182527f3400000000000000000000000000000000000000000000000000000000000000858301526113ec565b6110b38360068701611a91565b81549060031b9042821b915f19901b19161790556110d18382611a5f565b81549060031b9060ff6001831b921b191617905585518094819263be26ece960e01b8352846004840152602483019061144e565b038173__$87180faec4dba5ff01f16b425dda1042d6$__5af4918215611185575f9261114f575b50600361113a929301611a91565b90549060031b1c825191151582526020820152f35b61113a925061117760039160203d60201161117e575b61116f8183611321565b810190611436565b925061112c565b503d611165565b84513d5f823e3d90fd5b346102be5760203660031901126102be576111a8611bfd565b6004355f52600360205260405f20600a81019060ff82541660048110156102c257611201916111dd60209260016110376113b1565b6040518093819263be26ece960e01b8352846004840152600460248401910161144e565b038173__$87180faec4dba5ff01f16b425dda1042d6$__5af49081156102b3575f9161123b575b50156102be57805460ff19166002179055005b611254915060203d60201161117e5761116f8183611321565b82611228565b600435906001600160a01b03821682036102be57565b35906001600160a01b03821682036102be57565b90602080835192838152019201905f5b8181106112a15750505090565b8251845260209384019390920191600101611294565b805180835260209291819084018484015e5f828201840152601f01601f1916010190565b9060048210156102c25752565b610140810190811067ffffffffffffffff8211176102d657604052565b6040810190811067ffffffffffffffff8211176102d657604052565b90601f8019910116810190811067ffffffffffffffff8211176102d657604052565b67ffffffffffffffff81116102d65760051b60200190565b81601f820112156102be5780359067ffffffffffffffff82116102d65760405192611390601f8401601f191660200185611321565b828452602083830101116102be57815f926020809301838601378301015290565b604051906113c0604083611321565b600382527f31303300000000000000000000000000000000000000000000000000000000006020830152565b156113f45750565b611432906040519182917f08c379a00000000000000000000000000000000000000000000000000000000083526020600484015260248301906112b7565b0390fd5b908160209103126102be575180151581036102be5790565b80548083525f91825260208083209301925b81601f84011061187d575491818110611867575b81811061184e575b818110611835575b81811061181c575b818110611804575b8181106117eb575b8181106117d2575b8181106117b9575b8181106117a0575b818110611787575b81811061176e575b818110611755575b81811061173c575b818110611723575b81811061170a575b8181106116f1575b8181106116d8575b8181106116bf575b8181106116a6575b81811061168d575b818110611674575b81811061165b575b818110611642575b818110611629575b818110611610575b8181106115f7575b8181106115de575b8181106115c5575b8181106115ac575b818110611593575b81811061157a575b1061156d575090565b60f81c1515815260200190565b92602060019160ff8560f01c1615158152019301611564565b92602060019160ff8560e81c161515815201930161155c565b92602060019160ff8560e01c1615158152019301611554565b92602060019160ff8560d81c161515815201930161154c565b92602060019160ff8560d01c1615158152019301611544565b92602060019160ff8560c81c161515815201930161153c565b92602060019160ff8560c01c1615158152019301611534565b92602060019160ff8560b81c161515815201930161152c565b92602060019160ff8560b01c1615158152019301611524565b92602060019160ff8560a81c161515815201930161151c565b92602060019160ff8560a01c1615158152019301611514565b92602060019160ff8560981c161515815201930161150c565b92602060019160ff8560901c1615158152019301611504565b92602060019160ff8560881c16151581520193016114fc565b92602060019160ff8560801c16151581520193016114f4565b92602060019160ff8560781c16151581520193016114ec565b92602060019160ff8560701c16151581520193016114e4565b92602060019160ff8560681c16151581520193016114dc565b92602060019160ff8560601c16151581520193016114d4565b92602060019160ff8560581c16151581520193016114cc565b92602060019160ff8560501c16151581520193016114c4565b92602060019160ff8560481c16151581520193016114bc565b92602060019160ff8560401c16151581520193016114b4565b92602060019160ff8560381c16151581520193016114ac565b92602060019160ff8560301c16151581520193016114a4565b92602060019160ff8560281c161515815201930161149c565b92602060019160ff85831c1615158152019301611494565b92602060019160ff8560181c161515815201930161148c565b92602060019160ff8560101c1615158152019301611484565b92602060019160ff8560081c161515815201930161147c565b92602060019160ff851615158152019301611474565b926001610400602092865460ff81161515825260ff8160081c1615158583015260ff8160101c161515604083015260ff8160181c161515606083015260ff81861c161515608083015260ff8160281c16151560a083015260ff8160301c16151560c083015260ff8160381c16151560e083015260ff8160401c16151561010083015260ff8160481c16151561012083015260ff8160501c16151561014083015260ff8160581c16151561016083015260ff8160601c16151561018083015260ff8160681c1615156101a083015260ff8160701c1615156101c083015260ff8160781c1615156101e083015260ff8160801c16151561020083015260ff8160881c16151561022083015260ff8160901c16151561024083015260ff8160981c16151561026083015260ff8160a01c16151561028083015260ff8160a81c1615156102a083015260ff8160b01c1615156102c083015260ff8160b81c1615156102e083015260ff8160c01c16151561030083015260ff8160c81c16151561032083015260ff8160d01c16151561034083015260ff8160d81c16151561036083015260ff8160e01c16151561038083015260ff8160e81c1615156103a083015260ff8160f01c1615156103c083015260f81c15156103e0820152019401920191611460565b9190918054831015611a7d575f52601f60205f208360051c01921690565b634e487b7160e01b5f52603260045260245ffd5b8054821015611a7d575f5260205f2001905f90565b90604051918281549182825260208201905f5260205f20925f5b818110611ad7575050611ad592500383611321565b565b8454835260019485019487945060209093019201611ac0565b90600182811c92168015611b1e575b6020831014611b0a57565b634e487b7160e01b5f52602260045260245ffd5b91607f1691611aff565b9060405191825f825492611b3b84611af0565b8084529360018116908115611ba45750600114611b60575b50611ad592500383611321565b90505f9291925260205f20905f915b818310611b88575050906020611ad5928201015f611b53565b6020919350806001915483858901015201910190918492611b6f565b905060209250611ad594915060ff191682840152151560051b8201015f611b53565b818110611bd1575050565b5f8155600101611bc6565b91818110611be957505050565b611ad5925f5260205f209182019101611bc6565b6001600160a01b035f54163303611c1057565b7f118cdaa7000000000000000000000000000000000000000000000000000000005f523360045260245ffd5b60010180545f928392835b838110611c98575b50505050611c959060405190611c66604083611321565b600382527f313034000000000000000000000000000000000000000000000000000000000060208301526113ec565b90565b6001600160a01b03611caa8284611a91565b90549060031b1c166001600160a01b03841614611cc957600101611c47565b945050505050611c956001905f8080611c4f56fea2646970667358221220c35fab088aaa766d60b90ddff0931a98c431e7a451f21a04214b090a9087a9ae64736f6c634300081c0033",
  "linkReferences": {
    "contracts/libs/BoolLib.sol": {
      "BoolLib": [
        {
          "length": 20,
          "start": 4591
        },
        {
          "length": 20,
          "start": 4843
        }
      ]
    },
    "contracts/libs/HashLib.sol": {
      "HashLib": [
        {
          "length": 20,
          "start": 1975
        }
      ]
    }
  },
  "deployedLinkReferences": {
    "contracts/libs/BoolLib.sol": {
      "BoolLib": [
        {
          "length": 20,
          "start": 4361
        },
        {
          "length": 20,
          "start": 4613
        }
      ]
    },
    "contracts/libs/HashLib.sol": {
      "HashLib": [
        {
          "length": 20,
          "start": 1745
        }
      ]
    }
  }
}