{
  "_format": "hh-sol-artifact-1",
  "contractName": "ReputationRegistry",
  "sourceName": "contracts/eip8004/ReputationRegistry.sol",
  "abi": [
    {
      "anonymous": false,
      "inputs": [
        {
          "indexed": true,
          "internalType": "uint256",
          "name": "agentId",
          "type": "uint256"
        },
        {
          "indexed": true,
          "internalType": "address",
          "name": "clientAddress",
          "type": "address"
        },
        {
          "indexed": true,
          "internalType": "uint64",
          "name": "feedbackIndex",
          "type": "uint64"
        }
      ],
      "name": "FeedbackRevoked",
      "type": "event"
    },
    {
      "anonymous": false,
      "inputs": [
        {
          "indexed": true,
          "internalType": "uint256",
          "name": "agentId",
          "type": "uint256"
        },
        {
          "indexed": true,
          "internalType": "address",
          "name": "clientAddress",
          "type": "address"
        },
        {
          "indexed": false,
          "internalType": "uint64",
          "name": "feedbackIndex",
          "type": "uint64"
        },
        {
          "indexed": false,
          "internalType": "int128",
          "name": "value",
          "type": "int128"
        },
        {
          "indexed": false,
          "internalType": "uint8",
          "name": "valueDecimals",
          "type": "uint8"
        },
        {
          "indexed": true,
          "internalType": "string",
          "name": "indexedTag1",
          "type": "string"
        },
        {
          "indexed": false,
          "internalType": "string",
          "name": "tag1",
          "type": "string"
        },
        {
          "indexed": false,
          "internalType": "string",
          "name": "tag2",
          "type": "string"
        },
        {
          "indexed": false,
          "internalType": "string",
          "name": "endpoint",
          "type": "string"
        },
        {
          "indexed": false,
          "internalType": "string",
          "name": "feedbackURI",
          "type": "string"
        },
        {
          "indexed": false,
          "internalType": "bytes32",
          "name": "feedbackHash",
          "type": "bytes32"
        }
      ],
      "name": "NewFeedback",
      "type": "event"
    },
    {
      "anonymous": false,
      "inputs": [
        {
          "indexed": true,
          "internalType": "uint256",
          "name": "agentId",
          "type": "uint256"
        },
        {
          "indexed": true,
          "internalType": "address",
          "name": "clientAddress",
          "type": "address"
        },
        {
          "indexed": false,
          "internalType": "uint64",
          "name": "feedbackIndex",
          "type": "uint64"
        },
        {
          "indexed": true,
          "internalType": "address",
          "name": "responder",
          "type": "address"
        },
        {
          "indexed": false,
          "internalType": "string",
          "name": "responseURI",
          "type": "string"
        },
        {
          "indexed": false,
          "internalType": "bytes32",
          "name": "responseHash",
          "type": "bytes32"
        }
      ],
      "name": "ResponseAppended",
      "type": "event"
    },
    {
      "inputs": [
        {
          "internalType": "uint256",
          "name": "agentId",
          "type": "uint256"
        },
        {
          "internalType": "address",
          "name": "clientAddress",
          "type": "address"
        },
        {
          "internalType": "uint64",
          "name": "feedbackIndex",
          "type": "uint64"
        },
        {
          "internalType": "string",
          "name": "responseURI",
          "type": "string"
        },
        {
          "internalType": "bytes32",
          "name": "responseHash",
          "type": "bytes32"
        }
      ],
      "name": "appendResponse",
      "outputs": [],
      "stateMutability": "nonpayable",
      "type": "function"
    },
    {
      "inputs": [
        {
          "internalType": "uint256",
          "name": "agentId",
          "type": "uint256"
        }
      ],
      "name": "getClients",
      "outputs": [
        {
          "internalType": "address[]",
          "name": "",
          "type": "address[]"
        }
      ],
      "stateMutability": "view",
      "type": "function"
    },
    {
      "inputs": [],
      "name": "getIdentityRegistry",
      "outputs": [
        {
          "internalType": "address",
          "name": "identityRegistry",
          "type": "address"
        }
      ],
      "stateMutability": "view",
      "type": "function"
    },
    {
      "inputs": [
        {
          "internalType": "uint256",
          "name": "agentId",
          "type": "uint256"
        },
        {
          "internalType": "address",
          "name": "clientAddress",
          "type": "address"
        }
      ],
      "name": "getLastIndex",
      "outputs": [
        {
          "internalType": "uint64",
          "name": "",
          "type": "uint64"
        }
      ],
      "stateMutability": "view",
      "type": "function"
    },
    {
      "inputs": [
        {
          "internalType": "uint256",
          "name": "",
          "type": "uint256"
        },
        {
          "internalType": "address",
          "name": "",
          "type": "address"
        },
        {
          "internalType": "uint64",
          "name": "",
          "type": "uint64"
        },
        {
          "internalType": "address[]",
          "name": "",
          "type": "address[]"
        }
      ],
      "name": "getResponseCount",
      "outputs": [
        {
          "internalType": "uint64",
          "name": "count",
          "type": "uint64"
        }
      ],
      "stateMutability": "pure",
      "type": "function"
    },
    {
      "inputs": [
        {
          "internalType": "uint256",
          "name": "agentId",
          "type": "uint256"
        },
        {
          "internalType": "address[]",
          "name": "clientAddresses",
          "type": "address[]"
        },
        {
          "internalType": "string",
          "name": "tag1",
          "type": "string"
        },
        {
          "internalType": "string",
          "name": "tag2",
          "type": "string"
        }
      ],
      "name": "getSummary",
      "outputs": [
        {
          "internalType": "uint64",
          "name": "count",
          "type": "uint64"
        },
        {
          "internalType": "int128",
          "name": "summaryValue",
          "type": "int128"
        },
        {
          "internalType": "uint8",
          "name": "summaryValueDecimals",
          "type": "uint8"
        }
      ],
      "stateMutability": "view",
      "type": "function"
    },
    {
      "inputs": [
        {
          "internalType": "uint256",
          "name": "agentId",
          "type": "uint256"
        },
        {
          "internalType": "int128",
          "name": "value",
          "type": "int128"
        },
        {
          "internalType": "uint8",
          "name": "valueDecimals",
          "type": "uint8"
        },
        {
          "internalType": "string",
          "name": "tag1",
          "type": "string"
        },
        {
          "internalType": "string",
          "name": "tag2",
          "type": "string"
        },
        {
          "internalType": "string",
          "name": "endpoint",
          "type": "string"
        },
        {
          "internalType": "string",
          "name": "feedbackURI",
          "type": "string"
        },
        {
          "internalType": "bytes32",
          "name": "feedbackHash",
          "type": "bytes32"
        }
      ],
      "name": "giveFeedback",
      "outputs": [],
      "stateMutability": "nonpayable",
      "type": "function"
    },
    {
      "inputs": [
        {
          "internalType": "address",
          "name": "identityRegistry_",
          "type": "address"
        }
      ],
      "name": "initialize",
      "outputs": [],
      "stateMutability": "nonpayable",
      "type": "function"
    },
    {
      "inputs": [
        {
          "internalType": "uint256",
          "name": "agentId",
          "type": "uint256"
        },
        {
          "internalType": "address[]",
          "name": "clientAddresses",
          "type": "address[]"
        },
        {
          "internalType": "string",
          "name": "tag1",
          "type": "string"
        },
        {
          "internalType": "string",
          "name": "tag2",
          "type": "string"
        },
        {
          "internalType": "bool",
          "name": "includeRevoked",
          "type": "bool"
        }
      ],
      "name": "readAllFeedback",
      "outputs": [
        {
          "internalType": "address[]",
          "name": "clients",
          "type": "address[]"
        },
        {
          "internalType": "uint64[]",
          "name": "feedbackIndexes",
          "type": "uint64[]"
        },
        {
          "internalType": "int128[]",
          "name": "values",
          "type": "int128[]"
        },
        {
          "internalType": "uint8[]",
          "name": "valueDecimals",
          "type": "uint8[]"
        },
        {
          "internalType": "string[]",
          "name": "tag1s",
          "type": "string[]"
        },
        {
          "internalType": "string[]",
          "name": "tag2s",
          "type": "string[]"
        },
        {
          "internalType": "bool[]",
          "name": "revokedStatuses",
          "type": "bool[]"
        }
      ],
      "stateMutability": "view",
      "type": "function"
    },
    {
      "inputs": [
        {
          "internalType": "uint256",
          "name": "agentId",
          "type": "uint256"
        },
        {
          "internalType": "address",
          "name": "clientAddress",
          "type": "address"
        },
        {
          "internalType": "uint64",
          "name": "feedbackIndex",
          "type": "uint64"
        }
      ],
      "name": "readFeedback",
      "outputs": [
        {
          "internalType": "int128",
          "name": "value",
          "type": "int128"
        },
        {
          "internalType": "uint8",
          "name": "valueDecimals",
          "type": "uint8"
        },
        {
          "internalType": "string",
          "name": "tag1",
          "type": "string"
        },
        {
          "internalType": "string",
          "name": "tag2",
          "type": "string"
        },
        {
          "internalType": "bool",
          "name": "isRevoked",
          "type": "bool"
        }
      ],
      "stateMutability": "view",
      "type": "function"
    },
    {
      "inputs": [
        {
          "internalType": "uint256",
          "name": "agentId",
          "type": "uint256"
        },
        {
          "internalType": "uint64",
          "name": "feedbackIndex",
          "type": "uint64"
        }
      ],
      "name": "revokeFeedback",
      "outputs": [],
      "stateMutability": "nonpayable",
      "type": "function"
    }
  ],
  "bytecode": "0x60808060405234601557611cd8908161001a8239f35b5f80fdfe6102606040526004361015610012575f80fd5b5f3560e01c8063232b08101461143c5780633c036a7e14610c7757806342dd519c14610bf25780634ab3ca9914610b185780636e04cacd14610ac957806381bbba5814610a1c578063bc4d861b146109f7578063c2349ab214610930578063c4d66de814610884578063d9d84224146100e65763f2d8175914610093575f80fd5b346100e25760403660031901126100e2576100ac611517565b6004355f5260016020526001600160a01b0360405f2091165f52602052602067ffffffffffffffff60405f205416604051908152f35b5f80fd5b346100e25760a03660031901126100e25760243567ffffffffffffffff81116100e2576101179036906004016115d2565b60443567ffffffffffffffff81116100e257610137903690600401611568565b60c05260e05260643567ffffffffffffffff81116100e25761015d903690600401611568565b61010052610120526084359182151583036100e257816108375750506004355f52600360205260405f2090815461019381611c05565b905f5b8181106108095750509091505b5f5f5b825181101561033b576004355f52600160205260405f206001600160a01b03806101d08487611c37565b5116165f5260205267ffffffffffffffff60405f20541660015b8167ffffffffffffffff821611156102065750506001016101a6565b926004959295949194355f52600260205260405f206001600160a01b038061022e8986611c37565b5116165f5260205260405f2067ffffffffffffffff85165f5260205260405f208315841561032d575b6102e95760c0511515806102f4575b6102e95761010051151590816102a3575b506102995761028861028e91611c4b565b936118c8565b9491949390936101ea565b9261028e906118c8565b600291506102c2906102bb6040518094819301611693565b0382611714565b602081519101206102da366101005161012051611815565b60208151910120141587610277565b509261028e906118c8565b50604051610309816102bb8160018601611693565b6020815191012061031f3660c05160e051611815565b602081519101201415610266565b5060ff600382015416610257565b506104369061034981611c05565b6101605261036961035982611bed565b6040516101e0526101e051611714565b806101e0515261037881611bed565b601f19013660206101e05101376103a161039182611bed565b6040516102205261022051611714565b8061022051526103b081611bed565b601f19013660206102205101376103d96103c982611bed565b6040516101a0526101a051611714565b806101a051526103e881611bed565b601f19013660206101a05101376103fe81611c59565b6101c05261040b81611c59565b6101405261042b61041b82611bed565b6040516102005261020051611714565b806102005152611bed565b601f19013660206102005101375f905f60a0525b805160a05110156106aa57906001600160a01b0361046a60a05184611c37565b5116610180526004355f52600160205260405f206001600160a01b0361018051165f5260205267ffffffffffffffff60405f2054166102405260016080525b6102405167ffffffffffffffff608051161161069b576004355f52600260205260405f206001600160a01b0361018051165f5260205260405f2067ffffffffffffffff608051165f5260205260405f208315841561068d575b6106125760c051151580610654575b6106125761010051151580610619575b610612579060ff60036105fc936101805161053f8561016051611c37565b5267ffffffffffffffff6080511661055a856101e051611c37565b5282815480600f0b61056f8761022051611c37565b5260801c16610581856101a051611c37565b52604051610596816102bb8160018601611693565b6105a3856101c051611c37565b526105b1846101c051611c37565b506040516105c6816102bb8160028601611693565b6105d38561014051611c37565b526105e18461014051611c37565b500154166105f28261020051611c37565b9015159052611c4b565b905b6106096080516118c8565b608052906104a9565b50906105fe565b5060405161062e816102bb8160028601611693565b60208151910120610646366101005161012051611815565b602081519101201415610521565b50604051610669816102bb8160018601611693565b6020815191012061067f3660c05160e051611815565b602081519101201415610511565b5060ff600382015416610502565b90600160a0510160a05261044a565b60405160e08152806106c260e0820161016051611596565b818103602083015260206101e0515191828152019060206101e05101905f5b8181106107e65750505081810360408301526020610220515191828152019060206102205101905f5b8181106107ca57505050818103606083015260206101a0515191828152019060206101a05101905f5b8181106107ae575050506107558183610766930360808501526101c051611603565b82810360a084015261014051611603565b81810360c08301526020610200515191828152019060206102005101905f5b818110610793575050500390f35b82511515845285945060209384019390920191600101610785565b825160ff16845285945060209384019390920191600101610733565b8251600f0b84528594506020938401939092019160010161070a565b825167ffffffffffffffff168452859450602093840193909201916001016106e1565b806001600160a01b0361081e6001938861185b565b90549060031b1c166108308286611c37565b5201610196565b61084082611c05565b915f5b818110610852575050506101a3565b8061086861086360019385876118a4565b6118b4565b6001600160a01b0361087a8388611c37565b9116905201610843565b346100e25760203660031901126100e2576004356001600160a01b0381168091036100e2577fffffffffffffffffffffffff00000000000000000000000000000000000000005f546109176040516108dd604082611714565b600181527f340000000000000000000000000000000000000000000000000000000000000060208201526001600160a01b03831615611736565b61092a610922611780565b841515611736565b16175f55005b346100e25760a03660031901126100e257610949611517565b61095161152d565b60643567ffffffffffffffff81116100e2576001600160a01b039267ffffffffffffffff6109866109c2933690600401611568565b959092169361099e610996611780565b861515611736565b16936109ab610996611780565b604051948552606060208601526060850191611884565b60843560408401527fb1c6be0b5b8aef6539e2fac0fd131a2faa7b49edf8e505b5eb0ad487d56051d4339380600435930390a4005b346100e2575f3660031901126100e25760206001600160a01b035f5416604051908152f35b346100e25760803660031901126100e25760243567ffffffffffffffff81116100e257610a4d9036906004016115d2565b60443567ffffffffffffffff81116100e257610a6d903690600401611568565b9290916064359167ffffffffffffffff83116100e25760609460ff94610a9a610aa5953690600401611568565b949093600435611926565b9067ffffffffffffffff60409493945194168452600f0b6020840152166040820152f35b346100e25760803660031901126100e257610ae2611517565b50610aeb61152d565b5060643567ffffffffffffffff81116100e257610b0c9036906004016115d2565b505060206040515f8152f35b346100e25760403660031901126100e2576004356024359067ffffffffffffffff82168092036100e257610b55610b4d611780565b831515611736565b805f52600260205260405f206001600160a01b0333165f5260205260405f20825f52602052600360405f20825f52600160205260405f206001600160a01b0333165f52602052610bbe67ffffffffffffffff60405f205416851115610bb8611780565b90611736565b01805460ff1916600117905533907f25156fd3288212246d8b008d5921fde376c71ed14ac2e072a506eb06fde6d09d5f80a4005b346100e25760203660031901126100e2576004355f52600360205260405f206040519081602082549182815201915f5260205f20905f5b818110610c5857610c5485610c4081870382611714565b604051918291602083526020830190611596565b0390f35b82546001600160a01b0316845260209093019260019283019201610c29565b346100e2576101003660031901126100e2576004356024359081600f0b8092036100e2576044359060ff82168092036100e25760643567ffffffffffffffff81116100e257610cca903690600401611568565b9060843567ffffffffffffffff81116100e257610ceb903690600401611568565b9060a43567ffffffffffffffff81116100e257610d0c903690600401611568565b91909260c43567ffffffffffffffff81116100e257610d2f903690600401611568565b9590966001600160a01b035f54169960409a610d838c610d5181519182611714565b600381527f35303000000000000000000000000000000000000000000000000000000000006020820152821515611736565b610d98610d8e611780565b6012841115611736565b8b517f6352211e0000000000000000000000000000000000000000000000000000000081528b6004820152602081602481855afa90811561143257906001600160a01b03915f91611413575b5016610dfa610df16117da565b82331415611736565b8c517f081812fc0000000000000000000000000000000000000000000000000000000081528c6004820152602081602481865afa908115611409578e610e62602094936044935f916113dc575b50610e506117da565b906001600160a01b0316331415611736565b51809481937fe985e9c500000000000000000000000000000000000000000000000000000000835260048301523360248301525afa80156113d2575f90611395575b610eb89150610eb16117da565b9015611736565b895f5260016020528a5f206001600160a01b0333165f52602052600167ffffffffffffffff8c5f205416019a67ffffffffffffffff8c11611381578a5f526001602052805f206001600160a01b0333165f5260205267ffffffffffffffff815f209c169b8c67ffffffffffffffff19825416179055805160a081019080821067ffffffffffffffff8311176111f9578e8d92845281528d60208201858152610f6136888a611815565b90858401918252610f73368b8d611815565b926060850193845260808501955f87525f526002602052865f206001600160a01b0333165f52602052865f20905f52602052855f209351907fffffffffffffffffffffffffffffff00000000000000000000000000000000006fffffffffffffffffffffffffffffffff70ff000000000000000000000000000000008754935160801b16931691161717835560018301905180519067ffffffffffffffff82116111f9578190611023845461165b565b601f8111611331575b50602090601f83116001146112ce575f926112c3575b50508160011b915f199060031b1c19161790555b518051600283019167ffffffffffffffff82116111f957611077835461165b565b601f811161127e575b50602090601f8311600114611218576003949392915f918361120d575b50508160011b915f1990861b1c19161790555b019051151560ff801983541691161790558a5f526004602052805f206001600160a01b0333165f5260205260ff815f20541615611186575b805183858237808481015f81520390209c81519c8d5260208d01528b015260608a0161010090526101008a019061111e92611884565b9088820360808a015261113092611884565b9086820360a088015261114292611884565b9084820360c086015261115492611884565b9160e43560e0820152803393037f6a4a61743519c9d648a14e6493f47dbe3ff1aa29e7785c96c8326a205e58febc91a4005b8a5f526004602052805f206001600160a01b0333165f52602052805f20600160ff198254161790558a5f526003602052805f208054680100000000000000008110156111f9576111db9160018201815561185b565b81549060031b906001600160a01b0333831b921b19161790556110e8565b634e487b7160e01b5f52604160045260245ffd5b015190505f8061109d565b90601f19831691845f52815f20925f5b81811061126657509160019391856003989796941061124f575b505050811b0190556110b0565b01515f1983881b60f8161c191690555f8080611242565b92936020600181928786015181550195019301611228565b835f5260205f20601f840160051c810191602085106112b9575b601f0160051c01905b8181106112ae5750611080565b5f81556001016112a1565b9091508190611298565b015190505f80611042565b5f8581528281209350601f198516905b8181106113195750908460019594939210611301575b505050811b019055611056565b01515f1960f88460031b161c191690555f80806112f4565b929360206001819287860151815501950193016112de565b909150835f5260205f20601f840160051c81019160208510611377575b90601f859493920160051c01905b818110611369575061102c565b5f815584935060010161135c565b909150819061134e565b634e487b7160e01b5f52601160045260245ffd5b506020813d6020116113ca575b816113af60209383611714565b810103126100e2575180151581036100e257610eb890610ea4565b3d91506113a2565b8c513d5f823e3d90fd5b6113fc9150863d8811611402575b6113f48183611714565b8101906117bb565b5f610e47565b503d6113ea565b8e513d5f823e3d90fd5b61142c915060203d602011611402576113f48183611714565b8f610de4565b8d513d5f823e3d90fd5b346100e25760603660031901126100e257611455611517565b61145d61152d565b906004355f5260026020526001600160a01b0360405f2091165f5260205267ffffffffffffffff60405f2091165f5260205260ff60405f2080549061150b60026114fd85600385015416936114d7604051916114c7836114c08160018501611693565b0384611714565b6114c06040518096819301611693565b60405196868897600f0b885260801c16602087015260a0604087015260a0860190611544565b908482036060860152611544565b90151560808301520390f35b602435906001600160a01b03821682036100e257565b6044359067ffffffffffffffff821682036100e257565b805180835260209291819084018484015e5f828201840152601f01601f1916010190565b9181601f840112156100e25782359167ffffffffffffffff83116100e257602083818601950101116100e257565b90602080835192838152019201905f5b8181106115b35750505090565b82516001600160a01b03168452602093840193909201916001016115a6565b9181601f840112156100e25782359167ffffffffffffffff83116100e2576020808501948460051b0101116100e257565b9080602083519182815201916020808360051b8301019401925f915b83831061162e57505050505090565b909192939460208061164c600193601f198682030187528951611544565b9701930193019193929061161f565b90600182811c92168015611689575b602083101461167557565b634e487b7160e01b5f52602260045260245ffd5b91607f169161166a565b5f92918154916116a28361165b565b80835292600181169081156116f757506001146116be57505050565b5f9081526020812093945091925b8383106116dd575060209250010190565b6001816020929493945483858701015201910191906116cc565b915050602093945060ff929192191683830152151560051b010190565b90601f8019910116810190811067ffffffffffffffff8211176111f957604052565b1561173e5750565b61177c906040519182917f08c379a0000000000000000000000000000000000000000000000000000000008352602060048401526024830190611544565b0390fd5b6040519061178f604083611714565b600182527f33000000000000000000000000000000000000000000000000000000000000006020830152565b908160209103126100e257516001600160a01b03811681036100e25790565b604051906117e9604083611714565b600182527f32000000000000000000000000000000000000000000000000000000000000006020830152565b92919267ffffffffffffffff82116111f9576040519161183f601f8201601f191660200184611714565b8294818452818301116100e2578281602093845f960137010152565b8054821015611870575f5260205f2001905f90565b634e487b7160e01b5f52603260045260245ffd5b908060209392818452848401375f828201840152601f01601f1916010190565b91908110156118705760051b0190565b356001600160a01b03811681036100e25790565b67ffffffffffffffff1667ffffffffffffffff81146113815760010190565b60ff16604d811161138157600a0a90565b811561191257600160ff1b81145f19831416611381570590565b634e487b7160e01b5f52601260045260245ffd5b92949093919695611940611938611780565b891515611736565b5f955f985f5b818110611a0e57505050505050505067ffffffffffffffff8316908115611a025790611971916118f8565b916f7fffffffffffffffffffffffffffffff831315806119d8575b6119ce906040519061199f604083611714565b600182527f36000000000000000000000000000000000000000000000000000000000000006020830152611736565b91600f0b90601290565b507fffffffffffffffffffffffffffffffff8000000000000000000000000000000083121561198c565b505f9250829160129150565b611a1c61086382848b6118a4565b875f52600160205260405f206001600160a01b0382165f5260205267ffffffffffffffff60405f2054166001600160a01b0360019216905b8067ffffffffffffffff84161115611a7157505050600101611946565b90919c9a895f52600260205260405f20835f526020528d67ffffffffffffffff60405f2091165f5260205260405f2060ff600382015416611b775789151580611bb8575b611b775787151580611b83575b611b77575460ff81600f0b9160801c16601281105f14611b425760120360ff811161138157611af0906118e7565b9081810291600160ff1b81145f83121661138157818305149015171561138157905b5f828201928312911290801582169115161761138157611b35611b3b919c6118c8565b9d6118c8565b9190611a54565b60128111611b52575b5090611b12565b601119019060ff821161138157611b6b611b71926118e7565b906118f8565b5f611b4b565b509a9c611b3b906118c8565b50604051611b98816102bb8160028601611693565b60208151910120611baa368a8c611815565b602081519101201415611ac2565b50604051611bcd816102bb8160018601611693565b60208151910120611bdf368c8a611815565b602081519101201415611ab5565b67ffffffffffffffff81116111f95760051b60200190565b90611c0f82611bed565b611c1c6040519182611714565b8281528092611c2d601f1991611bed565b0190602036910137565b80518210156118705760209160051b010190565b5f1981146113815760010190565b90611c6382611bed565b611c706040519182611714565b8281528092611c81601f1991611bed565b01905f5b828110611c9157505050565b806060602080938501015201611c8556fea2646970667358221220f16b26d7d87a5d68e36bbab02edcddc827f76908f162e4113c52781b9ba8beae64736f6c634300081c0033",
  "linkReferences": {},
  "deployedLinkReferences": {}
}