{
  "_format": "hh3-artifact-1",
  "contractName": "IdentityRegistry",
  "sourceName": "contracts/IdentityRegistry.sol",
  "abi": [
    {
      "inputs": [],
      "stateMutability": "nonpayable",
      "type": "constructor"
    },
    {
      "inputs": [],
      "name": "ECDSAInvalidSignature",
      "type": "error"
    },
    {
      "inputs": [
        {
          "internalType": "uint256",
          "name": "length",
          "type": "uint256"
        }
      ],
      "name": "ECDSAInvalidSignatureLength",
      "type": "error"
    },
    {
      "inputs": [
        {
          "internalType": "bytes32",
          "name": "s",
          "type": "bytes32"
        }
      ],
      "name": "ECDSAInvalidSignatureS",
      "type": "error"
    },
    {
      "inputs": [
        {
          "internalType": "address",
          "name": "sender",
          "type": "address"
        },
        {
          "internalType": "uint256",
          "name": "tokenId",
          "type": "uint256"
        },
        {
          "internalType": "address",
          "name": "owner",
          "type": "address"
        }
      ],
      "name": "ERC721IncorrectOwner",
      "type": "error"
    },
    {
      "inputs": [
        {
          "internalType": "address",
          "name": "operator",
          "type": "address"
        },
        {
          "internalType": "uint256",
          "name": "tokenId",
          "type": "uint256"
        }
      ],
      "name": "ERC721InsufficientApproval",
      "type": "error"
    },
    {
      "inputs": [
        {
          "internalType": "address",
          "name": "approver",
          "type": "address"
        }
      ],
      "name": "ERC721InvalidApprover",
      "type": "error"
    },
    {
      "inputs": [
        {
          "internalType": "address",
          "name": "operator",
          "type": "address"
        }
      ],
      "name": "ERC721InvalidOperator",
      "type": "error"
    },
    {
      "inputs": [
        {
          "internalType": "address",
          "name": "owner",
          "type": "address"
        }
      ],
      "name": "ERC721InvalidOwner",
      "type": "error"
    },
    {
      "inputs": [
        {
          "internalType": "address",
          "name": "receiver",
          "type": "address"
        }
      ],
      "name": "ERC721InvalidReceiver",
      "type": "error"
    },
    {
      "inputs": [
        {
          "internalType": "address",
          "name": "sender",
          "type": "address"
        }
      ],
      "name": "ERC721InvalidSender",
      "type": "error"
    },
    {
      "inputs": [
        {
          "internalType": "uint256",
          "name": "tokenId",
          "type": "uint256"
        }
      ],
      "name": "ERC721NonexistentToken",
      "type": "error"
    },
    {
      "inputs": [],
      "name": "FailedCall",
      "type": "error"
    },
    {
      "inputs": [
        {
          "internalType": "uint256",
          "name": "balance",
          "type": "uint256"
        },
        {
          "internalType": "uint256",
          "name": "needed",
          "type": "uint256"
        }
      ],
      "name": "InsufficientBalance",
      "type": "error"
    },
    {
      "inputs": [],
      "name": "InvalidShortString",
      "type": "error"
    },
    {
      "inputs": [
        {
          "internalType": "string",
          "name": "str",
          "type": "string"
        }
      ],
      "name": "StringTooLong",
      "type": "error"
    },
    {
      "anonymous": false,
      "inputs": [
        {
          "indexed": true,
          "internalType": "address",
          "name": "owner",
          "type": "address"
        },
        {
          "indexed": true,
          "internalType": "address",
          "name": "approved",
          "type": "address"
        },
        {
          "indexed": true,
          "internalType": "uint256",
          "name": "tokenId",
          "type": "uint256"
        }
      ],
      "name": "Approval",
      "type": "event"
    },
    {
      "anonymous": false,
      "inputs": [
        {
          "indexed": true,
          "internalType": "address",
          "name": "owner",
          "type": "address"
        },
        {
          "indexed": true,
          "internalType": "address",
          "name": "operator",
          "type": "address"
        },
        {
          "indexed": false,
          "internalType": "bool",
          "name": "approved",
          "type": "bool"
        }
      ],
      "name": "ApprovalForAll",
      "type": "event"
    },
    {
      "anonymous": false,
      "inputs": [
        {
          "indexed": false,
          "internalType": "uint256",
          "name": "_fromTokenId",
          "type": "uint256"
        },
        {
          "indexed": false,
          "internalType": "uint256",
          "name": "_toTokenId",
          "type": "uint256"
        }
      ],
      "name": "BatchMetadataUpdate",
      "type": "event"
    },
    {
      "anonymous": false,
      "inputs": [
        {
          "indexed": true,
          "internalType": "address",
          "name": "to",
          "type": "address"
        },
        {
          "indexed": true,
          "internalType": "uint256",
          "name": "sourceTokenId",
          "type": "uint256"
        },
        {
          "indexed": true,
          "internalType": "uint256",
          "name": "newTokenId",
          "type": "uint256"
        }
      ],
      "name": "Cloned",
      "type": "event"
    },
    {
      "anonymous": false,
      "inputs": [],
      "name": "EIP712DomainChanged",
      "type": "event"
    },
    {
      "anonymous": false,
      "inputs": [
        {
          "indexed": true,
          "internalType": "uint256",
          "name": "agentId",
          "type": "uint256"
        },
        {
          "indexed": false,
          "internalType": "uint256",
          "name": "feePerDay",
          "type": "uint256"
        }
      ],
      "name": "FeesSet",
      "type": "event"
    },
    {
      "anonymous": false,
      "inputs": [
        {
          "indexed": true,
          "internalType": "uint256",
          "name": "agentId",
          "type": "uint256"
        },
        {
          "indexed": true,
          "internalType": "string",
          "name": "indexedMetadataKey",
          "type": "string"
        },
        {
          "indexed": false,
          "internalType": "string",
          "name": "metadataKey",
          "type": "string"
        },
        {
          "indexed": false,
          "internalType": "bytes",
          "name": "metadataValue",
          "type": "bytes"
        }
      ],
      "name": "MetadataSet",
      "type": "event"
    },
    {
      "anonymous": false,
      "inputs": [
        {
          "indexed": false,
          "internalType": "uint256",
          "name": "_tokenId",
          "type": "uint256"
        }
      ],
      "name": "MetadataUpdate",
      "type": "event"
    },
    {
      "anonymous": false,
      "inputs": [
        {
          "indexed": true,
          "internalType": "uint256",
          "name": "agentId",
          "type": "uint256"
        },
        {
          "indexed": false,
          "internalType": "string",
          "name": "agentURI",
          "type": "string"
        },
        {
          "indexed": true,
          "internalType": "address",
          "name": "owner",
          "type": "address"
        }
      ],
      "name": "Registered",
      "type": "event"
    },
    {
      "anonymous": false,
      "inputs": [
        {
          "indexed": true,
          "internalType": "address",
          "name": "user",
          "type": "address"
        },
        {
          "indexed": true,
          "internalType": "uint256",
          "name": "agentId",
          "type": "uint256"
        },
        {
          "indexed": false,
          "internalType": "uint256",
          "name": "numDays",
          "type": "uint256"
        },
        {
          "indexed": false,
          "internalType": "uint256",
          "name": "amountPaid",
          "type": "uint256"
        }
      ],
      "name": "Subscribed",
      "type": "event"
    },
    {
      "anonymous": false,
      "inputs": [
        {
          "indexed": true,
          "internalType": "address",
          "name": "from",
          "type": "address"
        },
        {
          "indexed": true,
          "internalType": "address",
          "name": "to",
          "type": "address"
        },
        {
          "indexed": true,
          "internalType": "uint256",
          "name": "tokenId",
          "type": "uint256"
        }
      ],
      "name": "Transfer",
      "type": "event"
    },
    {
      "anonymous": false,
      "inputs": [
        {
          "indexed": true,
          "internalType": "address",
          "name": "from",
          "type": "address"
        },
        {
          "indexed": true,
          "internalType": "address",
          "name": "to",
          "type": "address"
        },
        {
          "indexed": true,
          "internalType": "uint256",
          "name": "tokenId",
          "type": "uint256"
        }
      ],
      "name": "Transferred",
      "type": "event"
    },
    {
      "anonymous": false,
      "inputs": [
        {
          "indexed": true,
          "internalType": "uint256",
          "name": "agentId",
          "type": "uint256"
        },
        {
          "indexed": false,
          "internalType": "string",
          "name": "newURI",
          "type": "string"
        },
        {
          "indexed": true,
          "internalType": "address",
          "name": "updatedBy",
          "type": "address"
        }
      ],
      "name": "URIUpdated",
      "type": "event"
    },
    {
      "anonymous": false,
      "inputs": [
        {
          "indexed": true,
          "internalType": "address",
          "name": "user",
          "type": "address"
        },
        {
          "indexed": true,
          "internalType": "uint256",
          "name": "agentId",
          "type": "uint256"
        },
        {
          "indexed": false,
          "internalType": "uint256",
          "name": "daysLeft",
          "type": "uint256"
        },
        {
          "indexed": false,
          "internalType": "uint256",
          "name": "refund",
          "type": "uint256"
        }
      ],
      "name": "Unsubscribed",
      "type": "event"
    },
    {
      "inputs": [
        {
          "internalType": "address",
          "name": "to",
          "type": "address"
        },
        {
          "internalType": "uint256",
          "name": "tokenId",
          "type": "uint256"
        }
      ],
      "name": "approve",
      "outputs": [],
      "stateMutability": "nonpayable",
      "type": "function"
    },
    {
      "inputs": [
        {
          "internalType": "uint256",
          "name": "tokenId",
          "type": "uint256"
        },
        {
          "internalType": "address",
          "name": "",
          "type": "address"
        },
        {
          "internalType": "bytes",
          "name": "",
          "type": "bytes"
        }
      ],
      "name": "authorizeUsage",
      "outputs": [],
      "stateMutability": "view",
      "type": "function"
    },
    {
      "inputs": [
        {
          "internalType": "address",
          "name": "owner",
          "type": "address"
        }
      ],
      "name": "balanceOf",
      "outputs": [
        {
          "internalType": "uint256",
          "name": "",
          "type": "uint256"
        }
      ],
      "stateMutability": "view",
      "type": "function"
    },
    {
      "inputs": [
        {
          "internalType": "address",
          "name": "to",
          "type": "address"
        },
        {
          "internalType": "uint256",
          "name": "tokenId",
          "type": "uint256"
        },
        {
          "internalType": "bytes",
          "name": "sealedKey",
          "type": "bytes"
        },
        {
          "internalType": "bytes",
          "name": "proof",
          "type": "bytes"
        }
      ],
      "name": "clone",
      "outputs": [
        {
          "internalType": "uint256",
          "name": "newTokenId",
          "type": "uint256"
        }
      ],
      "stateMutability": "nonpayable",
      "type": "function"
    },
    {
      "inputs": [],
      "name": "eip712Domain",
      "outputs": [
        {
          "internalType": "bytes1",
          "name": "fields",
          "type": "bytes1"
        },
        {
          "internalType": "string",
          "name": "name",
          "type": "string"
        },
        {
          "internalType": "string",
          "name": "version",
          "type": "string"
        },
        {
          "internalType": "uint256",
          "name": "chainId",
          "type": "uint256"
        },
        {
          "internalType": "address",
          "name": "verifyingContract",
          "type": "address"
        },
        {
          "internalType": "bytes32",
          "name": "salt",
          "type": "bytes32"
        },
        {
          "internalType": "uint256[]",
          "name": "extensions",
          "type": "uint256[]"
        }
      ],
      "stateMutability": "view",
      "type": "function"
    },
    {
      "inputs": [
        {
          "internalType": "uint256",
          "name": "agentId",
          "type": "uint256"
        }
      ],
      "name": "getAgentWallet",
      "outputs": [
        {
          "internalType": "address",
          "name": "",
          "type": "address"
        }
      ],
      "stateMutability": "view",
      "type": "function"
    },
    {
      "inputs": [
        {
          "internalType": "uint256",
          "name": "tokenId",
          "type": "uint256"
        }
      ],
      "name": "getApproved",
      "outputs": [
        {
          "internalType": "address",
          "name": "",
          "type": "address"
        }
      ],
      "stateMutability": "view",
      "type": "function"
    },
    {
      "inputs": [
        {
          "internalType": "uint256",
          "name": "agentId",
          "type": "uint256"
        }
      ],
      "name": "getFees",
      "outputs": [
        {
          "internalType": "uint256",
          "name": "feePerDay",
          "type": "uint256"
        }
      ],
      "stateMutability": "view",
      "type": "function"
    },
    {
      "inputs": [
        {
          "internalType": "uint256",
          "name": "agentId",
          "type": "uint256"
        },
        {
          "internalType": "string",
          "name": "metadataKey",
          "type": "string"
        }
      ],
      "name": "getMetadata",
      "outputs": [
        {
          "internalType": "bytes",
          "name": "",
          "type": "bytes"
        }
      ],
      "stateMutability": "view",
      "type": "function"
    },
    {
      "inputs": [
        {
          "internalType": "address",
          "name": "owner",
          "type": "address"
        },
        {
          "internalType": "address",
          "name": "operator",
          "type": "address"
        }
      ],
      "name": "isApprovedForAll",
      "outputs": [
        {
          "internalType": "bool",
          "name": "",
          "type": "bool"
        }
      ],
      "stateMutability": "view",
      "type": "function"
    },
    {
      "inputs": [],
      "name": "name",
      "outputs": [
        {
          "internalType": "string",
          "name": "",
          "type": "string"
        }
      ],
      "stateMutability": "view",
      "type": "function"
    },
    {
      "inputs": [
        {
          "internalType": "uint256",
          "name": "tokenId",
          "type": "uint256"
        }
      ],
      "name": "ownerOf",
      "outputs": [
        {
          "internalType": "address",
          "name": "",
          "type": "address"
        }
      ],
      "stateMutability": "view",
      "type": "function"
    },
    {
      "inputs": [],
      "name": "register",
      "outputs": [
        {
          "internalType": "uint256",
          "name": "agentId",
          "type": "uint256"
        }
      ],
      "stateMutability": "nonpayable",
      "type": "function"
    },
    {
      "inputs": [
        {
          "internalType": "string",
          "name": "agentURI",
          "type": "string"
        }
      ],
      "name": "register",
      "outputs": [
        {
          "internalType": "uint256",
          "name": "agentId",
          "type": "uint256"
        }
      ],
      "stateMutability": "nonpayable",
      "type": "function"
    },
    {
      "inputs": [
        {
          "internalType": "string",
          "name": "agentURI",
          "type": "string"
        },
        {
          "components": [
            {
              "internalType": "string",
              "name": "metadataKey",
              "type": "string"
            },
            {
              "internalType": "bytes",
              "name": "metadataValue",
              "type": "bytes"
            }
          ],
          "internalType": "struct IdentityRegistry.MetadataEntry[]",
          "name": "metadata",
          "type": "tuple[]"
        },
        {
          "internalType": "uint256",
          "name": "feesPerDay",
          "type": "uint256"
        }
      ],
      "name": "registerWithMetadataAndFees",
      "outputs": [
        {
          "internalType": "uint256",
          "name": "agentId",
          "type": "uint256"
        }
      ],
      "stateMutability": "nonpayable",
      "type": "function"
    },
    {
      "inputs": [
        {
          "internalType": "address",
          "name": "from",
          "type": "address"
        },
        {
          "internalType": "address",
          "name": "to",
          "type": "address"
        },
        {
          "internalType": "uint256",
          "name": "tokenId",
          "type": "uint256"
        }
      ],
      "name": "safeTransferFrom",
      "outputs": [],
      "stateMutability": "nonpayable",
      "type": "function"
    },
    {
      "inputs": [
        {
          "internalType": "address",
          "name": "from",
          "type": "address"
        },
        {
          "internalType": "address",
          "name": "to",
          "type": "address"
        },
        {
          "internalType": "uint256",
          "name": "tokenId",
          "type": "uint256"
        },
        {
          "internalType": "bytes",
          "name": "data",
          "type": "bytes"
        }
      ],
      "name": "safeTransferFrom",
      "outputs": [],
      "stateMutability": "nonpayable",
      "type": "function"
    },
    {
      "inputs": [
        {
          "internalType": "uint256",
          "name": "agentId",
          "type": "uint256"
        },
        {
          "internalType": "string",
          "name": "newURI",
          "type": "string"
        }
      ],
      "name": "setAgentURI",
      "outputs": [],
      "stateMutability": "nonpayable",
      "type": "function"
    },
    {
      "inputs": [
        {
          "internalType": "uint256",
          "name": "agentId",
          "type": "uint256"
        },
        {
          "internalType": "address",
          "name": "newWallet",
          "type": "address"
        },
        {
          "internalType": "uint256",
          "name": "deadline",
          "type": "uint256"
        },
        {
          "internalType": "bytes",
          "name": "signature",
          "type": "bytes"
        }
      ],
      "name": "setAgentWallet",
      "outputs": [],
      "stateMutability": "nonpayable",
      "type": "function"
    },
    {
      "inputs": [
        {
          "internalType": "address",
          "name": "operator",
          "type": "address"
        },
        {
          "internalType": "bool",
          "name": "approved",
          "type": "bool"
        }
      ],
      "name": "setApprovalForAll",
      "outputs": [],
      "stateMutability": "nonpayable",
      "type": "function"
    },
    {
      "inputs": [
        {
          "internalType": "uint256",
          "name": "agentId",
          "type": "uint256"
        },
        {
          "internalType": "uint256",
          "name": "feePerDay",
          "type": "uint256"
        }
      ],
      "name": "setFees",
      "outputs": [],
      "stateMutability": "nonpayable",
      "type": "function"
    },
    {
      "inputs": [
        {
          "internalType": "uint256",
          "name": "agentId",
          "type": "uint256"
        },
        {
          "internalType": "string",
          "name": "metadataKey",
          "type": "string"
        },
        {
          "internalType": "bytes",
          "name": "metadataValue",
          "type": "bytes"
        }
      ],
      "name": "setMetadata",
      "outputs": [],
      "stateMutability": "nonpayable",
      "type": "function"
    },
    {
      "inputs": [
        {
          "internalType": "uint256",
          "name": "agentId",
          "type": "uint256"
        },
        {
          "internalType": "uint256",
          "name": "numDays",
          "type": "uint256"
        }
      ],
      "name": "subscribe",
      "outputs": [],
      "stateMutability": "payable",
      "type": "function"
    },
    {
      "inputs": [
        {
          "internalType": "bytes4",
          "name": "interfaceId",
          "type": "bytes4"
        }
      ],
      "name": "supportsInterface",
      "outputs": [
        {
          "internalType": "bool",
          "name": "",
          "type": "bool"
        }
      ],
      "stateMutability": "view",
      "type": "function"
    },
    {
      "inputs": [],
      "name": "symbol",
      "outputs": [
        {
          "internalType": "string",
          "name": "",
          "type": "string"
        }
      ],
      "stateMutability": "view",
      "type": "function"
    },
    {
      "inputs": [
        {
          "internalType": "uint256",
          "name": "tokenId",
          "type": "uint256"
        }
      ],
      "name": "tokenURI",
      "outputs": [
        {
          "internalType": "string",
          "name": "",
          "type": "string"
        }
      ],
      "stateMutability": "view",
      "type": "function"
    },
    {
      "inputs": [
        {
          "internalType": "address",
          "name": "from",
          "type": "address"
        },
        {
          "internalType": "address",
          "name": "to",
          "type": "address"
        },
        {
          "internalType": "uint256",
          "name": "tokenId",
          "type": "uint256"
        },
        {
          "internalType": "bytes",
          "name": "sealedKey",
          "type": "bytes"
        },
        {
          "internalType": "bytes",
          "name": "proof",
          "type": "bytes"
        }
      ],
      "name": "transfer",
      "outputs": [],
      "stateMutability": "nonpayable",
      "type": "function"
    },
    {
      "inputs": [
        {
          "internalType": "address",
          "name": "from",
          "type": "address"
        },
        {
          "internalType": "address",
          "name": "to",
          "type": "address"
        },
        {
          "internalType": "uint256",
          "name": "tokenId",
          "type": "uint256"
        }
      ],
      "name": "transferFrom",
      "outputs": [],
      "stateMutability": "nonpayable",
      "type": "function"
    },
    {
      "inputs": [
        {
          "internalType": "uint256",
          "name": "agentId",
          "type": "uint256"
        }
      ],
      "name": "unsetAgentWallet",
      "outputs": [],
      "stateMutability": "nonpayable",
      "type": "function"
    },
    {
      "inputs": [
        {
          "internalType": "uint256",
          "name": "agentId",
          "type": "uint256"
        }
      ],
      "name": "unsubscribe",
      "outputs": [
        {
          "internalType": "uint256",
          "name": "daysLeft",
          "type": "uint256"
        },
        {
          "internalType": "uint256",
          "name": "refund",
          "type": "uint256"
        }
      ],
      "stateMutability": "nonpayable",
      "type": "function"
    },
    {
      "inputs": [
        {
          "internalType": "address",
          "name": "user",
          "type": "address"
        },
        {
          "internalType": "uint256",
          "name": "agentId",
          "type": "uint256"
        }
      ],
      "name": "viewUnsubscribe",
      "outputs": [
        {
          "internalType": "uint256",
          "name": "daysLeft",
          "type": "uint256"
        },
        {
          "internalType": "uint256",
          "name": "refund",
          "type": "uint256"
        }
      ],
      "stateMutability": "view",
      "type": "function"
    }
  ],
  "bytecode": "0x6101606040523461043b5760405161001860408261043f565b6016815260208101907f4265616d204964656e746974792052656769737472790000000000000000000082526040519161005360408461043f565b600183526020830191603160f81b835260405161007160408261043f565b600b81526a4265616d204167656e747360a81b60208201526040519061009860408361043f565b60048252634245414d60e01b60208301528051906001600160401b038211610342575f5490600182811c92168015610431575b60208310146103245781601f8493116103c4575b50602090601f8311600114610361575f92610356575b50508160011b915f199060031b1c1916175f555b8051906001600160401b0382116103425760015490600182811c92168015610338575b60208310146103245781601f8493116102b6575b50602090601f8311600114610250575f92610245575b50508160011b915f199060031b1c1916176001555b61017481610462565b61012052610181846105e9565b61014052519020918260e05251902080610100524660a0526040519060208201927f8b73c3c69bb8fe3d512ecc4cf759cc79239f7b179b0ffacaa9a75d522b39400f8452604083015260608201524660808201523060a082015260a081526101ea60c08261043f565b5190206080523060c052604051612a64908161072282396080518161271c015260a051816127d9015260c051816126ed015260e0518161276b0152610100518161279101526101205181610a6801526101405181610a910152f35b015190505f80610156565b60015f9081528281209350601f198516905b81811061029e5750908460019594939210610286575b505050811b0160015561016b565b01515f1960f88460031b161c191690555f8080610278565b92936020600181928786015181550195019301610262565b60015f529091507fb10e2d527612073b26eecdfd717e6a320cf44b4afac2b0732d9fcbe2b7fa0cf6601f840160051c8101916020851061031a575b90601f859493920160051c01905b81811061030c5750610140565b5f81558493506001016102ff565b90915081906102f1565b634e487b7160e01b5f52602260045260245ffd5b91607f169161012c565b634e487b7160e01b5f52604160045260245ffd5b015190505f806100f5565b5f8080528281209350601f198516905b8181106103ac5750908460019594939210610394575b505050811b015f55610109565b01515f1960f88460031b161c191690555f8080610387565b92936020600181928786015181550195019301610371565b5f80529091507f290decd9548b62a8d60345a988386fc84ba6bc95484008f6362f93160ef3e563601f840160051c81019160208510610427575b90601f859493920160051c01905b81811061041957506100df565b5f815584935060010161040c565b90915081906103fe565b91607f16916100cb565b5f80fd5b601f909101601f19168101906001600160401b0382119082101761034257604052565b908151602081105f146104dc575090601f81511161049c57602081519101516020821061048d571790565b5f198260200360031b1b161790565b604460209160405192839163305a27a960e01b83528160048401528051918291826024860152018484015e5f828201840152601f01601f19168101030190fd5b6001600160401b03811161034257600754600181811c911680156105df575b602082101461032457601f81116105ac575b50602092601f821160011461054b57928192935f92610540575b50508160011b915f199060031b1c19161760075560ff90565b015190505f80610527565b601f1982169360075f52805f20915f5b868110610594575083600195961061057c575b505050811b0160075560ff90565b01515f1960f88460031b161c191690555f808061056e565b9192602060018192868501518155019401920161055b565b60075f52601f60205f20910160051c810190601f830160051c015b8181106105d4575061050d565b5f81556001016105c7565b90607f16906104fb565b908151602081105f14610614575090601f81511161049c57602081519101516020821061048d571790565b6001600160401b03811161034257600854600181811c91168015610717575b602082101461032457601f81116106e4575b50602092601f821160011461068357928192935f92610678575b50508160011b915f199060031b1c19161760085560ff90565b015190505f8061065f565b601f1982169360085f52805f20915f5b8681106106cc57508360019596106106b4575b505050811b0160085560ff90565b01515f1960f88460031b161c191690555f80806106a6565b91926020600181928685015181550194019201610693565b60085f52601f60205f20910160051c810190601f830160051c015b81811061070c5750610645565b5f81556001016106ff565b90607f169061063356fe60806040526004361015610011575f80fd5b5f3560e01c80623395091461160457806301ffc9a7146114b357806306fdde0314611411578063081812fc146113d4578063095ea7b3146112e85780630af28bd3146112575780630b78f9c0146112335780631aa3a0081461120957806323b872dd146111f25780632d1ef5ae14610f415780633fddcf1914610ea057806342842e0e14610e71578063466648da14610df357806349cf1c3014610dc05780636352211e14610d9157806370a0823114610d275780637b297a6f14610cdb5780638437081314610b6457806384b0196e14610a5057806395d89b4114610986578063a22cb465146108b9578063ad0b27fb14610824578063b88d4fde146107c7578063c78fed04146106a6578063c87b56dd14610687578063ca14bee714610599578063cb4799f21461050a578063d5a06d4c146104e0578063dd37c81c14610217578063e985e9c5146101be5763f2c298be1461016d575f80fd5b346101ba5760203660031901126101ba5760043567ffffffffffffffff81116101ba576101b26101ad6101a66020933690600401611691565b369161177d565b611ead565b604051908152f35b5f80fd5b346101ba5760403660031901126101ba576101d7611665565b6001600160a01b036101e761167b565b91165f5260056020526001600160a01b0360405f2091165f52602052602060ff60405f2054166040519015158152f35b346101ba5760603660031901126101ba5760043567ffffffffffffffff81116101ba57610248903690600401611691565b60243567ffffffffffffffff81116101ba57366023820112156101ba5780600401359067ffffffffffffffff82116101ba573660248360051b830101116101ba57610294829392611bb5565b936102a2604051958661173f565b838552601f196102b185611bb5565b015f5b8181106104b55750503682900360621901925f5b8581101561036c5760248160051b85010135858112156101ba57840190604060231983360301126101ba576040516102ff8161170f565b602483013567ffffffffffffffff81116101ba5761032390602436918601016117b3565b8152604483013567ffffffffffffffff81116101ba57600193602461034b92369201016117b3565b602082015261035a828a611c95565b526103658189611c95565b50016102c8565b8661037836848661177d565b90610384600954611c87565b908160095561039382336124c3565b82516104a6575b815f52600b60205260405f206001600160a01b0333166001600160a01b0319825416179055604051336020820152602081526103d760408261173f565b827f2c149ed548c6d2993cd73efe187df6eccabe4538091b33adbd25fafdb8a1468b610420600b6040516a1859d95b9d15d85b1b195d60aa1b8152209360405191829182611b25565b0390a35f5b815181101561045c578061045661043e60019385611c95565b5151602061044c8487611c95565b5101519086612144565b01610425565b60208385817fca52e62c367d81bb2e328eb795f7c7ba24afb478408a26c0e201d155c449bc4a60405185815280610497339588830190611641565b0390a36101b260443582611e67565b6104b08383611d3f565b61039a565b6020906040969596516104c78161170f565b6060815260608382015282828a010152019493946102b4565b346101ba5760203660031901126101ba576004355f52600c602052602060405f2054604051908152f35b346101ba5760403660031901126101ba5760043560243567ffffffffffffffff81116101ba5761053e9036906004016117b3565b61054782611cbd565b5060208151910120905f52600a60205260405f20905f5260205261059561057a61058160405f2060405192838092611809565b038261173f565b604051918291602083526020830190611641565b0390f35b346101ba5760803660031901126101ba576105b2611665565b6024359060443567ffffffffffffffff81116101ba576105d6903690600401611691565b50506064359167ffffffffffffffff83116101ba576105fb6020933690600401611691565b50506106118161060a81611cbd565b339061261c565b61061c600954611c87565b80918160095561062c82856124c3565b805f526006855261065261057a61064c60405f2060405192838092611809565b83611d3f565b6001600160a01b0360405194167fb0a2f55470ff509e62da0057e1dc2705b885b8722a571b3f1705ea25addd7fcc5f80a48152f35b346101ba5760203660031901126101ba57610595610581600435611bcd565b346101ba5760a03660031901126101ba576106bf611665565b6106c761167b565b6044359160643567ffffffffffffffff81116101ba576106eb903690600401611691565b505060843567ffffffffffffffff81116101ba5761070d903690600401611691565b505061071c8361060a81611cbd565b6001600160a01b0382169182156107b45761073f846001600160a01b0392611fe7565b16806107585783637e27328960e01b5f5260045260245ffd5b6001600160a01b03821680820361079a5750506001600160a01b03167fd1ba4ac2e2a11b5101f6cb4d978f514a155b421e8ec396d2d9abaf0bb02917ee5f80a4005b84906364283d7b60e01b5f5260045260245260445260645ffd5b633250574960e11b5f525f60045260245ffd5b346101ba5760803660031901126101ba576107e0611665565b6107e861167b565b906044356064359267ffffffffffffffff84116101ba576108106108229436906004016117b3565b9261081c8383836118aa565b336123b1565b005b346101ba5760203660031901126101ba576040600435335f52600d602052815f20815f52602052815f20905f600162015180610875855461086e610866611a45565b428311611a80565b4290611b58565b0493828155015582518281525f60208201527ff2626a11cd1ac5ec73c78c3552aa73735e52629bc3f00696cc924b8f3f32c035843392a381519081525f6020820152f35b346101ba5760403660031901126101ba576108d2611665565b602435908115158092036101ba573315610973576001600160a01b031690811561094757335f52600560205260405f20825f5260205260405f2060ff1981541660ff83161790556040519081527f17307eab39ab6107e8899845ad3d59bd9653f200f220920489ca2b5937696c3160203392a3005b507f5b08ba18000000000000000000000000000000000000000000000000000000005f5260045260245ffd5b63a9fbf51f60e01b5f525f60045260245ffd5b346101ba575f3660031901126101ba576040515f6001546109a6816117d1565b8084529060018116908115610a2c57506001146109ce575b610595836105818185038261173f565b60015f9081527fb10e2d527612073b26eecdfd717e6a320cf44b4afac2b0732d9fcbe2b7fa0cf6939250905b808210610a12575090915081016020016105816109be565b9192600181602092548385880101520191019092916109fa565b60ff191660208086019190915291151560051b8401909101915061058190506109be565b346101ba575f3660031901126101ba57610b08610a8c7f00000000000000000000000000000000000000000000000000000000000000006128f8565b610ab57f000000000000000000000000000000000000000000000000000000000000000061296a565b6020610b1660405192610ac8838561173f565b5f84525f3681376040519586957f0f00000000000000000000000000000000000000000000000000000000000000875260e08588015260e0870190611641565b908582036040870152611641565b4660608501523060808501525f60a085015283810360c08501528180845192838152019301915f5b828110610b4d57505050500390f35b835185528695509381019392810192600101610b3e565b610b6d366116bf565b90811591610b83610b7c611a45565b8415611a80565b815f52600c60205260405f2054918215610ba5610b9e611a45565b8215611a80565b610cc757610bc0610bb4611a45565b845f1904841115611a80565b8183029283048203610cb357610bdf610bd7611a45565b843414611a80565b805f52600b6020526001600160a01b0360405f20541691610c09610c01611a45565b841515611a80565b6201518081029481860462015180141715610cb3578361082295335f52600d60205260405f20845f5260205260405f20908154428111155f14610c90575090610c5460019242611ba8565b815501555b6040519081528360208201527f5ad333a6d56a7ddb1e78d9ecb8047e9dafcb890a41a227ede8d950259a1f0f7560403392a3612319565b6001935090610c9e91611ba8565b815501610cac858254611ba8565b9055610c59565b634e487b7160e01b5f52601160045260245ffd5b634e487b7160e01b5f52601260045260245ffd5b346101ba5760603660031901126101ba57600435610cf761167b565b506044359067ffffffffffffffff82116101ba57610d1c610822923690600401611691565b505061060a81611cbd565b346101ba5760203660031901126101ba576001600160a01b03610d48611665565b168015610d65575f526003602052602060405f2054604051908152f35b7f89c62b64000000000000000000000000000000000000000000000000000000005f525f60045260245ffd5b346101ba5760203660031901126101ba576020610daf600435611cbd565b6001600160a01b0360405191168152f35b346101ba5760403660031901126101ba576040610de7610dde611665565b60243590611b65565b82519182526020820152f35b346101ba5760603660031901126101ba5760043560243567ffffffffffffffff81116101ba57610e27903690600401611691565b919060443567ffffffffffffffff81116101ba5761082293610e63610e53610e6b933690600401611691565b9490926101a68761060a81611cbd565b92369161177d565b91612144565b346101ba57610822610e82366116d5565b9060405192610e9260208561173f565b5f845261081c8383836118aa565b346101ba5760203660031901126101ba57600435610ec18161060a81611cbd565b805f52600b60205260405f206001600160a01b03198154169055604051905f602083015260208252610ef460408361173f565b7f2c149ed548c6d2993cd73efe187df6eccabe4538091b33adbd25fafdb8a1468b610f3c600b6040516a1859d95b9d15d85b1b195d60aa1b8152209360405191829182611b25565b0390a3005b346101ba5760803660031901126101ba57600435610f5d61167b565b906044359160643567ffffffffffffffff81116101ba57610f82903690600401611691565b9091610f918461060a81611cbd565b6001600160a01b03811691610fa7610c01611a45565b6042604096610fee8851610fbb8a8261173f565b600381527f3630310000000000000000000000000000000000000000000000000000000000602082015282421115611a80565b875160208101917f5a2b87f3673ca6856d85d54cb1a9eb690f53c4d6b0954db34c84fe6c19c80d948352888a83015286606083015260808201526080815261103760a08261173f565b5190206110426126e3565b908851917f190100000000000000000000000000000000000000000000000000000000000083526002830152602282015220913b155f14611132576110c76110be610f3c94936110b87f2c149ed548c6d2993cd73efe187df6eccabe4538091b33adbd25fafdb8a1468b976110e095369161177d565b906127ff565b90929192612839565b826001600160a01b036110d8611aea565b921614611a80565b835f52600b602052845f20816001600160a01b0319825416179055845190602082015260208152611111858261173f565b600b85516a1859d95b9d15d85b1b195d60aa1b815220945191829182611b25565b60209161115e87519586938493630b135d3f60e11b85526004850152896024850152604484019161188a565b0381845afa9081156111e8576111b4610f3c927f2c149ed548c6d2993cd73efe187df6eccabe4538091b33adbd25fafdb8a1468b945f916111b9575b50630b135d3f60e11b6001600160e01b03196110d8611aea565b6110e0565b6111db915060203d6020116111e1575b6111d3818361173f565b810190611aca565b8761119a565b503d6111c9565b84513d5f823e3d90fd5b346101ba57610822611203366116d5565b916118aa565b346101ba575f3660031901126101ba5760206101b260405161122b838261173f565b5f8152611ead565b346101ba57610822611244366116bf565b906112528161060a81611cbd565b611e67565b346101ba5760403660031901126101ba5760243560043567ffffffffffffffff82116101ba577f3a2c7fffc2cba7582c690e3b82c453ea02a308326a98a3ad7576c606336409fb6112af610f3c933690600401611691565b93906112be8461060a81611cbd565b6112d26112cc36878461177d565b85611d3f565b604051918291602083523396602084019161188a565b346101ba5760403660031901126101ba57611301611665565b60243561130d81611cbd565b331515806113c1575b8061138e575b61137b5781906001600160a01b0380851691167f8c5be1e5ebec7d5bd14f71427d1e84f3dd0314c0f7b2291e5b200ac8c7c3b9255f80a45f5260046020526001600160a01b0360405f2091166001600160a01b03198254161790555f80f35b63a9fbf51f60e01b5f523360045260245ffd5b506001600160a01b0381165f52600560205260405f206001600160a01b0333165f5260205260ff60405f2054161561131c565b50336001600160a01b0382161415611316565b346101ba5760203660031901126101ba576004356113f181611cbd565b505f52600460205260206001600160a01b0360405f205416604051908152f35b346101ba575f3660031901126101ba576040515f5f54611430816117d1565b8084529060018116908115610a2c575060011461145757610595836105818185038261173f565b5f8080527f290decd9548b62a8d60345a988386fc84ba6bc95484008f6362f93160ef3e563939250905b808210611499575090915081016020016105816109be565b919260018160209254838588010152019101909291611481565b346101ba5760203660031901126101ba576004356001600160e01b031981168091036101ba57807f76b2298c00000000000000000000000000000000000000000000000000000000602092149081156115da575b8115611519575b506040519015158152f35b7f490649060000000000000000000000000000000000000000000000000000000081149150811561154c575b508261150e565b7f80ac58cd000000000000000000000000000000000000000000000000000000008114915081156115b0575b8115611586575b5082611545565b7f01ffc9a7000000000000000000000000000000000000000000000000000000009150148261157f565b7f5b5e139f0000000000000000000000000000000000000000000000000000000081149150611578565b7fbe2ba7540000000000000000000000000000000000000000000000000000000081149150611507565b346101ba5760203660031901126101ba5760043561162181611cbd565b505f52600b60205260206001600160a01b0360405f205416604051908152f35b805180835260209291819084018484015e5f828201840152601f01601f1916010190565b600435906001600160a01b03821682036101ba57565b602435906001600160a01b03821682036101ba57565b9181601f840112156101ba5782359167ffffffffffffffff83116101ba57602083818601950101116101ba57565b60409060031901126101ba576004359060243590565b60609060031901126101ba576004356001600160a01b03811681036101ba57906024356001600160a01b03811681036101ba579060443590565b6040810190811067ffffffffffffffff82111761172b57604052565b634e487b7160e01b5f52604160045260245ffd5b90601f8019910116810190811067ffffffffffffffff82111761172b57604052565b67ffffffffffffffff811161172b57601f01601f191660200190565b92919261178982611761565b91611797604051938461173f565b8294818452818301116101ba578281602093845f960137010152565b9080601f830112156101ba578160206117ce9335910161177d565b90565b90600182811c921680156117ff575b60208310146117eb57565b634e487b7160e01b5f52602260045260245ffd5b91607f16916117e0565b5f9291815491611818836117d1565b808352926001811690811561186d575060011461183457505050565b5f9081526020812093945091925b838310611853575060209250010190565b600181602092949394548385870101520191019190611842565b915050602093945060ff929192191683830152151560051b010190565b908060209392818452848401375f828201840152601f01601f1916010190565b91906001600160a01b03169182156107b4576001600160a01b0390825f5260026020528160405f2054169333611a35575b841515806119fe575b815f52600360205260405f2060018154019055845f52600260205260405f20826001600160a01b031982541617905585604051928681837fddf252ad1be2c89b69c2b068fc378daa952ba7f163c4a11628f55a4df523b3ef5f80a4826119f3575b5050611972575b501680830361195a57505050565b6364283d7b60e01b5f5260045260245260445260645ffd5b835f52600b60205260405f206001600160a01b031981541690555f6020820152602081526119a160408261173f565b837f2c149ed548c6d2993cd73efe187df6eccabe4538091b33adbd25fafdb8a1468b6119ea600b6040516a1859d95b9d15d85b1b195d60aa1b8152209360405191829182611b25565b0390a35f61194c565b14159050855f611945565b611a1d855f52600460205260405f206001600160a01b03198154169055565b855f52600360205260405f205f1981540190556118e4565b611a4084338761261c565b6118db565b60405190611a5460408361173f565b600182527f33000000000000000000000000000000000000000000000000000000000000006020830152565b15611a885750565b611ac6906040519182917f08c379a0000000000000000000000000000000000000000000000000000000008352602060048401526024830190611641565b0390fd5b908160209103126101ba57516001600160e01b0319811681036101ba5790565b60405190611af960408361173f565b600382527f36303000000000000000000000000000000000000000000000000000000000006020830152565b9060806117ce9260408152600b60408201526a1859d95b9d15d85b1b195d60aa1b60608201528160208201520190611641565b91908203918211610cb357565b6001600160a01b03165f52600d60205260405f20905f5260205260405f205442811115611ba157611b9b62015180914290611b58565b04905f90565b505f905f90565b91908201809211610cb357565b67ffffffffffffffff811161172b5760051b60200190565b611bd681611cbd565b50602090604051611be7838261173f565b5f8152815f526006835261057a611c0760405f2060405192838092611809565b815115611c805780849151611c4557505050611c2290611cbd565b505f604051611c31838261173f565b52611c3f604051918261173f565b5f815290565b6117ce935081906040519584879551918291018487015e8401908282015f8152815193849201905e01015f815203601f19810183528261173f565b9250505090565b5f198114610cb35760010190565b8051821015611ca95760209160051b010190565b634e487b7160e01b5f52603260045260245ffd5b805f5260026020526001600160a01b0360405f205416908115611cde575090565b637e27328960e01b5f5260045260245ffd5b601f8211611cfd57505050565b5f5260205f20906020601f840160051c83019310611d35575b601f0160051c01905b818110611d2a575050565b5f8155600101611d1f565b9091508190611d16565b919091805f52600660205260405f20835167ffffffffffffffff811161172b57611d7381611d6d84546117d1565b84611cf0565b6020601f8211600114611ddf57816020949392611dc8927ff8e1a15aba9398e019f0b49df1a4fde98ee17ae345cb5f6b5e2c27f5033e8ce797985f92611dd4575b50508160011b915f199060031b1c19161790565b90555b604051908152a1565b015190505f80611db4565b601f19821695835f52815f20965f5b818110611e4f575096600192849260209796957ff8e1a15aba9398e019f0b49df1a4fde98ee17ae345cb5f6b5e2c27f5033e8ce7999a10611e37575b505050811b019055611dcb565b01515f1960f88460031b161c191690555f8080611e2a565b83830151895560019098019760209384019301611dee565b9060207f93525d3c7f4fafe56faedbca6d501a13c63f47857d8b30d8282ec2dd806259a791835f52600c825260405f20611ea2828254611ba8565b9055604051908152a2565b90611eb9600954611c87565b90816009558190611eca83336124c3565b8351611fd8575b825f52600b60205260405f206001600160a01b0333166001600160a01b031982541617905560405133602082015260208152611f0e60408261173f565b837f2c149ed548c6d2993cd73efe187df6eccabe4538091b33adbd25fafdb8a1468b611f57600b6040516a1859d95b9d15d85b1b195d60aa1b8152209360405191829182611b25565b0390a35f5b606051811015611f965780611f90611f776001936060611c95565b51516020611f86846060611c95565b5101519087612144565b01611f5c565b50919290927fca52e62c367d81bb2e328eb795f7c7ba24afb478408a26c0e201d155c449bc4a6040516020815280611fd333956020830190611641565b0390a3565b611fe28484611d3f565b611ed1565b9190805f5260026020526001600160a01b0360405f205416906001600160a01b03821515948561210d575b1693846120f5575b815f52600260205260405f20856001600160a01b0319825416179055604051928286827fddf252ad1be2c89b69c2b068fc378daa952ba7f163c4a11628f55a4df523b3ef5f80a48095826120ea575b5050612073575050565b805f52600b60205260405f206001600160a01b031981541690555f6020830152602082526120a260408361173f565b7f2c149ed548c6d2993cd73efe187df6eccabe4538091b33adbd25fafdb8a1468b611fd3600b6040516a1859d95b9d15d85b1b195d60aa1b8152209360405191829182611b25565b141590505f80612069565b845f52600360205260405f206001815401905561201a565b61212c835f52600460205260405f206001600160a01b03198154169055565b835f52600360205260405f205f198154019055612012565b92919092835193602081019485206040906121bd600b60208451612168868261173f565b828152016a1859d95b9d15d85b1b195d60aa1b81522082141583519061218e858361173f565b600182527f34000000000000000000000000000000000000000000000000000000000000006020830152611a80565b835f52600a602052815f20905f52602052805f209584519667ffffffffffffffff881161172b576121f8886121f283546117d1565b83611cf0565b602097601f8111600114612291579061224f82611fd394937f2c149ed548c6d2993cd73efe187df6eccabe4538091b33adbd25fafdb8a1468b98999a9b5f91612286575b508160011b915f199060031b1c19161790565b90555b8251809185518091835e81015f8152039020956122788351948486958652850190611641565b908382036020850152611641565b90508a01515f61223c565b601f198116825f52895f20905f5b8181106123015750916001917f2c149ed548c6d2993cd73efe187df6eccabe4538091b33adbd25fafdb8a1468b98999a9b82611fd3979695106122e9575b5050811b019055612252565b8b01515f1960f88460031b161c191690555f806122dd565b898c0151835560209b8c019b6001909301920161229f565b814710612381575f8080936001600160a01b0382948360405161233d60208261173f565b52165af11561234857565b3d15612359576040513d5f823e3d90fd5b7fd6bda275000000000000000000000000000000000000000000000000000000005f5260045ffd5b50477fcf479181000000000000000000000000000000000000000000000000000000005f5260045260245260445ffd5b93909293823b6123c3575b5050505050565b61240a6001600160a01b0392836020951696846040519788968796630a85bd0160e11b88521660048701521660248501526044840152608060648401526084830190611641565b03815f865af15f91816124a2575b5061246d57503d15612466573d61242e81611761565b9061243c604051928361173f565b81523d5f602083013e5b805190816124615782633250574960e11b5f5260045260245ffd5b602001fd5b6060612446565b6001600160e01b0319630a85bd0160e11b91160361249057505f808080806123bc565b633250574960e11b5f5260045260245ffd5b6124bc91925060203d6020116111e1576111d3818361173f565b905f612418565b90602090604051906124d5838361173f565b5f82526001600160a01b0384169384156107b4576001600160a01b036124fb8383611fe7565b166125f0573b61250c575b50505050565b9161254991819495936040519384928392630a85bd0160e11b84523360048501525f60248501526044840152608060648401526084830190611641565b03815f885af15f91816125d1575b506125ac5750503d156125a4573d9061256f82611761565b9161257d604051938461173f565b82523d5f8284013e5b815191826125a15783633250574960e11b5f5260045260245ffd5b01fd5b606090612586565b630a85bd0160e11b919392506001600160e01b0319160361249057505f808080612506565b6125e9919250843d86116111e1576111d3818361173f565b905f612557565b7f73c6ac6e000000000000000000000000000000000000000000000000000000005f525f60045260245ffd5b906001600160a01b03169081151580612688575b1561263a57505050565b6001600160a01b031661265a5750637e27328960e01b5f5260045260245ffd5b7f177e802f000000000000000000000000000000000000000000000000000000005f5260045260245260445ffd5b506001600160a01b0381168281149081156126c2575b50806126305750825f526004602052816001600160a01b0360405f20541614612630565b90505f52600560205260405f20825f5260205260ff60405f2054165f61269e565b6001600160a01b037f0000000000000000000000000000000000000000000000000000000000000000163014806127d6575b1561273e577f000000000000000000000000000000000000000000000000000000000000000090565b60405160208101907f8b73c3c69bb8fe3d512ecc4cf759cc79239f7b179b0ffacaa9a75d522b39400f82527f000000000000000000000000000000000000000000000000000000000000000060408201527f000000000000000000000000000000000000000000000000000000000000000060608201524660808201523060a082015260a081526127d060c08261173f565b51902090565b507f00000000000000000000000000000000000000000000000000000000000000004614612715565b815191906041830361282f576128289250602082015190606060408401519301515f1a906129a1565b9192909190565b50505f9160029190565b60048110156128e4578061284b575050565b6001810361287b577ff645eedf000000000000000000000000000000000000000000000000000000005f5260045ffd5b600281036128af57507ffce698f7000000000000000000000000000000000000000000000000000000005f5260045260245ffd5b6003146128b95750565b7fd78bce0c000000000000000000000000000000000000000000000000000000005f5260045260245ffd5b634e487b7160e01b5f52602160045260245ffd5b60ff81146129575760ff811690601f821161292f576040519161291c60408461173f565b6020808452838101919036833783525290565b7fb3512b0c000000000000000000000000000000000000000000000000000000005f5260045ffd5b506040516117ce8161057a816007611809565b60ff811461298e5760ff811690601f821161292f576040519161291c60408461173f565b506040516117ce8161057a816008611809565b91907f7fffffffffffffffffffffffffffffff5d576e7357a4501ddfe92f46681b20a08411612a23579160209360809260ff5f9560405194855216868401526040830152606082015282805260015afa15612a18575f516001600160a01b03811615612a0e57905f905f90565b505f906001905f90565b6040513d5f823e3d90fd5b5050505f916003919056fea264697066735822122050071d9248f7b4a3be3afc0366d2700ac599d1f5e65934192f495de50f42be6d64736f6c634300081c0033",
  "linkReferences": {},
  "deployedLinkReferences": {},
  "immutableReferences": {
    "5340": [
      {
        "length": 32,
        "start": 10012
      }
    ],
    "5342": [
      {
        "length": 32,
        "start": 10201
      }
    ],
    "5344": [
      {
        "length": 32,
        "start": 9965
      }
    ],
    "5346": [
      {
        "length": 32,
        "start": 10091
      }
    ],
    "5348": [
      {
        "length": 32,
        "start": 10129
      }
    ],
    "5351": [
      {
        "length": 32,
        "start": 2664
      }
    ],
    "5354": [
      {
        "length": 32,
        "start": 2705
      }
    ]
  },
  "inputSourceName": "project/contracts/IdentityRegistry.sol",
  "buildInfoId": "solc-0_8_28-bbccf106dae64a3fc9171c1e5f415da5b7018c0e"
}