{
  "_format": "hh3-artifact-1",
  "contractName": "IdentityRegistry",
  "sourceName": "contracts/IdentityRegistry.sol",
  "abi": [
    {
      "inputs": [],
      "stateMutability": "nonpayable",
      "type": "constructor"
    },
    {
      "inputs": [],
      "name": "ECDSAInvalidSignature",
      "type": "error"
    },
    {
      "inputs": [
        {
          "internalType": "uint256",
          "name": "length",
          "type": "uint256"
        }
      ],
      "name": "ECDSAInvalidSignatureLength",
      "type": "error"
    },
    {
      "inputs": [
        {
          "internalType": "bytes32",
          "name": "s",
          "type": "bytes32"
        }
      ],
      "name": "ECDSAInvalidSignatureS",
      "type": "error"
    },
    {
      "inputs": [
        {
          "internalType": "address",
          "name": "sender",
          "type": "address"
        },
        {
          "internalType": "uint256",
          "name": "tokenId",
          "type": "uint256"
        },
        {
          "internalType": "address",
          "name": "owner",
          "type": "address"
        }
      ],
      "name": "ERC721IncorrectOwner",
      "type": "error"
    },
    {
      "inputs": [
        {
          "internalType": "address",
          "name": "operator",
          "type": "address"
        },
        {
          "internalType": "uint256",
          "name": "tokenId",
          "type": "uint256"
        }
      ],
      "name": "ERC721InsufficientApproval",
      "type": "error"
    },
    {
      "inputs": [
        {
          "internalType": "address",
          "name": "approver",
          "type": "address"
        }
      ],
      "name": "ERC721InvalidApprover",
      "type": "error"
    },
    {
      "inputs": [
        {
          "internalType": "address",
          "name": "operator",
          "type": "address"
        }
      ],
      "name": "ERC721InvalidOperator",
      "type": "error"
    },
    {
      "inputs": [
        {
          "internalType": "address",
          "name": "owner",
          "type": "address"
        }
      ],
      "name": "ERC721InvalidOwner",
      "type": "error"
    },
    {
      "inputs": [
        {
          "internalType": "address",
          "name": "receiver",
          "type": "address"
        }
      ],
      "name": "ERC721InvalidReceiver",
      "type": "error"
    },
    {
      "inputs": [
        {
          "internalType": "address",
          "name": "sender",
          "type": "address"
        }
      ],
      "name": "ERC721InvalidSender",
      "type": "error"
    },
    {
      "inputs": [
        {
          "internalType": "uint256",
          "name": "tokenId",
          "type": "uint256"
        }
      ],
      "name": "ERC721NonexistentToken",
      "type": "error"
    },
    {
      "inputs": [],
      "name": "FailedCall",
      "type": "error"
    },
    {
      "inputs": [
        {
          "internalType": "uint256",
          "name": "balance",
          "type": "uint256"
        },
        {
          "internalType": "uint256",
          "name": "needed",
          "type": "uint256"
        }
      ],
      "name": "InsufficientBalance",
      "type": "error"
    },
    {
      "inputs": [],
      "name": "InvalidShortString",
      "type": "error"
    },
    {
      "inputs": [
        {
          "internalType": "string",
          "name": "str",
          "type": "string"
        }
      ],
      "name": "StringTooLong",
      "type": "error"
    },
    {
      "anonymous": false,
      "inputs": [
        {
          "indexed": true,
          "internalType": "address",
          "name": "owner",
          "type": "address"
        },
        {
          "indexed": true,
          "internalType": "address",
          "name": "approved",
          "type": "address"
        },
        {
          "indexed": true,
          "internalType": "uint256",
          "name": "tokenId",
          "type": "uint256"
        }
      ],
      "name": "Approval",
      "type": "event"
    },
    {
      "anonymous": false,
      "inputs": [
        {
          "indexed": true,
          "internalType": "address",
          "name": "owner",
          "type": "address"
        },
        {
          "indexed": true,
          "internalType": "address",
          "name": "operator",
          "type": "address"
        },
        {
          "indexed": false,
          "internalType": "bool",
          "name": "approved",
          "type": "bool"
        }
      ],
      "name": "ApprovalForAll",
      "type": "event"
    },
    {
      "anonymous": false,
      "inputs": [
        {
          "indexed": false,
          "internalType": "uint256",
          "name": "_fromTokenId",
          "type": "uint256"
        },
        {
          "indexed": false,
          "internalType": "uint256",
          "name": "_toTokenId",
          "type": "uint256"
        }
      ],
      "name": "BatchMetadataUpdate",
      "type": "event"
    },
    {
      "anonymous": false,
      "inputs": [
        {
          "indexed": true,
          "internalType": "address",
          "name": "to",
          "type": "address"
        },
        {
          "indexed": true,
          "internalType": "uint256",
          "name": "sourceTokenId",
          "type": "uint256"
        },
        {
          "indexed": true,
          "internalType": "uint256",
          "name": "newTokenId",
          "type": "uint256"
        }
      ],
      "name": "Cloned",
      "type": "event"
    },
    {
      "anonymous": false,
      "inputs": [],
      "name": "EIP712DomainChanged",
      "type": "event"
    },
    {
      "anonymous": false,
      "inputs": [
        {
          "indexed": true,
          "internalType": "uint256",
          "name": "agentId",
          "type": "uint256"
        },
        {
          "indexed": false,
          "internalType": "uint256",
          "name": "feePerDay",
          "type": "uint256"
        }
      ],
      "name": "FeesSet",
      "type": "event"
    },
    {
      "anonymous": false,
      "inputs": [
        {
          "indexed": true,
          "internalType": "uint256",
          "name": "agentId",
          "type": "uint256"
        },
        {
          "indexed": true,
          "internalType": "string",
          "name": "indexedMetadataKey",
          "type": "string"
        },
        {
          "indexed": false,
          "internalType": "string",
          "name": "metadataKey",
          "type": "string"
        },
        {
          "indexed": false,
          "internalType": "bytes",
          "name": "metadataValue",
          "type": "bytes"
        }
      ],
      "name": "MetadataSet",
      "type": "event"
    },
    {
      "anonymous": false,
      "inputs": [
        {
          "indexed": false,
          "internalType": "uint256",
          "name": "_tokenId",
          "type": "uint256"
        }
      ],
      "name": "MetadataUpdate",
      "type": "event"
    },
    {
      "anonymous": false,
      "inputs": [
        {
          "indexed": true,
          "internalType": "uint256",
          "name": "agentId",
          "type": "uint256"
        },
        {
          "indexed": false,
          "internalType": "string",
          "name": "agentURI",
          "type": "string"
        },
        {
          "indexed": true,
          "internalType": "address",
          "name": "owner",
          "type": "address"
        }
      ],
      "name": "Registered",
      "type": "event"
    },
    {
      "anonymous": false,
      "inputs": [
        {
          "indexed": true,
          "internalType": "address",
          "name": "user",
          "type": "address"
        },
        {
          "indexed": true,
          "internalType": "uint256",
          "name": "agentId",
          "type": "uint256"
        },
        {
          "indexed": false,
          "internalType": "uint256",
          "name": "numDays",
          "type": "uint256"
        },
        {
          "indexed": false,
          "internalType": "uint256",
          "name": "amountPaid",
          "type": "uint256"
        }
      ],
      "name": "Subscribed",
      "type": "event"
    },
    {
      "anonymous": false,
      "inputs": [
        {
          "indexed": true,
          "internalType": "address",
          "name": "from",
          "type": "address"
        },
        {
          "indexed": true,
          "internalType": "address",
          "name": "to",
          "type": "address"
        },
        {
          "indexed": true,
          "internalType": "uint256",
          "name": "tokenId",
          "type": "uint256"
        }
      ],
      "name": "Transfer",
      "type": "event"
    },
    {
      "anonymous": false,
      "inputs": [
        {
          "indexed": true,
          "internalType": "address",
          "name": "from",
          "type": "address"
        },
        {
          "indexed": true,
          "internalType": "address",
          "name": "to",
          "type": "address"
        },
        {
          "indexed": true,
          "internalType": "uint256",
          "name": "tokenId",
          "type": "uint256"
        }
      ],
      "name": "Transferred",
      "type": "event"
    },
    {
      "anonymous": false,
      "inputs": [
        {
          "indexed": true,
          "internalType": "uint256",
          "name": "agentId",
          "type": "uint256"
        },
        {
          "indexed": false,
          "internalType": "string",
          "name": "newURI",
          "type": "string"
        },
        {
          "indexed": true,
          "internalType": "address",
          "name": "updatedBy",
          "type": "address"
        }
      ],
      "name": "URIUpdated",
      "type": "event"
    },
    {
      "anonymous": false,
      "inputs": [
        {
          "indexed": true,
          "internalType": "address",
          "name": "user",
          "type": "address"
        },
        {
          "indexed": true,
          "internalType": "uint256",
          "name": "agentId",
          "type": "uint256"
        },
        {
          "indexed": false,
          "internalType": "uint256",
          "name": "daysLeft",
          "type": "uint256"
        },
        {
          "indexed": false,
          "internalType": "uint256",
          "name": "refund",
          "type": "uint256"
        }
      ],
      "name": "Unsubscribed",
      "type": "event"
    },
    {
      "inputs": [
        {
          "internalType": "address",
          "name": "to",
          "type": "address"
        },
        {
          "internalType": "uint256",
          "name": "tokenId",
          "type": "uint256"
        }
      ],
      "name": "approve",
      "outputs": [],
      "stateMutability": "nonpayable",
      "type": "function"
    },
    {
      "inputs": [
        {
          "internalType": "uint256",
          "name": "tokenId",
          "type": "uint256"
        },
        {
          "internalType": "address",
          "name": "",
          "type": "address"
        },
        {
          "internalType": "bytes",
          "name": "",
          "type": "bytes"
        }
      ],
      "name": "authorizeUsage",
      "outputs": [],
      "stateMutability": "view",
      "type": "function"
    },
    {
      "inputs": [
        {
          "internalType": "address",
          "name": "owner",
          "type": "address"
        }
      ],
      "name": "balanceOf",
      "outputs": [
        {
          "internalType": "uint256",
          "name": "",
          "type": "uint256"
        }
      ],
      "stateMutability": "view",
      "type": "function"
    },
    {
      "inputs": [
        {
          "internalType": "address",
          "name": "to",
          "type": "address"
        },
        {
          "internalType": "uint256",
          "name": "tokenId",
          "type": "uint256"
        },
        {
          "internalType": "bytes",
          "name": "sealedKey",
          "type": "bytes"
        },
        {
          "internalType": "bytes",
          "name": "proof",
          "type": "bytes"
        }
      ],
      "name": "clone",
      "outputs": [
        {
          "internalType": "uint256",
          "name": "newTokenId",
          "type": "uint256"
        }
      ],
      "stateMutability": "nonpayable",
      "type": "function"
    },
    {
      "inputs": [],
      "name": "eip712Domain",
      "outputs": [
        {
          "internalType": "bytes1",
          "name": "fields",
          "type": "bytes1"
        },
        {
          "internalType": "string",
          "name": "name",
          "type": "string"
        },
        {
          "internalType": "string",
          "name": "version",
          "type": "string"
        },
        {
          "internalType": "uint256",
          "name": "chainId",
          "type": "uint256"
        },
        {
          "internalType": "address",
          "name": "verifyingContract",
          "type": "address"
        },
        {
          "internalType": "bytes32",
          "name": "salt",
          "type": "bytes32"
        },
        {
          "internalType": "uint256[]",
          "name": "extensions",
          "type": "uint256[]"
        }
      ],
      "stateMutability": "view",
      "type": "function"
    },
    {
      "inputs": [
        {
          "internalType": "uint256",
          "name": "agentId",
          "type": "uint256"
        }
      ],
      "name": "getAgentWallet",
      "outputs": [
        {
          "internalType": "address",
          "name": "",
          "type": "address"
        }
      ],
      "stateMutability": "view",
      "type": "function"
    },
    {
      "inputs": [
        {
          "internalType": "uint256",
          "name": "tokenId",
          "type": "uint256"
        }
      ],
      "name": "getApproved",
      "outputs": [
        {
          "internalType": "address",
          "name": "",
          "type": "address"
        }
      ],
      "stateMutability": "view",
      "type": "function"
    },
    {
      "inputs": [
        {
          "internalType": "uint256",
          "name": "agentId",
          "type": "uint256"
        }
      ],
      "name": "getFees",
      "outputs": [
        {
          "internalType": "uint256",
          "name": "feePerDay",
          "type": "uint256"
        }
      ],
      "stateMutability": "view",
      "type": "function"
    },
    {
      "inputs": [
        {
          "internalType": "uint256",
          "name": "agentId",
          "type": "uint256"
        },
        {
          "internalType": "string",
          "name": "metadataKey",
          "type": "string"
        }
      ],
      "name": "getMetadata",
      "outputs": [
        {
          "internalType": "bytes",
          "name": "",
          "type": "bytes"
        }
      ],
      "stateMutability": "view",
      "type": "function"
    },
    {
      "inputs": [
        {
          "internalType": "address",
          "name": "owner",
          "type": "address"
        },
        {
          "internalType": "address",
          "name": "operator",
          "type": "address"
        }
      ],
      "name": "isApprovedForAll",
      "outputs": [
        {
          "internalType": "bool",
          "name": "",
          "type": "bool"
        }
      ],
      "stateMutability": "view",
      "type": "function"
    },
    {
      "inputs": [],
      "name": "name",
      "outputs": [
        {
          "internalType": "string",
          "name": "",
          "type": "string"
        }
      ],
      "stateMutability": "view",
      "type": "function"
    },
    {
      "inputs": [
        {
          "internalType": "uint256",
          "name": "tokenId",
          "type": "uint256"
        }
      ],
      "name": "ownerOf",
      "outputs": [
        {
          "internalType": "address",
          "name": "",
          "type": "address"
        }
      ],
      "stateMutability": "view",
      "type": "function"
    },
    {
      "inputs": [],
      "name": "register",
      "outputs": [
        {
          "internalType": "uint256",
          "name": "agentId",
          "type": "uint256"
        }
      ],
      "stateMutability": "nonpayable",
      "type": "function"
    },
    {
      "inputs": [
        {
          "internalType": "string",
          "name": "agentURI",
          "type": "string"
        }
      ],
      "name": "register",
      "outputs": [
        {
          "internalType": "uint256",
          "name": "agentId",
          "type": "uint256"
        }
      ],
      "stateMutability": "nonpayable",
      "type": "function"
    },
    {
      "inputs": [
        {
          "internalType": "string",
          "name": "agentURI",
          "type": "string"
        },
        {
          "components": [
            {
              "internalType": "string",
              "name": "metadataKey",
              "type": "string"
            },
            {
              "internalType": "bytes",
              "name": "metadataValue",
              "type": "bytes"
            }
          ],
          "internalType": "struct IdentityRegistry.MetadataEntry[]",
          "name": "metadata",
          "type": "tuple[]"
        },
        {
          "internalType": "uint256",
          "name": "feesPerDay",
          "type": "uint256"
        }
      ],
      "name": "registerWithMetadataAndFees",
      "outputs": [
        {
          "internalType": "uint256",
          "name": "agentId",
          "type": "uint256"
        }
      ],
      "stateMutability": "nonpayable",
      "type": "function"
    },
    {
      "inputs": [
        {
          "internalType": "address",
          "name": "from",
          "type": "address"
        },
        {
          "internalType": "address",
          "name": "to",
          "type": "address"
        },
        {
          "internalType": "uint256",
          "name": "tokenId",
          "type": "uint256"
        }
      ],
      "name": "safeTransferFrom",
      "outputs": [],
      "stateMutability": "nonpayable",
      "type": "function"
    },
    {
      "inputs": [
        {
          "internalType": "address",
          "name": "from",
          "type": "address"
        },
        {
          "internalType": "address",
          "name": "to",
          "type": "address"
        },
        {
          "internalType": "uint256",
          "name": "tokenId",
          "type": "uint256"
        },
        {
          "internalType": "bytes",
          "name": "data",
          "type": "bytes"
        }
      ],
      "name": "safeTransferFrom",
      "outputs": [],
      "stateMutability": "nonpayable",
      "type": "function"
    },
    {
      "inputs": [
        {
          "internalType": "uint256",
          "name": "agentId",
          "type": "uint256"
        },
        {
          "internalType": "string",
          "name": "newURI",
          "type": "string"
        }
      ],
      "name": "setAgentURI",
      "outputs": [],
      "stateMutability": "nonpayable",
      "type": "function"
    },
    {
      "inputs": [
        {
          "internalType": "uint256",
          "name": "agentId",
          "type": "uint256"
        },
        {
          "internalType": "address",
          "name": "newWallet",
          "type": "address"
        },
        {
          "internalType": "uint256",
          "name": "deadline",
          "type": "uint256"
        },
        {
          "internalType": "bytes",
          "name": "signature",
          "type": "bytes"
        }
      ],
      "name": "setAgentWallet",
      "outputs": [],
      "stateMutability": "nonpayable",
      "type": "function"
    },
    {
      "inputs": [
        {
          "internalType": "address",
          "name": "operator",
          "type": "address"
        },
        {
          "internalType": "bool",
          "name": "approved",
          "type": "bool"
        }
      ],
      "name": "setApprovalForAll",
      "outputs": [],
      "stateMutability": "nonpayable",
      "type": "function"
    },
    {
      "inputs": [
        {
          "internalType": "uint256",
          "name": "agentId",
          "type": "uint256"
        },
        {
          "internalType": "uint256",
          "name": "feePerDay",
          "type": "uint256"
        }
      ],
      "name": "setFees",
      "outputs": [],
      "stateMutability": "nonpayable",
      "type": "function"
    },
    {
      "inputs": [
        {
          "internalType": "uint256",
          "name": "agentId",
          "type": "uint256"
        },
        {
          "internalType": "string",
          "name": "metadataKey",
          "type": "string"
        },
        {
          "internalType": "bytes",
          "name": "metadataValue",
          "type": "bytes"
        }
      ],
      "name": "setMetadata",
      "outputs": [],
      "stateMutability": "nonpayable",
      "type": "function"
    },
    {
      "inputs": [
        {
          "internalType": "uint256",
          "name": "agentId",
          "type": "uint256"
        },
        {
          "internalType": "uint256",
          "name": "numDays",
          "type": "uint256"
        }
      ],
      "name": "subscribe",
      "outputs": [],
      "stateMutability": "payable",
      "type": "function"
    },
    {
      "inputs": [
        {
          "internalType": "bytes4",
          "name": "interfaceId",
          "type": "bytes4"
        }
      ],
      "name": "supportsInterface",
      "outputs": [
        {
          "internalType": "bool",
          "name": "",
          "type": "bool"
        }
      ],
      "stateMutability": "view",
      "type": "function"
    },
    {
      "inputs": [],
      "name": "symbol",
      "outputs": [
        {
          "internalType": "string",
          "name": "",
          "type": "string"
        }
      ],
      "stateMutability": "view",
      "type": "function"
    },
    {
      "inputs": [
        {
          "internalType": "uint256",
          "name": "tokenId",
          "type": "uint256"
        }
      ],
      "name": "tokenURI",
      "outputs": [
        {
          "internalType": "string",
          "name": "",
          "type": "string"
        }
      ],
      "stateMutability": "view",
      "type": "function"
    },
    {
      "inputs": [
        {
          "internalType": "address",
          "name": "from",
          "type": "address"
        },
        {
          "internalType": "address",
          "name": "to",
          "type": "address"
        },
        {
          "internalType": "uint256",
          "name": "tokenId",
          "type": "uint256"
        },
        {
          "internalType": "bytes",
          "name": "sealedKey",
          "type": "bytes"
        },
        {
          "internalType": "bytes",
          "name": "proof",
          "type": "bytes"
        }
      ],
      "name": "transfer",
      "outputs": [],
      "stateMutability": "nonpayable",
      "type": "function"
    },
    {
      "inputs": [
        {
          "internalType": "address",
          "name": "from",
          "type": "address"
        },
        {
          "internalType": "address",
          "name": "to",
          "type": "address"
        },
        {
          "internalType": "uint256",
          "name": "tokenId",
          "type": "uint256"
        }
      ],
      "name": "transferFrom",
      "outputs": [],
      "stateMutability": "nonpayable",
      "type": "function"
    },
    {
      "inputs": [
        {
          "internalType": "uint256",
          "name": "agentId",
          "type": "uint256"
        }
      ],
      "name": "unsetAgentWallet",
      "outputs": [],
      "stateMutability": "nonpayable",
      "type": "function"
    },
    {
      "inputs": [
        {
          "internalType": "uint256",
          "name": "agentId",
          "type": "uint256"
        }
      ],
      "name": "unsubscribe",
      "outputs": [
        {
          "internalType": "uint256",
          "name": "daysLeft",
          "type": "uint256"
        },
        {
          "internalType": "uint256",
          "name": "refund",
          "type": "uint256"
        }
      ],
      "stateMutability": "nonpayable",
      "type": "function"
    }
  ],
  "bytecode": "0x6101606040523461043b5760405161001860408261043f565b6016815260208101907f4265616d204964656e746974792052656769737472790000000000000000000082526040519161005360408461043f565b600183526020830191603160f81b835260405161007160408261043f565b600b81526a4265616d204167656e747360a81b60208201526040519061009860408361043f565b60048252634245414d60e01b60208301528051906001600160401b038211610342575f5490600182811c92168015610431575b60208310146103245781601f8493116103c4575b50602090601f8311600114610361575f92610356575b50508160011b915f199060031b1c1916175f555b8051906001600160401b0382116103425760015490600182811c92168015610338575b60208310146103245781601f8493116102b6575b50602090601f8311600114610250575f92610245575b50508160011b915f199060031b1c1916176001555b61017481610462565b61012052610181846105e9565b61014052519020918260e05251902080610100524660a0526040519060208201927f8b73c3c69bb8fe3d512ecc4cf759cc79239f7b179b0ffacaa9a75d522b39400f8452604083015260608201524660808201523060a082015260a081526101ea60c08261043f565b5190206080523060c052604051612ab6908161072282396080518161276e015260a0518161282b015260c0518161273f015260e051816127bd015261010051816127e301526101205181610b2b01526101405181610b540152f35b015190505f80610156565b60015f9081528281209350601f198516905b81811061029e5750908460019594939210610286575b505050811b0160015561016b565b01515f1960f88460031b161c191690555f8080610278565b92936020600181928786015181550195019301610262565b60015f529091507fb10e2d527612073b26eecdfd717e6a320cf44b4afac2b0732d9fcbe2b7fa0cf6601f840160051c8101916020851061031a575b90601f859493920160051c01905b81811061030c5750610140565b5f81558493506001016102ff565b90915081906102f1565b634e487b7160e01b5f52602260045260245ffd5b91607f169161012c565b634e487b7160e01b5f52604160045260245ffd5b015190505f806100f5565b5f8080528281209350601f198516905b8181106103ac5750908460019594939210610394575b505050811b015f55610109565b01515f1960f88460031b161c191690555f8080610387565b92936020600181928786015181550195019301610371565b5f80529091507f290decd9548b62a8d60345a988386fc84ba6bc95484008f6362f93160ef3e563601f840160051c81019160208510610427575b90601f859493920160051c01905b81811061041957506100df565b5f815584935060010161040c565b90915081906103fe565b91607f16916100cb565b5f80fd5b601f909101601f19168101906001600160401b0382119082101761034257604052565b908151602081105f146104dc575090601f81511161049c57602081519101516020821061048d571790565b5f198260200360031b1b161790565b604460209160405192839163305a27a960e01b83528160048401528051918291826024860152018484015e5f828201840152601f01601f19168101030190fd5b6001600160401b03811161034257600754600181811c911680156105df575b602082101461032457601f81116105ac575b50602092601f821160011461054b57928192935f92610540575b50508160011b915f199060031b1c19161760075560ff90565b015190505f80610527565b601f1982169360075f52805f20915f5b868110610594575083600195961061057c575b505050811b0160075560ff90565b01515f1960f88460031b161c191690555f808061056e565b9192602060018192868501518155019401920161055b565b60075f52601f60205f20910160051c810190601f830160051c015b8181106105d4575061050d565b5f81556001016105c7565b90607f16906104fb565b908151602081105f14610614575090601f81511161049c57602081519101516020821061048d571790565b6001600160401b03811161034257600854600181811c91168015610717575b602082101461032457601f81116106e4575b50602092601f821160011461068357928192935f92610678575b50508160011b915f199060031b1c19161760085560ff90565b015190505f8061065f565b601f1982169360085f52805f20915f5b8681106106cc57508360019596106106b4575b505050811b0160085560ff90565b01515f1960f88460031b161c191690555f80806106a6565b91926020600181928685015181550194019201610693565b60085f52601f60205f20910160051c810190601f830160051c015b81811061070c5750610645565b5f81556001016106ff565b90607f169061063356fe60806040526004361015610011575f80fd5b5f3560e01c80623395091461168657806301ffc9a71461153557806306fdde0314611493578063081812fc14611456578063095ea7b31461136a5780630af28bd3146112d95780630b78f9c0146112b55780631aa3a0081461128b57806323b872dd146112745780632d1ef5ae14610fbb5780633fddcf1914610f1a57806342842e0e14610eeb578063466648da14610e6d5780636352211e14610e3e57806370a0823114610dd45780637b297a6f14610d885780638437081314610c2757806384b0196e14610b1357806395d89b4114610a49578063a22cb4651461097c578063ad0b27fb14610819578063b88d4fde146107bc578063c78fed041461069b578063c87b56dd1461067c578063ca14bee71461058e578063cb4799f2146104ff578063d5a06d4c146104d5578063dd37c81c1461020c578063e985e9c5146101b35763f2c298be14610162575f80fd5b346101af5760203660031901126101af5760043567ffffffffffffffff81116101af576101a76101a261019b6020933690600401611713565b36916117ff565b611eff565b604051908152f35b5f80fd5b346101af5760403660031901126101af576101cc6116e7565b6001600160a01b036101dc6116fd565b91165f5260056020526001600160a01b0360405f2091165f52602052602060ff60405f2054166040519015158152f35b346101af5760603660031901126101af5760043567ffffffffffffffff81116101af5761023d903690600401611713565b60243567ffffffffffffffff81116101af57366023820112156101af5780600401359067ffffffffffffffff82116101af573660248360051b830101116101af57610289829392611c07565b9361029760405195866117c1565b838552601f196102a685611c07565b015f5b8181106104aa5750503682900360621901925f5b858110156103615760248160051b85010135858112156101af57840190604060231983360301126101af576040516102f481611791565b602483013567ffffffffffffffff81116101af576103189060243691860101611835565b8152604483013567ffffffffffffffff81116101af5760019360246103409236920101611835565b602082015261034f828a611ce7565b5261035a8189611ce7565b50016102bd565b8661036d3684866117ff565b90610379600954611cd9565b90816009556103888233612515565b825161049b575b815f52600b60205260405f206001600160a01b0333166001600160a01b0319825416179055604051336020820152602081526103cc6040826117c1565b827f2c149ed548c6d2993cd73efe187df6eccabe4538091b33adbd25fafdb8a1468b610415600b6040516a1859d95b9d15d85b1b195d60aa1b8152209360405191829182611ba7565b0390a35f5b8151811015610451578061044b61043360019385611ce7565b515160206104418487611ce7565b5101519086612196565b0161041a565b60208385817fca52e62c367d81bb2e328eb795f7c7ba24afb478408a26c0e201d155c449bc4a6040518581528061048c3395888301906116c3565b0390a36101a760443582611eb9565b6104a58383611d91565b61038f565b6020906040969596516104bc81611791565b6060815260608382015282828a010152019493946102a9565b346101af5760203660031901126101af576004355f52600c602052602060405f2054604051908152f35b346101af5760403660031901126101af5760043560243567ffffffffffffffff81116101af57610533903690600401611835565b61053c82611d0f565b5060208151910120905f52600a60205260405f20905f5260205261058a61056f61057660405f206040519283809261188b565b03826117c1565b6040519182916020835260208301906116c3565b0390f35b346101af5760803660031901126101af576105a76116e7565b6024359060443567ffffffffffffffff81116101af576105cb903690600401611713565b50506064359167ffffffffffffffff83116101af576105f06020933690600401611713565b5050610606816105ff81611d0f565b339061266e565b610611600954611cd9565b8091816009556106218285612515565b805f526006855261064761056f61064160405f206040519283809261188b565b83611d91565b6001600160a01b0360405194167fb0a2f55470ff509e62da0057e1dc2705b885b8722a571b3f1705ea25addd7fcc5f80a48152f35b346101af5760203660031901126101af5761058a610576600435611c1f565b346101af5760a03660031901126101af576106b46116e7565b6106bc6116fd565b6044359160643567ffffffffffffffff81116101af576106e0903690600401611713565b505060843567ffffffffffffffff81116101af57610702903690600401611713565b5050610711836105ff81611d0f565b6001600160a01b0382169182156107a957610734846001600160a01b0392612039565b168061074d5783637e27328960e01b5f5260045260245ffd5b6001600160a01b03821680820361078f5750506001600160a01b03167fd1ba4ac2e2a11b5101f6cb4d978f514a155b421e8ec396d2d9abaf0bb02917ee5f80a4005b84906364283d7b60e01b5f5260045260245260445260645ffd5b633250574960e11b5f525f60045260245ffd5b346101af5760803660031901126101af576107d56116e7565b6107dd6116fd565b906044356064359267ffffffffffffffff84116101af57610805610817943690600401611835565b9261081183838361192c565b33612403565b005b346101af5760203660031901126101af57600435335f52600d60205260405f20815f5260205260405f208054610858610850611ac7565b428311611b02565b335f52600e60205260405f20835f5260205260405f20549261088361087b611ac7565b851515611b02565b60018301918254926108ec6040966108d288516108a08a826117c1565b600381527f35303000000000000000000000000000000000000000000000000000000000006020820152828611611b02565b6108e66108df4286611bfa565b8097611bda565b93611bfa565b801561096857620151805f93918492049504955555335f52600e602052835f20815f526020525f8481205583518381528260208201527ff2626a11cd1ac5ec73c78c3552aa73735e52629bc3f00696cc924b8f3f32c035853392a380610959575b82519182526020820152f35b610963813361236b565b61094d565b634e487b7160e01b5f52601260045260245ffd5b346101af5760403660031901126101af576109956116e7565b602435908115158092036101af573315610a36576001600160a01b0316908115610a0a57335f52600560205260405f20825f5260205260405f2060ff1981541660ff83161790556040519081527f17307eab39ab6107e8899845ad3d59bd9653f200f220920489ca2b5937696c3160203392a3005b507f5b08ba18000000000000000000000000000000000000000000000000000000005f5260045260245ffd5b63a9fbf51f60e01b5f525f60045260245ffd5b346101af575f3660031901126101af576040515f600154610a6981611853565b8084529060018116908115610aef5750600114610a91575b61058a83610576818503826117c1565b60015f9081527fb10e2d527612073b26eecdfd717e6a320cf44b4afac2b0732d9fcbe2b7fa0cf6939250905b808210610ad557509091508101602001610576610a81565b919260018160209254838588010152019101909291610abd565b60ff191660208086019190915291151560051b840190910191506105769050610a81565b346101af575f3660031901126101af57610bcb610b4f7f000000000000000000000000000000000000000000000000000000000000000061294a565b610b787f00000000000000000000000000000000000000000000000000000000000000006129bc565b6020610bd960405192610b8b83856117c1565b5f84525f3681376040519586957f0f00000000000000000000000000000000000000000000000000000000000000875260e08588015260e08701906116c3565b9085820360408701526116c3565b4660608501523060808501525f60a085015283810360c08501528180845192838152019301915f5b828110610c1057505050500390f35b835185528695509381019392810192600101610c01565b610c3036611741565b801591610c45610c3e611ac7565b8415611b02565b805f52600c60205260405f20548015610c66610c5f611ac7565b8215611b02565b6109685782610c8b91610c86610c7a611ac7565b825f1904841115611b02565b611bda565b91610ca0610c97611ac7565b84341015611b02565b6201518081029381850462015180141715610d745782610d4094335f52600d60205260405f20845f5260205260405f20908154428111155f14610d51575090610d03600192335f52600e60205260405f20875f526020524260405f205542611bed565b815501555b6040519081528260208201527f5ad333a6d56a7ddb1e78d9ecb8047e9dafcb890a41a227ede8d950259a1f0f7560403392a334611bfa565b80610d4757005b610817903361236b565b6001935090610d5f91611bed565b815501610d6d848254611bed565b9055610d08565b634e487b7160e01b5f52601160045260245ffd5b346101af5760603660031901126101af57600435610da46116fd565b506044359067ffffffffffffffff82116101af57610dc9610817923690600401611713565b50506105ff81611d0f565b346101af5760203660031901126101af576001600160a01b03610df56116e7565b168015610e12575f526003602052602060405f2054604051908152f35b7f89c62b64000000000000000000000000000000000000000000000000000000005f525f60045260245ffd5b346101af5760203660031901126101af576020610e5c600435611d0f565b6001600160a01b0360405191168152f35b346101af5760603660031901126101af5760043560243567ffffffffffffffff81116101af57610ea1903690600401611713565b919060443567ffffffffffffffff81116101af5761081793610edd610ecd610ee5933690600401611713565b94909261019b876105ff81611d0f565b9236916117ff565b91612196565b346101af57610817610efc36611757565b9060405192610f0c6020856117c1565b5f845261081183838361192c565b346101af5760203660031901126101af57600435610f3b816105ff81611d0f565b805f52600b60205260405f206001600160a01b03198154169055604051905f602083015260208252610f6e6040836117c1565b7f2c149ed548c6d2993cd73efe187df6eccabe4538091b33adbd25fafdb8a1468b610fb6600b6040516a1859d95b9d15d85b1b195d60aa1b8152209360405191829182611ba7565b0390a3005b346101af5760803660031901126101af57600435610fd76116fd565b906044359160643567ffffffffffffffff81116101af57610ffc903690600401611713565b909161100b846105ff81611d0f565b6001600160a01b03811691611029611021611ac7565b841515611b02565b6042604096611070885161103d8a826117c1565b600381527f3630310000000000000000000000000000000000000000000000000000000000602082015282421115611b02565b875160208101917f5a2b87f3673ca6856d85d54cb1a9eb690f53c4d6b0954db34c84fe6c19c80d948352888a8301528660608301526080820152608081526110b960a0826117c1565b5190206110c4612735565b908851917f190100000000000000000000000000000000000000000000000000000000000083526002830152602282015220913b155f146111b457611149611140610fb6949361113a7f2c149ed548c6d2993cd73efe187df6eccabe4538091b33adbd25fafdb8a1468b976111629536916117ff565b90612851565b9092919261288b565b826001600160a01b0361115a611b6c565b921614611b02565b835f52600b602052845f20816001600160a01b031982541617905584519060208201526020815261119385826117c1565b600b85516a1859d95b9d15d85b1b195d60aa1b815220945191829182611ba7565b6020916111e087519586938493630b135d3f60e11b85526004850152896024850152604484019161190c565b0381845afa90811561126a57611236610fb6927f2c149ed548c6d2993cd73efe187df6eccabe4538091b33adbd25fafdb8a1468b945f9161123b575b50630b135d3f60e11b6001600160e01b031961115a611b6c565b611162565b61125d915060203d602011611263575b61125581836117c1565b810190611b4c565b8761121c565b503d61124b565b84513d5f823e3d90fd5b346101af5761081761128536611757565b9161192c565b346101af575f3660031901126101af5760206101a76040516112ad83826117c1565b5f8152611eff565b346101af576108176112c636611741565b906112d4816105ff81611d0f565b611eb9565b346101af5760403660031901126101af5760243560043567ffffffffffffffff82116101af577f3a2c7fffc2cba7582c690e3b82c453ea02a308326a98a3ad7576c606336409fb611331610fb6933690600401611713565b9390611340846105ff81611d0f565b61135461134e3687846117ff565b85611d91565b604051918291602083523396602084019161190c565b346101af5760403660031901126101af576113836116e7565b60243561138f81611d0f565b33151580611443575b80611410575b6113fd5781906001600160a01b0380851691167f8c5be1e5ebec7d5bd14f71427d1e84f3dd0314c0f7b2291e5b200ac8c7c3b9255f80a45f5260046020526001600160a01b0360405f2091166001600160a01b03198254161790555f80f35b63a9fbf51f60e01b5f523360045260245ffd5b506001600160a01b0381165f52600560205260405f206001600160a01b0333165f5260205260ff60405f2054161561139e565b50336001600160a01b0382161415611398565b346101af5760203660031901126101af5760043561147381611d0f565b505f52600460205260206001600160a01b0360405f205416604051908152f35b346101af575f3660031901126101af576040515f5f546114b281611853565b8084529060018116908115610aef57506001146114d95761058a83610576818503826117c1565b5f8080527f290decd9548b62a8d60345a988386fc84ba6bc95484008f6362f93160ef3e563939250905b80821061151b57509091508101602001610576610a81565b919260018160209254838588010152019101909291611503565b346101af5760203660031901126101af576004356001600160e01b031981168091036101af57807f76b2298c000000000000000000000000000000000000000000000000000000006020921490811561165c575b811561159b575b506040519015158152f35b7f49064906000000000000000000000000000000000000000000000000000000008114915081156115ce575b5082611590565b7f80ac58cd00000000000000000000000000000000000000000000000000000000811491508115611632575b8115611608575b50826115c7565b7f01ffc9a70000000000000000000000000000000000000000000000000000000091501482611601565b7f5b5e139f00000000000000000000000000000000000000000000000000000000811491506115fa565b7ff7e4bb640000000000000000000000000000000000000000000000000000000081149150611589565b346101af5760203660031901126101af576004356116a381611d0f565b505f52600b60205260206001600160a01b0360405f205416604051908152f35b805180835260209291819084018484015e5f828201840152601f01601f1916010190565b600435906001600160a01b03821682036101af57565b602435906001600160a01b03821682036101af57565b9181601f840112156101af5782359167ffffffffffffffff83116101af57602083818601950101116101af57565b60409060031901126101af576004359060243590565b60609060031901126101af576004356001600160a01b03811681036101af57906024356001600160a01b03811681036101af579060443590565b6040810190811067ffffffffffffffff8211176117ad57604052565b634e487b7160e01b5f52604160045260245ffd5b90601f8019910116810190811067ffffffffffffffff8211176117ad57604052565b67ffffffffffffffff81116117ad57601f01601f191660200190565b92919261180b826117e3565b9161181960405193846117c1565b8294818452818301116101af578281602093845f960137010152565b9080601f830112156101af57816020611850933591016117ff565b90565b90600182811c92168015611881575b602083101461186d57565b634e487b7160e01b5f52602260045260245ffd5b91607f1691611862565b5f929181549161189a83611853565b80835292600181169081156118ef57506001146118b657505050565b5f9081526020812093945091925b8383106118d5575060209250010190565b6001816020929493945483858701015201910191906118c4565b915050602093945060ff929192191683830152151560051b010190565b908060209392818452848401375f828201840152601f01601f1916010190565b91906001600160a01b03169182156107a9576001600160a01b0390825f5260026020528160405f2054169333611ab7575b84151580611a80575b815f52600360205260405f2060018154019055845f52600260205260405f20826001600160a01b031982541617905585604051928681837fddf252ad1be2c89b69c2b068fc378daa952ba7f163c4a11628f55a4df523b3ef5f80a482611a75575b50506119f4575b50168083036119dc57505050565b6364283d7b60e01b5f5260045260245260445260645ffd5b835f52600b60205260405f206001600160a01b031981541690555f602082015260208152611a236040826117c1565b837f2c149ed548c6d2993cd73efe187df6eccabe4538091b33adbd25fafdb8a1468b611a6c600b6040516a1859d95b9d15d85b1b195d60aa1b8152209360405191829182611ba7565b0390a35f6119ce565b14159050855f6119c7565b611a9f855f52600460205260405f206001600160a01b03198154169055565b855f52600360205260405f205f198154019055611966565b611ac284338761266e565b61195d565b60405190611ad66040836117c1565b600182527f33000000000000000000000000000000000000000000000000000000000000006020830152565b15611b0a5750565b611b48906040519182917f08c379a00000000000000000000000000000000000000000000000000000000083526020600484015260248301906116c3565b0390fd5b908160209103126101af57516001600160e01b0319811681036101af5790565b60405190611b7b6040836117c1565b600382527f36303000000000000000000000000000000000000000000000000000000000006020830152565b9060806118509260408152600b60408201526a1859d95b9d15d85b1b195d60aa1b606082015281602082015201906116c3565b81810292918115918404141715610d7457565b91908201809211610d7457565b91908203918211610d7457565b67ffffffffffffffff81116117ad5760051b60200190565b611c2881611d0f565b50602090604051611c3983826117c1565b5f8152815f526006835261056f611c5960405f206040519283809261188b565b815115611cd25780849151611c9757505050611c7490611d0f565b505f604051611c8383826117c1565b52611c9160405191826117c1565b5f815290565b611850935081906040519584879551918291018487015e8401908282015f8152815193849201905e01015f815203601f1981018352826117c1565b9250505090565b5f198114610d745760010190565b8051821015611cfb5760209160051b010190565b634e487b7160e01b5f52603260045260245ffd5b805f5260026020526001600160a01b0360405f205416908115611d30575090565b637e27328960e01b5f5260045260245ffd5b601f8211611d4f57505050565b5f5260205f20906020601f840160051c83019310611d87575b601f0160051c01905b818110611d7c575050565b5f8155600101611d71565b9091508190611d68565b919091805f52600660205260405f20835167ffffffffffffffff81116117ad57611dc581611dbf8454611853565b84611d42565b6020601f8211600114611e3157816020949392611e1a927ff8e1a15aba9398e019f0b49df1a4fde98ee17ae345cb5f6b5e2c27f5033e8ce797985f92611e26575b50508160011b915f199060031b1c19161790565b90555b604051908152a1565b015190505f80611e06565b601f19821695835f52815f20965f5b818110611ea1575096600192849260209796957ff8e1a15aba9398e019f0b49df1a4fde98ee17ae345cb5f6b5e2c27f5033e8ce7999a10611e89575b505050811b019055611e1d565b01515f1960f88460031b161c191690555f8080611e7c565b83830151895560019098019760209384019301611e40565b9060207f93525d3c7f4fafe56faedbca6d501a13c63f47857d8b30d8282ec2dd806259a791835f52600c825260405f20611ef4828254611bed565b9055604051908152a2565b90611f0b600954611cd9565b90816009558190611f1c8333612515565b835161202a575b825f52600b60205260405f206001600160a01b0333166001600160a01b031982541617905560405133602082015260208152611f606040826117c1565b837f2c149ed548c6d2993cd73efe187df6eccabe4538091b33adbd25fafdb8a1468b611fa9600b6040516a1859d95b9d15d85b1b195d60aa1b8152209360405191829182611ba7565b0390a35f5b606051811015611fe85780611fe2611fc96001936060611ce7565b51516020611fd8846060611ce7565b5101519087612196565b01611fae565b50919290927fca52e62c367d81bb2e328eb795f7c7ba24afb478408a26c0e201d155c449bc4a6040516020815280612025339560208301906116c3565b0390a3565b6120348484611d91565b611f23565b9190805f5260026020526001600160a01b0360405f205416906001600160a01b03821515948561215f575b169384612147575b815f52600260205260405f20856001600160a01b0319825416179055604051928286827fddf252ad1be2c89b69c2b068fc378daa952ba7f163c4a11628f55a4df523b3ef5f80a480958261213c575b50506120c5575050565b805f52600b60205260405f206001600160a01b031981541690555f6020830152602082526120f46040836117c1565b7f2c149ed548c6d2993cd73efe187df6eccabe4538091b33adbd25fafdb8a1468b612025600b6040516a1859d95b9d15d85b1b195d60aa1b8152209360405191829182611ba7565b141590505f806120bb565b845f52600360205260405f206001815401905561206c565b61217e835f52600460205260405f206001600160a01b03198154169055565b835f52600360205260405f205f198154019055612064565b929190928351936020810194852060409061220f600b602084516121ba86826117c1565b828152016a1859d95b9d15d85b1b195d60aa1b8152208214158351906121e085836117c1565b600182527f34000000000000000000000000000000000000000000000000000000000000006020830152611b02565b835f52600a602052815f20905f52602052805f209584519667ffffffffffffffff88116117ad5761224a886122448354611853565b83611d42565b602097601f81116001146122e357906122a18261202594937f2c149ed548c6d2993cd73efe187df6eccabe4538091b33adbd25fafdb8a1468b98999a9b5f916122d8575b508160011b915f199060031b1c19161790565b90555b8251809185518091835e81015f8152039020956122ca83519484869586528501906116c3565b9083820360208501526116c3565b90508a01515f61228e565b601f198116825f52895f20905f5b8181106123535750916001917f2c149ed548c6d2993cd73efe187df6eccabe4538091b33adbd25fafdb8a1468b98999a9b826120259796951061233b575b5050811b0190556122a4565b8b01515f1960f88460031b161c191690555f8061232f565b898c0151835560209b8c019b600190930192016122f1565b8147106123d3575f8080936001600160a01b0382948360405161238f6020826117c1565b52165af11561239a57565b3d156123ab576040513d5f823e3d90fd5b7fd6bda275000000000000000000000000000000000000000000000000000000005f5260045ffd5b50477fcf479181000000000000000000000000000000000000000000000000000000005f5260045260245260445ffd5b93909293823b612415575b5050505050565b61245c6001600160a01b0392836020951696846040519788968796630a85bd0160e11b885216600487015216602485015260448401526080606484015260848301906116c3565b03815f865af15f91816124f4575b506124bf57503d156124b8573d612480816117e3565b9061248e60405192836117c1565b81523d5f602083013e5b805190816124b35782633250574960e11b5f5260045260245ffd5b602001fd5b6060612498565b6001600160e01b0319630a85bd0160e11b9116036124e257505f8080808061240e565b633250574960e11b5f5260045260245ffd5b61250e91925060203d6020116112635761125581836117c1565b905f61246a565b906020906040519061252783836117c1565b5f82526001600160a01b0384169384156107a9576001600160a01b0361254d8383612039565b16612642573b61255e575b50505050565b9161259b91819495936040519384928392630a85bd0160e11b84523360048501525f602485015260448401526080606484015260848301906116c3565b03815f885af15f9181612623575b506125fe5750503d156125f6573d906125c1826117e3565b916125cf60405193846117c1565b82523d5f8284013e5b815191826125f35783633250574960e11b5f5260045260245ffd5b01fd5b6060906125d8565b630a85bd0160e11b919392506001600160e01b031916036124e257505f808080612558565b61263b919250843d86116112635761125581836117c1565b905f6125a9565b7f73c6ac6e000000000000000000000000000000000000000000000000000000005f525f60045260245ffd5b906001600160a01b031690811515806126da575b1561268c57505050565b6001600160a01b03166126ac5750637e27328960e01b5f5260045260245ffd5b7f177e802f000000000000000000000000000000000000000000000000000000005f5260045260245260445ffd5b506001600160a01b038116828114908115612714575b50806126825750825f526004602052816001600160a01b0360405f20541614612682565b90505f52600560205260405f20825f5260205260ff60405f2054165f6126f0565b6001600160a01b037f000000000000000000000000000000000000000000000000000000000000000016301480612828575b15612790577f000000000000000000000000000000000000000000000000000000000000000090565b60405160208101907f8b73c3c69bb8fe3d512ecc4cf759cc79239f7b179b0ffacaa9a75d522b39400f82527f000000000000000000000000000000000000000000000000000000000000000060408201527f000000000000000000000000000000000000000000000000000000000000000060608201524660808201523060a082015260a0815261282260c0826117c1565b51902090565b507f00000000000000000000000000000000000000000000000000000000000000004614612767565b81519190604183036128815761287a9250602082015190606060408401519301515f1a906129f3565b9192909190565b50505f9160029190565b6004811015612936578061289d575050565b600181036128cd577ff645eedf000000000000000000000000000000000000000000000000000000005f5260045ffd5b6002810361290157507ffce698f7000000000000000000000000000000000000000000000000000000005f5260045260245ffd5b60031461290b5750565b7fd78bce0c000000000000000000000000000000000000000000000000000000005f5260045260245ffd5b634e487b7160e01b5f52602160045260245ffd5b60ff81146129a95760ff811690601f8211612981576040519161296e6040846117c1565b6020808452838101919036833783525290565b7fb3512b0c000000000000000000000000000000000000000000000000000000005f5260045ffd5b506040516118508161056f81600761188b565b60ff81146129e05760ff811690601f8211612981576040519161296e6040846117c1565b506040516118508161056f81600861188b565b91907f7fffffffffffffffffffffffffffffff5d576e7357a4501ddfe92f46681b20a08411612a75579160209360809260ff5f9560405194855216868401526040830152606082015282805260015afa15612a6a575f516001600160a01b03811615612a6057905f905f90565b505f906001905f90565b6040513d5f823e3d90fd5b5050505f916003919056fea26469706673582212200b6ab838db360c3d2daa84b0cc0d67fa2aed4340cea67af37836d50c0d627fd664736f6c634300081c0033",
  "linkReferences": {},
  "deployedLinkReferences": {},
  "immutableReferences": {
    "5340": [
      {
        "length": 32,
        "start": 10094
      }
    ],
    "5342": [
      {
        "length": 32,
        "start": 10283
      }
    ],
    "5344": [
      {
        "length": 32,
        "start": 10047
      }
    ],
    "5346": [
      {
        "length": 32,
        "start": 10173
      }
    ],
    "5348": [
      {
        "length": 32,
        "start": 10211
      }
    ],
    "5351": [
      {
        "length": 32,
        "start": 2859
      }
    ],
    "5354": [
      {
        "length": 32,
        "start": 2900
      }
    ]
  },
  "inputSourceName": "project/contracts/IdentityRegistry.sol",
  "buildInfoId": "solc-0_8_28-49eabb11547eb5bf2afd889a09b13931499a5bd3"
}